:100000000C9423010C9440010C9440010C94400189
:100010000C9440010C9440010C9440010C9440015C
:100020000C9440010C9440010C9440010C9440014C
:100030000C9440010C9440010C9440010C9440013C
:100040000C9440010C9440010C9440010C9440012C
:100050000C9436040C9440010C9440010C94400123
:100060000C9440010C9443030C9440010C94400107
:100070000C9440010C9440010C9440010C944001FC
:100080000C9440010C9440010C9440010C944001EC
:100090000C9440010C9440010C9440010C944001DC
:1000A0000C9440010C9440010C9440010C944001CC
:1000B0000C9440010C9440010C948F070C94330C69
:1000C0000C9440010C946B0C0C9440010C94400176
:1000D0000C9440010C9440010C9440010C9440019C
:1000E0000C9440010C9440010C9440010C9440018C
:1000F0000C9440010C9440010C9440010C9440017C
:100100000C9440010C9440010C9440010C9440016B
:100110000C9440010C9440010C9440010C9440015B
:100120000C9440010C9440010C9440010C9440014B
:100130000C9440010C9440010C9440010C9440013B
:100140000C9440010C9440010C9440010C9440012B
:100150000C9440010C9440010C9440010C9440011B
:100160000C9440010C9440010C9440010C941B032E
:100170000C9440010C9440014A12BE15BE15BE15E8
:10018000BE15BE15BE15BE15BE15BE15BE15BE15D7
:10019000BE15BE15BE15BE15BE15BE15BE15BE15C7
:1001A000BE15BE15BE15BE15BE15BE15BE153C133B
:1001B000BE151A13BE155A15FC0F1D10AC14BE1532
:1001C000BE15BE15AF12BE15BB10A810BE153B1054
:1001D000BE15BE1592105A13570F57125E124410D7
:1001E000BE154C1007155510BE15CD14BE15BE1505
:1001F000BE15BE15BE15BE15BE152E10BE15FC13C0
:10020000BE15BE150613BE15F011BE15BE15BE15E2
:10021000BE15BE15BE158013BE1568157712911553
:100220004514BE15D014808C98A5B0BCC6D0DAE2B7
:10023000EAF0F5FAFDFEFFFEFDFAF5F0EAE2DAD0AB
:10024000C6BCB0A5988C11241FBECFEFD7E2DEBF8D
:10025000CDBF10E2A0E0B0E2EAE3FCE202C005900C
:100260000D92A830B107D9F714E2A8E0B0E201C0BE
:100270001D92A138B107E1F70E941E0F0C941B16C6
:100280000C94000080915000826080935000809117
:10029000510081FFFCCF88ED84BF809140008160D8
:1002A000809340000895A0E0B9E084E08C9383E758
:1002B00011968C9311978FEF9FEFD6968D939C9309
:1002C000D797E0E6F6E08181876081838FEFD9964A
:1002D0008C93D997DB968C9380933D0908958095F4
:1002E000E0E0F9E081AF409543AF609560933D0950
:1002F0000895E0E6F6E080E8818380E48283E0EB25
:10030000F9E083E08583E0938D20F0938E201092B6
:10031000902110928F2183818F7C80628383A0EA59
:10032000B0E012968C911297826012968C9383E8BB
:10033000868380ED87838481806184838481886063
:1003400084830895E0E4F6E028E0218324E022831A
:10035000E0EAF8E023E0258325812F732583E093ED
:100360007A23F0937B2310927D2410927C242381A6
:100370002F7C20622383A0EAB0E012962C91129782
:10038000226012962C9386836295607F892F990F45
:10039000990B682B67838481806184838481886062
:1003A000848380917C2480937D240895982FA0EAF3
:1003B000B8E08091A4088F7E14968C931497809156
:1003C000A408877F14968C931497E0E4F6E084E009
:1003D000828388E081839923A1F4809152068F7BE8
:1003E000828B809153068F7B838B8091A5088F73BE
:1003F00015968C93159783E816968C93169780ED37
:100400001AC09130D1F4809152068064828B809121
:1004100053068064838B1092F8081092F90880913B
:10042000A5088F73806815968C9315978DE31696A3
:100430008C93169783EE17968C93E0EAF8E0809100
:10044000A408806184838091A4088860848380915B
:100450007C2480937D24089520917C2420937D2406
:10046000E0EAF8E086836295607F892F990F990B07
:10047000682B67830895FC01818185FFFDCF608330
:100480000895FC0128EE33E021503040818187FD42
:1004900004C021153105C1F704C0232B11F0808160
:1004A000089580E0089590918F2180919021981770
:1004B000D1F3E0919021F0E0E357FF4D82819091DC
:1004C00090219F5F90939021089520E030E040E4D8
:1004D0005FE105C02F5F3F4FCA010197F1F790918F
:1004E0008F2180919021981729F481E0243F3807CB
:1004F00089F711C0245F314074F4E0919021F0E05D
:10050000E357FF4D9281809190218F5F80939021DE
:10051000292F30E002C020E031E0C901089511C068
:10052000E0917D24F0E0E658FC4D928180917D249D
:100530008F5F80937D248091B10985FFFCCF9093DC
:10054000B00990917C2480917D24981749F711C0BF
:10055000E0919021F0E0E357FF4D9281809190214E
:100560008F5F809390218091A10885FFFCCF9093AD
:10057000A00890918F2180919021981711F3E8CFD6
:10058000FC0160837183ED5FFE4F1082129208952B
:10059000FC01EE5FFE4F9191808120E0981321E0F5
:1005A000822F0895FC01EE5FFE4F81919081891B9F
:1005B00090E00895FC01DC01AD5FBE4F8C91E80F27
:1005C000F11D82819C919F5F9C930895CF93DF934F
:1005D000DC01EC01CE5FDE4F98819F5FAD5FBE4FC7
:1005E0008C91A350B140ED91FC911197E081981747
:1005F00011F480E007C08881A80FB11D1296EC931A
:10060000988381E0DF91CF9108958091B10985FFB2
:10061000FCCF85E48093B0098091B10985FFFCCFC0
:1006200082E58093B0098091B10985FFFCCF82E516
:100630008093B00908951F920F920FB60F92112464
:100640002F938F939F93EF93FF9390918F219F5FB1
:1006500080919021E0918D20F0918E20208198173B
:1006600041F0E0918F21F0E0E357FF4D228390931A
:100670008F21FF91EF919F918F912F910F900FBE3E
:100680000F901F9018951F920F920FB60F92112482
:100690002F938F939F93EF93FF9390917C249F5F71
:1006A00080917D24E0917A23F0917B23208198171B
:1006B00041F0E0917C24F0E0E658FC4D22839093D9
:1006C0007C24FF91EF919F918F912F910F900FBEFE
:1006D0000F901F901895AAECB1E092E09C93E82F40
:1006E000F0E0E4911C928E2F0895CF93DF938AEC73
:1006F00091E022E0DC012C93E0E2F0E0E4911C9236
:10070000A0E0B2E01C96EC931C97EC012883E1E298
:10071000F0E0E49118821D96EC931D9711968C9150
:100720001197897E846011968C93119714968C9101
:100730001497876014968C93149712968C91129745
:10074000806312968C93129728E232E0F90180813F
:10075000807E8083E0E3F2E08081807E8160808320
:10076000E901198288E3818312968C911297816046
:1007700012968C9312978C9181608C9380E49FE108
:100780000197F1F7DF91CF910895E0E3F2E08183E3
:10079000809130028068E0E0F2E080AB809133022B
:1007A00080FD04C08091060282FFF8CF81E0E0E086
:1007B000F2E083AB8091340290E0089580912802AA
:1007C0008068E0E0F2E080A780912B0280FFFCCF00
:1007D00081E0E0E0F2E083A780912C0290E00895B0
:1007E000F894E0E0F8E086A197A19695879580A718
:1007F00091A778940895F894E0E0F8E086A197A195
:1008000080A791A778940895F894E0E0F8E010A606
:1008100011A678940895F894E0E0F8E086AB97ABE1
:1008200078940895109252231092532310927F24AB
:100830001092802410927E24F894E0E4F8E010A254
:1008400011A2789483E0E0E4F8E08683E0EAF0E047
:100850008281846082830895E0E4F8E01682F8944F
:10086000E0E0F8E010A611A6789408951F920F9288
:100870000FB60F9211242F933F934F935F936F9373
:100880007F938F939F93AF93BF93EF93FF93809149
:100890007F2490918024019759F4F894E0E0F8E0E7
:1008A00010A611A6789410927F241092802408C07C
:1008B0000E94F00381E090E080937F249093802455
:1008C00040917E248091C721481798F180917F2420
:1008D00090918024892B21F08091C621833049F5A5
:1008E0008091C621833031F4F894E0E0F8E010A65E
:1008F00011A678948091912290919222892B51F4A3
:10090000E0E4F8E01682F894E0E0F8E010A611A622
:100910007894D5C0109252231092532310927F24C2
:100920001092802410927E2480918F2290919022A8
:1009300043C020915223309153238091A52190E010
:100940002817390794F4F901EE0FFF1FED55FE4DFE
:1009500083819481E0E4F8E086A397A32F5F3F4F63
:100960002093522330935323AAC08091C621882319
:1009700041F0813031F580917F249091802401975E
:10098000B9F4E42FE695E695E695F0E0ED55FE4DD9
:1009900024A530E0842F90E080959095877090702A
:1009A00002C0359527958A95E2F720FF4DC051C0CA
:1009B0008091CD219091CE21E0E4F8E086A397A329
:1009C0007EC0823011F580917F2490918024892B04
:1009D000B9F4E42FE695E695E695F0E0ED55FE4D89
:1009E00024A530E0842F90E08095909587709070DA
:1009F00002C0359527958A95E2F720FF49C043C08C
:100A00008091CD219091CE2128C0833009F045C03E
:100A100080917F2490918024E42FE695E695E695D9
:100A2000242F30E0892BF9F4F0E0ED55FE4D84A53C
:100A300090E0209530952770307002C0959587958D
:100A40002A95E2F780FF05C08091CB219091CC21BF
:100A500004C08091C9219091CA21E0E4F8E086A306
:100A600097A34F5F2AC0F0E0ED55FE4D84A590E0BE
:100A7000209530952770307002C0959587952A95FE
:100A8000E2F780FF05C08091C9219091CA2194CFDF
:100A90008091CB219091CC218FCF843081F4E42FB1
:100AA000F0E0ED55FE4D25A594A580E0820F911D47
:100AB000E0E4F8E086A397A34E5F40937E24FF9185
:100AC000EF91BF91AF919F918F917F916F915F91C6
:100AD0004F913F912F910F900FBE0F901F9018953F
:100AE00082E0E0E4F6E0868384E690E020E233E012
:100AF000F9013197F1F70197D9F782E0E0E4F6E0E8
:100B000085830895FF920F931F9382E0E0E4F6E05F
:100B1000818300E616E060E2F62EF801F1820E9481
:100B20007005F801F6820E9479011F910F91FF90E4
:100B30000895DC01FB016D937C9311974863418319
:100B4000ED91FC9111972583ED91FC9181E08483D7
:100B500008950F93CF93DF93DC01722F253008F0B7
:100B600044C0053008F041C01F968C911F97882320
:100B7000E1F581E01F968C931F9750961C92509739
:100B8000660F12966C931297EA0120E030E007C0DE
:100B90008991FD01E20FF31F83832F5F3F4F2717DA
:100BA000B8F31B967C931B971C960C931C971D9671
:100BB0001C921D971E961C921E971B968C911B973C
:100BC000882329F012968C9112978E7F09C01C966B
:100BD0008C911C97882339F012968C911297816022
:100BE000ED91FC91868381E001C080E0DF91CF919F
:100BF0000F910895DC01ED91FC911197948192FF82
:100C000002C084E001C083E050968C935097ED9130
:100C1000FC911197986094831F961C920895CF932E
:100C2000DF93DC011B969C911B971C962C911C97C3
:100C3000CD91DC9111978C8184FF04C083E08B837C
:100C400085E021C01D968C911D97891778F41D961B
:100C50008C911D97FD01E80FF11D83818F831D96F7
:100C60008C911D978F5F1D968C9312C01E968C9150
:100C70001E97821728F412968C9181608E8308C08B
:100C800083E08B8381E050968C9350971F961C9243
:100C9000DF91CF910895DC011E968C911E97ED9106
:100CA000FC911197843080F497811E968C911E9749
:100CB000FD01E80FF11D97831E968C911E978F5FA3
:100CC0001E968C931E9709C083E0838382E0509622
:100CD0008C9350971F961C921F971C969C911C9763
:100CE0001E968C911E97ED91FC911197891718F41F
:100CF00082E08383089587E0838381E050968C931C
:100D000050971F961C920895DC01ED91FC9111976C
:100D10004481242F30E0C9018C709070892B21F020
:100D2000CD010E94FA05089546FF04C0CD010E943E
:100D30000F06089547FF04C0CD010E944B06089599
:100D400086E050968C9350971F961C920895FC0154
:100D5000608B178608956091912170919221809106
:100D6000932190919421089580916423813019F00A
:100D700020E030E009C08091632390E0811191E090
:100D800081E09827292F30E0C90108950F93DF9360
:100D9000CF930F92CDB7DEB7198284E593E26CE46E
:100DA000AE014F5F5F4F21E004E00E94A9058091F2
:100DB00063238823E1F780915B23809391218091C5
:100DC0005C238093922180915D2380939321809175
:100DD0005E2380939421109264230F90CF91DF9132
:100DE0000F9108950F93DF93CF9300D0CDB7DEB767
:100DF000F894E0EAF4E0E0935423F093552388E775
:100E000081838BE9858381E084838091A200816066
:100E1000E0EAF0E08283789487E0898380E58A8342
:100E200084E593E26CE4AE014F5F5F4F22E000E0A7
:100E30000E94A905809163238823E1F785E08983D7
:100E40001A8284E593E26CE4AE014F5F5F4F22E0CB
:100E500000E00E94A905809163238823E1F786E0E2
:100E6000898384EE8A8384E593E26CE4AE014F5F6C
:100E70005F4F22E000E00E94A90580916323882350
:100E8000E1F788E0898380EE8A8384E593E26CE46D
:100E9000AE014F5F5F4F22E000E00E94A905809104
:100EA00063238823E1F789E0898388E08A8384E5E6
:100EB00093E26CE4AE014F5F5F4F22E000E00E94DE
:100EC000A905809163238823E1F78AE0898380E183
:100ED0008A8384E593E26CE4AE014F5F5F4F22E0CA
:100EE00000E00E94A905809163238823E1F787E051
:100EF000898381E58A8384E593E26CE4AE014F5FE8
:100F00005F4F22E000E00E94A905809163238823BF
:100F1000E1F70F900F90CF91DF910F9108951F92FD
:100F20000F920FB60F9211242F933F934F935F931D
:100F30006F937F938F939F93AF93BF93EF93FF93A1
:100F400084E593E20E948406FF91EF91BF91AF91F7
:100F50009F918F917F916F915F914F913F912F91D1
:100F60000F900FBE0F901F901895E0E2F3E080E421
:100F7000818389E0828382E5848381E080932003FA
:100F8000809120038460809320038091250380FF5B
:100F9000FCCFE0E2F3E0118E809120038860809323
:100FA00020038091250381FFFCCFE0E2F3E0138E64
:100FB0000895982F8091200384608093200380916E
:100FC000250380FFFCCFE0E2F3E0918F0895982F96
:100FD000809120038860809320038091250381FF06
:100FE000FCCFE0E2F3E0938F0895EF92FF920F932E
:100FF0001F93CF93DF937C01122F613781F4FC01A3
:1010000080E002C011938F5F8417E0F305C0F70101
:10101000E40FF11D10824F5F4034C8F33BC06337CB
:10102000C9F4C0E0D0E0FE01EA5DFD4FE491970114
:101030002C0F3D1FE19FC00111246FEF70E00E9453
:10104000D215F90160832196C032D10561F7F7010D
:1010500090E218C0622F70E020E030E040E050E005
:10106000F701E20FF31FCA01A5E096958795AA95AF
:10107000E1F780832F5F3F4F460F571F2032310526
:1010800079F7E5CF8081212F281B20A39F5F319620
:101090009034C1F70023D1F081E090E002C0880FC6
:1010A000991F0A95E2F7482F982F30E020E0D701EA
:1010B000A30FB11DF701E20FF11D80818C933F5FFB
:1010C000240F940F892F841B803488F3DF91CF91F4
:1010D0001F910F91FF90EF9008950F931F93E0E4FD
:1010E000F9E051815F7E5183E0E6F6E05681506180
:1010F0005683F89400E213E050E5F801548359E078
:101100005283A0E0B1E050961C925097E0E4F9E0E1
:1011100016824F5F4083118226A337A310A211A22B
:1011200028EDE0E8F1E02183F80121812E7F218381
:1011300020812560208322E053962C93539720ED45
:1011400052962C93529770E054966D937C935597DA
:1011500058968C93589759969C9359975A961C92E7
:101160005A9789E35C968C935C9783E05D968C93A9
:101170005D975E961C925E9784EA50968C9350978A
:1011800080E88C9378941F910F9108950F931F938B
:10119000F894E0E0F8E010A611A67894F89400E244
:1011A00013E050E5F801548359E05283A0E0B1E028
:1011B00090961C929097E0E4F8E016824F5F40838F
:1011C000118226A337A310A211A228ECE0E8F1E0D7
:1011D0002283F80121812D7F2183208129602083B2
:1011E00033E093963C93939720ED92962C939297AD
:1011F00070E094966D937C93959798968C939897BE
:1012000099969C9399979A961C929A978BE39C96A1
:101210008C939C979D963C939D979E961C929E972F
:1012200084EA90968C93909780E88C9378941F91A1
:101230000F9108952F923F924F925F926F927F92FB
:101240008F929F92AF92BF92CF92DF92EF92FF92D6
:101250000F931F93DF93CF9300D00F92CDB7DEB7DC
:1012600089831B01C42E2801390180E090E28A8322
:101270009B83DD24842E9924AA24BB2460E078E497
:1012800088EE91E0EA81FB81008004C09695879505
:10129000779567950A94D2F7A50194010E94F915F4
:1012A000CA01B901A30192010E94F91579018A01CD
:1012B000D801C7014097A109B1098F5E9F4FA04097
:1012C000B04090F42981222339F4C1016C2D4D2DB9
:1012D00097010E946D0806C0C1016C2D4D2D97012C
:1012E0000E94C60881E00BC0D3948A819B8101963D
:1012F0008A839B8397E0D91609F0C0CF80E02396BC
:10130000CDBFDEBFCF91DF911F910F91FF90EF9086
:10131000DF90CF90BF90AF909F908F907F906F9015
:101320005F904F903F902F900895E0E0F1E0108A99
:10133000E0E8F1E011828091200384608093200333
:101340008091250380FFFCCFE0E2F3E0118E089549
:101350000E949509E0E2F3E080818B7F808308950D
:10136000E0E0F1E010A2E0E8F1E0128280912003D9
:101370008860809320038091250381FFFCCFE0E209
:10138000F3E0138E0895882319F40E9495090895B7
:101390000E94B00908954F925F926F927F928F9250
:1013A0009F92AF92BF92CF92DF92EF92FF920F93F4
:1013B0001F93CF93DF93782EC62ED42E622E470133
:1013C000580181E7681779F480E2481729F435E07D
:1013D000F32E25E0E22E14C080E1481769F080E387
:1013E000481731F409C084E7681711F4FF2406C0D8
:1013F000FF2493E0E92E04C084E0F82E04E0E02E00
:10140000872D0E94C309C72DD0E016E0CC0FDD1F49
:101410001A95E1F7C35FDF4DB0E44B2E512C17C096
:10142000CE016C2D4D2D262D0F2D0E94F507A2010A
:101430000F2C02C0559547950A94E2F7872DBE01FF
:10144000950184010E941A09882329F4F394EF146A
:1014500038F70E940503DF91CF911F910F91FF9004
:10146000EF90DF90CF90BF90AF909F908F907F9044
:101470006F905F904F9008950E94B009E0E2F3E012
:101480008081877F808308950E94B009E0E0F8E0C2
:1014900021E0208383E1818389E493E086AB97ABED
:1014A000E0E4F6E02183E0E4F8E085E08083168262
:1014B00008950E949509E0E4F9E086E0808381E0E8
:1014C0008183E0E6F6E081818061818386818061AD
:1014D000868308950F931F93182F092F0E94950953
:1014E000E0E4F9E086E0808381E0818381818061AE
:1014F0008183F894812F902FE0E4F9E080A791A7F1
:1015000078941F910F910895E0E4F9E081818F7E36
:101510008183E0E6F6E08681806186830895E0E0DD
:10152000FAE081E0808383E0818313828091082048
:101530009091092086AB97AB0895E0E0FAE08181B5
:101540008F7B81830895E0E0FAE081818F7781834A
:101550000895A0E0BAE011962C911197206411969D
:101560002C93119724E0E0E8F6E021839C968D937C
:101570009C939D970895A0E0BAE011962C91119745
:10158000206811962C93119728E0E0E8F6E021837B
:101590009E968D939C939F9708951F93162F843347
:1015A00069F1853370F48133F9F0823320F48033AC
:1015B00009F04FC015C08233D9F0833309F049C018
:1015C0001AC0873341F1883330F48533D9F086333C
:1015D00009F03FC01BC0883319F18933D1F52AC007
:1015E000E0E0F6E081E02FC0E0E0F6E082E02BC032
:1015F000E0E0F6E01DC0E0E0F6E024C0E0E0F6E068
:1016000080E121C0E0E0F6E080E21DC00E94A80970
:10161000E0E2F6E00DC00E943C0AE0E2F6E012C013
:101620008091010A8F7BE0E0FAE08183E0E8F6E058
:1016300084E009C08091010A8F77E0E0FAE08183BD
:10164000E0E8F6E088E08183112311F0858301C092
:1016500086831F910895843309F442C0853360F472
:10166000813321F1823318F48033B1F417C082330F
:1016700049F1833389F42DC0873309F458C0883386
:1016800028F48533E1F1863339F448C0883309F40E
:101690005FC0893309F470C080ED089581E0E0E017
:1016A000F6E08283809108068170089582E0E0E090
:1016B000F6E082838091080690E0827090709595A4
:1016C0008795089584E0E0E0F6E082838091080643
:1016D0004BC088E0E0E0F6E08283809108062FC0EE
:1016E00080E1E0E0F6E082838091080690E080717E
:1016F0009070E4E095958795EA95E1F7089580E28A
:10170000E0E0F6E082838091080690E080729070BD
:1017100075E0959587957A95E1F708950E94A80957
:1017200084E0E0E2F6E08283809128061DC00E94FA
:101730003C0A88E0E0E2F6E082838091280690E0AF
:101740008870907063E0959587956A95E1F70895A4
:101750008091010A8F7BE0E0FAE0818384E0E0E899
:10176000F6E082838091880690E084709070959571
:1017700087959595879508958091010A8F77E0E088
:10178000FAE0818388E0E0E8F6E0828380918806D1
:1017900090E08870907043E0959587954A95E1F7C1
:1017A000089581E080930C20A0E0BAE085E08C935E
:1017B00090E111969C93119788E213968C9313975E
:1017C000E0E4F6E0928384898064848B84E68093ED
:1017D000800180E49FE1D6968D939C93D7971092D9
:1017E0000A2010920B2083E016968C93169717967A
:1017F0008C93E0EAF0E082818460828308950E9405
:10180000050310920C200895E0E0FAE0168217829A
:1018100010928001138211821082089580910A2013
:101820008530F0F090910A208091B10985FFFCCFBE
:1018300091509093B00992E00CC0E92FF0E0ED5682
:10184000FD4DE0818091B10985FFFCCFE093B009A7
:101850009F5F80910A20981780F310920C200895C2
:101860000E94FF0B08951F920F920FB60F92112442
:101870002F933F934F935F936F937F938F939F9398
:10188000AF93BF93EF93FF9380910A20882329F0B1
:101890000E94040C0E940E0C0DC080910B208F5FE3
:1018A00080930B2080910B208B3F20F00E94040C32
:1018B0000E94FF0BFF91EF91BF91AF919F918F918C
:1018C0007F916F915F914F913F912F910F900FBE3C
:1018D0000F901F9018951F920F920FB60F92112420
:1018E0002F933F934F935F936F937F938F939F9328
:1018F000AF93BF93EF93FF93E0E0FAE010A211A241
:1019000080910A20803C28F00E94040C0E94FF0B6A
:1019100039C0E0910A20F0E08091280AEC56FD4D94
:101920008083E0910A20F0E08091290A8F77ED56BC
:10193000FD4D8083E0910A20F0E0EC56FD4D808162
:10194000803450F4E0910A20F0E0ED56FD4D8081A6
:10195000882311F410920A2080910A20E0910A2035
:10196000F0E0ED56FD4DE081813138F0E13128F0B5
:101970000E94040C0E940E0C05C080910A208E5F0C
:1019800080930A20FF91EF91BF91AF919F918F912A
:101990007F916F915F914F913F912F910F900FBE6B
:1019A0000F901F901895EF92FF921F93CF93DF93A4
:1019B0000E9465029C01182F8091B10985FFFCCF20
:1019C0001093B009C0E0D0E079010894E108F10873
:1019D00015C00E94650221E08030920719F420E0D2
:1019E00030E014C0982F8091B10985FFFCCF90930F
:1019F000B009FE01ED55FE4D94A72196CE15DF05E9
:101A000044F311501093C72121E030E0C901DF9168
:101A1000CF911F91FF90EF900895982FE0ECF1E0A7
:101A20008091CF0187FDFACF262F30E02F713070E3
:101A3000892F90E0A5E0880F991FAA95E1F7282B40
:101A4000392B2093C001832F8F718183128286E00E
:101A50008287EF93FF930F932F93EBECF1E008ED68
:101A600021E004BF20832F910F91FF91EF9180918E
:101A7000C4010895AF92BF92CF92DF92EF92FF928E
:101A80000F931F93CF93DF939C01220F331F280FD7
:101A9000391F220F331FC22E822F60E00E940D0DCE
:101AA000282F90E07C0115E0F594E7941A95E1F772
:101AB000BFE1AB2EB12CA822B9228091B10985FFDC
:101AC000FCCF2093B009C1E0D0E000E010E015C0E9
:101AD000DC2CD00E8D2D6C2F0E940D0D982F809137
:101AE000B10985FFFCCF9093B0092196C032D10592
:101AF0008CF30F5F1F4FC0E0D0E00E151F0544F3BD
:101B00000DC0812F6C2F0E940D0D982F8091B1096F
:101B100085FFFCCF9093B009219602C01C2D1E0DAD
:101B2000CA15DB0574F3DF91CF911F910F91FF90E0
:101B3000EF90DF90CF90BF90AF9008955F926F923B
:101B40007F928F929F92AF92BF92CF92DF92EF924D
:101B5000FF920F931F93CF93DF939C01220F331FAC
:101B6000280F391F220F331F522E822F60E00E9450
:101B70000D0DB82E90E04C0175E0959487947A9500
:101B8000E1F76FE1662E712C68227922EE24FF24A2
:101B9000C1E0D0E000E010E012C08A2D6C2F0E945E
:101BA0000D0DF60181936F010894E11CF11C219643
:101BB000C032D10594F30F5F1F4FC0E0D0E0C701E2
:101BC0008C960815190534F08C010D551E4DF52C19
:101BD000F80C11C053EAC52E51E2D52EC80ED91EFD
:101BE000A52CA00EDACF8F2D6C2F0E940D0DF801C1
:101BF00081938F012196C615D705ACF3BA94B092A4
:101C0000C721DF91CF911F910F91FF90EF90DF904F
:101C1000CF90BF90AF909F908F907F906F905F908C
:101C200008958091CF0187FDFCCF08958091CF0169
:101C300087FDFCCF8091CF0181FF12C086E3E0ECED
:101C4000F1E08287EF93FF930F932F93EBECF1E09A
:101C500008ED21E004BF20832F910F91FF91EF91B8
:101C60000895DF92EF92FF920F931F93E82E062FB5
:101C7000D42E0E94160EE0ECF1E083E3828710E0A0
:101C80000F711070FF24A5E0EE0CFF1CAA95E1F780
:101C90000E291F290083812F8F7181831282D482A4
:101CA00085E38287EF93FF930F932F93EBECF1E0A3
:101CB00008ED21E004BF20832F910F91FF91EF9158
:101CC0001F910F91FF90EF90DF9008958F929F9258
:101CD000AF92BF92CF92DF92EF92FF920F931F933A
:101CE000CF93DF939C0180910A2090E0019760E2FE
:101CF00070E00E94E6156B0180910A2090E0019748
:101D000060E270E00E94E6155C01C901880F991F2E
:101D1000820F931F880F991F882E40910A204150EF
:101D200060E00E94310EB2E0EB2EF12CC1E0D0E079
:101D300000E010E015C0982C900EF701ED56FD4D17
:101D40004081892D6C2F0E94310E0894E11CF11CFA
:101D50002196C032D1058CF30F5F1F4FC0E0D0E059
:101D60000C151D0544F30DC0F701ED56FD4D4081E6
:101D7000812F6C2F0E94310E0894E11CF11C2196DA
:101D800002C0182D1C0DCA15DB0574F3DF91CF912D
:101D90001F910F91FF90EF90DF90CF90BF90AF9089
:101DA0009F908F9008950F931F93CF93DF93062FEB
:101DB000EC0110E013C00E94650221E08030920720
:101DC00021F40E94050300E00BC0982F8091B10917
:101DD00085FFFCCF9093B00999931F5F101758F3BC
:101DE000802FDF91CF911F910F910895682F85E685
:101DF00093E20E94D30E0895E5E6F3E2E80FF11DA9
:101E0000228130E040E050E0808190E0A0E0B0E04E
:101E1000DC0199278827282B392B4A2B5B2B8181C2
:101E200090E0A0E0B0E0BA2FA92F982F8827282BA8
:101E3000392B4A2B5B2BB901CA0108952F923F928F
:101E40004F925F926F927F928F929F92AF92BF92CA
:101E5000CF92DF92EF92FF920F931F93DF93CF9376
:101E6000CDB7DEB72897CDBFDEBF0E9442010E94EA
:101E700053010E9475030E94440A0E9482050E9439
:101E8000B5070E94590A0E94F20683E890E06DEFC0
:101E90000E94A2018091CC01877FE0ECF1E0848771
:101EA0007894CC24DD24A0EA8A2EA8E09A2E2FEF85
:101EB0002093390920933B0920933D09109246084D
:101EC000F8941092280810922908789410E08091D4
:101ED000B10985FFFCCF32E43093B0098091B1099C
:101EE00085FFFCCF4CE44093B00990918F21809105
:101EF00090219817D1F1E0919021F0E0E357FF4D48
:101F00001281809190218F5F80939021103889F405
:101F100080917C2480937D2427E8F401268330EE91
:101F200037838091A10885FFFCCF40E84093A0084B
:101F300011C0112391F480917C2480937D2427E8A3
:101F4000F401268330EE37838091A10885FFFCCF12
:101F50001092A0080E948F0208C08091B10985FFED
:101F6000FCCF1093B0091A3259F088E893E1E0E20F
:101F7000F3E03197F1F70197D1F71A3209F0A7CFC3
:101F800080E090E0A0E0B0E0612CFAE07F2E9C01C0
:101F9000AD012F5F3F4F4F4F5F4F29833A834B83F4
:101FA0005C8390918F2180919021981709F4EBC563
:101FB000E0919021F0E0E357FF4D928180919021D4
:101FC0008F5F80939021992309F4DDC58091B10939
:101FD00085FFFCCF9093B009892F90E0FC01B19769
:101FE000E735F10508F0CAC5E454FF4FEE0FFF1FB7
:101FF0000590F491E02D09940E94C60690919121DC
:102000008091B10985FFFCCF9093B0099091922106
:102010008091B10985FFFCCF9093B00990919321F5
:102020008091B10985FFFCCF9093B00990919421E4
:102030008091B10985FFFCCF72C082E00E94F60E4C
:10204000882309F49BC53090652322248091662360
:1020500090E0822993290E946A0A90C580914109E3
:102060008F7EE0E4F9E08183809166068061E0E69E
:10207000F6E0868383C580E30E94C503982F809194
:10208000B10985FFFCCF4BC00E94DE03982F8091E1
:10209000B10985FFFCCF43C088E30E94C503982F98
:1020A0008091B10985FFFCCF3AC080E00E94C50352
:1020B000982F8091B10985FFFCCF9093B00988E0FB
:1020C0000E94C503982F8091B10985FFFCCF9093A2
:1020D000B00980E10E94C503982F8091B10985FF66
:1020E000FCCF9093B00988E10E94C503982F80919E
:1020F000B10985FFFCCF9093B00980E20E94C5032F
:10210000982F8091B10985FFFCCF9093B00980E2B0
:102110000E94C503982F8091B10985FFFCCF909351
:10212000B0092CC583E00E94F60E882309F426C569
:1021300080916523809580933909809167238095EC
:1021400080933B0980916623809580933D0916C555
:102150000E9465029C01C097029708F0F9C4922F73
:102160008091B10985FFFCCF9093B009892F8053EE
:102170000E94D60103C50E94440A0E9465028C0198
:102180007C0131E08030930709F4E2C48091B10909
:1021900085FFFCCF0093B0090E9465029C016C0191
:1021A00041E08030940709F4D3C48091B10985FFE0
:1021B000FCCF2093B009902F8827820F931F809324
:1021C000A3219093A421F894809336089093370824
:1021D00078940E9465026C0151E08030950709F403
:1021E000B7C4982FC092A5218091B10985FFFCCF7B
:1021F0009093B009913138F476EAA72E71E2B72EA8
:102200001F82188635C08091B10985FFFCCF62E539
:102210006093B009B3C40E946502182F7C0180E06E
:10222000E81681E0F80609F493C48091B10985FFAE
:10223000FCCF1093B0090E9465029C016C0191E0F3
:102240002030390709F484C48091B10985FFFCCF9F
:102250002093B009512E4424240D351DF5012193FE
:1022600031935F012F8138852F5F3F4F2F83388750
:102270008091A52190E04F815885481759075CF25D
:1022800050E0E51651E0F50609F478C460E0C616A2
:1022900061E0D60609F472C40E9465026C0180E018
:1022A000C81681E0D80609F453C49C2DC092C621FB
:1022B0008091B10985FFFCCF9093B0090E9465021F
:1022C0006C0190E0C91691E0D90609F441C42C2DA7
:1022D0008091B10985FFFCCF2093B0092093C721DD
:1022E000822F90E0019768E070E00E94E6156F5F32
:1022F0006093C8218091B10985FFFCCF2093B0097C
:102300000E9465028C01E1E080309E0709F420C440
:102310008091B10985FFFCCF0093B0090E9465024E
:102320009C016C01F1E080309F0709F411C4809199
:10233000B10985FFFCCF2093B009902F8827280F83
:10234000391F2093C9213093CA210E9465028C0154
:1023500021E08030920709F4FBC38091B10985FF29
:10236000FCCF0093B0090E9465029C016C0141E022
:102370008030940709F4ECC38091B10985FFFCCF4C
:102380002093B009902F8827280F391F2093CB2145
:102390003093CC210E9465028C0151E0803095077A
:1023A00009F4D6C38091B10985FFFCCF0093B00931
:1023B0000E9465029C016C0161E08030960709F47F
:1023C000C7C38091B10985FFFCCF2093B009902F3E
:1023D0008827280F391F2093CD213093CE21CEC3DB
:1023E0000E94440A00E010E016C00E9465026C01E1
:1023F00080E0C81681E0D80609F4AAC39C2DF80134
:10240000ED55FE4DC4A68091B10985FFFCCF909398
:10241000B0090F5F1F4F8091C82190E0081719077E
:1024200024F390E0C91691E0D90609F4A7C30E94ED
:1024300065028C01E1E080309E0709F489C3809138
:10244000B10985FFFCCF0093B0090E9465029C0191
:102450006C01F1E080309F0709F47AC38091B109E3
:1024600085FFFCCF2093B009902F8827820F931F00
:1024700080938F2290939022892B39F021E030E0D5
:102480002093912230939222BEC0109291221092FA
:102490009222B9C010929122109292221092460874
:1024A000F8941092280810922908789467C30E9423
:1024B000D10B80910C208823E1F760C30E94650254
:1024C000982F9053953008F043C380910A208530AF
:1024D00008F43EC38091B10985FFFCCF905D9093D5
:1024E000B0099053892F90E00E94660E47C30E9466
:1024F000D30C892B09F42CC30E9465028C0131E0B6
:102500008030930709F424C38091B10985FFFCCF83
:102510000093B0090E9465029C016C0141E080308B
:10252000940709F415C38091B10985FFFCCF20936E
:10253000B009902F8827820F931F80938F2290934A
:102540009022892B39F081E090E080939122909342
:1025500092224EC0109291221092922249C00E9463
:10256000650210EDF12EF80E24E02F1508F4F0C2EC
:102570008091B10985FFFCCF30E3F30EF092B009F2
:1025800040EDF40E0E9465028C0151E08030950709
:1025900009F4DEC28091B10985FFFCCF0093B00938
:1025A0000E9465029C016C0161E08030960709F48D
:1025B000CFC28091B10985FFFCCF2093B009902F45
:1025C0008827820F931F80938F2290939022892BCC
:1025D00039F081E090E0809391229093922204C0A0
:1025E00010929122109292228F2D90E00E949E0DC7
:1025F000E9E4F3E0E093A321F093A4211092A52154
:10260000F4E0F093C6210E941204B8C20E94650251
:10261000982F9053953008F09BC28091B10985FFA7
:10262000FCCF905D9093B0099053892F90E00E9469
:102630003A0DA4C20E94650241E08030940709F47B
:1026400087C2182F8091B10985FFFCCF1093B00984
:102650000E9465026C0151E08030950709F478C250
:10266000682F8091B10985FFFCCF6093B00960535A
:10267000812F0E94CD0A82C20E94650261E08030F3
:10268000960709F465C2982F8091B10985FFFCCFA8
:102690009093B009892F0E942B0BC82EDD2480E374
:1026A00090E0C80ED91E8091B10985FFFCCFC09281
:1026B000B00964C20E9465028C0191E000301907E4
:1026C00009F446C28091B10985FFFCCF0093B0099F
:1026D0000E9465029C016C01E1E080309E0709F4D4
:1026E00037C28091B10985FFFCCF2093B009902FAC
:1026F0008827280F391F20930820309309203EC2D5
:10270000F1E0F093000A83E0F3018183138280916A
:1027100008209091092086AB97AB0E9465029C012E
:10272000F1E080309F0709F413C28091B10985FF61
:10273000FCCF2093B0092033310569F50E94650272
:102740008C0121E08030920709F402C28091B10926
:1027500085FFFCCF0093B0090E9465029C016C01CB
:1027600041E08030940709F4F3C18091B10985FFFD
:10277000FCCF2093B009902F8827280F391F809114
:10278000010A8064F3018183F4E0F0938106F30190
:1027900024A735A7F3C12133310509F0EFC10E9409
:1027A00065028C01F1E080309F0709F4D1C180916E
:1027B000B10985FFFCCF0093B0090E9465029C011E
:1027C0006C0141E08030940709F4C2C18091B109E5
:1027D00085FFFCCF2093B009902F8827280F391F41
:1027E0008091010A8068F3018183F8E0F09381060B
:1027F000F30126A737A7C2C10E9465029C01F1E040
:1028000080309F0709F4A4C18091B10985FFFCCFF6
:102810002093B00920333105D1F40E94650241E0D4
:102820008030940709F494C1982F8091B10985FFF5
:10283000FCCF9093B00980912003846080932003A3
:102840008091250380FFFCCF9093390397C12133FA
:10285000310509F093C10E94650251E0803095076F
:1028600009F476C1982F8091B10985FFFCCF909330
:10287000B009809120038860809320038091250314
:1028800081FFFCCF90933B0379C10E9465028C01CC
:1028900061E08030960709F45BC18091B10985FF42
:1028A000FCCF0093B0090E9465029C016C0181E09D
:1028B0002030380709F44CC18091B10985FFFCCF65
:1028C0002093B009902F8827820F931FE3E388336A
:1028D0009E0731F1F3E389339F076CF421E38233E0
:1028E000920741F131E389339307B9F08153914362
:1028F00009F02EC11BC055E387339507A1F069E3AA
:102900008633960739F08853944309F021C12DEF9F
:102910003CE00EC02DE333E00FC029E333E008C0F4
:102920002CEC30E009C027E830E006C023E830E0B6
:102930004DEF03C027E03AE14EEF80917C24809375
:102940007D24F40126834295407F832F992787FDBC
:102950009A95482B478312C183E00E94F60E882384
:1029600009F40CC1F0916523FE831D8280916623DA
:1029700090E02D813E81822B932B30916723209113
:102980007C2420937D24F4018683892F990F990B51
:102990003295307F382B3783F1C00E948F02EEC012
:1029A00087E00E94F60E882309F4E8C02091652391
:1029B0002053223008F0CCC060916623613408F0C7
:1029C000C7C0E0906923FF2400E010E08701FF24E6
:1029D000EE2480916A2390E0A0E0B0E0BA2FA92F06
:1029E000982F8827E82AF92A0A2B1B2B80916B2322
:1029F00090E0A0E0B0E0E82AF92A0A2B1B2B822FF6
:102A000040916723209168230E94CB09B7C085E0DD
:102A10000E94F60E882309F4B1C090916523892F96
:102A20008053823008F094C060916623613408F0CE
:102A30008FC0662309F48CC0A92EBB2420ED3FEF84
:102A4000A20EB31E7501A6E0EE0CFF1CAA95E1F7DD
:102A50004DE050E2E40EF51EC7010E94D30E88231C
:102A600009F48CC08A2D0E94C3090091672310E0ED
:102A700020E030E09801112700278091682390E042
:102A8000A0E0B0E0BA2FA92F982F8827082B192B88
:102A90002A2B3B2B8091692390E0A0E0B0E0082B2B
:102AA000192B2A2B3B2B8A2DB701409166230E94BC
:102AB0001A0964C00E9465028033910519F40E94CE
:102AC00095095CC0C19709F043C00E94B00956C087
:102AD00080917C2490917D24891B282F8091B109BD
:102AE00085FFFCCF822F8F5F8093B009822F90E00B
:102AF0009C0113C0E0917D24F0E0E658FC4D9281EA
:102B000080917D248F5F80937D248091B10985FF22
:102B1000FCCF9093B009215030401216130654F3A5
:102B20002DC00E9465028C0151E08030950781F034
:102B30008091B10985FFFCCF0093B009EE24FF24FA
:102B40001AC00E9465026C0161E08030960719F49A
:102B50000E94050313C0982F8091B10985FFFCCF17
:102B60009093B0098091A10885FFFCCF9093A008B5
:102B70000894E11CF11CE016F10618F380E090E0E7
:102B8000A0E0B0E004C089819A81AB81BC81298139
:102B90003A814B815C8121583B45444052400CF0C6
:102BA00086C9F5C9AA1BBB1B51E107C0AA1FBB1FE1
:102BB000A617B70710F0A61BB70B881F991F5A95C9
:102BC000A9F780959095BC01CD01089597FB092E3A
:102BD00007260AD077FD04D0E5DF06D000201AF4DE
:102BE000709561957F4F0895F6F7909581959F4F69
:102BF0000895A1E21A2EAA1BBB1BFD010DC0AA1F3E
:102C0000BB1FEE1FFF1FA217B307E407F50720F055
:102C1000A21BB30BE40BF50B661F771F881F991FD0
:102C20001A9469F760957095809590959B01AC0119
:0A2C3000BD01CF010895F894FFCF15
:082C3A000001020306080A0074
:00000001FF
