:100000000C9424010C9441010C9441010C94410185
:100010000C9441010C9441010C9441010C94410158
:100020000C9441010C9441010C9441010C94410148
:100030000C9441010C9441010C9441010C94410138
:100040000C9441010C9441010C9441010C94410128
:100050000C94A0040C9441010C9441010C944101B6
:100060000C9441010C944A030C9441010C944101FD
:100070000C9441010C9441010C9441010C944101F8
:100080000C9441010C9441010C9441010C944101E8
:100090000C9441010C9441010C9441010C944101D8
:1000A0000C9441010C9441010C9441010C944101C8
:1000B0000C9441010C9441010C94F9070C94A90C87
:1000C0000C9441010C94E10C0C9441010C944101FD
:1000D0000C9441010C9441010C9441010C94410198
:1000E0000C9441010C9441010C9441010C94410188
:1000F0000C9441010C9441010C9441010C94410178
:100100000C9441010C9441010C9441010C94410167
:100110000C9441010C9441010C9441010C94410157
:100120000C9441010C9441010C9441010C94410147
:100130000C9441010C9441010C9441010C94410137
:100140000C9441010C9441010C9441010C94410127
:100150000C9441010C9441010C9441010C94410117
:100160000C9441010C9441010C9441010C94220324
:100170000C9441010C944101C01278157815781542
:100180007815781578157815781578157815781507
:1001900078157815781578157815781578157815F7
:1001A00078157815781578157815781578157013F1
:1001B00078155A1378152315611082107214BA102D
:1001C0007815781510137815AF11A31178159E10B6
:1001D000781578158F118613BE0FCD12D412A81082
:1001E0007815B010D014EF1078159614781578158E
:1001F0007815781578157815781593107815F51306
:100200004C117815501378157A12781578157815E1
:100210007815781578159F1378153015E51259154E
:100220001714781599143211808C98A5B0BCC6D0DB
:10023000DAE2EAF0F5FAFDFEFFFEFDFAF5F0EAE299
:10024000DAD0C6BCB0A5988C11241FBECFEFD7E280
:10025000DEBFCDBF10E2A0E0B0E2EEE4FCE202C0FF
:1002600005900D92AA30B107D9F714E2AAE0B0E2E6
:1002700001C01D92A538B107E1F70E94820F0C94CE
:1002800025160C94000080915000826080935000ED
:100290008091510081FFFCCF88ED84BF80914000A8
:1002A0008160809340000895A0E0B9E084E08C93E1
:1002B00083E711968C9311978FEF9FEFD6968D93CE
:1002C0009C93D797E0E6F6E08181876081838FEF8A
:1002D000D9968C93D997DB968C9380933D0908959A
:1002E0008095E0E0F9E081AF409543AF6095609381
:1002F0003D090895E0E6F6E080E8818380E48283AA
:10030000E0EBF9E083E08583E0939120F093922085
:10031000109294211092932183818F7C8062838339
:10032000A0EAB0E012968C911297826012968C939C
:1003300083E8868380ED87838481806184838481E0
:10034000886084830895E0E4F6E028E0218324E0D7
:100350002283E0EAF8E023E0258325812F732583BB
:10036000E0937E23F0937F231092812410928024C7
:1003700023812F7C20622383A0EAB0E012962C9187
:100380001297226012962C9386836295607F892F44
:10039000990F990B682B67838481806184838481A2
:1003A0008860848380918024809381240895982F8D
:1003B000A0EAB8E08091A4088F7E14968C931497DD
:1003C0008091A408877F14968C931497E0E4F6E05C
:1003D00084E0828388E081839923A1F4809152068E
:1003E0008F7B828B809153068F7B838B8091A508B6
:1003F0008F7315968C93159783E816968C931697A2
:1004000080ED1AC09130D1F4809152068064828BC5
:10041000809153068064838B1092F8081092F9083B
:100420008091A5088F73806815968C9315978DE33E
:1004300016968C93169783EE17968C93E0EAF8E065
:100440008091A408806184838091A408886084835B
:10045000809180248093812408952091802420938A
:100460008124E0EAF8E086836295607F892F990F06
:10047000990B682B67830895FC01818185FFFDCF6F
:1004800060830895FC0128EE33E0215030408181E3
:1004900087FD04C021153105C1F704C0232B11F0DD
:1004A0008081089580E00895909193218091942116
:1004B0009817D1F3E0919421F0E0EF56FF4D82813F
:1004C000909194219F5F90939421089520E030E0D3
:1004D00040E45FE105C02F5F3F4FCA010197F1F78C
:1004E0009091932180919421981729F481E0243FE1
:1004F000380789F717C0245F3140A4F4E0919421B4
:10050000F0E0EF56FF4D9281809194218F5F8093B0
:1005100094218091B10985FFFCCF292F30E0909381
:10052000B00902C020E031E0C901089511C0E09196
:100530008124F0E0E258FC4D9281809181248F5F0C
:10054000809381248091B10985FFFCCF9093B009FD
:100550009091802480918124981749F711C0E091EF
:100560009421F0E0EF56FF4D9281809194218F5FAE
:10057000809394218091A10885FFFCCF9093A008DF
:100580009091932180919421981711F3E8CFFC0169
:1005900060837183ED5FFE4F108212920895FC011B
:1005A000EE5FFE4F9191808120E0981321E0822F31
:1005B0000895FC01EE5FFE4F81919081891B90E0D0
:1005C0000895FC01DC01AD5FBE4F8C91E80FF11D79
:1005D00082819C919F5F9C930895CF93DF93DC0170
:1005E000EC01CE5FDE4F98819F5FAD5FBE4F8C9177
:1005F000A350B140ED91FC911197E081981711F44F
:1006000080E007C08881A80FB11D1296EC939883F3
:1006100081E0DF91CF9108958091B10985FFFCCFF2
:1006200085E48093B0098091B10985FFFCCF82E514
:100630008093B0098091B10985FFFCCF82E580935A
:10064000B00908951F920F920FB60F9211242F93A5
:100650008F939F93EF93FF93909193219F5F80914E
:100660009421E0919120F09192202081981741F0FF
:10067000E0919321F0E0EF56FF4D22839093932178
:10068000FF91EF919F918F912F910F900FBE0F903F
:100690001F9018951F920F920FB60F9211242F934F
:1006A0008F939F93EF93FF93909180249F5F80910E
:1006B0008124E0917E23F0917F232081981741F0DF
:1006C000E0918024F0E0E258FC4D22839093802456
:1006D000FF91EF919F918F912F910F900FBE0F90EF
:1006E0001F901895AAECB1E092E09C93E82FF0E0FF
:1006F000E4911C928E2F089582E08093CA01E0E27B
:10070000F0E0E4911092CA01A0E0B2E01C96EC93F4
:100710001C978093CA01E1E2F0E0E4911092CA01D3
:100720001D96EC93909101022091002080910F2062
:10073000811180E1997E922B982BA0E0B2E0119676
:100740009C93119780910402876014968C93149760
:1007500080910202806312968C93129780912802F6
:10076000807E809328022091300280911020909109
:100770000120892B207E822B80933002E8E2F2E078
:10078000118288E3E0E3F2E08183809102028160DC
:1007900012968C938091000281608093000280E425
:1007A0009FE10197F1F70895682BE0E3F2E06183A0
:1007B000809130028068E0E0F2E080AB809133020B
:1007C00080FD04C08091060282FFF8CF81E0E0E066
:1007D000F2E083AB80910020843029F480913402D0
:1007E000482F50E00AC08091350290913402382F92
:1007F00020E0492F50E0422B532BCA010895823349
:1008000091F0833328F4803361F08133E9F507C038
:10081000843369F0843348F08533B1F50AC088E049
:1008200009C080E007C080E105C088E103C080E224
:1008300001C088E290910120643318F4933019F4D8
:1008400023C0923009F16233A1F0633328F460339E
:1008500071F0613339F409C0643379F0643358F0CE
:10086000653369F020E030E011C061E009C060E06C
:1008700007C062E005C063E003C064E001C065E05A
:100880000E94D4039C0102C02FEF3FEFC9010895DD
:10089000809128028068E0E0F2E080A780912B023E
:1008A00080FFFCCF81E0E0E0F2E083A780912C02A2
:1008B00090E00895F894E0E0F8E086A197A196957D
:1008C000879580A791A778940895F894E0E0F8E0E0
:1008D00086A197A180A791A778940895F894E0E065
:1008E000F8E010A611A678940895F894E0E0F8E0F6
:1008F00086AB97AB789408951092562310925723A5
:10090000109283241092842410928224F894E0E4BC
:10091000F8E010A211A2789483E0E0E4F8E0868386
:10092000E0EAF0E08281846082830895E0E4F8E008
:100930001682F894E0E0F8E010A611A678940895E5
:100940001F920F920FB60F9211242F933F934F9344
:100950005F936F937F938F939F93AF93BF93EF9327
:10096000FF938091832490918424019759F4F89403
:10097000E0E0F8E010A611A678941092832410927B
:10098000842408C00E945A0481E090E0809383246C
:1009900090938424409182248091CB21481798F130
:1009A0008091832490918424892B21F08091CA2105
:1009B000833049F58091CA21833031F4F894E0E026
:1009C000F8E010A611A67894809195229091962235
:1009D000892B51F4E0E4F8E01682F894E0E0F8E0C6
:1009E00010A611A67894D5C01092562310925723C2
:1009F0001092832410928424109282248091932256
:100A00009091942243C02091562330915723809196
:100A1000A92190E02817390794F4F901EE0FFF1F80
:100A2000E955FE4D83819481E0E4F8E086A397A325
:100A30002F5F3F4F2093562330935723AAC08091B6
:100A4000CA21882341F0813031F58091832490912F
:100A500084240197B9F4E42FE695E695E695F0E055
:100A6000E955FE4D24A530E0842F90E080959095C7
:100A70008770907002C0359527958A95E2F720FF20
:100A80004DC051C08091D1219091D221E0E4F8E095
:100A900086A397A37EC0823011F580918324909124
:100AA0008424892BB9F4E42FE695E695E695F0E0E9
:100AB000E955FE4D24A530E0842F90E08095909577
:100AC0008770907002C0359527958A95E2F720FFD0
:100AD00049C043C08091D1219091D22128C0833058
:100AE00009F045C08091832490918424E42FE695F9
:100AF000E695E695242F30E0892BF9F4F0E0E955EE
:100B0000FE4D84A590E0209530952770307002C08E
:100B1000959587952A95E2F780FF05C08091CF21B2
:100B20009091D02104C08091CD219091CE21E0E41C
:100B3000F8E086A397A34F5F2AC0F0E0E955FE4D89
:100B400084A590E0209530952770307002C095956F
:100B500087952A95E2F780FF05C08091CD2190917D
:100B6000CE2194CF8091CF219091D0218FCF84300E
:100B700081F4E42FF0E0E955FE4D25A594A580E031
:100B8000820F911DE0E4F8E086A397A34E5F4093A7
:100B90008224FF91EF91BF91AF919F918F917F91AF
:100BA0006F915F914F913F912F910F900FBE0F90DA
:100BB0001F90189582E0E0E4F6E0868384E690E0FA
:100BC00020E233E0F9013197F1F70197D9F782E09C
:100BD000E0E4F6E085830895FF920F931F9382E08F
:100BE000E0E4F6E0818300E616E060E2F62EF8012C
:100BF000F1820E94DA05F801F6820E947A011F91C3
:100C00000F91FF900895DC01FB016D937C93119788
:100C100048634183ED91FC9111972583ED91FC91FF
:100C200081E0848308950F93CF93DF93DC01722FCB
:100C3000253008F044C0053008F041C01F968C9163
:100C40001F978823E1F581E01F968C931F9750969C
:100C50001C925097660F12966C931297EA0120E04F
:100C600030E007C08991FD01E20FF31F83832F5FFE
:100C70003F4F2717B8F31B967C931B971C960C933A
:100C80001C971D961C921D971E961C921E971B96D4
:100C90008C911B97882329F012968C9112978E7F46
:100CA00009C01C968C911C97882339F012968C9160
:100CB00012978160ED91FC91868381E001C080E014
:100CC000DF91CF910F910895DC01ED91FC91119787
:100CD000948192FF02C084E001C083E050968C931F
:100CE0005097ED91FC911197986094831F961C92F8
:100CF0000895CF93DF93DC011B969C911B971C9664
:100D00002C911C97CD91DC9111978C8184FF04C0AC
:100D100083E08B8385E021C01D968C911D978917F8
:100D200078F41D968C911D97FD01E80FF11D8381CC
:100D30008F831D968C911D978F5F1D968C9312C08B
:100D40001E968C911E97821728F412968C918160C2
:100D50008E8308C083E08B8381E050968C935097FC
:100D60001F961C92DF91CF910895DC011E968C9105
:100D70001E97ED91FC911197843080F497811E9617
:100D80008C911E97FD01E80FF11D97831E968C91A3
:100D90001E978F5F1E968C931E9709C083E08383F6
:100DA00082E050968C9350971F961C921F971C962A
:100DB0009C911C971E968C911E97ED91FC9111971A
:100DC000891718F482E08383089587E0838381E0A4
:100DD00050968C9350971F961C920895DC01ED91CC
:100DE000FC9111974481242F30E0C9018C709070E0
:100DF000892B21F0CD010E946406089546FF04C0AE
:100E0000CD010E947906089547FF04C0CD010E94DC
:100E1000B506089586E050968C9350971F961C92C5
:100E20000895FC01608B178608956091952170915B
:100E3000962180919721909198210895809168231F
:100E4000813019F020E030E009C08091672390E004
:100E5000811191E081E09827292F30E0C9010895A0
:100E60000F93DF93CF930F92CDB7DEB7198288E54A
:100E700093E26CE4AE014F5F5F4F21E004E00E941B
:100E80001306809167238823E1F780915F23809385
:100E90009521809160238093962180916123809396
:100EA00097218091622380939821109268230F905C
:100EB000CF91DF910F9108950F93DF93CF9300D0DF
:100EC000CDB7DEB7F894E0EAF4E0E0935823F0936E
:100ED000592388E781838BE9858381E0848380912E
:100EE000A2008160E0EAF0E08283789487E0898361
:100EF00080E58A8388E593E26CE4AE014F5F5F4F43
:100F000022E000E00E941306809167238823E1F726
:100F100085E089831A8288E593E26CE4AE014F5F35
:100F20005F4F22E000E00E94130680916723882330
:100F3000E1F786E0898384EE8A8388E593E26CE4B6
:100F4000AE014F5F5F4F22E000E00E9413068091E8
:100F500067238823E1F788E0898380EE8A8388E528
:100F600093E26CE4AE014F5F5F4F22E000E00E942D
:100F70001306809167238823E1F789E0898388E05D
:100F80008A8388E593E26CE4AE014F5F5F4F22E015
:100F900000E00E941306809167238823E1F78AE02E
:100FA000898380E18A8388E593E26CE4AE014F5F38
:100FB0005F4F22E000E00E941306809167238823A0
:100FC000E1F787E0898381E58A8388E593E26CE431
:100FD000AE014F5F5F4F22E000E00E941306809158
:100FE00067238823E1F70F900F90CF91DF910F9146
:100FF00008951F920F920FB60F9211242F933F93D3
:101000004F935F936F937F938F939F93AF93BF9310
:10101000EF93FF9388E593E20E94EE06FF91EF9134
:10102000BF91AF919F918F917F916F915F914F9100
:101030003F912F910F900FBE0F901F901895982FF2
:10104000E0E0F1E0108AE0E8F1E0118282E5E0E220
:10105000F3E0848380912003846080932003809157
:10106000250380FFFCCFE0E2F3E0918F0895982FF5
:10107000E0E0F1E010A2E0E8F1E0128282E5E0E2D7
:10108000F3E0848380912003886080932003809123
:10109000250381FFFCCFE0E2F3E0938F0895E0E2C7
:1010A000F3E080E4818389E0828382E5848381E0C8
:1010B000808380E00E941F0880E00E943708089526
:1010C000EF92FF920F931F93CF93DF937C01122F28
:1010D000613781F4FC0180E002C011938F5F8417B7
:1010E000E0F305C0F701E40FF11D10824F5F4034BB
:1010F000C8F33BC06337C9F4C0E0D0E0FE01E85D4F
:10110000FD4FE49197012C0F3D1FE19FC001112479
:101110006FEF70E00E94AB15F90160832196C03239
:10112000D10561F7F70190E218C0622F70E020E06E
:1011300030E040E050E0F701E20FF31FCA01A5E004
:1011400096958795AA95E1F780832F5F3F4F460FCD
:10115000571F2032310579F7E5CF8081212F281BD9
:1011600020A39F5F31969034C1F70023D1F081E036
:1011700090E002C0880F991F0A95E2F7482F982F38
:1011800030E020E0D701A30FB11DF701E20FF11D00
:1011900080818C933F5F240F940F892F841B8034B0
:1011A00088F3DF91CF911F910F91FF90EF900895F9
:1011B0000F931F93E0E4F9E051815F7E5183E0E6F5
:1011C000F6E0568150615683F89400E213E05FE543
:1011D000F8015483A0E0B1E050961C925097E0E4EF
:1011E000F9E016824F5F4083118226A337A310A235
:1011F00011A228EDE0E8F1E02183F80121812E7FA2
:10120000218320812560208322E053962C935397DD
:1012100020ED52962C93529770E054966D937C93E8
:10122000559758968C93589759969C9359975A96D8
:101230001C925A9789E35C968C935C9783E05D9649
:101240008C935D975E961C925E9784EA50968C9381
:10125000509780E88C9378941F910F9108950F9385
:101260001F93F894E0E0F8E010A611A67894F894A3
:1012700000E213E05FE5F8015483A0E0B1E090964E
:101280001C929097E0E4F8E016824F5F4083118251
:1012900026A337A310A211A228ECE0E8F1E02283F4
:1012A000F80121812D7F218320812960208333E073
:1012B00093963C93939720ED92962C93929770E09F
:1012C00094966D937C93959798968C93989799960E
:1012D0009C9399979A961C929A978BE39C968C93E1
:1012E0009C979D963C939D979E961C929E9784EA10
:1012F00090968C93909780E88C9378941F910F919F
:1013000008952F923F924F925F926F927F928F92A9
:101310009F92AF92BF92CF92DF92EF92FF920F9384
:101320001F93DF93CF93CDB7DEB72797CDBFDEBF37
:101330008D831B01442E38014901A42EBB24CC24EB
:10134000DD24C901B801A60195010E948C156983AD
:101350007A838B839C8382E090E28E839F835524E3
:10136000EE81FF81108121E030E0012E02C0220FCA
:10137000331F0A94E2F7442737FD4095542F6981C3
:101380007A818B819C810E948C15969587957795A3
:1013900067956050784B87419E4F04C0969587951E
:1013A000779567951A95D2F7A60195010E94D215F7
:1013B000CA01B901A40193010E94D21579018A01E1
:1013C000D801C7014097A109B1098F5E9F4FA04086
:1013D000B04090F42D81222339F4C101642D452DB4
:1013E00097010E94D80806C0C101642D452D9701C0
:1013F0000E942F0981E00BC053948E819F8101963A
:101400008E839F8397E0591609F0AACF80E0279634
:10141000CDBFDEBFCF91DF911F910F91FF90EF9075
:10142000DF90CF90BF90AF909F908F907F906F9004
:101430005F904F903F902F900895E0E0F1E0108A88
:10144000E0E8F1E0118280E00E941F0808950E9408
:101450001D0AE0E2F3E080818B7F80830895E0E065
:10146000F1E010A2E0E8F1E0128280E00E9437088B
:101470000895882319F40E941D0A08950E942F0AD6
:1014800008954F925F926F927F928F929F92AF9248
:10149000BF92CF92DF92EF92FF920F931F93CF9361
:1014A000DF93782EC62ED42E622E4701580181E795
:1014B000681779F480E2481729F445E0F42E35E006
:1014C000E32E14C080E1481769F080E3481731F437
:1014D00009C084E7681711F4FF2406C0FF2423E045
:1014E000E22E04C094E0F92E84E0E82E872D0E94BD
:1014F000390AC72DD0E006E0CC0FDD1F0A95E1F7D1
:10150000CF5EDF4D10E4412E512C17C0CE016C2D63
:101510004D2D262D0F2D0E946008A2010F2C02C018
:10152000559547950A94E2F7872DBE0195018401F0
:101530000E948109882329F4F394EF1438F70E945C
:101540000C03DF91CF911F910F91FF90EF90DF90EF
:10155000CF90BF90AF909F908F907F906F905F9053
:101560004F9008950E942F0AE0E2F3E08081877F88
:10157000808308950E942F0AE0E0F8E021E02083B4
:1015800083E1818389E493E086AB97ABE0E4F6E006
:101590002183E0E4F8E085E08083168208950E94CC
:1015A0001D0AE0E4F9E086E0808381E08183E0E6E3
:1015B000F6E08181806181838681806186830895E0
:1015C0000F931F93182F092F0E941D0AE0E4F9E0E2
:1015D00086E0808381E08183818180618183F894CA
:1015E000812F902FE0E4F9E080A791A778941F91D4
:1015F0000F910895E0E4F9E081818F7E8183E0E638
:10160000F6E08681806186830895E0E0FAE081E07B
:10161000808383E08183138280910A2090910B2044
:1016200086AB97AB0895E0E0FAE081818F7B818300
:101630000895E0E0FAE081818F7781830895A0E04A
:10164000BAE011962C911197206411962C93119762
:1016500024E0E0E8F6E021839C968D939C939D978F
:101660000895A0E0BAE011962C9111972068119688
:101670002C93119728E0E0E8F6E021839E968D9365
:101680009C939F9708951F93162F843369F1853398
:1016900070F48133F9F0823320F4803309F04FC0C5
:1016A00015C08233D9F0833309F049C01AC087339B
:1016B00041F1883330F48533D9F0863309F03FC0E7
:1016C0001BC0883319F18933D1F52AC0E0E0F6E078
:1016D00081E02FC0E0E0F6E082E02BC0E0E0F6E041
:1016E0001DC0E0E0F6E024C0E0E0F6E080E121C0CB
:1016F000E0E0F6E080E21DC00E94270AE0E2F6E0AA
:101700000DC00E94B20AE0E2F6E012C08091010A28
:101710008F7BE0E0FAE08183E0E8F6E084E009C056
:101720008091010A8F77E0E0FAE08183E0E8F6E05B
:1017300088E08183112311F0858301C086831F9186
:101740000895843309F442C0853360F4813321F174
:10175000823318F48033B1F417C0823349F18333F4
:1017600089F42DC0873309F458C0883328F48533B1
:10177000E1F1863339F448C0883309F45FC0893316
:1017800009F470C080ED089581E0E0E0F6E0828326
:10179000809108068170089582E0E0E0F6E082839F
:1017A0008091080690E082709070959587950895D5
:1017B00084E0E0E0F6E08283809108064BC088E098
:1017C000E0E0F6E08283809108062FC080E1E0E04F
:1017D000F6E082838091080690E080719070F4E0DA
:1017E00095958795FA95E1F7089580E2E0E0F6E0B7
:1017F00082838091080690E080729070E5E0959574
:101800008795EA95E1F708950E94270A84E0E0E2CF
:10181000F6E08283809128061DC00E94B20A88E00B
:10182000E0E2F6E082838091280690E08870907074
:1018300073E0959587957A95E1F708958091010A6F
:101840008F7BE0E0FAE0818384E0E0E8F6E08283E9
:101850008091880690E08470907095958795959515
:10186000879508958091010A8F77E0E0FAE08183FF
:1018700088E0E0E8F6E082838091880690E0887056
:10188000907053E0959587955A95E1F7089581E01A
:1018900080930E20A0E0BAE085E08C9390E1119651
:1018A0009C93119788E213968C931397E0E4F6E0EB
:1018B000928384898064848B84E68093800180E4B1
:1018C0009FE1D6968D939C93D79710920C201092FF
:1018D0000D2083E016968C93169717968C93E0EA6A
:1018E000F0E082818460828308950E940C0310924C
:1018F0000E200895E0E0FAE016821782109280012F
:10190000138211821082089580910C208530F0F0AE
:1019100090910C208091B10985FFFCCF915090935C
:10192000B00992E00CC0E92FF0E0E956FD4DE081EE
:101930008091B10985FFFCCFE093B0099F5F809152
:101940000C20981780F310920E2008950E94750CB9
:1019500008951F920F920FB60F9211242F933F9369
:101960004F935F936F937F938F939F93AF93BF93A7
:10197000EF93FF9380910C20882329F00E947A0C2A
:101980000E94840C0DC080910D208F5F80930D20EC
:1019900080910D208B3F20F00E947A0C0E94750CE4
:1019A000FF91EF91BF91AF919F918F917F916F9137
:1019B0005F914F913F912F910F900FBE0F901F900D
:1019C00018951F920F920FB60F9211242F933F93E9
:1019D0004F935F936F937F938F939F93AF93BF9337
:1019E000EF93FF93E0E0FAE010A211A280910C20A7
:1019F000803C28F00E947A0C0E94750C39C0E0915E
:101A00000C20F0E08091280AE856FD4D8083E0919B
:101A10000C20F0E08091290A8F77E956FD4D8083F4
:101A2000E0910C20F0E0E856FD4D8081803450F4C8
:101A3000E0910C20F0E0E956FD4D8081882311F4FF
:101A400010920C2080910C20E0910C20F0E0E956DF
:101A5000FD4DE081813138F0E13128F00E947A0CAF
:101A60000E94840C05C080910C208E5F80930C2016
:101A7000FF91EF91BF91AF919F918F917F916F9166
:101A80005F914F913F912F910F900FBE0F901F903C
:101A90001895EF92FF920F931F93CF93DF930E94BD
:101AA00066028C01C0E0D0E07C010894E108F108F6
:101AB0000EC00E94660221E08030920719F420E0F7
:101AC00030E00EC0FE01E955FE4D84A72196CE15EB
:101AD000DF057CF3802F81508093CB2121E030E023
:101AE000C901DF91CF911F910F91FF90EF90089561
:101AF000982FE0ECF1E08091CF0187FDFACF262FFF
:101B000030E02F713070892F90E0B5E0880F991F79
:101B1000BA95E1F7282B392B2093C001832F8F71C1
:101B20008183128286E08287EF93FF930F932F9336
:101B3000EBECF1E008ED21E004BF20832F910F9141
:101B4000FF91EF918091C4010895AF92BF92CF921F
:101B5000DF92EF92FF920F931F93CF93DF939C013D
:101B6000220F331F280F391F220F331FC22E822F3F
:101B700060E00E94780D282F90E07C0105E0F5944C
:101B8000E7940A95E1F71FE1A12EB12CA822B92212
:101B90008091B10985FFFCCF2093B009C1E0D0E06E
:101BA00000E010E015C0DC2CD00E8D2D6C2F0E94B3
:101BB000780D982F8091B10985FFFCCF9093B009E3
:101BC0002196C032D1058CF30F5F1F4FC0E0D0E0EB
:101BD0000E151F0544F30DC0812F6C2F0E94780D48
:101BE000982F8091B10985FFFCCF9093B009219681
:101BF00002C01C2D1E0DCA15DB0574F3DF91CF91B9
:101C00001F910F91FF90EF90DF90CF90BF90AF901A
:101C100008955F926F927F928F929F92AF92BF9240
:101C2000CF92DF92EF92FF920F931F93CF93DF93A8
:101C30009C01220F331F280F391F220F331F522EF2
:101C4000822F60E00E94780DB82E90E04C0175E084
:101C5000959487947A95E1F76FE1662E712C68224E
:101C60007922EE24FF24C1E0D0E000E010E012C0B1
:101C70008A2D6C2F0E94780DF60181936F010894D4
:101C8000E11CF11C2196C032D10594F30F5F1F4F68
:101C9000C0E0D0E0C7018C960815190534F08C011E
:101CA00009551E4DF52CF80C11C057EAC52E51E20E
:101CB000D52EC80ED91EA52CA00EDACF8F2D6C2FD5
:101CC0000E94780DF80181938F012196C615D705E2
:101CD000ACF3BA94B092CB21DF91CF911F910F91C9
:101CE000FF90EF90DF90CF90BF90AF909F908F903C
:101CF0007F906F905F9008958091CF0187FDFCCF1A
:101D000008958091CF0187FDFCCF8091CF0181FFA5
:101D100012C086E3E0ECF1E08287EF93FF930F932C
:101D20002F93EBECF1E008ED21E004BF20832F912D
:101D30000F91FF91EF910895DF92EF92FF920F9331
:101D40001F93E82E062FD42E0E94810EE0ECF1E0C6
:101D500083E3828710E00F711070FF24A5E0EE0C82
:101D6000FF1CAA95E1F70E291F290083812F8F718F
:101D700081831282D48285E38287EF93FF930F934E
:101D80002F93EBECF1E008ED21E004BF20832F91CD
:101D90000F91FF91EF911F910F91FF90EF90DF90C6
:101DA00008958F929F92AF92BF92CF92DF92EF925F
:101DB000FF920F931F93CF93DF939C0180910C2090
:101DC00090E0019760E270E00E94BF156B01809186
:101DD0000C2090E0019760E270E00E94BF155C016A
:101DE000C901880F991F820F931F880F991F882E92
:101DF00040910C20415060E00E949C0EB2E0EB2E1E
:101E0000F12CC1E0D0E000E010E015C0982C900E5D
:101E1000F701E956FD4D4081892D6C2F0E949C0EE3
:101E20000894E11CF11C2196C032D1058CF30F5FA0
:101E30001F4FC0E0D0E00C151D0544F30DC0F701A5
:101E4000E956FD4D4081812F6C2F0E949C0E089415
:101E5000E11CF11C219602C0182D1C0DCA15DB05D2
:101E600074F3DF91CF911F910F91FF90EF90DF906E
:101E7000CF90BF90AF909F908F9008950F931F9336
:101E8000CF93DF93062FEC0110E00CC00E94660296
:101E900021E08030920721F40E940C0300E004C08E
:101EA00089931F5F101790F3802FDF91CF911F91BF
:101EB0000F910895682F89E693E20E943E0F0895DE
:101EC000E9E6F3E2E80FF11D228130E040E050E066
:101ED000808190E0A0E0B0E0DC0199278827282BE2
:101EE000392B4A2B5B2B818190E0A0E0B0E0BA2F28
:101EF000A92F982F8827282B392B4A2B5B2BB90128
:101F0000CA0108952F923F924F925F926F927F92F3
:101F10008F929F92AF92BF92CF92DF92EF92FF92F9
:101F20000F931F93DF93CF93CDB7DEB72697CDBF27
:101F3000DEBF0E9443010E9454010E947C030E9464
:101F4000BA0A0E94EC050E944F080E94CF0A0E9424
:101F50005C0783E890E06DEF0E94A3018091CC01C3
:101F6000877FE0ECF1E084877894CC24DD24212C79
:101F700049E0342E30EAA32E38E0B32E2FEFF101E2
:101F800021AF23AF25AF10924608F894E0E0F8E0C7
:101F900010A611A6789410E08091B10985FFFCCFBE
:101FA00032E43093B0098091B10985FFFCCF4CE455
:101FB0004093B00990919321809194219817D1F189
:101FC000E0919421F0E0EF56FF4D12818091942131
:101FD0008F5F80939421103889F4809180248093BE
:101FE000812423E8F501268330ED37838091A10811
:101FF00085FFFCCF40E84093A00811C0112391F465
:10200000809180248093812427E8F501268330EE97
:1020100037838091A10885FFFCCF1092A0080E9411
:10202000960208C08091B10985FFFCCF1093B009DA
:102030001A3259F088E893E1E0E2F3E03197F1F7E2
:102040000197D1F71A3209F0A7CF80E090E0A0E025
:10205000B0E0812C2AE0922E9C01AD012F5F3F4F12
:102060004F4F5F4F29833A834B835C839091932139
:1020700080919421981709F440C5E0919421F0E0F3
:10208000EF56FF4D9281809194218F5F8093942130
:10209000992309F432C58091B10985FFFCCF909353
:1020A000B009892F90E0FC01B197E835F10508F0FF
:1020B0001FC5E454FF4FEE0FFF1F0590F491E02D74
:1020C00009940E943007909195218091B10985FF74
:1020D000FCCF9093B009909196218091B10985FF32
:1020E000FCCF9093B009909197218091B10985FF21
:1020F000FCCF9093B009909198218091B10985FF10
:10210000FCCFADC082E00E945A0F882309F4F0C4CE
:1021100050906923442480916A2390E08429952972
:102120000E94E00AE5C4809141098F7E80934109B5
:1021300080916606806180936606DAC480E360E081
:102140000E94D403982F8091B10985FFFCCF87C0EE
:102150000E944804982F8091B10985FFFCCF7FC071
:1021600088E360E00E94D403982F8091B10985FF35
:10217000FCCF75C082E00E945A0F882309F4B8C4CE
:1021800080916923803359F434E030930020109219
:102190000F201092102041E0409301201DC0813398
:1021A00009F098C41092002051E050930F209091B4
:1021B0006A23892F8153863038F49053990F990FF1
:1021C0009093102083E006C0903309F083C41092EE
:1021D000102082E0809301200E947C0389C480E06B
:1021E00060E00E94D403982F8091B10985FFFCCF55
:1021F0009093B00988E060E00E94D403982F80910A
:10220000B10985FFFCCF9093B00980E160E00E94A6
:10221000D403982F8091B10985FFFCCF9093B0092A
:1022200088E160E00E94D403982F8091B10985FF76
:10223000FCCF9093B00980E260E00E94D403982F15
:102240008091B10985FFFCCF9093B00988E260E0EE
:102250000E94D403982F8091B10985FFFCCF909301
:10226000B00946C482E00E945A0F882309F440C492
:102270008091692360916A230E94FF03282F809137
:10228000B10985FFFCCF9093B0098091B10985FF1A
:10229000FCCF2093B0092CC482E00E945A0F8823FF
:1022A00009F426C40091692310916A2390E8C92E8D
:1022B0009EE3D92E8DE0E82EBAE0FB2EC6010197F1
:1022C000F1F7802F612F0E94FF03A4E0880F991F70
:1022D000AA95E1F7F4E095958795FA95E1F769E617
:1022E00073E24AE050E00E94F415E9E6F3E207C029
:1022F0008091B10985FFFCCF9093B0093196908110
:102300009923B1F78091B10985FFFCCFE092B00924
:102310008091B10985FFFCCFF092B009CFCF83E067
:102320000E945A0F882309F4E3C3809169238095A2
:10233000F10181AF80916B23809583AF80916A23F7
:10234000809585AFD5C30E9466029C01C097029715
:1023500008F0C0C3822F80530E94D701C9C30E94D6
:10236000BA0A0E9466028C017C01F1E080309F076E
:1023700009F4B0C30E9466026C0121E0803092072C
:1023800009F4A8C3902F88278C0D9D1D8093A72149
:102390009093A821F8948093360890933708789406
:1023A0000E9466026C0131E08030930709F492C309
:1023B0008093A92140E1481708F48CC30AEA11E28E
:1023C0001D821E821EC00E9466027C0151E0803088
:1023D000950709F47FC30E9466026C0161E08030BA
:1023E000960709F477C39E2D88278C0D9D1DF80153
:1023F000819391938F012D813E812F5F3F4F2D83DC
:102400003E838091A92190E04D815E814817590754
:10241000D4F250E0E51651E0F50609F469C360E036
:10242000C61661E0D60609F463C30E9466026C0119
:1024300080E0C81681E0D80609F44CC3C092CA21D6
:102440000E9466026C0190E0C91691E0D90609F479
:1024500041C3C092CB218C2D90E0019768E070E0E1
:102460000E94BF156F5F6093CC210E9466028C01B1
:10247000E1E080309E0709F42DC30E9466026C01E2
:10248000F1E080309F0709F425C3902F88278C0D39
:102490009D1D8093CD219093CE210E9466028C01D8
:1024A00021E08030920709F415C30E9466026C0196
:1024B000902F88278C0D9D1D8093CF219093D02144
:1024C0000E9466028C0131E08030930709F402C358
:1024D0000E9466029C016C0141E08030940709F47F
:1024E000F9C2902F8827280F391F2093D1213093CC
:1024F000D221FEC20E94BA0A00E010E00EC00E9483
:1025000066026C0151E08030950709F4E3C2F801DE
:10251000E955FE4D84A70F5F1F4F8091CC2190E0BD
:102520000817190764F360E0C61661E0D60609F4DF
:10253000DFC20E9466028C0181E00030180709F4B6
:10254000C9C20E9466026C0190E0C91691E0D906EA
:1025500009F4C0C2902F88278C0D9D1D8093932273
:1025600090939422892B39F0E1E0F0E0E0939522FA
:10257000F093962292C010929522109296228DC0CE
:10258000109295221092962210924608F89410927A
:102590002808109229087894ABC20E94470C8091B9
:1025A0000E208823E1F7A4C20E946602982F905360
:1025B000953008F08FC280910C20853008F48AC2D3
:1025C000892F90E00E94D10E93C20E94490D892B61
:1025D00009F480C20E9466028C01F1E080309F07FE
:1025E00009F478C20E9466026C0121E080309207F3
:1025F00009F470C2902F88278C0D9D1D8093932223
:1026000090939422892B39F041E050E04093952239
:102610005093962237C0109295221092962232C083
:102620000E94660290EDF92EF80EE4E0EF1508F432
:1026300051C20E9466028C01F1E080309F0709F4CC
:1026400049C20E9466026C0121E08030920709F4C1
:1026500041C2902F88278C0D9D1D809393229093CB
:102660009422892B39F041E050E040939522509319
:10267000962204C010929522109296228F2D90E0FF
:102680000E94090E89E493E08093A7219093A821EA
:102690001092A92194E09093CA210E947C0428C240
:1026A0000E9466028053853008F014C290E00E94B8
:1026B000A50D1EC20E9466028C01E1E080309E07DB
:1026C00009F408C20E9466026C01F1E080309F07A5
:1026D00009F400C2682F6053802F0E94430B08C288
:1026E0000E94660241E08030940709F4F3C10E9421
:1026F000A10BC82EDD2480E390E0C80ED91E809186
:10270000B10985FFFCCFC092B009F2C10E946602F8
:102710008C0191E00030190709F4DCC10E946602C7
:102720006C01E1E080309E0709F4D4C1902F882726
:102730008C0D9D1D80930A2090930B20D9C1F1E050
:10274000F093000A83E0F4018183138280910A20D0
:1027500090910B2086AB97AB0E9466028033910567
:1027600001F50E9466028C01F1E080309F0709F4B8
:10277000B1C10E9466026C0121E08030920709F429
:10278000A9C1302F2227280F391F8091010A8064A8
:10279000F4018183F4E0F0938106F40124A735A7C6
:1027A000A7C18133910509F0A3C10E9466028C0183
:1027B000F1E080309F0709F48DC10E9466026C0130
:1027C00021E08030920709F485C1302F2227280F9D
:1027D000391F8091010A8068F4018183F8E0F09349
:1027E0008106F40126A737A783C10E946602F1E0A3
:1027F00080309F0709F46EC18033910551F40E9427
:10280000660241E08030940709F464C10E941F0809
:102810006FC18133910509F06BC10E94660251E0DE
:102820008030950709F456C10E94370861C10E94A3
:1028300066028C0161E08030960709F44BC10E946A
:1028400066026C0180E0C81681E0D80609F442C136
:10285000902F88278C0D9D1DE3E388339E0731F16F
:10286000F3E389339F076CF421E38233920741F14C
:1028700031E389339307B9F08153914309F02AC1B9
:102880001BC055E387339507A1F069E386339607AC
:1028900039F08853944309F01DC12DEF3CE00EC080
:1028A0002DE333E00FC029E333E008C02CEC30E027
:1028B00009C027E830E006C023E830E04DEF03C050
:1028C00027E03AE14EEF8091802480938124F50146
:1028D00026834295407F832F992787FD9A95482B21
:1028E000478306C183E00E945A0F882309F400C180
:1028F00030916B238091B10985FFFCCF3093B009F3
:1029000070906923662480916A2390E08629972934
:102910002091802420938124F5018683892F990FAB
:10292000990B3295307F382B3783E2C00E94960294
:10293000DFC087E00E945A0F882309F4D9C0209194
:1029400069232053223008F0C5C040916B234134E5
:1029500008F0C0C0E0906D23FF2400E010E0870184
:10296000FF24EE2480916E2390E0A0E0B0E0BA2F27
:10297000A92F982F8827E82AF92A0A2B1B2B809148
:102980006F2390E0A0E0B0E0E82AF92A0A2B1B2B85
:10299000822F60916A2320916C230E94410AA8C073
:1029A00085E00E945A0F882309F4A2C09091692300
:1029B000892F8053823008F08DC060916D2361347F
:1029C00008F088C0662309F485C0292F30E0205321
:1029D00030402D833E837901A6E0EE0CFF1CAA95C2
:1029E000E1F741E150E2E40EF51EC7010E943E0FFF
:1029F000882309F47DC08D810E94390A00916A23E1
:102A000010E020E030E098011127002780916B232F
:102A100090E0A0E0B0E0BA2FA92F982F8827082BCC
:102A2000192B2A2B3B2B80916C2390E0A0E0B0E087
:102A3000082B192B2A2B3B2B8D81B70140916D233D
:102A40000E94810955C00E9466028033910519F4E5
:102A50000E941D0A4DC0C197E9F50E942F0A48C087
:102A60008091802490918124891B282F8091B10925
:102A700085FFFCCF822F8F5F8093B009822F90E07B
:102A80009C0113C0E0918124F0E0E258FC4D92815A
:102A9000809181248F5F809381248091B10985FF8B
:102AA000FCCF9093B009215030401216130654F316
:102AB0001FC00E9466028C0151E080309507A9F486
:102AC00009C00E946602382F6C0160E0C61661E002
:102AD000D60619F40E940C030BC08091A10885FF53
:102AE000FCCF3093A008015010400115110549F7A3
:102AF00080E090E0A0E0B0E004C089819A81AB81E1
:102B0000BC8129813A814B815C8121583B454440FD
:102B100052400CF033CAA0CA629FD001739FF001EB
:102B2000829FE00DF11D649FE00DF11D929FF00D5D
:102B3000839FF00D749FF00D659FF00D9927729F94
:102B4000B00DE11DF91F639FB00DE11DF91FBD011F
:102B5000CF0111240895AA1BBB1B51E107C0AA1F76
:102B6000BB1FA617B70710F0A61BB70B881F991F2E
:102B70005A95A9F780959095BC01CD01089597FBD2
:102B8000092E07260AD077FD04D0E5DF06D0002005
:102B90001AF4709561957F4F0895F6F79095819599
:102BA0009F4F0895A1E21A2EAA1BBB1BFD010DC069
:102BB000AA1FBB1FEE1FFF1FA217B307E407F507ED
:102BC00020F0A21BB30BE40BF50B661F771F881FC9
:102BD000991F1A9469F760957095809590959B015F
:102BE000AC01BD01CF010895FB019F01E894423083
:102BF000C4F04532B4F44A3029F497FB1EF49095A2
:102C000081959F4F642F77270E94AB15805D8A3393
:102C10000CF0895D8193CB010097A1F716F45DE27A
:102C200051931082C9010C941516DC01FC01672F29
:102C300071917723E1F7329704C07C916D93708393
:0E2C40006291AE17BF07C8F30895F894FFCF56
:0A2C4E0004010001020306080A0059
:00000001FF
