:100000000C942E010C944B010C944B010C944B015D
:100010000C944B010C944B010C944B010C944B0130
:100020000C944B010C944B010C944B010C944B0120
:100030000C944B010C944B010C944B010C944B0110
:100040000C944B010C944B010C944B010C944B0100
:100050000C9417030C944B010C944B010C944B0122
:100060000C944B010C942D020C944B010C944B01FD
:100070000C944B010C944B010C944B010C944B01D0
:100080000C944B010C944B010C944B010C944B01C0
:100090000C944B010C944B010C944B010C944B01B0
:1000A0000C944B010C944B010C944B010C944B01A0
:1000B0000C944B010C944B010C940B050C946909A6
:1000C0000C944B010C94A3090C944B010C944B0120
:1000D0000C944B010C944B010C944B010C944B0170
:1000E0000C944B010C944B010C944B010C944B0160
:1000F0000C944B010C944B010C944B010C944B0150
:100100000C944B010C944B010C944B010C944B013F
:100110000C944B010C944B010C944B010C944B012F
:100120000C944B010C944B010C944B010C944B011F
:100130000C944B010C944B010C944B010C944B010F
:100140000C944B010C944B010C944B010C944B01FF
:100150000C944B010C944B010C944B010C944B01EF
:100160000C944B010C944B010C944B010C94050224
:100170000C944B010C944B017F0F081408140814C5
:10018000081408140814081408140814081408148F
:10019000081408140814081408140814081408147F
:1001A00008140814081408140814081408148511F5
:1001B00008146B1108148D139D0CDD0C84123C0D7A
:1001C0000814081479100814520EFA0D08140F0DB3
:1001D00008140814EB0D9D11F60B8D0FBD0F1B0DB0
:1001E000E813300D37137B0D0814AC1208140814F3
:1001F0000814081408140814F413020D0814F81154
:10020000AA0D081412110814320F08140814081447
:10021000081408140814B31108149D132010C613F1
:1002200024120814AF12900D0008101820280001A5
:1002300002030405808C98A5B0BCC6D0DAE2EAF0CF
:10024000F5FAFDFEFFFEFDFAF5F0EAE2DAD0C6BCF3
:10025000B0A5988C0001020306080A0011241FBEF5
:10026000CFEFD7E2DEBFCDBF10E2A0E0B0E2E0E723
:10027000F9E202C005900D92A230B107D9F714E25D
:10028000A2E0B0E201C01D92AD37B107E1F70E94D4
:100290005C0B0C94B6140C9400008095609540950E
:1002A000E0E0F9E081AF80AF43AF42AF60933D093A
:1002B00064AF0895E0E4F6E028E0218324E022839F
:1002C000E0EAF8E023E0258325812F732583E0937E
:1002D0007623F09377231092792410927824238147
:1002E0002F7C20622383A0EAB0E012962C91129713
:1002F000226012962C9386836295607F892F990FD6
:10030000990B682B678384818061848384818860F2
:1003100084838091782480937924089520E030E0CC
:1003200040E45FE105C02F5F3F4FCA010197F1F73D
:1003300090918B2180918C21981729F481E0243FA2
:10034000380789F717C0245F3140A4F4E0918C216D
:10035000F0E0E757FF4D928180918C218F5F809371
:100360008C218091B10985FFFCCF292F30E090933B
:10037000B00902C020E031E0C901089511C0E09148
:100380007924F0E0EA58FC4D9281809179248F5FC6
:10039000809379248091B10985FFFCCF9093B009B7
:1003A0009091782480917924981749F711C0E091B1
:1003B0008C21F0E0E757FF4D928180918C218F5F77
:1003C00080938C218091A10885FFFCCF9093A00899
:1003D00090918B2180918C21981711F3E8CF809117
:1003E000B10985FFFCCF85E48093B0098091B10904
:1003F00085FFFCCF82E58093B0098091B10985FF2C
:10040000FCCF82E58093B00908951F920F920FB63A
:100410000F9211242F938F939F93EF93FF939091BB
:100420008B219F5F80918C21E0918920F0918A201F
:100430002081981741F0E0918B21F0E0E757FF4DC4
:10044000228390938B21FF91EF919F918F912F9118
:100450000F900FBE0F901F9018951F920F920FB61E
:100460000F9211242F938F939F93EF93FF9390916B
:1004700078249F5F80917924E0917623F09177230F
:100480002081981741F0E0917824F0E0EA58FC4D83
:10049000228390937824FF91EF919F918F912F91D8
:1004A0000F900FBE0F901F90189582E08093CA01A5
:1004B000E0E2F0E0E4911092CA01A0E0B2E01C9604
:1004C000EC931C978093CA01E1E2F0E0E491109272
:1004D000CA011D96EC939091010220910020809119
:1004E0000720811180E1997E922B982BA0E0B2E049
:1004F00011969C93119780910402876014968C93B7
:10050000149780910202806312968C9312978091C7
:100510002802807E8093280220913002809108205A
:1005200090910120892B207E822B80933002E8E27B
:10053000F2E0118288E3E0E3F2E08183809102023D
:10054000816012968C9380910002816080930002FA
:1005500080E49FE10197F1F70895682BE0E3F2E072
:100560006183809130028068E0E0F2E080AB8091AE
:10057000330280FD04C08091060282FFF8CF81E043
:10058000E0E0F2E083AB80910020843029F4809198
:100590003402482F50E00AC0809135029091340215
:1005A000382F20E0492F50E0422B532BCA010895E9
:1005B000982F80538630E8F480910120643318F43A
:1005C000833021F416C0823019F413C0603388F0F0
:1005D000663378F4E92FF0E0E850FE4F8491E62F7F
:1005E000F0E0E250FE4FE4916E2F0E94AD029C01BC
:1005F00002C02FEF3FEFC901089510924E231092D1
:100600004F2310927B2410927C2410927A24F89429
:10061000E0E4F8E010A211A2789483E0E0E4F8E0CE
:100620008683E0EAF0E082818460828308951F92ED
:100630000F920FB60F9211242F933F934F938F93E6
:100640009F93EF93FF9380917B2490917C2401975B
:1006500059F4F894E0E0F8E010A611A6789410920E
:100660007B2410927C2412C0F894809126089091EB
:10067000270896958795E0E0F8E080A791A7789401
:1006800081E090E080937B2490937C2440917A24B5
:100690008091C321481798F180917B2490917C240C
:1006A000892B21F08091C221833049F58091C221AC
:1006B000833031F4F894E0E0F8E010A611A67894C5
:1006C00080918D2290918E22892B51F4E0E4F8E004
:1006D0001682F894E0E0F8E010A611A67894D5C050
:1006E00010924E2310924F2310927B2410927C2460
:1006F00010927A2480918B2290918C2243C0209179
:100700004E2330914F238091A12190E02817390783
:1007100094F4F901EE0FFF1FE156FE4D83819481A1
:10072000E0E4F8E086A397A32F5F3F4F20934E238A
:1007300030934F23AAC08091C221882341F0813099
:1007400031F580917B2490917C240197B9F4E42FBA
:10075000E695E695E695F0E0E156FE4D24A530E0FD
:10076000842F90E0809590958770907002C03595A9
:1007700027958A95E2F720FF4DC051C08091C9218D
:100780009091CA21E0E4F8E086A397A37EC082306E
:1007900011F580917B2490917C24892BB9F4E42F6E
:1007A000E695E695E695F0E0E156FE4D24A530E0AD
:1007B000842F90E0809590958770907002C0359559
:1007C00027958A95E2F720FF49C043C08091C9214F
:1007D0009091CA2128C0833009F045C080917B24C4
:1007E00090917C24E42FE695E695E695242F30E061
:1007F000892BF9F4F0E0E156FE4D84A590E02095B8
:1008000030952770307002C0959587952A95E2F74C
:1008100080FF05C08091C7219091C82104C08091BC
:10082000C5219091C621E0E4F8E086A397A34F5F2D
:100830002AC0F0E0E156FE4D84A590E02095309569
:100840002770307002C0959587952A95E2F780FF52
:1008500005C08091C5219091C62194CF8091C72178
:100860009091C8218FCF843081F4E42FF0E0E156DD
:10087000FE4D25A594A580E0820F911DE0E4F8E0EF
:1008800086A397A34E5F40937A24FF91EF919F91A7
:100890008F914F913F912F910F900FBE0F901F900E
:1008A000189582E0E0E4F6E0868384E690E020E2BA
:1008B00033E0F9013197F1F70197D9F782E0E0E4ED
:1008C000F6E085830895FF920F931F9382E0E0E4A2
:1008D000F6E0818300E616E0F0E2FF2EF801F182F7
:1008E0000E945104F801F68280E8818380E48283CB
:1008F000E0EBF9E083E08583E0938920F0938A20A0
:1009000010928C2110928B2183818F7C8062838353
:10091000A0EAB0E012968C911297826012968C93A6
:1009200083E8868380ED87838481806184838481EA
:10093000886084831F910F91FF9008950F93CF9348
:10094000DF93DC01722F253008F044C0053008F039
:1009500041C01F968C911F978823E1F581E01F9677
:100960008C931F9750961C925097660F12966C931B
:100970001297EA0120E030E007C08991FD01E20F03
:10098000F31F83832F5F3F4F2717B8F31B967C938A
:100990001B971C960C931C971D961C921D971E96D8
:1009A0001C921E971B968C911B97882329F01296F8
:1009B0008C9112978E7F09C01C968C911C9788236E
:1009C00039F012968C9112978160ED91FC9186839B
:1009D00081E001C080E0DF91CF910F9108950F93E6
:1009E000DF93CF9300D0CDB7DEB789839A8380E5BC
:1009F00093E26CE4AE014F5F5F4F22E000E00E94A3
:100A00009E0480915F238823E1F70F900F90CF9190
:100A1000DF910F9108951F920F920FB60F9211243C
:100A20002F933F934F938F939F93AF93BF93EF93E6
:100A3000FF93A0915023B091512314964C91149799
:100A4000242F30E0C9018C709070892B71F01496BE
:100A50009C91149792FF02C084E001C083E08093D0
:100A60006023986014969C935EC046FF2CC09091C2
:100A70005B2320915C2314968C91149784FF05C00E
:100A800083E013968C9385E04CC080915D23891799
:100A900070F4E0915D23F0E0E05BFC4D83811796FC
:100AA0008C9380915D238F5F80935D233EC0809106
:100AB0005E23821730F480915223816016968C93C6
:100AC00034C083E029C047FF2BC080915E2384306F
:100AD00078F417968C911797E0915E23F0E0E05B35
:100AE000FC4D878380915E238F5F80935E2309C0D6
:100AF00083E013968C93139782E080936023109287
:100B00005F2390915C2380915E23891720F482E01B
:100B100013968C930AC087E013968C9381E001C0F2
:100B200086E08093602310925F23FF91EF91BF9145
:100B3000AF919F918F914F913F912F910F900FBE49
:100B40000F901F901895982FE0E0F1E0108AE0E8F0
:100B5000F1E0118282E5E0E2F3E0848380912003FA
:100B60008460809320038091250380FFFCCFE0E226
:100B7000F3E0918F0895982FE0E0F1E010A2E0E813
:100B8000F1E0128282E5E0E2F3E0848380912003C9
:100B90008860809320038091250381FFFCCFE0E2F1
:100BA000F3E0938F0895EF92FF920F931F93CF93EB
:100BB000DF937C01122F613781F4FC0180E002C0D9
:100BC00011938F5F8417E0F305C0F701E40FF11D67
:100BD00010824F5F4034C8F33BC06337C9F4C0E0B4
:100BE000D0E0FE01EC5CFD4FE49197012C0F3D1F1E
:100BF000E19FC00111246FEF70E00E943C14F901E5
:100C000060832196C032D10561F7F70190E218C0E8
:100C1000622F70E020E030E040E050E0F701E20FAA
:100C2000F31FCA01A5E096958795AA95E1F7808301
:100C30002F5F3F4F460F571F2032310579F7E5CF21
:100C40008081212F281B20A39F5F31969034C1F70C
:100C50000023D1F081E090E002C0880F991F0A952F
:100C6000E2F7482F982F30E020E0D701A30FB11D05
:100C7000F701E20FF11D80818C933F5F240F940FE9
:100C8000892F841B803488F3DF91CF911F910F91BE
:100C9000FF90EF9008950F931F93E0E4F9E05181E6
:100CA0005F7E5183E0E6F6E0568150615683F8940A
:100CB00000E213E05FE5F8015483A0E0B1E0509654
:100CC0001C925097E0E4F9E016824F5F4083118256
:100CD00026A337A310A211A228EDE0E8F1E02183BA
:100CE000F80121812E7F218320812560208322E04D
:100CF00053962C93539720ED52962C93529770E075
:100D000054966D937C93559758968C935897599613
:100D10009C9359975A961C925A9789E35C968C93A8
:100D20005C9783E05D968C935D975E961C925E97D0
:100D300084EA50968C93509780E88C9378941F9116
:100D40000F9108950F931F93F894E0E0F8E010A638
:100D500011A67894F89400E213E05FE5F80154835B
:100D6000A0E0B1E090961C929097E0E4F8E0168243
:100D70004F5F4083118226A337A310A211A228EC53
:100D8000E0E8F1E02283F80121812D7F2183208199
:100D90002960208333E093963C93939720ED9296BD
:100DA0002C93929770E094966D937C939597989678
:100DB0008C93989799969C9399979A961C929A9748
:100DC0008BE39C968C939C979D963C939D979E96C7
:100DD0001C929E9784EA90968C93909780E88C93CF
:100DE00078941F910F9108952F923F924F925F92A6
:100DF0006F927F928F929F92AF92BF92CF92DF922B
:100E0000EF92FF920F931F93DF93CF93CDB7DEB78F
:100E10002797CDBFDEBF8D831B01442E38014901CA
:100E2000A42EBB24CC24DD24C901B801A601950160
:100E30000E941D1469837A838B839C8384E592E0EE
:100E40008E839F835524EE81FF81149161E070E0D1
:100E5000012E02C0660F771F0A94E2F7882777FDFC
:100E60008095982F29813A814B815C810E941D14C5
:100E700096958795779567956050784B87419E4FFB
:100E800004C096958795779567951A95D2F7A60130
:100E900095010E946314CA01B901A40193010E9443
:100EA000631479018A01D801C7014097A109B109EA
:100EB0008F5E9F4FA040B04090F42D81222339F4E3
:100EC000C101642D452D97010E944B0606C0C1014A
:100ED000642D452D97010E94A20681E00BC053941A
:100EE0008E819F8101968E839F8397E0591609F02A
:100EF000AACF80E02796CDBFDEBFCF91DF911F91B3
:100F00000F91FF90EF90DF90CF90BF90AF909F90A8
:100F10008F907F906F905F904F903F902F900895AB
:100F2000E0E0F1E0108AE0E8F1E0118280E00E9468
:100F3000A30508950E949007E0E2F3E080818B7F93
:100F400080830895E0E0F1E010A2E0E8F1E0128291
:100F500080E00E94BB0508950E94A207E0E0F8E04F
:100F600021E0208383E1818389E493E086AB97AB22
:100F7000E0E4F6E02183E0E4F8E085E08083168297
:100F800008950E94A207E0E2F3E08081877F8083DA
:100F900008950E949007E0E4F9E086E0808381E014
:100FA0008183E0E6F6E081818061818386818061D2
:100FB000868308951F93162F843369F1853370F467
:100FC0008133F9F0823320F4803309F04FC015C02B
:100FD0008233D9F0833309F049C01AC0873341F115
:100FE000883330F48533D9F0863309F03FC01BC015
:100FF000883319F18933D1F52AC0E0E0F6E081E0C9
:101000002FC0E0E0F6E082E02BC0E0E0F6E01DC09B
:10101000E0E0F6E024C0E0E0F6E080E121C0E0E0BE
:10102000F6E080E21DC00E949A07E0E2F6E00DC003
:101030000E94C107E0E2F6E012C08091010A8F7BB6
:10104000E0E0FAE08183E0E8F6E084E009C0809126
:10105000010A8F77E0E0FAE08183E0E8F6E088E0DB
:101060008183112311F0858301C086831F91089528
:10107000843309F442C0853360F4813321F1823333
:1010800018F48033B1F417C0823349F1833389F403
:101090002DC0873309F458C0883328F48533E1F133
:1010A000863339F448C0883309F45FC0893309F4C2
:1010B00070C080ED089581E0E0E0F6E082838091E9
:1010C00008068170089582E0E0E0F6E08283809176
:1010D000080690E08270907095958795089584E059
:1010E000E0E0F6E08283809108064BC088E0E0E013
:1010F000F6E08283809108062FC080E1E0E0F6E010
:1011000082838091080690E08071907064E09595EC
:1011100087956A95E1F7089580E2E0E0F6E0828342
:101120008091080690E08072907055E095958795C3
:101130005A95E1F708950E949A0784E0E0E2F6E00C
:101140008283809128061DC00E94C10788E0E0E2EA
:10115000F6E082838091280690E08870907043E0EA
:10116000959587954A95E1F708958091010A8F7BBF
:10117000E0E0FAE0818384E0E0E8F6E082838091B9
:10118000880690E0847090709595879595958795E1
:1011900008958091010A8F77E0E0FAE0818388E08A
:1011A000E0E8F6E082838091880690E08870907095
:1011B00023E0959587952A95E1F70895653711F411
:1011C00098E105C0643611F090E001C090E18433ED
:1011D00069F1853370F48133F1F0823320F4803388
:1011E00009F047C014C08233D1F0833309F041C005
:1011F00019C0873339F1883328F48533D9F0863321
:10120000C1F51CC0883311F1893399F529C0E0E09C
:10121000F6E0908B0895E0E0F6E0918B0895E0E031
:10122000F6E01CC0E0E0F6E0938B0895E0E0F6E025
:10123000948B0895E0E0F6E0958B0895E0E0F6E009
:10124000968B0895E0E0F6E0978B08958091010A6F
:101250008F7BE0E0FAE08183E0E8F6E0928B08958E
:101260008091010A8F77E0E0FAE08183E0E8F6E020
:10127000938B0895E0E0FAE01682178210928001C5
:101280001382118210820895809104208530E0F04D
:10129000909104208091B10985FFFCCF91509093EB
:1012A000B00992E00CC0E92FF0E0E157FD4DE0817C
:1012B0008091B10985FFFCCFE093B0099F5F8091D9
:1012C0000420981780F302C00E94EF0110920620BC
:1012D00008951F920F920FB60F9211242F933F93F0
:1012E0004F935F936F937F938F939F93AF93BF932E
:1012F000EF93FF9380910420882329F00E943A09FC
:101300000E9444090FC0809105208F5F80930520C3
:10131000809105208B3F30F00E943A090E94EF0136
:1013200010920620FF91EF91BF91AF919F918F9105
:101330007F916F915F914F913F912F910F900FBED1
:101340000F901F9018951F920F920FB60F921124B5
:101350002F933F934F935F936F937F938F939F93BD
:10136000AF93BF93EF93FF93E0E0FAE010A211A2D6
:1013700080910420803C38F00E943A090E94EF01DD
:101380001092062039C0E0910420F0E08091280AF4
:10139000E057FD4D8083E0910420F0E08091290A20
:1013A0008F77E157FD4D8083E0910420F0E0E05716
:1013B000FD4D8081803450F4E0910420F0E0E1574D
:1013C000FD4D8081882311F4109204208091042027
:1013D000E0910420F0E0E157FD4DE081813138F0EB
:1013E000E13128F00E943A090E94440905C0809129
:1013F00004208E5F80930420FF91EF91BF91AF9105
:101400009F918F917F916F915F914F913F912F911C
:101410000F900FBE0F901F901895982F8091CF01BD
:1014200087FDFCCF8091CF0181FF12C086E3E0EC05
:10143000F1E08287EF93FF930F932F93EBECF1E0B2
:1014400008ED21E004BF20832F910F91FF91EF91D0
:10145000E0ECF1E083E38287262F30E02F713070DB
:10146000892F90E0A5E0880F991FAA95E1F7282B16
:10147000392B2093C001832F8F7181831282448383
:1014800085E38287EF93FF930F932F93EBECF1E0CB
:1014900008ED21E004BF20832F910F91FF91EF9180
:1014A0000895982FE0ECF1E08091CF0187FDFACF0D
:1014B000262F30E02F713070892F90E0B5E0880F33
:1014C000991FBA95E1F7282B392B2093C001832F60
:1014D0008F718183128286E08287EF93FF930F934F
:1014E0002F93EBECF1E008ED21E004BF20832F9176
:1014F0000F91FF91EF918091C40108959F92AF9257
:10150000BF92CF92DF92EF92FF920F931F93CF93F0
:10151000DF937C0180E4A82E8CE9B82E0AE3902E9C
:1015200011E0C12ED12C062F10E0C5010197F1F773
:1015300090918B2180918C21981771F0E0918C21F2
:10154000F0E0E757FF4D928180918C218F5F80936F
:101550008C219A3209F460C08091B10985FFFCCFDB
:101560009092B009C0E0D0E0C6010C2E02C0880FF6
:10157000991F0A94E2F78E219F21892B69F09E0121
:10158000205D822F0E943808982F8091B10985FF35
:10159000FCCF905D9093B0092196CA30D10521F718
:1015A000C0E0D0E0C8010C2E02C0959587950A9442
:1015B000E2F780FF2CC0FE01E85DFD4FE4918E2F25
:1015C00060E00E94AD02282F982F92959F709A306C
:1015D00030F48091B10985FFFCCF905D05C080910A
:1015E000B10985FFFCCF995C9093B009922F9F7051
:1015F0009A3030F48091B10985FFFCCF905D05C031
:101600008091B10985FFFCCF995C9093B009219638
:10161000C630D10539F689CFDF91CF911F910F9157
:10162000FF90EF90DF90CF90BF90AF909F90089584
:101630000F931F93CF93DF93062FEC0110E00CC0A4
:101640000E948E0121E08030920721F40E94EF0178
:1016500000E004C089931F5F101790F3802FDF9183
:10166000CF911F910F910895682F81E693E20E9418
:10167000180B0895E1E6F3E2E80FF11D228130E056
:1016800040E050E0808190E0A0E0B0E0DC019927EC
:101690008827282B392B4A2B5B2B818190E0A0E0F7
:1016A000B0E0BA2FA92F982F8827282B392B4A2B47
:1016B0005B2BB901CA0108952F923F924F925F921E
:1016C0006F927F928F929F92AF92BF92CF92DF9252
:1016D000EF92FF920F931F93DF93CF93CDB7DEB7B7
:1016E0006097CDBFDEBF88ED84BF81E0E0E9F0E028
:1016F00086838091500082608093500080915100D9
:1017000081FFFCCF88ED84BF809140008160809391
:101710004000E0E0F9E084E08093000983E7818302
:101720008FEF9FEF86AB97AB809161068760E0E615
:10173000F6E0818380E060E040E00E944D010E947D
:1017400055020E94AC070E946304E0E2F3E080E4EB
:10175000818389E0828382E5848381E08093200312
:1017600080E00E94A30580E00E94BB050E94C9079B
:10177000F894E0EAF4E0E0935023F093512388E7F3
:1017800081838BE9858381E084838091A2008160DD
:10179000E0EAF0E08283789487E090E50E94EF042D
:1017A00085E090E00E94EF0486E094EE0E94EF0452
:1017B00088E090EE0E94EF0489E098E00E94EF0438
:1017C0008AE090E10E94EF0487E091E50E94EF0437
:1017D00083E890E06DEF0E945A018091CC01877FF1
:1017E000E0ECF1E0848778946624772480E060E080
:1017F00040E00E944D01E0E4F8E01682F894E0E059
:10180000F8E010A611A6789410E0B7E8CB2EA0EE71
:10181000DA2EF3E8EF2EE0EDFE2E00E88091B1091C
:1018200085FFFCCF22E42093B0098091B10985FFA8
:10183000FCCF3CE43093B00990918B2180918C21B6
:101840009817B9F1E0918C21F0E0E757FF4D128134
:1018500080918C218F5F80938C21103879F4809156
:10186000782480937924E092A608F092A7088091CA
:10187000A10885FFFCCF0093A00810C0112389F4B4
:101880008091782480937924C092A608D092A708EA
:101890008091A10885FFFCCF1092A0080E94BE0194
:1018A00008C08091B10985FFFCCF1093B0091A32AE
:1018B00059F088E893E1E0E2F3E03197F1F701971E
:1018C000D1F71A3209F0AACF80E090E0A0E0B0E0B2
:1018D0009C01AD012F5F3F4F4F4F5F4F2B833C83E8
:1018E0004D835E8390918B2180918C21981709F410
:1018F00094C7E0918C21F0E0E757FF4D92818091F1
:101900008C218F5F80938C21992309F486C7809165
:10191000B10985FFFCCF9093B009892F90E0FC01BD
:10192000B197E835F10508F073C7E454FF4FEE0FA7
:10193000FF1F0590F491E02D0994198280E593E250
:101940006CE4AE014F5F5F4F21E004E00E949E0413
:1019500080915F238823E1F79091572390938D2105
:101960008091582380938E218091592380938F21D9
:1019700080915A2380939021109260238091B10925
:1019800085FFFCCF9093B00990918E218091B10991
:1019900085FFFCCF9093B00990918F218091B10980
:1019A00085FFFCCF9093B009909190218091B1096F
:1019B00085FFFCCF9093B0092BC782E00E94340BC7
:1019C000882309F425C73091612338871F8200914D
:1019D000622310E04F815885042B152B0E9490073D
:1019E000E0E4F9E086E08093400951E05183809182
:1019F000410980618183F894E0E4F9E000A711A730
:101A0000789406C7809141098F7EE0E4F9E08183F4
:101A1000809166068061E0E6F6E08683F9C680E3A1
:101A200060E00E94AD02982F8091B10985FFFCCF44
:101A30009093B009EDC680912802806880932802B7
:101A400080912B0280FFFCCF61E060932B0290918C
:101A50002C028091B10985FFFCCF9093B009D8C6C4
:101A600088E360E00E94AD02982F8091B10985FF64
:101A7000FCCF9093B009CCC682E00E94340B88233F
:101A800009F4C6C680916123803369F484E08093B1
:101A90000020109207201092082091E090930120DE
:101AA0000E945502B5C6813319F510920020E1E07D
:101AB000E093072090916223892F8153863058F458
:101AC0009053990F990F9093082083E08093012001
:101AD0000E9455029DC6903341F41092082082E086
:101AE000809301200E94550293C60E94EF0190C688
:101AF0000E94EF018DC608E212E0F801849160E0D7
:101B00000E94AD02982F8091B10985FFFCCF909380
:101B1000B0090F5F1F4FF2E00E321F0771F778C652
:101B200082E00E94340B882309F472C680916123FD
:101B3000609162230E94D802282F8091B10985FF0D
:101B4000FCCF9093B0098091B10985FFFCCF209321
:101B5000B0095EC682E00E94340B882309F458C69F
:101B6000E0906123F090622300E81EE37DE0C72E41
:101B70006AE0D62EC8010197F1F78E2D6F2D0E94D5
:101B8000D80254E0880F991F5A95E1F744E09595E3
:101B900087954A95E1F761E673E24AE050E00E94DA
:101BA0008514E1E6F3E207C08091B10985FFFCCF1F
:101BB0009093B009319690819923B1F78091B10942
:101BC00085FFFCCFC092B0098091B10985FFFCCFA1
:101BD000D092B009CFCF83E00E94340B882309F460
:101BE00017C68091612360916223409163230E9414
:101BF0004D010EC60E948E019C01C097029718F0FD
:101C00000E94EF0105C6922F90538091A4088F7E09
:101C10008093A4088091A408877F8093A408E0E4BF
:101C2000F6E024E0228388E08183992391F4809177
:101C300052068F7B828B809153068F7B838B8091A2
:101C4000A5088F738093A50883E88093A60880ED8C
:101C500018C09130C1F4809152068064828B8091CB
:101C600053068064838B1092F8081092F9088091D3
:101C7000A5088F7380688093A5088DE38093A608DC
:101C800083EE8093A7088091A40880618093A408C4
:101C90008091A40888608093A40880917824809320
:101CA0007924B6C50E94AC070E948E018C017C018C
:101CB00031E08030930719F40E94EF01A9C50E941A
:101CC0008E013C0141E08030940719F40E94EF013D
:101CD0009FC5902F8827860D971D80939F219093F5
:101CE000A021F894E0E0F8E086AB97AB78940E94EE
:101CF0008E013C0151E08030950719F40E94EF01FC
:101D000087C58093A12160E1681738F022EAC22ECE
:101D100021E2D22E00E010E023C00E94EF0178C53E
:101D20000E948E017C0180E0E81681E0F80619F43B
:101D30000E94EF016DC50E948E013C0190E0691682
:101D400091E0790619F40E94EF0162C59E2D882763
:101D5000860D971DF601819391936F010F5F1F4FC1
:101D60008091A12190E008171907D4F2F0E0EF1656
:101D7000F1E0FF0609F44CC520E0621621E072068E
:101D800009F446C50E948E013C0131E08030930782
:101D900019F40E94EF013CC58093C2210E948E017C
:101DA0003C0141E08030940719F40E94EF0130C5F6
:101DB0008093C32190E0019768E070E00E94501486
:101DC0006F5F6093C4210E948E018C0151E08030CE
:101DD000950719F40E94EF011BC50E948E013C017A
:101DE00061E08030960719F40E94EF0111C5902F31
:101DF0008827860D971D8093C5219093C6210E9448
:101E00008E018C0181E00030180719F40E94EF0167
:101E1000FFC40E948E013C01902F8827860D971DDC
:101E20008093C7219093C8210E948E018C0191E07C
:101E30000030190719F40E94EF01EAC40E948E01D4
:101E40009C013C01E1E080309E0719F40E94EF0103
:101E5000DFC4902F8827280F391F2093C921309382
:101E6000CA21D6C40E94AC0700E010E010C00E9456
:101E70008E013C01F1E080309F0719F40E94EF01D0
:101E8000C7C4F801E156FE4D84A70F5F1F4F809134
:101E9000C42190E00817190754F320E0621621E0EE
:101EA000720609F4B5C40E948E018C0131E08030C5
:101EB000930719F40E94EF01ABC40E948E013C010C
:101EC00041E08030940719F40E94EF01A1C4902FE3
:101ED0008827860D971D80938B2290938C22892BC7
:101EE00039F081E090E080938D2290938E2204C09F
:101EF00010928D2210928E220E94FD0289C41092AF
:101F00008D2210928E22E0E4F8E01682F894E0E050
:101F1000F8E010A611A678947BC451E050930620F7
:101F200085E08093000A90E19093010A88E2809313
:101F3000030AE0E4F6E09283809154068064848B87
:101F400084E68093800180E49FE18093360A909339
:101F5000370A109204201092052083E08093060A2D
:101F60008093070A8091A2008460E0EAF0E0828317
:101F7000809106208823E1F74BC40E948E01282F10
:101F80002053253008F059C080910420853008F492
:101F900054C08091042090E0019760E270E00E94BC
:101FA00050145B018091042090E0019760E270E0A2
:101FB0000E9450144C0186E0289FC0011124482E35
:101FC00040910420415060E00E940D0AEE24FF245D
:101FD00001E010E0E2E0CE2ED12C17C0542C5E0CB4
:101FE000F601E157FD4D4081852D602F0E940D0ABD
:101FF0000894C11CD11C0F5F1F4F0032110584F3E0
:102000000894E11CF11C00E010E0EA14FB0434F336
:102010000EC0F601E157FD4D40818F2D602F0E94CB
:102020000D0A0894C11CD11C0F5F1F4F02C0F42C75
:10203000FA0C081519056CF3EBC30E94EF01E8C315
:102040000E948E017C0100E010E06C010894C10840
:10205000D1080CC00E948E0161E080309607A9F083
:10206000F801E156FE4D84A70F5F1F4F0C151D05AB
:102070008CF38E2D81508093C3210E948E018C01A0
:1020800081E00030180739F403C00E94EF01C0C39B
:102090000E94EF01BDC30E948E013C0190E06916D1
:1020A00091E0790619F40E94EF01B2C3902F8827BE
:1020B000860D971D80938B2290938C22892B39F06B
:1020C00081E090E080938D2290938E2204C0109244
:1020D0008D2210928E2289E493E080939F21909329
:1020E000A0211092A121E4E0E093C2210E94FD0210
:1020F0008FC30E948E0160EDF62EF80EF4E0FF15FE
:1021000008F48DC00E948E018C0121E0803092077E
:1021100019F40E94EF017CC30E948E013C0131E062
:102120008030930719F40E94EF0172C3902F882723
:10213000860D971D80938B2290938C22892B39F0EA
:1021400081E090E080938D2290938E2204C01092C3
:102150008D2210928E2286E0F89EC00111248A837F
:1021600060E00E94510A982E90E02C0145E05594C1
:1021700047944A95E1F73FE1232E312C282239225A
:10218000EE24FF2401E010E0CC24DD2414C0882DCF
:10219000602F0E94510AF50181935F010894C11CD0
:1021A000D11C0F5F1F4F003211058CF30894E11C06
:1021B000F11C00E010E0C6018C96E414F5044CF428
:1021C0002FE9A22E21E2B22EA80EB91E8A808E0C13
:1021D000DECFBFE9EB2EB1E2FB2EE80EF91EDA806E
:1021E000D40C09C08D2D602F0E94510AF7018193F4
:1021F0007F010F5F1F4F02151305A4F39A9490926D
:10220000C32189E493E080939F219093A0211092B1
:10221000A121F4E0F093C2210E94FD02F9C20E94C4
:10222000EF01F6C20E948E01982F9053953008F06E
:102230004FC086E0989FC0011124A82E60E00E9444
:10224000510A282F90E06C01A5E0D594C794AA9577
:10225000E1F7FFE18F2E912C882299228091B1091C
:1022600085FFFCCF2093B009EE24FF2401E010E0AD
:1022700017C0BA2CBE0C8B2D602F0E94510A982FCC
:102280008091B10985FFFCCF9093B0090F5F1F4F7C
:102290000032110584F30894E11CF11C00E010E009
:1022A000EC14FD0434F30EC08F2D602F0E94510AF0
:1022B000982F8091B10985FFFCCF9093B0090F5FF3
:1022C0001F4F02C0FA2CFC0C081519056CF3A0C2B4
:1022D0000E94EF019DC20E948E018C0121E080309E
:1022E000920719F40E94EF0193C20E948E013C01F3
:1022F00031E08030930719F40E94EF0189C2682F02
:102300006053802F0E94DA0783C20E948E0141E051
:102310008030940719F40E94EF017AC20E943808B5
:10232000682E772480E390E0680E791E8091B109D1
:1023300085FFFCCF6092B0096BC282E00E94340B33
:10234000882309F465C2909161239A871986809148
:10235000622390E0E985FA858E2B9F2B80930220E3
:102360009093032055C283E00E94340B882309F424
:102370004FC2F1E0F093000A83E08093010A1092CB
:10238000030A80910220909103208093360A909353
:10239000370A909162239C871B8680916323282FA4
:1023A00030E04B855C85242B352B80916123803375
:1023B00071F48091010A80648093010AE0E8F6E0FC
:1023C00054E0518320932C0A30932D0A21C291337B
:1023D00009F01EC28091010A80688093010A88E09A
:1023E000E0E8F6E0818320932E0A30932F0A10C292
:1023F0000E948E0161E08030960719F40E94EF017F
:1024000007C28033910571F40E948E019C0181E026
:102410002030380719F40E94EF01FAC1822F0E9480
:10242000A305F6C18133910509F0F2C10E948E0126
:102430009C0191E02030390719F40E94EF01E8C1B6
:10244000822F0E94BB05E4C10E948E018C01E1E055
:1024500080309E0719F40E94EF01DAC10E948E01BC
:102460003C01F1E080309F0719F40E94EF01D0C1D8
:10247000902F8827860D971D23E38833920721F13B
:1024800033E38933930764F441E38233940749F1DA
:1024900051E389339507A9F081539143F9F41AC0A8
:1024A000E5E387339E0799F0F9E386339F0731F020
:1024B0008853944399F42DEF3CE00EC02DE333E0B4
:1024C00012C029E333E008C02CEC30E00CC027E850
:1024D00030E009C023E830E04DEF06C00E94EF0174
:1024E00097C127E03AE14EEF8091782480937924D8
:1024F0002093A6084295407F832F992787FD9A95C0
:10250000482B4093A70884C183E00E94340B8823A2
:1025100009F47EC1309163238091B10985FFFCCF1E
:102520003093B009409161234E871D8680916223CC
:1025300090E0ED85FE858E2B9F2B209178242093B3
:1025400079248093A608892F990F990B3295307FB3
:10255000382B3093A7085CC10E94BE0159C187E0A7
:102560000E94340B882309F453C150906123F0ED8D
:102570005F0E21E0251528F04090632330E43415E8
:1025800018F40E94EF0144C130906223209064232C
:102590008091652390E0A0E0B0E06C01BB24AA2408
:1025A0008091662390E0A0E0B0E0BA2FA92F982F89
:1025B0008827A82AB92ACA2ADB2A8091672390E0B3
:1025C000A0E0B0E0A82AB92ACA2ADB2A41E73416DB
:1025D00079F450E2451629F435E0832E25E0922E59
:1025E00015C060E1461671F080E3481639F40AC060
:1025F00094E7391619F494E0892E02C083E0882EFE
:10260000992404C004E0802E14E0912E552019F482
:102610000E94900702C00E94A207E52CFF24B6E0AA
:10262000EE0CFF1CBA95E1F7E9E0F0E2EE0EFF1EBA
:1026300019C0C701632D442D222D092D0E94D305F9
:1026400040E450E0092C02C0559547950A94E2F702
:10265000852DB701960185010E94F406882309F0B3
:10266000D7C09394891428F70E94EF01D1C085E068
:102670000E94340B882309F4CBC090916123892FE9
:102680008053823030F460916523613410F4662306
:1026900019F40E94EF01BCC0092F10E00053104054
:1026A0007801A6E0EE0CFF1CAA95E1F729E030E2E4
:1026B000E20EF31EC7010E94180B882309F4A8C07C
:1026C000D02E002319F40E94900702C00E94A20796
:1026D0000091622310E020E030E0980111270027EC
:1026E0008091632390E0A0E0B0E0BA2FA92F982F4B
:1026F0008827082B192B2A2B3B2B8091642390E0F1
:10270000A0E0B0E0082B192B2A2B3B2B8D2DB70115
:10271000409165230E94F4067BC00E948E018033A5
:10272000910519F40E94900773C0C19719F40E9493
:10273000A2076EC00E94EF016BC080917824909137
:102740007924891B282F8091B10985FFFCCF822F26
:102750008F5F8093B009822F90E09C0113C0E091BD
:102760007924F0E0EA58FC4D9281809179248F5FC2
:10277000809379248091B10985FFFCCF9093B009B3
:10278000215030401216130654F342C00E948E01AD
:102790008C0131E080309307B9F40E94EF0138C01A
:1027A0000E948E01382F3C0140E0641641E074061F
:1027B00019F40E94EF012CC08091A10885FFFCCF85
:1027C0003093A008015010400115110549F720C0B1
:1027D00082E00E94340B8823D9F0809161236091BC
:1027E00062230E94DE0814C083E00E94340B882319
:1027F00079F050916123588B1F868091622390E07D
:10280000EF85F8898E2B9F2B609163230E947E0AAF
:1028100080E090E0A0E0B0E004C08B819C81AD81BD
:10282000BE812B813C814D815E8121583B454440D6
:10283000524014F00C94F60B4BC8629FD001739F6A
:10284000F001829FE00DF11D649FE00DF11D929F4C
:10285000F00D839FF00D749FF00D659FF00D99278B
:10286000729FB00DE11DF91F639FB00DE11DF91FAF
:10287000BD01CF0111240895AA1BBB1B51E107C064
:10288000AA1FBB1FA617B70710F0A61BB70B881F00
:10289000991F5A95A9F780959095BC01CD0108958F
:1028A00097FB092E07260AD077FD04D0E5DF06D076
:1028B00000201AF4709561957F4F0895F6F7909572
:1028C00081959F4F0895A1E21A2EAA1BBB1BFD0103
:1028D0000DC0AA1FBB1FEE1FFF1FA217B307E407FF
:1028E000F50720F0A21BB30BE40BF50B661F771F57
:1028F000881F991F1A9469F7609570958095909537
:102900009B01AC01BD01CF010895FB019F01E8943B
:102910004230C4F04532B4F44A3029F497FB1EF437
:10292000909581959F4F642F77270E943C14805D7E
:102930008A330CF0895D8193CB010097A1F716F4DF
:102940005DE251931082C9010C94A614DC01FC01D4
:10295000672F71917723E1F7329704C07C916D93D3
:1029600070836291AE17BF07C8F30895F894FFCF44
:02297000040160
:00000001FF
