:100000000C942E010C944B010C944B010C944B015D
:100010000C944B010C944B010C944B010C944B0130
:100020000C944B010C944B010C944B010C944B0120
:100030000C944B010C944B010C944B010C944B0110
:100040000C944B010C944B010C944B010C944B0100
:100050000C9417030C944B010C944B010C944B0122
:100060000C944B010C942D020C944B010C944B01FD
:100070000C944B010C944B010C944B010C944B01D0
:100080000C944B010C944B010C944B010C944B01C0
:100090000C944B010C944B010C944B010C944B01B0
:1000A0000C944B010C944B010C944B010C944B01A0
:1000B0000C944B010C944B010C940B050C946909A6
:1000C0000C944B010C94A3090C944B010C944B0120
:1000D0000C944B010C944B010C944B010C944B0170
:1000E0000C944B010C944B010C944B010C944B0160
:1000F0000C944B010C944B010C944B010C944B0150
:100100000C944B010C944B010C944B010C944B013F
:100110000C944B010C944B010C944B010C944B012F
:100120000C944B010C944B010C944B010C944B011F
:100130000C944B010C944B010C944B010C944B010F
:100140000C944B010C944B010C944B010C944B01FF
:100150000C944B010C944B010C944B010C944B01EF
:100160000C944B010C944B010C944B010C94050224
:100170000C944B010C944B01DD1080157415801507
:1001800080158015801580158015801580158015C7
:1001900080158015801580158015801580158015B7
:1001A0008015801580158015801580158015E31247
:1001B0008015C9128015EA14FD0D3D0EE1139C0E49
:1001C00080158015D6118015B00F580F80156F0E51
:1001D00080158015490FFB12F70DEB101B117B0EDC
:1001E0004515900E9414FA0D80150914801580158C
:1001F00080158015801580155115620E66155613F1
:10020000080F8015701280159010801580158015CC
:1002100080158015801511138015FA147E11231591
:10022000811380150C14EE0E000810182028000110
:1002300002030405808C98A5B0BCC6D0DAE2EAF0CF
:10024000F5FAFDFEFFFEFDFAF5F0EAE2DAD0C6BCF3
:10025000B0A5988C0001020306080A0011241FBEF5
:10026000CFEFD7E2DEBFCDBF10E2A0E0B0E2EAE41C
:10027000FCE202C005900D92A230B107D9F714E25A
:10028000A2E0B0E201C01D92A838B107E1F70E94D8
:10029000B00C0C9423160C9400008095609540954A
:1002A000E0E0F9E081AF80AF43AF42AF60933D093A
:1002B00064AF0895E0E4F6E028E0218324E022839F
:1002C000E0EAF8E023E0258325812F732583E0937E
:1002D0007723F093782310927A2410927924238143
:1002E0002F7C20622383A0EAB0E012962C91129713
:1002F000226012962C9386836295607F892F990FD6
:10030000990B682B678384818061848384818860F2
:1003100084838091792480937A24089520E030E0CA
:1003200040E45FE105C02F5F3F4FCA010197F1F73D
:1003300090918C2180918D21981729F481E0243FA0
:10034000380789F717C0245F3140A4F4E0918D216C
:10035000F0E0E657FF4D928180918D218F5F809371
:100360008D218091B10985FFFCCF292F30E090933A
:10037000B00902C020E031E0C901089511C0E09148
:100380007A24F0E0E958FC4D928180917A248F5FC5
:1003900080937A248091B10985FFFCCF9093B009B6
:1003A0009091792480917A24981749F711C0E091AF
:1003B0008D21F0E0E657FF4D928180918D218F5F76
:1003C00080938D218091A10885FFFCCF9093A00898
:1003D00090918C2180918D21981711F3E8CF809115
:1003E000B10985FFFCCF85E48093B0098091B10904
:1003F00085FFFCCF82E58093B0098091B10985FF2C
:10040000FCCF82E58093B00908951F920F920FB63A
:100410000F9211242F938F939F93EF93FF939091BB
:100420008C219F5F80918D21E0918A20F0918B201B
:100430002081981741F0E0918C21F0E0E657FF4DC4
:10044000228390938C21FF91EF919F918F912F9117
:100450000F900FBE0F901F9018951F920F920FB61E
:100460000F9211242F938F939F93EF93FF9390916B
:1004700079249F5F80917A24E0917723F09178230B
:100480002081981741F0E0917924F0E0E958FC4D83
:10049000228390937924FF91EF919F918F912F91D7
:1004A0000F900FBE0F901F90189582E08093CA01A5
:1004B000E0E2F0E0E4911092CA01A0E0B2E01C9604
:1004C000EC931C978093CA01E1E2F0E0E491109272
:1004D000CA011D96EC939091010220910020809119
:1004E0000720811180E1997E922B982BA0E0B2E049
:1004F00011969C93119780910402876014968C93B7
:10050000149780910202806312968C9312978091C7
:100510002802807E8093280220913002809108205A
:1005200090910120892B207E822B80933002E8E27B
:10053000F2E0118288E3E0E3F2E08183809102023D
:10054000816012968C9380910002816080930002FA
:1005500080E49FE10197F1F70895682BE0E3F2E072
:100560006183809130028068E0E0F2E080AB8091AE
:10057000330280FD04C08091060282FFF8CF81E043
:10058000E0E0F2E083AB80910020843029F4809198
:100590003402482F50E00AC0809135029091340215
:1005A000382F20E0492F50E0422B532BCA010895E9
:1005B000982F80538630E8F480910120643318F43A
:1005C000833021F416C0823019F413C0603388F0F0
:1005D000663378F4E92FF0E0E850FE4F8491E62F7F
:1005E000F0E0E250FE4FE4916E2F0E94AD029C01BC
:1005F00002C02FEF3FEFC901089510924F231092D0
:10060000502310927E2410927F2410927B24F89421
:10061000E0E4F8E010A211A2789483E0E0E4F8E0CE
:100620008683E0EAF0E082818460828308951F92ED
:100630000F920FB60F9211242F933F934F938F93E6
:100640009F93EF93FF9380917E2490917F24019755
:1006500059F4F894E0E0F8E010A611A6789410920E
:100660007E2410927F2412C0F894809126089091E5
:10067000270896958795E0E0F8E080A791A7789401
:1006800081E090E080937E2490937F2440917B24AE
:100690008091C421481798F180917E2490917F2405
:1006A000892B21F08091C321833049F58091C321AA
:1006B000833031F4F894E0E0F8E010A611A67894C5
:1006C00080918E2290918F22892B51F4E0E4F8E002
:1006D0001682F894E0E0F8E010A611A67894D5C050
:1006E00010924F231092502310927E2410927F2458
:1006F00010927B2480918C2290918D2243C0209176
:100700004F23309150238091A22190E02817390780
:1007100094F4F901EE0FFF1FE056FE4D83819481A2
:10072000E0E4F8E086A397A32F5F3F4F20934F2389
:1007300030935023AAC08091C321882341F0813097
:1007400031F580917E2490917F240197B9F4E42FB4
:10075000E695E695E695F0E0E056FE4D24A530E0FE
:10076000842F90E0809590958770907002C03595A9
:1007700027958A95E2F720FF4DC051C08091CA218C
:100780009091CB21E0E4F8E086A397A37EC082306D
:1007900011F580917E2490917F24892BB9F4E42F68
:1007A000E695E695E695F0E0E056FE4D24A530E0AE
:1007B000842F90E0809590958770907002C0359559
:1007C00027958A95E2F720FF49C043C08091CA214E
:1007D0009091CB2128C0833009F045C080917E24C0
:1007E00090917F24E42FE695E695E695242F30E05E
:1007F000892BF9F4F0E0E056FE4D84A590E02095B9
:1008000030952770307002C0959587952A95E2F74C
:1008100080FF05C08091C8219091C92104C08091BA
:10082000C6219091C721E0E4F8E086A397A34F5F2B
:100830002AC0F0E0E056FE4D84A590E0209530956A
:100840002770307002C0959587952A95E2F780FF52
:1008500005C08091C6219091C72194CF8091C82175
:100860009091C9218FCF843081F4E42FF0E0E056DD
:10087000FE4D25A594A580E0820F911DE0E4F8E0EF
:1008800086A397A34E5F40937B24FF91EF919F91A6
:100890008F914F913F912F910F900FBE0F901F900E
:1008A000189582E0E0E4F6E0868384E690E020E2BA
:1008B00033E0F9013197F1F70197D9F782E0E0E4ED
:1008C000F6E085830895FF920F931F9382E0E0E4A2
:1008D000F6E0818300E616E0F0E2FF2EF801F182F7
:1008E0000E945104F801F68280E8818380E48283CB
:1008F000E0EBF9E083E08583E0938A20F0938B209E
:1009000010928D2110928C2183818F7C8062838351
:10091000A0EAB0E012968C911297826012968C93A6
:1009200083E8868380ED87838481806184838481EA
:10093000886084831F910F91FF9008950F93CF9348
:10094000DF93DC01722F253008F044C0053008F039
:1009500041C01F968C911F978823E1F581E01F9677
:100960008C931F9750961C925097660F12966C931B
:100970001297EA0120E030E007C08991FD01E20F03
:10098000F31F83832F5F3F4F2717B8F31B967C938A
:100990001B971C960C931C971D961C921D971E96D8
:1009A0001C921E971B968C911B97882329F01296F8
:1009B0008C9112978E7F09C01C968C911C9788236E
:1009C00039F012968C9112978160ED91FC9186839B
:1009D00081E001C080E0DF91CF910F9108950F93E6
:1009E000DF93CF9300D0CDB7DEB789839A8381E5BB
:1009F00093E26CE4AE014F5F5F4F22E000E00E94A3
:100A00009E04809160238823E1F70F900F90CF918F
:100A1000DF910F9108951F920F920FB60F9211243C
:100A20002F933F934F938F939F93AF93BF93EF93E6
:100A3000FF93A0915123B091522314964C91149797
:100A4000242F30E0C9018C709070892B71F01496BE
:100A50009C91149792FF02C084E001C083E08093D0
:100A60006123986014969C935EC046FF2CC09091C1
:100A70005C2320915D2314968C91149784FF05C00C
:100A800083E013968C9385E04CC080915E23891798
:100A900070F4E0915E23F0E0EF5AFC4D83811796ED
:100AA0008C9380915E238F5F80935E233EC0809104
:100AB0005F23821730F480915323816016968C93C4
:100AC00034C083E029C047FF2BC080915F2384306E
:100AD00078F417968C911797E0915F23F0E0EF5A26
:100AE000FC4D878380915F238F5F80935F2309C0D4
:100AF00083E013968C93139782E080936123109286
:100B0000602390915D2380915F23891720F482E018
:100B100013968C930AC087E013968C9381E001C0F2
:100B200086E08093612310926023FF91EF91BF9143
:100B3000AF919F918F914F913F912F910F900FBE49
:100B40000F901F901895982FE0E0F1E0108AE0E8F0
:100B5000F1E0118282E5E0E2F3E0848380912003FA
:100B60008460809320038091250380FFFCCFE0E226
:100B7000F3E0918F0895982FE0E0F1E010A2E0E813
:100B8000F1E0128282E5E0E2F3E0848380912003C9
:100B90008860809320038091250381FFFCCFE0E2F1
:100BA000F3E0938F0895EF92FF920F931F93CF93EB
:100BB000DF937C01122F613781F4FC0180E002C0D9
:100BC00011938F5F8417E0F305C0F701E40FF11D67
:100BD00010824F5F4034C8F33BC06337C9F4C0E0B4
:100BE000D0E0FE01EC5CFD4FE49197012C0F3D1F1E
:100BF000E19FC00111246FEF70E00E94A915F90177
:100C000060832196C032D10561F7F70190E218C0E8
:100C1000622F70E020E030E040E050E0F701E20FAA
:100C2000F31FCA01A5E096958795AA95E1F7808301
:100C30002F5F3F4F460F571F2032310579F7E5CF21
:100C40008081212F281B20A39F5F31969034C1F70C
:100C50000023D1F081E090E002C0880F991F0A952F
:100C6000E2F7482F982F30E020E0D701A30FB11D05
:100C7000F701E20FF11D80818C933F5F240F940FE9
:100C8000892F841B803488F3DF91CF911F910F91BE
:100C9000FF90EF9008950F931F93E0E4F9E05181E6
:100CA0005F7E5183E0E6F6E0568150615683F8940A
:100CB00000E213E05FE5F8015483A0E0B1E0509654
:100CC0001C925097E0E4F9E016824F5F4083118256
:100CD00026A337A310A211A228EDE0E8F1E02183BA
:100CE000F80121812E7F218320812560208322E04D
:100CF00053962C93539720ED52962C93529770E075
:100D000054966D937C93559758968C935897599613
:100D10009C9359975A961C925A9789E35C968C93A8
:100D20005C9783E05D968C935D975E961C925E97D0
:100D300084EA50968C93509780E88C9378941F9116
:100D40000F9108950F931F93F894E0E0F8E010A638
:100D500011A67894F89400E213E05FE5F80154835B
:100D6000A0E0B1E090961C929097E0E4F8E0168243
:100D70004F5F4083118226A337A310A211A228EC53
:100D8000E0E8F1E02283F80121812D7F2183208199
:100D90002960208333E093963C93939720ED9296BD
:100DA0002C93929770E094966D937C939597989678
:100DB0008C93989799969C9399979A961C929A9748
:100DC0008BE39C968C939C979D963C939D979E96C7
:100DD0001C929E9784EA90968C93909780E88C93CF
:100DE00078941F910F9108952F923F924F925F92A6
:100DF0006F927F928F929F92AF92BF92CF92DF922B
:100E0000EF92FF920F931F93DF93CF93CDB7DEB78F
:100E10002797CDBFDEBF8D831B01442E38014901CA
:100E2000A42EBB24CC24DD24C901B801A601950160
:100E30000E948A1569837A838B839C8384E592E080
:100E40008E839F835524EE81FF81149161E070E0D1
:100E5000012E02C0660F771F0A94E2F7882777FDFC
:100E60008095982F29813A814B815C810E948A1557
:100E700096958795779567956050784B87419E4FFB
:100E800004C096958795779567951A95D2F7A60130
:100E900095010E94D015CA01B901A40193010E94D5
:100EA000D01579018A01D801C7014097A109B1097C
:100EB0008F5E9F4FA040B04090F42D81222339F4E3
:100EC000C101642D452D97010E944B0606C0C1014A
:100ED000642D452D97010E94A20681E00BC053941A
:100EE0008E819F8101968E839F8397E0591609F02A
:100EF000AACF80E02796CDBFDEBFCF91DF911F91B3
:100F00000F91FF90EF90DF90CF90BF90AF909F90A8
:100F10008F907F906F905F904F903F902F900895AB
:100F2000E0E0F1E0108AE0E8F1E0118280E00E9468
:100F3000A30508950E949007E0E2F3E080818B7F93
:100F400080830895E0E0F1E010A2E0E8F1E0128291
:100F500080E00E94BB0508950E94A207E0E0F8E04F
:100F600021E0208383E1818389E493E086AB97AB22
:100F7000E0E4F6E02183E0E4F8E085E08083168297
:100F800008950E94A207E0E2F3E08081877F8083DA
:100F900008950E949007E0E4F9E086E0808381E014
:100FA0008183E0E6F6E081818061818386818061D2
:100FB000868308951F93162F843369F1853370F467
:100FC0008133F9F0823320F4803309F04FC015C02B
:100FD0008233D9F0833309F049C01AC0873341F115
:100FE000883330F48533D9F0863309F03FC01BC015
:100FF000883319F18933D1F52AC0E0E0F6E081E0C9
:101000002FC0E0E0F6E082E02BC0E0E0F6E01DC09B
:10101000E0E0F6E024C0E0E0F6E080E121C0E0E0BE
:10102000F6E080E21DC00E949A07E0E2F6E00DC003
:101030000E94C107E0E2F6E012C08091010A8F7BB6
:10104000E0E0FAE08183E0E8F6E084E009C0809126
:10105000010A8F77E0E0FAE08183E0E8F6E088E0DB
:101060008183112311F0858301C086831F91089528
:10107000843309F442C0853360F4813321F1823333
:1010800018F48033B1F417C0823349F1833389F403
:101090002DC0873309F458C0883328F48533E1F133
:1010A000863339F448C0883309F45FC0893309F4C2
:1010B00070C080ED089581E0E0E0F6E082838091E9
:1010C00008068170089582E0E0E0F6E08283809176
:1010D000080690E08270907095958795089584E059
:1010E000E0E0F6E08283809108064BC088E0E0E013
:1010F000F6E08283809108062FC080E1E0E0F6E010
:1011000082838091080690E08071907064E09595EC
:1011100087956A95E1F7089580E2E0E0F6E0828342
:101120008091080690E08072907055E095958795C3
:101130005A95E1F708950E949A0784E0E0E2F6E00C
:101140008283809128061DC00E94C10788E0E0E2EA
:10115000F6E082838091280690E08870907043E0EA
:10116000959587954A95E1F708958091010A8F7BBF
:10117000E0E0FAE0818384E0E0E8F6E082838091B9
:10118000880690E0847090709595879595958795E1
:1011900008958091010A8F77E0E0FAE0818388E08A
:1011A000E0E8F6E082838091880690E08870907095
:1011B00023E0959587952A95E1F70895653711F411
:1011C00098E105C0643611F090E001C090E18433ED
:1011D00069F1853370F48133F1F0823320F4803388
:1011E00009F047C014C08233D1F0833309F041C005
:1011F00019C0873339F1883328F48533D9F0863321
:10120000C1F51CC0883311F1893399F529C0E0E09C
:10121000F6E0908B0895E0E0F6E0918B0895E0E031
:10122000F6E01CC0E0E0F6E0938B0895E0E0F6E025
:10123000948B0895E0E0F6E0958B0895E0E0F6E009
:10124000968B0895E0E0F6E0978B08958091010A6F
:101250008F7BE0E0FAE08183E0E8F6E0928B08958E
:101260008091010A8F77E0E0FAE08183E0E8F6E020
:10127000938B0895E0E0FAE01682178210928001C5
:101280001382118210820895809104208530E0F04D
:10129000909104208091B10985FFFCCF91509093EB
:1012A000B00992E00CC0E92FF0E0E057FD4DE0817D
:1012B0008091B10985FFFCCFE093B0099F5F8091D9
:1012C0000420981780F302C00E94EF0110920620BC
:1012D00008951F920F920FB60F9211242F933F93F0
:1012E0004F935F936F937F938F939F93AF93BF932E
:1012F000EF93FF9380910420882329F00E943A09FC
:101300000E9444090FC0809105208F5F80930520C3
:10131000809105208B3F30F00E943A090E94EF0136
:1013200010920620FF91EF91BF91AF919F918F9105
:101330007F916F915F914F913F912F910F900FBED1
:101340000F901F9018951F920F920FB60F921124B5
:101350002F933F934F935F936F937F938F939F93BD
:10136000AF93BF93EF93FF93E0E0FAE010A211A2D6
:1013700080910420803C38F00E943A090E94EF01DD
:101380001092062039C0E0910420F0E08091280AF4
:10139000EF56FD4D8083E0910420F0E08091290A12
:1013A0008F77E057FD4D8083E0910420F0E0EF5609
:1013B000FD4D8081803450F4E0910420F0E0E0574E
:1013C000FD4D8081882311F4109204208091042027
:1013D000E0910420F0E0E057FD4DE081813138F0EC
:1013E000E13128F00E943A090E94440905C0809129
:1013F00004208E5F80930420FF91EF91BF91AF9105
:101400009F918F917F916F915F914F913F912F911C
:101410000F900FBE0F901F901895982F8091CF01BD
:1014200087FDFCCF8091CF0181FF12C086E3E0EC05
:10143000F1E08287EF93FF930F932F93EBECF1E0B2
:1014400008ED21E004BF20832F910F91FF91EF91D0
:10145000E0ECF1E083E38287262F30E02F713070DB
:10146000892F90E0A5E0880F991FAA95E1F7282B16
:10147000392B2093C001832F8F7181831282448383
:1014800085E38287EF93FF930F932F93EBECF1E0CB
:1014900008ED21E004BF20832F910F91FF91EF9180
:1014A0000895982FE0ECF1E08091CF0187FDFACF0D
:1014B000262F30E02F713070892F90E0B5E0880F33
:1014C000991FBA95E1F7282B392B2093C001832F60
:1014D0008F718183128286E08287EF93FF930F934F
:1014E0002F93EBECF1E008ED21E004BF20832F9176
:1014F0000F91FF91EF918091C40108959F92AF9257
:10150000BF92CF92DF92EF92FF920F931F93CF93F0
:10151000DF937C012AE3922E91E0A92EB12C062FB5
:1015200010E080E4C82E8CE9D82E90918C21809117
:101530008D21981771F0E0918D21F0E0E657FF4D75
:10154000928180918D218F5F80938D219A3209F451
:1015500063C08091B10985FFFCCF9092B009C0E0D3
:10156000D0E0C5010C2E02C0880F991F0A94E2F743
:101570008E219F21892B69F09E01205D822F0E9480
:101580003808982F8091B10985FFFCCF905D90932A
:10159000B0092196CA30D10521F7C0E0D0E0C801DA
:1015A0000C2E02C0959587950A94E2F780FF2CC017
:1015B000FE01E85DFD4FE4918E2F60E00E94AD02D8
:1015C000282F982F92959F709A3030F48091B1090E
:1015D00085FFFCCF905D05C08091B10985FFFCCFF0
:1015E000995C9093B009922F9F709A3030F480915B
:1015F000B10985FFFCCF905D05C08091B10985FFE1
:10160000FCCF995C9093B0092196C630D10539F68C
:10161000C6010197F1F789CFDF91CF911F910F910B
:10162000FF90EF90DF90CF90BF90AF909F90089584
:10163000CF93DF93582FC0E8D4E2FE01119284E2E9
:10164000E838F807D9F7A0917C24B0917D24309137
:10165000892011963C93119716963C93169798E221
:10166000892F8A95F1F715963C9315978DE0282FD1
:101670002A95F1F716963C9316978A95F1F71596E9
:101680003C9315979A95F1F79CE048E22DE00CC049
:1016900016963C931697842F8A95F1F715963C93EE
:1016A0001597822F8A95F1F7915090F716963C93F3
:1016B00016979DE0892F8A95F1F715963C9315971B
:1016C00088E2282F2A95F1F716963C9316979A955B
:1016D000F1F715963C9315978A95F1F796E048E255
:1016E0002DE00CC016963C931697842F8A95F1F73F
:1016F00015963C931597822F8A95F1F7915090F7A4
:1017000016963C9316972DE0822F8A95F1F7159641
:101710003C93159798E2892F8A95F1F7552359F450
:1017200016963C931697892F8A95F1F715963C9358
:101730001597822F0AC016963C931697822F8A958A
:10174000F1F715963C931597892F8A95F1F7129624
:101750003C93129740E021E09FEF52E13AC0189687
:101760008C911897832399F5852F8A95F1F7189610
:101770008C911897832339F0E42FF0E0E058FB4D6B
:101780008081822B8083220FC9F44F5F4830A8F0FC
:101790008091B10985FFFCCF87E48093B0099881DF
:1017A0008091B10985FFFCCF9093B009219684E226
:1017B000C838D807A1F781E010C021E090E6915029
:1017C00059F018968C9118978323C9F39FEF000066
:1017D0000000915009F0C3CF80E0DF91CF910895D0
:1017E0000F931F93CF93DF93582F062F142F482F5B
:1017F0004053463018F420E036E00CC0883318F42B
:1018000020E236E007C08A3318F020E030E002C062
:1018100020E836E020937C2430937D24463038F055
:10182000563321F0583311F043E001C042E081E02B
:1018300090E002C0880F991F4A95E2F780938920B3
:10184000232BF9F0563319F40E949A0713C057332B
:1018500019F40E94C1070EC0583321F48091010A87
:101860008F7B05C0593331F48091010A8F77E0E016
:10187000FAE08183002341F4812F0E94180B882312
:1018800031F50E94EF0123C0C0E4DCE990918C2186
:1018900080918D219817A1F0E0918D21F0E0E6571D
:1018A000FF4D928180918D218F5F80938D219A329F
:1018B00071F0923711F410E003C0923509F411E091
:1018C000812F0E94180BCE010197F1F7DFCFDF9136
:1018D000CF911F910F9108950F931F93CF93DF9393
:1018E000062FEC0110E00CC00E948E0121E0803038
:1018F000920721F40E94EF0100E004C089931F5F6A
:10190000101790F3802FDF91CF911F910F910895C1
:10191000682F82E693E20E946C0C0895E2E6F3E2FF
:10192000E80FF11D228130E040E050E0808190E03E
:10193000A0E0B0E0DC0199278827282B392B4A2B1F
:101940005B2B818190E0A0E0B0E0BA2FA92F982F07
:101950008827282B392B4A2B5B2BB901CA01089504
:101960002F923F924F925F926F927F928F929F92AF
:10197000AF92BF92CF92DF92EF92FF920F931F939D
:10198000DF93CF93CDB7DEB72E97CDBFDEBF88ED07
:1019900084BF81E0E0E9F0E08683809150008260BE
:1019A000809350008091510081FFFCCF88ED84BF6F
:1019B00080914000816080934000E0E0F9E084E0A5
:1019C0008093000983E781838FEF9FEF86AB97AB0E
:1019D000809161068760E0E6F6E0818380E060E068
:1019E00040E00E944D010E9455020E94AC070E94F7
:1019F0006304E0E2F3E080E4818389E0828382E5AE
:101A0000848381E08093200380E00E94A30580E02E
:101A10000E94BB050E94C907F894E0EAF4E0E09355
:101A20005123F093522388E781838BE9858381E0FA
:101A300084838091A2008160E0EAF0E08283789460
:101A400087E090E50E94EF0485E090E00E94EF04BB
:101A500086E094EE0E94EF0488E090EE0E94EF048E
:101A600089E098E00E94EF048AE090E10E94EF0490
:101A700087E091E50E94EF0483E890E06DEF0E941B
:101A80005A018091CC01877FE0ECF1E08487789463
:101A90001B826624772480E060E040E00E944D01D4
:101AA000E0E4F8E01682F894E0E0F8E010A611A671
:101AB000789410E0B7E8CB2EA0EEDA2EF3E8EF2E04
:101AC000E0EDFE2E00E88091B10985FFFCCF22E415
:101AD0002093B0098091B10985FFFCCF3CE430939D
:101AE000B00990918C2180918D219817B9F1E091E6
:101AF0008D21F0E0E657FF4D128180918D218F5F9F
:101B000080938D21103879F48091792480937A2400
:101B1000E092A608F092A7088091A10885FFFCCF6B
:101B20000093A00810C0112389F480917924809338
:101B30007A24C092A608D092A7088091A10885FFB8
:101B4000FCCF1092A0080E94BE0108C08091B1098C
:101B500085FFFCCF1093B0091A3259F088E893E161
:101B6000E0E2F3E03197F1F70197D1F71A3209F08B
:101B7000AACF1C82C5C78B81882371F42F5F3F4F8A
:101B80004F4F5F4F21389BE5390794E0490792E0BA
:101B9000590714F0E1E0EC8390918C2180918D2124
:101BA000981709F4B1C7E0918D21F0E0E657FF4D99
:101BB000928180918D218F5F80938D21992309F4EB
:101BC000A3C78091B10985FFFCCF9093B009892FFD
:101BD00090E0FC01B197E835F10508F091C7E454B5
:101BE000FF4FEE0FFF1F0590F491E02D0994F1E0F7
:101BF000FC8386C708E212E0DEC0198281E593E229
:101C00006CE4AE014F5F5F4F21E004E00E949E0450
:101C1000809160238823E1F79091582390938E213F
:101C20008091592380938F2180915A238093902112
:101C300080915B2380939121109261238091B1095F
:101C400085FFFCCF9093B00990918F218091B109CD
:101C500085FFFCCF9093B009909190218091B109BC
:101C600085FFFCCF9093B009909191218091B109AB
:101C700085FFFCCF9093B00943C782E00E94880C97
:101C8000882309F43DC7209162232E831D82009191
:101C9000632310E04D815E81042B152B0E94900779
:101CA000E0E4F9E086E08093400951E051838091BF
:101CB000410980618183F894E0E4F9E000A711A76D
:101CC00078941EC7809141098F7EE0E4F9E081831A
:101CD000809166068061E0E6F6E0868311C780E3C6
:101CE00060E00E94AD02982F8091B10985FFFCCF82
:101CF0009093B00905C780912802806880932802DC
:101D000080912B0280FFFCCF81E080932B02909189
:101D10002C028091B10985FFFCCF9093B009F0C6E9
:101D200088E360E00E94AD02982F8091B10985FFA1
:101D3000FCCF9093B009E4C682E00E94880C88230F
:101D400009F4DEC680916223803369F494E09093B5
:101D500000201092072010920820E1E0E09301207B
:101D60000E945502CDC6813319F510920020F1E092
:101D7000F093072090916323892F8153863058F484
:101D80009053990F990F9093082083E0809301203E
:101D90000E945502B5C6903341F41092082082E0AB
:101DA000809301200E945502ABC60E94EF01A8C695
:101DB0000E94EF01A5C6F801849160E00E94AD0287
:101DC000982F8091B10985FFFCCF9093B0090F5FE8
:101DD0001F4FF2E00E321F0771F792C682E00E9499
:101DE000880C882309F48CC6809162236091632358
:101DF0000E94D802282F8091B10985FFFCCF9093D3
:101E0000B0098091B10985FFFCCF2093B00978C655
:101E100082E00E94880C882309F472C6E090622355
:101E2000F090632300E81EE37DE0C72E6AE0D62E23
:101E3000C8010197F1F78E2D6F2D0E94D80254E052
:101E4000880F991F5A95E1F744E0959587954A9533
:101E5000E1F762E673E24AE050E00E94F215E2E642
:101E6000F3E207C08091B10985FFFCCF9093B009E0
:101E7000319690819923B1F78091B10985FFFCCF0C
:101E8000C092B0098091B10985FFFCCFD092B00912
:101E9000CFCF83E00E94880C882309F431C680915B
:101EA000622360916323409164230E944D0128C600
:101EB0000E948E019C01C097029718F00E94EF01CA
:101EC0001FC6922F90538091A4088F7E8093A40800
:101ED0008091A408877F8093A408E0E4F6E024E0E2
:101EE000228388E08183992391F4809152068F7B2D
:101EF000828B809153068F7B838B8091A5088F7393
:101F00008093A50883E88093A60880ED18C09130DF
:101F1000C1F4809152068064828B80915306806464
:101F2000838B1092F8081092F9088091A5088F739E
:101F300080688093A5088DE38093A60883EE809344
:101F4000A7088091A40880618093A4088091A408C8
:101F500088608093A4088091792480937A24D0C5E6
:101F60000E94AC070E948E018C017C0131E0803020
:101F7000930719F40E94EF01C3C50E948E013C0132
:101F800041E08030940719F40E94EF01B9C5902F09
:101F90008827860D971D8093A0219093A121F89406
:101FA000E0E0F8E086AB97AB78940E948E013C01AC
:101FB00051E08030950719F40E94EF01A1C580938C
:101FC000A22180E1861538F023EAC22E21E2D22E2A
:101FD00000E010E022C00E94EF0192C50E948E0135
:101FE0007C0190E0E91691E0F90619F40E94EF01F6
:101FF00087C50E948E013C01E1E080309E0719F404
:102000000E94EF017DC59E2D8827860D971DF60144
:10201000819391936F010F5F1F4F8091A22190E0F8
:1020200008171907DCF2F0E0EF16F1E0FF0609F4FB
:1020300067C520E0621621E0720609F461C50E94BE
:102040008E013C0131E08030930719F40E94EF01CA
:1020500057C58093C3210E948E013C0141E080302E
:10206000940719F40E94EF014BC58093C42190E0BE
:10207000019768E070E00E94BD156F5F6093C52115
:102080000E948E018C0151E08030950719F40E9466
:10209000EF0136C50E948E013C0180E0681681E0A8
:1020A000780619F40E94EF012BC5902F8827860D22
:1020B000971D8093C6219093C7210E948E018C01A9
:1020C00091E00030190719F40E94EF0119C50E9430
:1020D0008E013C01902F8827860D971D8093C82183
:1020E0009093C9210E948E018C01E1E080309E070F
:1020F00019F40E94EF0104C50E948E019C013C016D
:10210000F1E080309F0719F40E94EF01F9C4902F8D
:102110008827280F391F2093CA213093CB21F0C480
:102120000E94AC0700E010E010C00E948E013C014C
:1021300021E08030920719F40E94EF01E1C4F80118
:10214000E056FE4D84A70F5F1F4F8091C52190E0A0
:102150000817190754F330E0631631E0730609F4E9
:10216000CFC40E948E018C0141E08030940719F4A5
:102170000E94EF01C5C40E948E013C0151E08030F5
:10218000950719F40E94EF01BBC4902F8827860D94
:10219000971D80938C2290938D22892B39F081E0BA
:1021A00090E080938E2290938F2204C010928E2212
:1021B00010928F220E94FD02A3C410928E221092D0
:1021C0008F22E0E4F8E01682F894E0E0F8E010A650
:1021D00011A6789495C481E08093062085E08093D1
:1021E000000A90E19093010A88E28093030AE0E4F8
:1021F000F6E09283809154068064848B84E6809319
:10220000800180E49FE18093360A9093370A109210
:1022100004201092052083E08093060A8093070A29
:102220008091A2008460E0EAF0E082838091062041
:102230008823E1F765C40E948E01282F20532530A2
:1022400008F059C080910420853008F454C0809172
:10225000042090E0019760E270E00E94BD155B01F0
:102260008091042090E0019760E270E00E94BD152B
:102270004C0186E0289FC0011124482E4091042083
:10228000415060E00E940D0AEE24FF2401E010E0BE
:10229000E2E0CE2ED12C17C0542C5E0CF601E05794
:1022A000FD4D4081852D602F0E940D0A0894C11CB0
:1022B000D11C0F5F1F4F0032110584F30894E11CFD
:1022C000F11C00E010E0EA14FB0434F30EC0F60148
:1022D000E057FD4D40818F2D602F0E940D0A08941C
:1022E000C11CD11C0F5F1F4F02C0F42CFA0C081543
:1022F00019056CF305C40E94EF0102C40E948E010F
:102300007C0100E010E06C010894C108D1080CC009
:102310000E948E01E1E080309E07A9F0F801E056AE
:10232000FE4D84A70F5F1F4F0C151D058CF38E2DDE
:1023300081508093C4210E948E018C01F1E0803095
:102340009F0739F403C00E94EF01DAC30E94EF0136
:10235000D7C30E948E013C0121E08030920719F41E
:102360000E94EF01CDC3902F8827860D971D809383
:102370008C2290938D22892B39F081E090E080931C
:102380008E2290938F2204C010928E2210928F2260
:1023900089E493E08093A0219093A1211092A2213F
:1023A00034E03093C3210E94FD02AAC30E948E0133
:1023B00060EDF62EF80E44E04F1508F48EC00E9432
:1023C0008E018C0151E08030950719F40E94EF01D5
:1023D00097C30E948E013C0180E0681681E0780678
:1023E00019F40E94EF018CC3902F8827860D971D4A
:1023F00080938C2290938D22892B39F081E090E09C
:1024000080938E2290938F2204C010928E2210927D
:102410008F2286E0F89EC00111248A8360E00E942A
:10242000510A982E90E02C0145E0559447944A9526
:10243000E1F73FE1232E312C2822392201E010E080
:10244000CC24DD24EE24FF2414C0882D602F0E94AC
:10245000510AF50181935F010894C11CD11C0F5FE3
:102460001F4F003211058CF30894E11CF11C00E0B1
:1024700010E0C6018C96E414F5044CF420EAA22E78
:1024800021E2B22EA80EB91E8A808E0CDECFB0EAF1
:10249000EB2EB1E2FB2EE80EF91EDA80D40C09C057
:1024A0008D2D602F0E94510AF70181937F010F5FEC
:1024B0001F4F02151305A4F39A949092C42189E446
:1024C00093E08093A0219093A1211092A221F4E0A7
:1024D000F093C3210E94FD0213C30E94EF0110C3B9
:1024E0000E948E01982F9053953008F04FC086E0DF
:1024F000989FC0011124A82E60E00E94510A282F45
:1025000090E06C01A5E0D594C794AA95E1F7FFE1AE
:102510008F2E912C882299228091B10985FFFCCFC2
:102520002093B009EE24FF2401E010E017C0BA2C7C
:10253000BE0C8B2D602F0E94510A982F8091B109FB
:1025400085FFFCCF9093B0090F5F1F4F003211053C
:1025500084F30894E11CF11C00E010E0EC14FD048D
:1025600034F30EC08F2D602F0E94510A982F809156
:10257000B10985FFFCCF9093B0090F5F1F4F02C0D8
:10258000FA2CFC0C081519056CF3BAC20E94EF0175
:10259000B7C20E948E018C0121E08030920719F4AD
:1025A0000E94EF01ADC20E948E013C0131E08030FB
:1025B000930719F40E94EF01A3C2682F6053802F84
:1025C0000E94DA079DC20E948E0141E0803094078C
:1025D00019F40E94EF0194C20E943808682E7724F3
:1025E00080E390E0680E791E8091B10985FFFCCFF1
:1025F0006092B00985C282E00E94880C882309F4A9
:102600007FC29091622398871F828091632390E01C
:10261000EF81F8858E2B9F2B8093022090930320CF
:102620006FC283E00E94880C882309F469C2F1E03C
:10263000F093000A83E08093010A1092030A8091CC
:102640000220909103208093360A9093370A90914C
:1026500063239A87198680916423282F30E0498567
:102660005A85242B352B80916223803371F480911D
:10267000010A80648093010AE0E8F6E054E05183A7
:1026800020932C0A30932D0A3BC2913309F038C2B3
:102690008091010A80688093010A88E0E0E8F6E012
:1026A000818320932E0A30932F0A2AC20E948E0122
:1026B0009C0181E02030380719F40E94EF0120C20C
:1026C0002033310571F40E948E019C0191E020308D
:1026D000390719F40E94EF0113C2822F0E94A3054B
:1026E0000FC22133310509F00BC20E948E01E1E0D7
:1026F00080309E0719F40E94EF0102C20E94BB05C0
:10270000FFC10E948E018C01F1E080309F0719F417
:102710000E94EF01F5C10E948E013C0121E0803052
:10272000920719F40E94EF01EBC1902F8827860DC4
:10273000971D33E38833930721F143E389339407EB
:1027400064F451E38233950749F1E1E389339E074D
:10275000A9F081539143F9F41AC025E38733920716
:1027600099F039E38633930731F08853944399F411
:102770002DEF3CE00EC02DE333E012C029E333E03F
:1027800008C02CEC30E00CC027E830E009C023E89A
:1027900030E04DEF06C00E94EF01B2C127E03AE100
:1027A0004EEF8091792480937A242093A608429555
:1027B000407F832F992787FD9A95482B4093A70840
:1027C0009FC183E00E94880C882309F499C130914D
:1027D00064238091B10985FFFCCF3093B0095091FB
:1027E00062235C871B868091632390E0EB85FC85E8
:1027F0008E2B9F2B2091792420937A248093A608F6
:10280000892F990F990B3295307F382B3093A70879
:1028100077C10E94BE0174C187E00E94880C8823A2
:1028200009F46EC150906223F0ED5F0E21E0251592
:1028300028F04090642330E4341518F40E94EF012E
:102840005FC130906323209065238091662390E0E0
:10285000A0E0B0E06C01BB24AA248091672390E043
:10286000A0E0B0E0BA2FA92F982F8827A82AB92A6C
:10287000CA2ADB2A8091682390E0A0E0B0E0A82A71
:10288000B92ACA2ADB2A41E7341679F450E2451600
:1028900029F435E0832E25E0922E15C080E14816FC
:1028A00071F090E3491639F40AC0E4E73E1619F4D2
:1028B00094E0892E02C083E0882E992404C004E0AD
:1028C000802E14E0912E552019F40E94900702C02A
:1028D0000E94A207E52CFF24B6E0EE0CFF1CBA957F
:1028E000E1F729E030E2E20EF31E19C0C701632DC3
:1028F000442D222D092D0E94D30540E450E0092CDF
:1029000002C0559547950A94E2F7852DB7019601C7
:1029100085010E94F406882309F0F2C0939489147B
:1029200028F70E94EF01ECC085E00E94880C882304
:1029300009F4E6C090916223892F8053823030F4ED
:1029400060916623613410F4662319F40E94EF014C
:10295000D7C0092F10E0005310407801A6E0EE0C1C
:10296000FF1CAA95E1F749E050E2E40EF51EC7010D
:102970000E946C0C882309F4C3C0D02E002319F4E4
:102980000E94900702C00E94A2070091632310E0FA
:1029900020E030E09801112700278091642390E027
:1029A000A0E0B0E0BA2FA92F982F8827082B192B69
:1029B0002A2B3B2B8091652390E0A0E0B0E0082B10
:1029C000192B2A2B3B2B8D2DB701409166230E949A
:1029D000F40696C00E948E018033910519F40E947E
:1029E00090078EC0C19719F40E94A20789C00E9467
:1029F000EF0186C08091792490917A24891B282F39
:102A00008091B10985FFFCCF822F8F5F8093B00941
:102A1000822F90E09C0113C0E0917A24F0E0E95805
:102A2000FC4D928180917A248F5F80937A248091EB
:102A3000B10985FFFCCF9093B009215030401216A8
:102A4000130654F35DC00E948E018C0151E080306A
:102A50009507B9F40E94EF0153C00E948E01382FF0
:102A60003C0180E0681681E0780619F40E94EF01CD
:102A700047C08091A10885FFFCCF3093A00801508A
:102A800010400115110549F73BC082E00E94880CF7
:102A90008823B1F180916223609163230E94DE0854
:102AA0002FC083E00E94880C882351F1909162230B
:102AB0009E871D868091632390E0ED85FE858E2B99
:102AC0009F2B609164230E947E0A1AC083E00E94BB
:102AD000880C8823A9F08091622360916323409140
:102AE00064230E94F00B0CC00E948E01F1E0803044
:102AF0009F0719F40E94EF0103C0482F40534B83F6
:102B000020E030E040E050E08C81882311F00C940C
:102B10004B0D31C8629FD001739FF001829FE00D81
:102B2000F11D649FE00DF11D929FF00D839FF00D4C
:102B3000749FF00D659FF00D9927729FB00DE11DF8
:102B4000F91F639FB00DE11DF91FBD01CF011124D5
:102B50000895AA1BBB1B51E107C0AA1FBB1FA617E4
:102B6000B70710F0A61BB70B881F991F5A95A9F736
:102B700080959095BC01CD01089597FB092E0726FD
:102B80000AD077FD04D0E5DF06D000201AF4709556
:102B900061957F4F0895F6F7909581959F4F089521
:102BA000A1E21A2EAA1BBB1BFD010DC0AA1FBB1F51
:102BB000EE1FFF1FA217B307E407F50720F0A21BC3
:102BC000B30BE40BF50B661F771F881F991F1A9430
:102BD00069F760957095809590959B01AC01BD015A
:102BE000CF010895FB019F01E8944230C4F04532C3
:102BF000B4F44A3029F497FB1EF4909581959F4FC9
:102C0000642F77270E94A915805D8A330CF0895DB7
:102C10008193CB010097A1F716F45DE251931082E6
:102C2000C9010C941316DC01FC01672F7191772305
:102C3000E1F7329704C07C916D9370836291AE1777
:0A2C4000BF07C8F30895F894FFCF12
:022C4A00040183
:00000001FF
