:100000000C9423010C9440010C9440010C94400189
:100010000C9440010C9440010C9440010C9440015C
:100020000C9440010C9440010C9440010C9440014C
:100030000C9440010C9440010C9440010C9440013C
:100040000C9440010C9440010C9440010C9440012C
:100050000C9421040C9440010C9440010C94400138
:100060000C9440010C9443030C9440010C94400107
:100070000C9440010C9440010C9440010C944001FC
:100080000C9440010C9440010C9440010C944001EC
:100090000C9440010C9440010C9440010C944001DC
:1000A0000C9440010C9440010C9440010C944001CC
:1000B0000C9440010C9440010C947A070C94CF0BE3
:1000C0000C9440010C94070C0C9440010C944001DA
:1000D0000C9440010C9440010C9440010C9440019C
:1000E0000C9440010C9440010C9440010C9440018C
:1000F0000C9440010C9440010C9440010C9440017C
:100100000C9440010C9440010C9440010C9440016B
:100110000C9440010C9440010C9440010C9440015B
:100120000C9440010C9440010C9440010C9440014B
:100130000C9440010C9440010C9440010C9440013B
:100140000C9440010C9440010C9440010C9440012B
:100150000C9440010C9440010C9440010C9440011B
:100160000C9440010C9440010C9440010C941B032E
:100170000C9440010C944001C8116215621562157F
:1001800062156215621562156215621562156215B7
:1001900062156215621562156215621562156215A7
:1001A0006215621562156215621562156215B91243
:1001B00062159712621562154F0F700F28146215A1
:1001C000621562152D1262153F102C106215A10FD9
:1001D00062156215F80FD812A80ED511DC11AA0FFE
:1001E0006215B20FF914BB0F62156D14621562151A
:1001F00062156215621562156215940F6215781307
:1002000062156215831262156F116215621562150F
:10021000621562156215FE1262150B15F511341583
:10022000C11362157014808C98A5B0BCC6D0DAE2F8
:10023000EAF0F5FAFDFEFFFEFDFAF5F0EAE2DAD0AB
:10024000C6BCB0A5988C11241FBECFEFD7E2DEBF8D
:10025000CDBF10E2A0E0B0E2E2E8FBE202C0059010
:100260000D92A830B107D9F714E2A8E0B0E201C0BE
:100270001D92AA37B107E1F70E946F0E0C94BF15CB
:100280000C94000080915000826080935000809117
:10029000510081FFFCCF88ED84BF809140008160D8
:1002A000809340000895A0E0B9E084E08C9383E758
:1002B00011968C9311978FEF9FEFD6968D939C9309
:1002C000D797E0E6F6E08181876081838FEFD9964A
:1002D0008C93D997DB968C9380933D0908958095F4
:1002E000E0E0F9E081AF409543AF609560933D0950
:1002F0000895E0E6F6E080E8818380E48283E0EB25
:10030000F9E083E08583E0938D20F0938E201092B6
:10031000902110928F2183818F7C80628383A0EA59
:10032000B0E012968C911297826012968C9383E8BB
:10033000868380ED87838481806184838481886063
:1003400084830895E0E4F6E028E0218324E022831A
:10035000E0EAF8E023E0258325812F732583E093ED
:100360007323F093742310927624109275242381C2
:100370002F7C20622383A0EAB0E012962C91129782
:10038000226012962C9386836295607F892F990F45
:10039000990B682B67838481806184838481886062
:1003A000848380917524809376240895982FA0EA01
:1003B000B8E08091A4088F7E14968C931497809156
:1003C000A408877F14968C931497E0E4F6E084E009
:1003D000828388E081839923A1F4809152068F7BE8
:1003E000828B809153068F7B838B8091A5088F73BE
:1003F00015968C93159783E816968C93169780ED37
:100400001AC09130D1F4809152068064828B809121
:1004100053068064838B1092F8081092F90880913B
:10042000A5088F73806815968C9315978DE31696A3
:100430008C93169783EE17968C93E0EAF8E0809100
:10044000A408806184838091A4088860848380915B
:100450007524809376240895209175242093762422
:10046000E0EAF8E086836295607F892F990F990B07
:10047000682B67830895FC01818185FFFDCF608330
:100480000895FC0128EE33E021503040818187FD42
:1004900004C021153105C1F704C0232B11F0808160
:1004A000089580E0089590918F2180919021981770
:1004B000D1F3E0919021F0E0E357FF4D82819091DC
:1004C00090219F5F90939021089520E030E040E4D8
:1004D0005FE105C02F5F3F4FCA010197F1F790918F
:1004E0008F2180919021981729F481E0243F3807CB
:1004F00089F711C0245F314074F4E0919021F0E05D
:10050000E357FF4D9281809190218F5F80939021DE
:10051000292F30E002C020E031E0C901089511C068
:10052000E0917624F0E0ED58FC4D928180917624A4
:100530008F5F809376248091B10985FFFCCF9093E3
:10054000B0099091752480917624981749F711C0CD
:10055000E0919021F0E0E357FF4D9281809190214E
:100560008F5F809390218091A10885FFFCCF9093AD
:10057000A00890918F2180919021981711F3E8CFD6
:10058000FC0160837183ED5FFE4F1082129208952B
:10059000FC01EE5FFE4F9191808120E0981321E0F5
:1005A000822F0895FC01EE5FFE4F81919081891B9F
:1005B00090E00895FC01DC01AD5FBE4F8C91E80F27
:1005C000F11D82819C919F5F9C930895CF93DF934F
:1005D000DC01EC01CE5FDE4F98819F5FAD5FBE4FC7
:1005E0008C91A350B140ED91FC911197E081981747
:1005F00011F480E007C08881A80FB11D1296EC931A
:10060000988381E0DF91CF9108958091B10985FFB2
:10061000FCCF85E48093B0098091B10985FFFCCFC0
:1006200082E58093B0098091B10985FFFCCF82E516
:100630008093B00908951F920F920FB60F92112464
:100640002F938F939F93EF93FF9390918F219F5FB1
:1006500080919021E0918D20F0918E20208198173B
:1006600041F0E0918F21F0E0E357FF4D228390931A
:100670008F21FF91EF919F918F912F910F900FBE3E
:100680000F901F9018951F920F920FB60F92112482
:100690002F938F939F93EF93FF93909175249F5F78
:1006A00080917624E0917323F09174232081981730
:1006B00041F0E0917524F0E0ED58FC4D22839093D9
:1006C0007524FF91EF919F918F912F910F900FBE05
:1006D0000F901F901895CF93DF93E0E0F2E08181B7
:1006E000897E846081838481876084838281806342
:1006F000828328E232E0D9018C91807E8C93A0E342
:10070000B2E08C91807E81608C93E901198288E34C
:1007100011968C9382818160828380818160808345
:1007200080E49FE10197F1F7DF91CF910895E0E335
:10073000F2E08183809130028068E0E0F2E080ABFB
:100740008091330280FD04C08091060282FFF8CFC1
:1007500081E0E0E0F2E083AB8091340290E0089524
:10076000809128028068E0E0F2E080A780912B026F
:1007700080FFFCCF81E0E0E0F2E083A780912C02D3
:1007800090E00895E0E0F1E010A2E0E8F1E01282EC
:10079000E0E0F8E021E0208383E1818389E493E0D5
:1007A00086AB97ABE0E4F6E02183E0E4F8E085E097
:1007B000808316820895F894E0E0F8E086A197A17E
:1007C0009695879580A791A778940895F894E0E08E
:1007D000F8E086A197A180A791A778940895F8944E
:1007E000E0E0F8E010A611A678940895F894E0E00F
:1007F000F8E086AB97AB789408951092522310924C
:100800005323109278241092792410927724F8942C
:10081000E0E4F8E010A211A2789483E0E0E4F8E0CC
:100820008683E0EAF0E08281846082830895E0E4D8
:10083000F8E01682F894E0E0F8E010A611A67894AB
:1008400008951F920F920FB60F9211242F933F938A
:100850004F935F936F937F938F939F93AF93BF93C8
:10086000EF93FF938091782490917924019759F424
:10087000F894E0E0F8E010A611A67894109278249D
:100880001092792408C00E94DB0381E090E08093FD
:10089000782490937924409177248091C721481738
:1008A00098F18091782490917924892B21F080917E
:1008B000C621833049F58091C621833031F4F89404
:1008C000E0E0F8E010A611A6789480919122909132
:1008D0009222892B51F4E0E4F8E01682F894E0E0EB
:1008E000F8E010A611A67894D5C010925223109269
:1008F00053231092782410927924109277248091B7
:100900008F229091902243C0209152233091532303
:100910008091A52190E02817390794F4F901EE0F92
:10092000FF1FED55FE4D83819481E0E4F8E086A33E
:1009300097A32F5F3F4F2093522330935323AAC096
:100940008091C621882341F0813031F5809178244F
:10095000909179240197B9F4E42FE695E695E69510
:10096000F0E0ED55FE4D24A530E0842F90E0809519
:1009700090958770907002C0359527958A95E2F71B
:1009800020FF4DC051C08091CD219091CE21E0E457
:10099000F8E086A397A37EC0823011F58091782479
:1009A00090917924892BB9F4E42FE695E695E695A4
:1009B000F0E0ED55FE4D24A530E0842F90E08095C9
:1009C00090958770907002C0359527958A95E2F7CB
:1009D00020FF49C043C08091CD219091CE2128C0F5
:1009E000833009F045C08091782490917924E42FD8
:1009F000E695E695E695242F30E0892BF9F4F0E0B2
:100A0000ED55FE4D84A590E020953095277030700F
:100A100002C0959587952A95E2F780FF05C08091E1
:100A2000CB219091CC2104C08091C9219091CA2101
:100A3000E0E4F8E086A397A34F5F2AC0F0E0ED550D
:100A4000FE4D84A590E0209530952770307002C04F
:100A5000959587952A95E2F780FF05C08091C92179
:100A60009091CA2194CF8091CB219091CC218FCFAE
:100A7000843081F4E42FF0E0ED55FE4D25A594A5DA
:100A800080E0820F911DE0E4F8E086A397A34E5F1B
:100A900040937724FF91EF91BF91AF919F918F91F8
:100AA0007F916F915F914F913F912F910F900FBE6A
:100AB0000F901F90189582E0E0E4F6E0868384E6CC
:100AC00090E020E233E0F9013197F1F70197D9F78F
:100AD00082E0E0E4F6E085830895FF920F931F9390
:100AE00082E0E0E4F6E0818300E616E060E2F62EC4
:100AF000F801F1820E945B05F801F6820E947901FB
:100B00001F910F91FF900895DC01FB016D937C9381
:100B1000119748634183ED91FC9111972583ED91E5
:100B2000FC9181E0848308950F93CF93DF93DC01E0
:100B3000722F253008F044C0053008F041C01F96E0
:100B40008C911F978823E1F581E01F968C931F9766
:100B500050961C925097660F12966C931297EA016A
:100B600020E030E007C08991FD01E20FF31F83838D
:100B70002F5F3F4F2717B8F31B967C931B971C964C
:100B80000C931C971D961C921D971E961C921E97E7
:100B90001B968C911B97882329F012968C911297A3
:100BA0008E7F09C01C968C911C97882339F0129671
:100BB0008C9112978160ED91FC91868381E001C058
:100BC00080E0DF91CF910F910895DC01ED91FC91D0
:100BD0001197948192FF02C084E001C083E0509697
:100BE0008C935097ED91FC911197986094831F9688
:100BF0001C920895CF93DF93DC011B969C911B9769
:100C00001C962C911C97CD91DC9111978C8184FFBF
:100C100004C083E08B8385E021C01D968C911D97D5
:100C2000891778F41D968C911D97FD01E80FF11D31
:100C300083818F831D968C911D978F5F1D968C935A
:100C400012C01E968C911E97821728F412968C91D2
:100C500081608E8308C083E08B8381E050968C9303
:100C600050971F961C92DF91CF910895DC011E963C
:100C70008C911E97ED91FC911197843080F49781AF
:100C80001E968C911E97FD01E80FF11D97831E960D
:100C90008C911E978F5F1E968C931E9709C083E0E0
:100CA000838382E050968C9350971F961C921F97D7
:100CB0001C969C911C971E968C911E97ED91FC9111
:100CC0001197891718F482E08383089587E083835E
:100CD00081E050968C9350971F961C920895DC01EA
:100CE000ED91FC9111974481242F30E0C9018C7063
:100CF0009070892B21F0CD010E94E505089546FFF3
:100D000004C0CD010E94FA05089547FF04C0CD013B
:100D10000E943606089586E050968C9350971F9651
:100D20001C920895FC01608B1786089560919121B3
:100D300070919221809193219091942108958091B6
:100D40006423813019F020E030E009C080916323F2
:100D500090E0811191E081E09827292F30E0C901CE
:100D600008950F93DF93CF930F92CDB7DEB719821B
:100D700084E593E26CE4AE014F5F5F4F21E004E055
:100D80000E949405809163238823E1F780915B237F
:100D90008093912180915C238093922180915D23A7
:100DA0008093932180915E238093942110926423F9
:100DB0000F90CF91DF910F9108950F93DF93CF9311
:100DC00000D0CDB7DEB7F894E0EAF4E0E093542326
:100DD000F093552388E781838BE9858381E08483C1
:100DE0008091A2008160E0EAF0E08283789487E05D
:100DF000898380E58A8384E593E26CE4AE014F5FEA
:100E00005F4F22E000E00E949405809163238823D5
:100E1000E1F785E089831A8284E593E26CE4AE0110
:100E20004F5F5F4F22E000E00E94940580916323B2
:100E30008823E1F786E0898384EE8A8384E593E260
:100E40006CE4AE014F5F5F4F22E000E00E9494052A
:100E5000809163238823E1F788E0898380EE8A8389
:100E600084E593E26CE4AE014F5F5F4F22E000E067
:100E70000E949405809163238823E1F789E08983A8
:100E800088E08A8384E593E26CE4AE014F5F5F4FB4
:100E900022E000E00E949405809163238823E1F71B
:100EA0008AE0898380E18A8384E593E26CE4AE0181
:100EB0004F5F5F4F22E000E00E9494058091632322
:100EC0008823E1F787E0898381E58A8384E593E2DB
:100ED0006CE4AE014F5F5F4F22E000E00E9494059A
:100EE000809163238823E1F70F900F90CF91DF91DA
:100EF0000F9108951F920F920FB60F9211242F9306
:100F00003F934F935F936F937F938F939F93AF9391
:100F1000BF93EF93FF9384E593E20E946F06FF91E6
:100F2000EF91BF91AF919F918F917F916F915F9161
:100F30004F913F912F910F900FBE0F901F901895DA
:100F4000E0E2F3E080E4818389E0828382E58483C8
:100F500081E08093200380912003846080932003AC
:100F60008091250380FFFCCFE0E2F3E0118E8091B9
:100F700020038860809320038091250381FFFCCFAC
:100F8000E0E2F3E0138E0895982F809120038460AF
:100F9000809320038091250380FFFCCFE0E2F3E003
:100FA000918F0895982F809120038860809320036B
:100FB0008091250381FFFCCFE0E2F3E0938F089559
:100FC000E0E0F1E0108AE0E8F1E01182E0E2F3E035
:100FD00080818B7F80830895E0E0F1E010A2E0E85B
:100FE000F1E01282E0E2F3E08081877F8083089560
:100FF000EF92FF920F931F93CF93DF937C01122FF9
:10100000613781F4FC0180E002C011938F5F841787
:10101000E0F305C0F701E40FF11D10824F5F40348B
:10102000C8F33BC06337C9F4C0E0D0E0FE01EA5D1D
:10103000FD4FE49197012C0F3D1FE19FC00111244A
:101040006FEF70E00E947615F90160832196C0323F
:10105000D10561F7F70190E218C0622F70E020E03F
:1010600030E040E050E0F701E20FF31FCA01A5E0D5
:1010700096958795AA95E1F780832F5F3F4F460F9E
:10108000571F2032310579F7E5CF8081212F281BAA
:1010900020A39F5F31969034C1F70023D1F081E007
:1010A00090E002C0880F991F0A95E2F7482F982F09
:1010B00030E020E0D701A30FB11DF701E20FF11DD1
:1010C00080818C933F5F240F940F892F841B803481
:1010D00088F3DF91CF911F910F91FF90EF900895CA
:1010E0000F931F93E0E4F9E051815F7E5183E0E6C6
:1010F000F6E0568150615683F89400E213E050E523
:10110000F801548359E05283A0E0B1E050961C925C
:101110005097E0E4F9E016824F5F4083118226A3E6
:1011200037A310A211A228EDE0E8F1E02183F80135
:1011300021812E7F218320812560208322E0539608
:101140002C93539720ED52962C93529770E054961F
:101150006D937C93559758968C93589759969C937A
:1011600059975A961C925A9789E35C968C935C9790
:1011700083E05D968C935D975E961C925E9784EA01
:1011800050968C93509780E88C9378941F910F9190
:1011900008950F931F93F894E0E0F8E010A611A6CD
:1011A0007894F89400E213E050E5F801548359E094
:1011B0005283A0E0B1E090961C929097E0E4F8E0B2
:1011C00016824F5F4083118226A337A310A211A27B
:1011D00028ECE0E8F1E02283F80121812D7F2183D2
:1011E00020812960208333E093963C93939720EDF0
:1011F00092962C93929770E094966D937C9395972A
:1012000098968C93989799969C9399979A961C92F6
:101210009A978BE39C968C939C979D963C939D9775
:101220009E961C929E9784EA90968C93909780E865
:101230008C9378941F910F9108952F923F924F9223
:101240005F926F927F928F929F92AF92BF92CF9256
:10125000DF92EF92FF920F931F93DF93CF93CDB75F
:10126000DEB72A97CDBFDEBF482E6A834B832C831F
:10127000ED82FE820F83188719861A8610E4212ECC
:10128000312C55C060E078E488EE91E0F8010080F0
:1012900004C096958795779567950A94D2F7A4012F
:1012A00093010E949D15CA01B9012D813E814F8194
:1012B00058850E949D1569017A01D701C6014097A2
:1012C000A109B1098F5E9F4FA040B04010F5842C5A
:1012D0009924B6E0880C991CBA95E1F78DE090E26C
:1012E000880E991EC4016A814B812C8109810E945C
:1012F000F807442039F4C4016A2D452D96010E9457
:10130000700828C0C4016A2D452D96010E94C908A5
:1013100021C053940F5F1F4F97E0591609F0B2CFC9
:10132000E985FA853196E987FA87349789F0F98556
:10133000F983510102C0B594A794FA95E2F73501FB
:10134000882477FC8094982C00E010E255249ACFF2
:101350000E9405032A96CDBFDEBFCF91DF911F917A
:101360000F91FF90EF90DF90CF90BF90AF909F9044
:101370008F907F906F905F904F903F902F90089547
:10138000E0E0F1E0108AE0E8F1E011820895E0E0A9
:10139000F1E010A2E0E8F1E012820895E0E0F1E06F
:1013A000108AE0E8F1E01182E0E4F9E086E0808371
:1013B00081E08183E0E6F6E081818061818386813E
:1013C000806186830895E0E0F1E0108AE0E8F1E0D2
:1013D0001182E0E4F9E026E0208321E021832181ED
:1013E00020612183F894E0E4F9E080A791A7789444
:1013F0000895E0E4F9E081818F7E8183E0E6F6E004
:101400008681806186830895E0E0FAE081E0808350
:1014100083E081831382809108209091092086AB1C
:1014200097AB0895E0E0FAE081818F7B8183089596
:10143000E0E0FAE081818F7781830895A0E0BAE04F
:1014400011962C911197206411962C93119724E0FA
:10145000E0E8F6E021839C968D939C939D970895F8
:10146000A0E0BAE011962C911197206811962C9368
:10147000119728E0E0E8F6E021839E968D939C93F7
:101480009F970895843371F1853370F4813301F1AE
:10149000823320F4803309F067C016C08233E1F054
:1014A000833309F061C01BC0873391F1883330F476
:1014B0008533E1F0863309F057C01CC08833B9F199
:1014C000893309F051C041C0E0E0F6E081E038C066
:1014D000E0E0F6E082E034C0E0E0F6E030C0E0E0DA
:1014E000F6E023C0E0E0F6E080E12AC0E0E0F6E0CC
:1014F00080E226C0E0E0F1E0108AE0E8F1E011824D
:10150000809120038B7F80932003E0E2F6E017C0F8
:10151000E0E0F1E010A2E0E8F1E012828091200327
:10152000877F80932003E0E2F6E088E009C08091A5
:10153000010A8F7BE0E0FAE08183E0E8F6E084E0F6
:101540008183662371F4868308958091010A8F77E1
:10155000E0E0FAE08183E0E8F6E088E0818366235A
:1015600011F08583089586830895843309F442C079
:10157000853360F4813321F1823318F48033B1F480
:1015800017C0823349F1833389F42DC0873309F4BE
:1015900061C0883328F48533E1F1863339F448C0DB
:1015A000883309F471C0893309F482C080ED08954D
:1015B00081E0E0E0F6E08283809108068170089582
:1015C00082E0E0E0F6E082838091080690E082709D
:1015D000907095958795089584E0E0E0F6E0828329
:1015E000809108065DC088E0E0E0F6E082838091AB
:1015F000080641C080E1E0E0F6E0828380910806C1
:1016000090E08071907064E0959587956A95E1F718
:10161000089580E2E0E0F6E082838091080690E0A1
:101620008072907055E0959587955A95E1F70895E9
:10163000E0E0F1E0108AE0E8F1E01182809120031F
:101640008B7F8093200384E0E0E2F6E08283809148
:10165000280626C0E0E0F1E010A2E0E8F1E0128206
:1016600080912003877F8093200388E0E0E2F6E00A
:1016700082838091280690E08870907043E0959571
:1016800087954A95E1F708958091010A8F7BE0E004
:10169000FAE0818384E0E0E8F6E0828380918806C6
:1016A00090E08470907095958795959587950895AD
:1016B0008091010A8F77E0E0FAE0818388E0E0E83A
:1016C000F6E082838091880690E08870907023E035
:1016D000959587952A95E1F7089581E080930C20F0
:1016E000A0E0BAE085E08C9390E111969C9311976D
:1016F00088E213968C931397E0E4F6E09283848952
:101700008064848B84E68093800180E49FE1D69698
:101710008D939C93D79710920A2010920B2083E010
:1017200016968C93169717968C93E0EAF0E08281D8
:101730008460828308950E94050310920C2008950E
:10174000E0E0FAE016821782109280011382118283
:101750001082089580910A208530F0F090910A203F
:101760008091B10985FFFCCF91509093B00992E030
:101770000CC0E92FF0E0ED56FD4DE0818091B109FC
:1017800085FFFCCFE093B0099F5F80910A209817F6
:1017900080F310920C2008950E949B0B08951F92D5
:1017A0000F920FB60F9211242F933F934F935F9395
:1017B0006F937F938F939F93AF93BF93EF93FF9319
:1017C00080910A20882329F00E94A00B0E94AA0B76
:1017D0000DC080910B208F5F80930B2080910B2098
:1017E0008B3F20F00E94A00B0E949B0BFF91EF917A
:1017F000BF91AF919F918F917F916F915F914F9129
:101800003F912F910F900FBE0F901F9018951F9230
:101810000F920FB60F9211242F933F934F935F9324
:101820006F937F938F939F93AF93BF93EF93FF93A8
:10183000E0E0FAE010A211A280910A20803C28F09A
:101840000E94A00B0E949B0B39C0E0910A20F0E09F
:101850008091280AEC56FD4D8083E0910A20F0E04B
:101860008091290A8F77ED56FD4D8083E0910A2003
:10187000F0E0EC56FD4D8081803450F4E0910A2078
:10188000F0E0ED56FD4D8081882311F410920A207E
:1018900080910A20E0910A20F0E0ED56FD4DE081B4
:1018A000813138F0E13128F00E94A00B0E94AA0B90
:1018B00005C080910A208E5F80930A20FF91EF91EE
:1018C000BF91AF919F918F917F916F915F914F9158
:1018D0003F912F910F900FBE0F901F901895EF9290
:1018E000FF921F93CF93DF930E9465029C01182FF4
:1018F0008091B10985FFFCCF1093B009C0E0D0E022
:1019000079010894E108F10815C00E94650221E000
:101910008030920719F420E030E014C0982F8091B5
:10192000B10985FFFCCF9093B009FE01ED55FE4D46
:1019300094A72196CE15DF0544F311501093C721CB
:1019400021E030E0C901DF91CF911F91FF90EF902E
:101950000895982FE0ECF1E08091CF0187FDFACF58
:10196000262F30E02F713070892F90E0A5E0880F8E
:10197000991FAA95E1F7282B392B2093C001832FBB
:101980008F718183128286E08287EF93FF930F939A
:101990002F93EBECF1E008ED21E004BF20832F91C1
:1019A0000F91FF91EF918091C4010895AF92BF9282
:1019B000CF92DF92EF92FF920F931F93CF93DF931B
:1019C0009C01220F331F280F391F220F331FC22EF5
:1019D000822F60E00E94A90C282F90E07C0115E086
:1019E000F594E7941A95E1F7BFE1AB2EB12CA8224C
:1019F000B9228091B10985FFFCCF2093B009C1E0E5
:101A0000D0E000E010E015C0DC2CD00E8D2D6C2F46
:101A10000E94A90C982F8091B10985FFFCCF90936B
:101A2000B0092196C032D1058CF30F5F1F4FC0E083
:101A3000D0E00E151F0544F30DC0812F6C2F0E94BE
:101A4000A90C982F8091B10985FFFCCF9093B00924
:101A5000219602C01C2D1E0DCA15DB0574F3DF9103
:101A6000CF911F910F91FF90EF90DF90CF90BF909B
:101A7000AF9008955F926F927F928F929F92AF92F4
:101A8000BF92CF92DF92EF92FF920F931F93CF936B
:101A9000DF939C01220F331F280F391F220F331FA2
:101AA000522E822F60E00E94A90CB82E90E04C01CB
:101AB00075E0959487947A95E1F76FE1662E712C25
:101AC00068227922EE24FF24C1E0D0E000E010E09B
:101AD00012C08A2D6C2F0E94A90CF60181936F0110
:101AE0000894E11CF11C2196C032D10594F30F5FDC
:101AF0001F4FC0E0D0E0C7018C960815190534F0DF
:101B00008C010D551E4DF52CF80C11C053EAC52E55
:101B100051E2D52EC80ED91EA52CA00EDACF8F2DDE
:101B20006C2F0E94A90CF80181938F012196C61594
:101B3000D705ACF3BA94B092C721DF91CF911F9132
:101B40000F91FF90EF90DF90CF90BF90AF909F905C
:101B50008F907F906F905F9008958091CF0187FD67
:101B6000FCCF08958091CF0187FDFCCF8091CF01FC
:101B700081FF12C086E3E0ECF1E08287EF93FF93F0
:101B80000F932F93EBECF1E008ED21E004BF2083ED
:101B90002F910F91FF91EF910895DF92EF92FF92B5
:101BA0000F931F93E82E062FD42E0E94B20DE0EC67
:101BB000F1E083E3828710E00F711070FF24A5E04D
:101BC000EE0CFF1CAA95E1F70E291F290083812F37
:101BD0008F7181831282D48285E38287EF93FF9392
:101BE0000F932F93EBECF1E008ED21E004BF20838D
:101BF0002F910F91FF91EF911F910F91FF90EF9017
:101C0000DF9008958F929F92AF92BF92CF92DF9212
:101C1000EF92FF920F931F93CF93DF939C018091DC
:101C20000A2090E0019760E270E00E948A156B0143
:101C300080910A2090E0019760E270E00E948A158E
:101C40005C01C901880F991F820F931F880F991F8C
:101C5000882E40910A20415060E00E94CD0DB2E0F4
:101C6000EB2EF12CC1E0D0E000E010E015C0982C84
:101C7000900EF701ED56FD4D4081892D6C2F0E948D
:101C8000CD0D0894E11CF11C2196C032D1058CF3D6
:101C90000F5F1F4FC0E0D0E00C151D0544F30DC0D1
:101CA000F701ED56FD4D4081812F6C2F0E94CD0D27
:101CB0000894E11CF11C219602C0182D1C0DCA15B8
:101CC000DB0574F3DF91CF911F910F91FF90EF909F
:101CD000DF90CF90BF90AF909F908F9008952F92FC
:101CE0003F924F925F926F927F928F929F92AF92AC
:101CF000BF92CF92DF92EF92FF920F931F93DF93E9
:101D0000CF93CDB7DEB72697CDBFDEBF0E9442018D
:101D10000E9453010E946B030E94C2030E946D0542
:101D20000E94A0070E94CE090E94DD0683E890E091
:101D30006DEF0E94A2018091CC01877FE0ECF1E081
:101D400084877894CC24DD24E0EA4E2EE8E05E2EF1
:101D50002FEF2093390920933B0920933D091092DE
:101D60004608F894E0E0F8E010A611A6789410E098
:101D70008091B10985FFFCCF32E43093B0098091A6
:101D8000B10985FFFCCF4CE44093B00990918F21BD
:101D9000809190219817D1F1E0919021F0E0E357E4
:101DA000FF4D1281809190218F5F80939021103898
:101DB00089F4809175248093762423E8F2012683A8
:101DC00030ED37838091A10885FFFCCF40E8409338
:101DD000A00811C0112391F480917524809376247A
:101DE00027E8F201268330EE37838091A10885FF32
:101DF000FCCF1092A0080E948F0208C08091B10908
:101E000085FFFCCF1093B0091A3259F088E893E1AE
:101E1000E0E2F3E03197F1F70197D1F71A3209F0D8
:101E2000A7CF80E090E0A0E0B0E0212C7AE0372E50
:101E300064E0662E9C01AD012F5F3F4F4F4F5F4F17
:101E400029833A834B835C8390918F2180919021E9
:101E5000981709F43CC6E0919021F0E0E357FF4D5C
:101E60009281809190218F5F80939021992309F432
:101E70002EC68091B10985FFFCCF9093B009892FC0
:101E800090E0FC01B197E735F10508F01BC6E4547A
:101E9000FF4FEE0FFF1F0590F491E02D09940E9473
:101EA000B106909191218091B10985FFFCCF90936B
:101EB000B009909192218091B10985FFFCCF909358
:101EC000B009909193218091B10985FFFCCF909347
:101ED000B009909194218091B10985FFFCCF85C014
:101EE0000E9465028C0131E08030930709F4EAC555
:101EF0008091B10985FFFCCF0093B0090E94650273
:101F00009C016C0141E08030940709F4C6C58091C2
:101F1000B10985FFFCCF2093B009902F8827820F4D
:101F2000931F0E94E309CEC5809141098F7EE0E4B2
:101F3000F9E08183809166068061E0E6F6E08683C1
:101F4000C1C580E30E949703982F8091B10985FF56
:101F5000FCCF4BC00E94B003982F8091B10985FF40
:101F6000FCCF43C088E30E949703982F8091B1096A
:101F700085FFFCCF3AC080E00E949703982F8091A4
:101F8000B10985FFFCCF9093B00988E00E949703C8
:101F9000982F8091B10985FFFCCF9093B00980E123
:101FA0000E949703982F8091B10985FFFCCF9093F1
:101FB000B00988E10E949703982F8091B10985FFAD
:101FC000FCCF9093B00980E20E949703982F8091F4
:101FD000B10985FFFCCF9093B00980E20E9497037E
:101FE000982F8091B10985FFFCCF9093B0096AC505
:101FF0000E94650251E08030950709F44EC5082F14
:102000008091B10985FFFCCF0093B0090E94650261
:1020100061E08030960709F440C5182F8091B1091E
:1020200085FFFCCF1093B0090E946502E1E080308B
:102030009E0709F432C5982F8091B10985FFFCCF26
:102040009093B009009500933909909590933B09BE
:10205000109510933D0936C50E9465029C01C097FA
:10206000029708F01AC5922F8091B10985FFFCCF25
:102070009093B009892F80530E94D60123C50E94F6
:10208000C2030E9465028C017C01F1E080309F0751
:1020900009F403C58091B10985FFFCCF0093B00915
:1020A0000E9465029C016C0141E08030940709F4B4
:1020B000F4C48091B10985FFFCCF2093B009902F23
:1020C0008827820F931F8093A3219093A421F894D3
:1020D000E0E0F8E086AB97AB78940E9465026C0173
:1020E00051E08030950709F4D8C4982FC092A521FB
:1020F0008091B10985FFFCCF9093B009913138F4FC
:1021000096EAA92E91E2B92E8824992434C08091B0
:10211000B10985FFFCCF82E58093B009D3C40E944A
:102120006502182F7C0160E0E61661E0F60609F40E
:10213000B4C48091B10985FFFCCF1093B0090E940F
:1021400065029C016C0181E02030380709F4A5C4C8
:102150008091B10985FFFCCF2093B0091E831D82B9
:10216000ED81FE812E0F3F1FF501219331935F0119
:102170000894811C911C8091A52190E088169906F5
:1021800074F2F0E0EF16F1E0FF0609F49BC420E0E2
:10219000C21621E0D20609F495C40E9465026C01C2
:1021A00031E08030930709F478C4982FC092C6219B
:1021B0008091B10985FFFCCF9093B0090E94650220
:1021C0006C0141E08030940709F467C4282F8091A6
:1021D000B10985FFFCCF2093B0092093C721822F3E
:1021E00090E0019768E070E00E948A156F5F60934D
:1021F000C8218091B10985FFFCCF2093B0090E94CE
:1022000065028C0151E08030950709F446C4809145
:10221000B10985FFFCCF0093B0090E9465029C01C3
:102220006C0161E08030960709F437C48091B109F0
:1022300085FFFCCF2093B009902F8827280F391FE6
:102240002093C9213093CA210E9465028C0181E04C
:102250000030180709F421C48091B10985FFFCCF33
:102260000093B0090E9465029C016C0191E020304E
:10227000390709F412C48091B10985FFFCCF20937E
:10228000B009902F8827280F391F2093CB21309336
:10229000CC210E9465028C01E1E080309E0709F4A8
:1022A000FCC38091B10985FFFCCF0093B0090E9467
:1022B00065029C016C01F1E080309F0709F4EDC3D9
:1022C0008091B10985FFFCCF2093B009902F88271A
:1022D000280F391F2093CD213093CE21F3C30E94C4
:1022E000C20300E010E015C00E9465026C0121E00D
:1022F0008030920709F4D1C3982FF801ED55FE4DB7
:10230000C4A68091B10985FFFCCF9093B0090F5FFF
:102310001F4F8091C82190E0081719072CF330E077
:10232000C31631E0D30609F4CDC30E9465028C01C7
:1023300041E08030940709F4B0C38091B10985FF72
:10234000FCCF0093B0090E9465029C016C0151E032
:102350008030950709F4A1C38091B10985FFFCCFB6
:102360002093B009902F8827820F931F80938F228C
:1023700090939022892B39F081E090E08093912214
:1023800090939222BDC01092912210929222B8C0D6
:10239000109291221092922210924608F894E0E056
:1023A000F8E010A611A678948DC30E946D0B809161
:1023B0000C208823E1F786C30E946502982F905372
:1023C000953008F06AC380910A20853008F465C30F
:1023D0008091B10985FFFCCF905D9093B009905337
:1023E000892F90E00E94020E6DC30E946F0C892B12
:1023F00009F453C30E9465028C0191E00030190773
:1024000009F44BC38091B10985FFFCCF0093B0095B
:102410000E9465029C016C01E1E080309E0709F496
:102420003CC38091B10985FFFCCF2093B009902F68
:102430008827820F931F80938F2290939022892B5D
:1024400039F021E030E020939122309392224EC067
:10245000109291221092922249C00E94650270ED62
:10246000F72EF80E54E05F1508F417C38091B109F8
:1024700085FFFCCF60E3F60EF092B00980EDF80E18
:102480000E9465028C0191E00030190709F405C330
:102490008091B10985FFFCCF0093B0090E946502CD
:1024A0009C016C01E1E080309E0709F4F6C2809146
:1024B000B10985FFFCCF2093B009902F8827820FA8
:1024C000931F80938F2290939022892B39F021E0E3
:1024D00030E0209391223093922204C010929122F6
:1024E000109292228F2D90E00E943A0D49E453E021
:1024F0004093A3215093A4211092A5216092C6215C
:102500000E94FD03DFC20E946502982F9053953010
:1025100008F0C3C28091B10985FFFCCF905D909314
:10252000B0099053892F90E00E94D60CCBC20E9434
:10253000650251E08030950709F4AFC2182F8091F1
:10254000B10985FFFCCF1093B0090E9465026C01B0
:1025500061E08030960709F4A0C2682F8091B1092C
:1025600085FFFCCF6093B0096053812F0E94420A1F
:10257000A9C20E9465029C0181E02030380709F45D
:102580008CC2922F8091B10985FFFCCF9093B00946
:10259000892F0E94B50AC82EDD24E0E3F0E0CE0EBC
:1025A000DF1E8091B10985FFFCCFC092B0098AC2BD
:1025B0000E9465028C01F1E080309F0709F46DC232
:1025C0008091B10985FFFCCF0093B0090E9465029C
:1025D0009C016C0141E08030940709F45EC2809157
:1025E000B10985FFFCCF2093B009902F8827280FD1
:1025F000391F209308203093092064C251E0509382
:10260000000A23E0F1012183138280910820909138
:10261000092086AB97AB0E9465029C0141E08030A7
:10262000940709F43AC28091B10985FFFCCF209349
:10263000B0092033310559F50E9465028C0151E043
:102640008030950709F429C28091B10985FFFCCF3C
:102650000093B0090E9465029C016C0161E080302A
:10266000960709F41AC28091B10985FFFCCF209327
:10267000B009902F8827280F391F8091010A8064A4
:10268000F10181836092810624A735A71BC2213303
:10269000310509F017C20E9465028C01F1E080301B
:1026A0009F0709F4FAC18091B10985FFFCCF00931F
:1026B000B0090E9465029C016C0141E080309407E2
:1026C00009F4EBC18091B10985FFFCCF2093B009DB
:1026D000902F8827280F391F8091010A8068F10107
:1026E0008183F8E0F0938106F10126A737A7EAC1BC
:1026F0000E9465029C01F1E080309F0709F4CDC182
:102700008091B10985FFFCCF2093B00920333105BA
:10271000D1F40E94650241E08030940709F4BDC104
:10272000982F8091B10985FFFCCF9093B0098091DB
:1027300020038460809320038091250380FFFCCFD9
:1027400090933903BFC12133310509F0BBC10E9409
:10275000650251E08030950709F49FC1982F809160
:10276000B10985FFFCCF9093B00980912003886068
:10277000809320038091250381FFFCCF90933B033E
:10278000A1C10E9465028C0161E08030960709F4C6
:1027900084C18091B10985FFFCCF0093B0090E94EC
:1027A00065029C016C0181E02030380709F475C195
:1027B0008091B10985FFFCCF2093B009902F882725
:1027C000820F931FE3E388339E0731F1F3E38933EC
:1027D0009F076CF421E38233920741F131E389339F
:1027E0009307B9F08153914309F057C11BC055E3DA
:1027F00087339507A1F069E38633960739F088534C
:10280000944309F04AC12DEF3CE00EC02DE333E0C4
:102810000FC029E333E008C02CEC30E009C027E802
:1028200030E006C023E830E04DEF03C027E03AE196
:102830004EEF8091752480937624F2012683429591
:10284000407F832F992787FD9A95482B47833AC16C
:102850000E9465028C01F1E080309F0709F41DC1E0
:102860008091B10985FFFCCF0093B0090E946502F9
:102870007C016C0121E08030920709F40EC1809147
:10288000B10985FFFCCFE092B0090E946502AC015E
:1028900031E08030930709F476C0382F8091B10978
:1028A00085FFFCCF3093B0098091B10985FFFCCF43
:1028B000902F88278E0D9F1D3093B009209175248D
:1028C00020937624F20186833295307F892F990FE9
:1028D000990B382B37836A01F5C00E948F02F2C032
:1028E0000E9465025C01C097029708F0D6C00E9462
:1028F0006502F1E080309F0709F4CFC0782E809107
:10290000B10985FFFCCF7092B0090E946502813445
:10291000910508F0C2C0882E8091B10985FFFCCFD7
:102920008092B0090E94650221E08030920709F48C
:10293000B4C0982E8091B10985FFFCCF9092B00968
:102940000E9465027C016C0131E08030930709F43C
:10295000A4C08091B10985FFFCCFE092B0090E942C
:1029600065028C0141E08030940769F08091B109E3
:1029700085FFFCCF0093B0090E9465026C0151E015
:102980008030950731F40E940503C12CE1E0DE2E72
:1029900099C08091B10985FFFCCFC092B009C701F1
:1029A000A0E0B0E0DC0199278827980140E050E0E2
:1029B000EE24F22E032F142FE82AF92A0A2B1B2BC0
:1029C000C601A0E0B0E0E82AF92A0A2B1B2B61E03F
:1029D000E61660E0F60662E0060760E0160708F01B
:1029E0005CC08A2D8053672D482D292D0E941D091A
:1029F00069C00E9465028033910529F4109210018C
:102A0000109281015FC0C19709F047C01092200168
:102A10001092820157C08091752490917624891B71
:102A2000282F8091B10985FFFCCF822F8F5F809383
:102A3000B009822F90E09C0113C0E0917624F0E071
:102A4000ED58FC4D9281809176248F5F809376249F
:102A50008091B10985FFFCCF9093B009215030409F
:102A60001216130654F32EC00E9465027C0180E00A
:102A7000E81681E0F80689F08091B10985FFFCCF66
:102A8000E092B00900E010E01AC00E9465026C01FB
:102A900090E0C91691E0D90619F40E94050312C00E
:102AA0009C2D8091B10985FFFCCF9093B009809156
:102AB000A10885FFFCCF9093A0080F5F1F4F0E1554
:102AC0001F0518F380E090E0A0E0B0E004C0898129
:102AD0009A81AB81BC8129813A814B815C812158EB
:102AE0003B45444052400CF033C9A4C9AA1BBB1B50
:102AF00051E107C0AA1FBB1FA617B70710F0A61BFE
:102B0000B70B881F991F5A95A9F780959095BC011E
:102B1000CD01089597FB092E07260AD077FD04D032
:102B2000E5DF06D000201AF4709561957F4F089577
:102B3000F6F7909581959F4F0895A1E21A2EAA1B52
:102B4000BB1BFD010DC0AA1FBB1FEE1FFF1FA2175D
:102B5000B307E407F50720F0A21BB30BE40BF50B5A
:102B6000661F771F881F991F1A9469F760957095E3
:102B7000809590959B01AC01BD01CF010895F8941B
:022B8000FFCF85
:082B82000001020306080A002D
:00000001FF
