:100000000C9424010C9441010C9441010C94410185
:100010000C9441010C9441010C9441010C94410158
:100020000C9441010C9441010C9441010C94410148
:100030000C9441010C9441010C9441010C94410138
:100040000C9441010C9441010C9441010C94410128
:100050000C9431030C9441010C9441010C94410126
:100060000C9441010C9423020C9441010C94410125
:100070000C9441010C9441010C9441010C944101F8
:100080000C9441010C9441010C9441010C944101E8
:100090000C9441010C9441010C9441010C944101D8
:1000A0000C9441010C9441010C9441010C944101C8
:1000B0000C9441010C9441010C9412050C946E08AF
:1000C0000C9441010C94A8080C9441010C9441013A
:1000D0000C9441010C9441010C9441010C94410198
:1000E0000C9441010C9441010C9441010C94410188
:1000F0000C9441010C9441010C9441010C94410178
:100100000C9441010C9441010C9441010C94410167
:100110000C9441010C9441010C9441010C94410157
:100120000C9441010C9441010C9441010C94410147
:100130000C9441010C9441010C9441010C94410137
:100140000C9441010C9441010C9441010C94410127
:100150000C9441010C9441010C9441010C94410117
:100160000C9441010C9441010C9441010C94FB014D
:100170000C9441010C944101440E131313131313F7
:10018000131313131313131313131313131313133F
:10019000131313131313131313131313131313132F
:1001A00013131313131313131313131313132F1006
:1001B000131319101313BE12680BA60BB911FF0B02
:1001C00013131313310F1313390DE30C1313D80B3F
:1001D00013131313D40CDF10C20A520E820EE20B5B
:1001E0001313F50B6812360C1313E11113131313C9
:1001F00013131313131313131313CB0B13133A11FA
:10020000930C1313C30F1313FF0D131313131313B3
:10021000131313131313F5101313CB12E20EF4126E
:100220005E111313E411790C808C98A5B0BCC6D074
:10023000DAE2EAF0F5FAFDFEFFFEFDFAF5F0EAE299
:10024000DAD0C6BCB0A5988C11241FBECFEFD7E280
:10025000DEBFCDBF10E2A0E0B0E2E8E8F7E202C006
:1002600005900D92AA30B107D9F714E2AAE0B0E2E6
:1002700001C01D92A538B107E1F70E94C7090C948F
:10028000C2130C940000809560954095E0E0F9E081
:1002900081AF80AF43AF42AF60933D0964AF089533
:1002A000E0E4F6E028E0218324E02283E0EAF8E0BD
:1002B00023E0258325812F732583E0937E23F0930C
:1002C0007F23109281241092802423812F7C20622E
:1002D0002383A0EAB0E012962C9112972260129626
:1002E0002C9386836295607F892F990F990B682BD9
:1002F0006783848180618483848188608483809122
:10030000802480938124089520E030E040E45FE180
:1003100005C02F5F3F4FCA010197F1F790919321DC
:1003200080919421981729F481E0243F380789F7B8
:1003300017C0245F3140A4F4E0919421F0E0EF561F
:10034000FF4D9281809194218F5F809394218091C1
:10035000B10985FFFCCF292F30E09093B00902C08E
:1003600020E031E0C901089511C0E0918124F0E05E
:10037000E258FC4D9281809181248F5F809381248B
:100380008091B10985FFFCCF9093B00990918024B2
:1003900080918124981749F711C0E0919421F0E0F1
:1003A000EF56FF4D9281809194218F5F809394212D
:1003B0008091A10885FFFCCF9093A0089091932194
:1003C00080919421981711F3E8CF8091B10985FFAE
:1003D000FCCF85E48093B0098091B10985FFFCCF03
:1003E00082E58093B0098091B10985FFFCCF82E559
:1003F0008093B00908951F920F920FB60F921124A7
:100400002F938F939F93EF93FF93909193219F5FEF
:1004100080919421E0919120F09192202081981771
:1004200041F0E0919321F0E0EF56FF4D228390934D
:100430009321FF91EF919F918F912F910F900FBE7C
:100440000F901F9018951F920F920FB60F921124C4
:100450002F938F939F93EF93FF93909180249F5FAF
:1004600080918124E0917E23F0917F232081981751
:1004700041F0E0918024F0E0E258FC4D228390931B
:100480008024FF91EF919F918F912F910F900FBE3C
:100490000F901F90189582E08093CA01E0E2F0E08F
:1004A000E4911092CA01A0E0B2E01C96EC931C9774
:1004B0008093CA01E1E2F0E0E4911092CA011D9636
:1004C000EC93909101022091002080910F208111E6
:1004D00080E1997E922B982BA0E0B2E011969C933C
:1004E000119780910402876014968C9314978091E1
:1004F0000202806312968C93129780912802807E6C
:100500008093280220913002809110209091012048
:10051000892B207E822B80933002E8E2F2E0118268
:1005200088E3E0E3F2E08183809102028160129629
:100530008C938091000281608093000280E49FE1AF
:100540000197F1F70895682BE0E3F2E06183809171
:1005500030028068E0E0F2E080AB8091330280FD01
:1005600004C08091060282FFF8CF81E0E0E0F2E073
:1005700083AB80910020843029F480913402482F8D
:1005800050E00AC08091350290913402382F20E06B
:10059000492F50E0422B532BCA010895823391F02A
:1005A000833328F4803361F08133E9F507C0843365
:1005B00069F0843348F08533B1F50AC088E009C09A
:1005C00080E007C080E105C088E103C080E201C08F
:1005D00088E290910120643318F4933019F423C019
:1005E000923009F16233A1F0633328F4603371F083
:1005F000613339F409C0643379F0643358F06533FA
:1006000069F020E030E011C061E009C060E007C09F
:1006100062E005C063E003C064E001C065E00E94E1
:10062000A3029C0102C02FEF3FEFC9010895109271
:1006300056231092572310928324109284241092F0
:100640008224F894E0E4F8E010A211A2789483E008
:10065000E0E4F8E08683E0EAF0E08281846082836F
:1006600008951F920F920FB60F9211242F933F936C
:100670004F938F939F93EF93FF9380918324909157
:100680008424019759F4F894E0E0F8E010A611A64C
:100690007894109283241092842412C0F89480914C
:1006A00026089091270896958795E0E0F8E080A7C6
:1006B00091A7789481E090E08093832490938424A0
:1006C000409182248091CB21481798F18091832416
:1006D00090918424892B21F08091CA21833049F59F
:1006E0008091CA21833031F4F894E0E0F8E010A65C
:1006F00011A678948091952290919622892B51F49D
:10070000E0E4F8E01682F894E0E0F8E010A611A624
:100710007894D5C0109256231092572310928324B8
:10072000109284241092822480919322909194229A
:1007300043C020915623309157238091A92190E006
:100740002817390794F4F901EE0FFF1FE955FE4D04
:1007500083819481E0E4F8E086A397A32F5F3F4F65
:100760002093562330935723AAC08091CA2188230F
:1007700041F0813031F58091832490918424019758
:10078000B9F4E42FE695E695E695F0E0E955FE4DDF
:1007900024A530E0842F90E080959095877090702C
:1007A00002C0359527958A95E2F720FF4DC051C0CC
:1007B0008091D1219091D221E0E4F8E086A397A323
:1007C0007EC0823011F58091832490918424892BFE
:1007D000B9F4E42FE695E695E695F0E0E955FE4D8F
:1007E00024A530E0842F90E08095909587709070DC
:1007F00002C0359527958A95E2F720FF49C043C08E
:100800008091D1219091D22128C0833009F045C038
:100810008091832490918424E42FE695E695E695D3
:10082000242F30E0892BF9F4F0E0E955FE4D84A542
:1008300090E0209530952770307002C0959587958F
:100840002A95E2F780FF05C08091CF219091D021B9
:1008500004C08091CD219091CE21E0E4F8E086A300
:1008600097A34F5F2AC0F0E0E955FE4D84A590E0C4
:10087000209530952770307002C0959587952A9500
:10088000E2F780FF05C08091CD219091CE2194CFD9
:100890008091CF219091D0218FCF843081F4E42FAB
:1008A000F0E0E955FE4D25A594A580E0820F911D4D
:1008B000E0E4F8E086A397A34E5F40938224FF9183
:1008C000EF919F918F914F913F912F910F900FBE7C
:1008D0000F901F90189582E0E0E4F6E0868384E6AE
:1008E00090E020E233E0F9013197F1F70197D9F771
:1008F00082E0E0E4F6E085830895FF920F931F9372
:1009000082E0E0E4F6E0818300E616E0F0E2FF2E0C
:10091000F801F1820E946B04F801F68280E881837D
:1009200080E48283E0EBF9E083E08583E09391202B
:10093000F0939220109294211092932183818F7CC6
:1009400080628383A0EAB0E012968C911297826055
:1009500012968C9383E8868380ED878384818061FF
:1009600084838481886084831F910F91FF90089510
:100970000F93CF93DF93DC01722F253008F044C032
:10098000053008F041C01F968C911F978823E1F530
:1009900081E01F968C931F9750961C925097660F7C
:1009A00012966C931297EA0120E030E007C089911B
:1009B000FD01E20FF31F83832F5F3F4F2717B8F32B
:1009C0001B967C931B971C960C931C971D961C9250
:1009D0001D971E961C921E971B968C911B97882321
:1009E00029F012968C9112978E7F09C01C968C91DB
:1009F0001C97882339F012968C9112978160ED91A3
:100A0000FC91868381E001C080E0DF91CF910F915E
:100A100008956091952170919621809197219091F0
:100A2000982108951F920F920FB60F9211242F93C1
:100A30003F934F938F939F93AF93BF93EF93FF9306
:100A4000A0915823B091592314964C911497242FB8
:100A500030E0C9018C709070892B71F014969C91D4
:100A6000149792FF02C084E001C083E08093682362
:100A7000986014969C935EC046FF2CC090916323AF
:100A80002091642314968C91149784FF05C083E011
:100A900013968C9385E04CC080916523891770F480
:100AA000E0916523F0E0E85AFC4D838117968C9322
:100AB000809165238F5F809365233EC0809166237C
:100AC000821730F480915A23816016968C9334C03B
:100AD00083E029C047FF2BC080916623843078F4DF
:100AE00017968C911797E0916623F0E0E85AFC4D39
:100AF0008783809166238F5F8093662309C083E09C
:100B000013968C93139782E0809368231092672347
:100B10009091642380916623891720F482E01396D4
:100B20008C930AC087E013968C9381E001C086E025
:100B30008093682310926723FF91EF91BF91AF914B
:100B40009F918F914F913F912F910F900FBE0F90DA
:100B50001F901895982FE0E0F1E0108AE0E8F1E0AE
:100B6000118282E5E0E2F3E08483809120038460D7
:100B7000809320038091250380FFFCCFE0E2F3E027
:100B8000918F0895982FE0E0F1E010A2E0E8F1E005
:100B9000128282E5E0E2F3E08483809120038860A2
:100BA000809320038091250381FFFCCFE0E2F3E0F6
:100BB000938F0895EF92FF920F931F93CF93DF933C
:100BC0007C01122F613781F4FC0180E002C0119397
:100BD0008F5F8417E0F305C0F701E40FF11D108269
:100BE0004F5F4034C8F33BC06337C9F4C0E0D0E086
:100BF000FE01E85DFD4FE49197012C0F3D1FE19F41
:100C0000C00111246FEF70E00E944813F901608366
:100C10002196C032D10561F7F70190E218C0622F2A
:100C200070E020E030E040E050E0F701E20FF31F19
:100C3000CA01A5E096958795AA95E1F780832F5F75
:100C40003F4F460F571F2032310579F7E5CF80819E
:100C5000212F281B20A39F5F31969034C1F70023DA
:100C6000D1F081E090E002C0880F991F0A95E2F769
:100C7000482F982F30E020E0D701A30FB11DF701D6
:100C8000E20FF11D80818C933F5F240F940F892F19
:100C9000841B803488F3DF91CF911F910F91FF90D7
:100CA000EF9008950F931F93E0E4F9E051815F7E88
:100CB0005183E0E6F6E0568150615683F89400E2F5
:100CC00013E05FE5F8015483A0E0B1E050961C9278
:100CD0005097E0E4F9E016824F5F4083118226A32B
:100CE00037A310A211A228EDE0E8F1E02183F8017A
:100CF00021812E7F218320812560208322E053964D
:100D00002C93539720ED52962C93529770E0549663
:100D10006D937C93559758968C93589759969C93BE
:100D200059975A961C925A9789E35C968C935C97D4
:100D300083E05D968C935D975E961C925E9784EA45
:100D400050968C93509780E88C9378941F910F91D4
:100D500008950F931F93F894E0E0F8E010A611A611
:100D60007894F89400E213E05FE5F8015483A0E082
:100D7000B1E090961C929097E0E4F8E016824F5F05
:100D80004083118226A337A310A211A228ECE0E829
:100D9000F1E02283F80121812D7F218320812960C8
:100DA000208333E093963C93939720ED92962C9377
:100DB000929770E094966D937C93959798968C9308
:100DC000989799969C9399979A961C929A978BE3E9
:100DD0009C968C939C979D963C939D979E961C9277
:100DE0009E9784EA90968C93909780E88C93789461
:100DF0001F910F9108952F923F924F925F926F92A1
:100E00007F928F929F92AF92BF92CF92DF92EF929A
:100E1000FF920F931F93DF93CF93CDB7DEB7279742
:100E2000CDBFDEBF8D831B01442E38014901A42EA6
:100E3000BB24CC24DD24C901B801A60195010E9480
:100E4000291369837A838B839C8382E090E28E836B
:100E50009F835524EE81FF81108121E030E0012E37
:100E600002C0220F331F0A94E2F7442737FD409552
:100E7000542F69817A818B819C810E9429139695D8
:100E80008795779567956050784B87419E4F04C052
:100E900096958795779567951A95D2F7A60195014E
:100EA0000E946F13CA01B901A40193010E946F133C
:100EB00079018A01D801C7014097A109B1098F5E64
:100EC0009F4FA040B04090F42D81222339F4C101FE
:100ED000642D452D97010E94520606C0C101642D64
:100EE000452D97010E94A90681E00BC053948E8185
:100EF0009F8101968E839F8397E0591609F0AACFB0
:100F000080E02796CDBFDEBFCF91DF911F910F917B
:100F1000FF90EF90DF90CF90BF90AF909F908F9019
:100F20007F906F905F904F903F902F900895E0E0FA
:100F3000F1E0108AE0E8F1E0118280E00E94AA0569
:100F400008950E949707E0E2F3E080818B7F808321
:100F50000895E0E0F1E010A2E0E8F1E0128280E024
:100F60000E94C20508950E94A907E0E0F8E021E090
:100F7000208383E1818389E493E086AB97ABE0E44F
:100F8000F6E02183E0E4F8E085E0808316820895AE
:100F90000E94A907E0E2F3E08081877F80830895C3
:100FA0000E949707E0E4F9E086E0808381E0818396
:100FB000E0E6F6E0818180618183868180618683BD
:100FC00008951F93162F843369F1853370F48133AC
:100FD000F9F0823320F4803309F04FC015C082331A
:100FE000D9F0833309F049C01AC0873341F18833FF
:100FF00030F48533D9F0863309F03FC01BC0883305
:1010000019F18933D1F52AC0E0E0F6E081E02FC084
:10101000E0E0F6E082E02BC0E0E0F6E01DC0E0E0BA
:10102000F6E024C0E0E0F6E080E121C0E0E0F6E098
:1010300080E21DC00E94A107E0E2F6E00DC00E9420
:10104000C807E0E2F6E012C08091010A8F7BE0E081
:10105000FAE08183E0E8F6E084E009C08091010ACB
:101060008F77E0E0FAE08183E0E8F6E088E08183D2
:10107000112311F0858301C086831F910895E0E05C
:10108000FAE0168217821092800113821182108278
:10109000089580910C208530E0F090910C20809193
:1010A000B10985FFFCCF91509093B00992E00CC03C
:1010B000E92FF0E0E956FD4DE0818091B10985FF0F
:1010C000FCCFE093B0099F5F80910C20981780F3CC
:1010D00002C00E94E50110920E2008951F920F9207
:1010E0000FB60F9211242F933F934F935F936F93FB
:1010F0007F938F939F93AF93BF93EF93FF938091D1
:101100000C20882329F00E943F080E9449080FC044
:1011100080910D208F5F80930D2080910D208B3F5B
:1011200030F00E943F080E94E50110920E20FF91CE
:10113000EF91BF91AF919F918F917F916F915F914F
:101140004F913F912F910F900FBE0F901F901895C8
:101150001F920F920FB60F9211242F933F934F932C
:101160005F936F937F938F939F93AF93BF93EF930F
:10117000FF93E0E0FAE010A211A280910C20803CE5
:1011800038F00E943F080E94E50110920E2039C0FD
:10119000E0910C20F0E08091280AE856FD4D808314
:1011A000E0910C20F0E08091290A8F77E956FD4DFF
:1011B0008083E0910C20F0E0E856FD4D8081803482
:1011C00050F4E0910C20F0E0E956FD4D8081882339
:1011D00011F410920C2080910C20E0910C20F0E092
:1011E000E956FD4DE081813138F0E13128F00E946F
:1011F0003F080E94490805C080910C208E5F8093B3
:101200000C20FF91EF91BF91AF919F918F917F91B2
:101210006F915F914F913F912F910F900FBE0F9063
:101220001F901895982F8091CF0187FDFCCF80915A
:10123000CF0181FF12C086E3E0ECF1E08287EF93FB
:10124000FF930F932F93EBECF1E008ED21E004BF47
:1012500020832F910F91FF91EF91E0ECF1E083E378
:101260008287262F30E02F713070892F90E055E073
:10127000880F991F5A95E1F7282B392B2093C0012D
:10128000832F8F7181831282448385E38287EF935A
:10129000FF930F932F93EBECF1E008ED21E004BFF7
:1012A00020832F910F91FF91EF910895982FE0ECFB
:1012B000F1E08091CF0187FDFACF262F30E02F712A
:1012C0003070892F90E065E0880F991F6A95E1F7EB
:1012D000282B392B2093C001832F8F718183128299
:1012E00086E08287EF93FF930F932F93EBECF1E06F
:1012F00008ED21E004BF20832F910F91FF91EF9122
:101300008091C40108950F931F93CF93DF93062F0D
:10131000EC0110E00CC00E94840121E080309207B3
:1013200021F40E94E50100E004C089931F5F1017BB
:1013300090F3802FDF91CF911F910F910895682F27
:1013400089E693E20E9483090895E9E6F3E2E80F53
:10135000F11D228130E040E050E0808190E0A0E08B
:10136000B0E0DC0199278827282B392B4A2B5B2BEF
:10137000818190E0A0E0B0E0BA2FA92F982F8827B4
:10138000282B392B4A2B5B2BB901CA0108952F92C8
:101390003F924F925F926F927F928F929F92AF9205
:1013A000BF92CF92DF92EF92FF920F931F93DF9342
:1013B000CF93CDB7DEB76097CDBFDEBF88ED84BFDA
:1013C00081E0E0E9F0E086838091500082608093C4
:1013D00050008091510081FFFCCF88ED84BF809147
:1013E0004000816080934000E0E0F9E084E0809379
:1013F000000983E781838FEF9FEF86AB97AB8091E6
:1014000061068760E0E6F6E0818380E060E040E02E
:101410000E9443010E944B020E94B3070E947D0478
:10142000E0E2F3E080E4818389E0828382E58483E3
:1014300081E08093200380E00E94AA0580E00E9462
:10144000C2050E94D007F894E0EAF4E0E093582344
:10145000F093592388E781838BE9858381E0848336
:101460008091A2008160E0EAF0E08283789487E0D6
:101470008A8380E58B8388E593E26CE4AE014E5F5E
:101480005F4F22E000E00E94B80480916723882328
:10149000E1F785E08A831B8288E593E26CE4AE0184
:1014A0004E5F5F4F22E000E00E94B8048091672306
:1014B0008823E1F786E08A8384EE8B8388E593E2D4
:1014C0006CE4AE014E5F5F4F22E000E00E94B80482
:1014D000809167238823E1F788E08A8380EE8B83FD
:1014E00088E593E26CE4AE014E5F5F4F22E000E0DE
:1014F0000E94B804809167238823E1F789E08A83FA
:1015000088E08B8388E593E26CE4AE014E5F5F4F29
:1015100022E000E00E94B804809167238823E1F76D
:101520008AE08A8380E18B8388E593E26CE4AE01F4
:101530004E5F5F4F22E000E00E94B8048091672375
:101540008823E1F787E08A8381E58B8388E593E24E
:101550006CE4AE014E5F5F4F22E000E00E94B804F1
:10156000809167238823E1F783E890E06DEF0E9484
:1015700050018091CC01877FE0ECF1E08487789482
:101580006624772480E060E040E00E944301E0E4CC
:10159000F8E01682F894E0E0F8E010A611A678943E
:1015A00010E0B0EEDB2EA3E8EA2EF0EDFF2E00E80F
:1015B0008091B10985FFFCCF22E42093B00980918E
:1015C000B10985FFFCCF3CE43093B00990919321A1
:1015D000809194219817C1F1E0919421F0E0EF56A9
:1015E000FF4D1281809194218F5F80939421103858
:1015F00079F48091802480938124E092A608F0926F
:10160000A7088091A10885FFFCCF0093A00811C016
:10161000112391F4809180248093812447E84093A2
:10162000A608D092A7088091A10885FFFCCF109250
:10163000A0080E94B40108C08091B10985FFFCCFC9
:101640001093B0091A3259F088E893E1E0E2F3E030
:101650003197F1F70197D1F71A3209F0A9CF80E05D
:1016600090E0A0E0B0E09C01AD012F5F3F4F4F4FF5
:101670005F4F2D833E834F835887909193218091B4
:101680009421981709F4D4C7E0919421F0E0EF5623
:10169000FF4D9281809194218F5F809394219923B3
:1016A00009F4C6C78091B10985FFFCCF9093B009BA
:1016B000892F90E0FC01B197E835F10508F0B3C738
:1016C000E454FF4FEE0FFF1F0590F491E02D0994B5
:1016D000198288E593E26CE4AE014F5F5F4F21E031
:1016E00004E00E94B804809167238823E1F7909179
:1016F0005F23909395218091602380939621809120
:101700006123809397218091622380939821109286
:1017100068238091B10985FFFCCF9093B009909127
:1017200096218091B10985FFFCCF9093B0099091EB
:1017300097218091B10985FFFCCF9093B0099091DA
:1017400098218091B10985FFFCCFD0C082E00E9432
:101750009F09882309F467C7309169233A8719865E
:1017600000916A2310E049855A85042B152B0E94AD
:101770009707E0E4F9E086E08093400951E0518367
:101780008091410980618183F894E0E4F9E000A749
:1017900011A7789448C7809141098F7EE0E4F9E071
:1017A0008183809166068061E0E6F6E086833BC730
:1017B00080E360E00E94A302982F8091B10985FF29
:1017C000FCCF94C080912802806880932802809189
:1017D0002B0280FFFCCF61E060932B0290912C02E2
:1017E0008091B10985FFFCCF81C088E360E00E9451
:1017F000A302982F8091B10985FFFCCF77C082E0CA
:101800000E949F09882309F40EC7809169238033C1
:1018100059F484E08093002010920F201092102041
:1018200091E0909301201FC0813309F0EEC6109221
:101830000020E1E0E0930F2090916A23892F8153EB
:10184000863048F49053990F990F90931020F3E04D
:10185000F093012008C0903309F0D7C610921020F1
:1018600082E0809301200E944B02DDC680E060E0B0
:101870000E94A302982F8091B10985FFFCCF90931D
:10188000B00988E060E00E94A302982F8091B1091E
:1018900085FFFCCF9093B00980E160E00E94A30235
:1018A000982F8091B10985FFFCCF9093B00988E112
:1018B00060E00E94A302982F8091B10985FFFCCFC0
:1018C0009093B00980E260E00E94A302982F80917B
:1018D000B10985FFFCCF9093B00988E260E00E94D7
:1018E000A302982F8091B10985FFFCCF9093B00996
:1018F0009AC682E00E949F09882309F494C68091C9
:10190000692360916A230E94CE02282F8091B10939
:1019100085FFFCCF9093B0098091B10985FFFCCF82
:101920002093B00980C682E00E949F09882309F4B1
:101930007AC6E0906923F0906A2300E81EE3EDE0A8
:10194000CE2E7AE0D72EC8010197F1F78E2D6F2D9C
:101950000E94CE0264E0880F991F6A95E1F754E077
:10196000959587955A95E1F769E673E24AE050E06C
:101970000E949113E9E6F3E207C08091B10985FF67
:10198000FCCF9093B009319690819923B1F7809163
:10199000B10985FFFCCFC092B0098091B10985FFE4
:1019A000FCCFD092B009CFCF83E00E949F0988235B
:1019B00009F439C68091692360916A2340916B23B1
:1019C0000E94430130C60E9484019C01C097029787
:1019D00008F01BC6922F90538091A4088F7E8093AD
:1019E000A4088091A408877F8093A408E0E4F6E02F
:1019F00024E0228388E08183992391F48091520628
:101A00008F7B828B809153068F7B838B8091A5087F
:101A10008F738093A50883E88093A60880ED18C093
:101A20009130C1F4809152068064828B809153067C
:101A30008064838B1092F8081092F9088091A508B1
:101A40008F7380688093A5088DE38093A60883EE4A
:101A50008093A7088091A40880618093A408809156
:101A6000A40888608093A4088091802480938124B6
:101A7000DAC50E94B3070E9484018C017C0131E029
:101A80008030930709F4C1C50E9484013C0141E004
:101A90008030940709F4B9C5902F8827860D971DCB
:101AA0008093A7219093A821F894E0E0F8E086AB1A
:101AB00097AB78940E9484013C0151E080309507F7
:101AC00009F4A3C58093A92160E1681708F49DC5B6
:101AD0003AEAC32E31E2D32E00E010E01CC00E948F
:101AE00084017C0180E0E81681E0F80609F48DC5E8
:101AF0000E9484013C0190E0691691E0790609F4A6
:101B000084C59E2D8827860D971DF601819391939C
:101B10006F010F5F1F4F8091A92190E008171907EF
:101B2000F4F2F0E0EF16F1E0FF0609F47CC520E0E6
:101B3000621621E0720609F476C50E9484013C0118
:101B400031E08030930709F460C58093CA210E9478
:101B500084013C0141E08030940709F456C580932C
:101B6000CB2190E0019768E070E00E945C136F5F0A
:101B70006093CC210E9484018C0151E08030950754
:101B800009F443C50E9484013C0161E0803096075E
:101B900009F43BC5902F8827860D971D8093CD2192
:101BA0009093CE210E9484018C0181E000301807BF
:101BB00009F42BC50E9484013C01902F8827860DD3
:101BC000971D8093CF219093D0210E9484018C0196
:101BD00091E00030190709F418C50E9484019C01A6
:101BE0003C01E1E080309E0709F40FC5902F882763
:101BF000280F391F2093D1213093D22114C50E9480
:101C0000B30700E010E00EC00E9484013C01F1E047
:101C100080309F0709F4F9C4F801E955FE4D84A707
:101C20000F5F1F4F8091CC2190E00817190764F3D4
:101C300020E0621621E0720609F4F5C40E948401D6
:101C40008C0131E08030930709F4DFC40E948401E5
:101C50003C0141E08030940709F4D7C4902F8827D5
:101C6000860D971D8093932290939422892B39F0AF
:101C700081E090E0809395229093962281C110920A
:101C80009522109296227CC1109295221092962253
:101C9000E0E4F8E01682F894E0E0F8E010A611A67F
:101CA0007894C1C451E050930E2085E08093000ADF
:101CB00090E19093010A88E28093030AE0E4F6E061
:101CC0009283809154068064848B84E680938001A3
:101CD00080E49FE18093360A9093370A10920C209B
:101CE00010920D2063E06093060A6093070A8091CA
:101CF000A2008460E0EAF0E0828380910E208823D5
:101D0000E1F791C40E948401282F2053253008F068
:101D10007CC480910C20853008F477C480910C201D
:101D200090E0019760E270E00E945C135B0180919B
:101D30000C2090E0019760E270E00E945C134C017F
:101D400086E0289FC0011124482E40910C2041506C
:101D500060E00E941209EE24FF2401E010E0F2E0AE
:101D6000CF2ED12C17C0542C5E0CF601E956FD4D38
:101D70004081852D602F0E9412090894C11CD11C3E
:101D80000F5F1F4F0032110584F30894E11CF11C12
:101D900000E010E0EA14FB0434F30EC0F601E9564B
:101DA000FD4D40818F2D602F0E9412090894C11CA7
:101DB000D11C0F5F1F4F02C0F42CFA0C0815190537
:101DC0006CF331C40E9484017C0100E010E06C01DE
:101DD0000894C108D1080DC00E948401E1E0803060
:101DE0009E0709F412C4F801E955FE4D84A70F5F60
:101DF0001F4F0C151D0584F38E2D81508093CB2130
:101E00000E9484018C01F1E080309F0709F4FDC33A
:101E10000E9484013C0121E08030920709F4F5C35F
:101E2000902F8827860D971D80939322909394225C
:101E3000892B39F081E090E080939522909396224F
:101E400004C0109295221092962289E493E0809328
:101E5000A7219093A8211092A92134E03093CA21A0
:101E60008FC00E94840170EDF72EF80E44E04F15EC
:101E700008F4CBC30E9484018C0151E080309507A7
:101E800009F4C3C30E9484013C0161E080309607DD
:101E900009F4BBC3902F8827860D971D809393224A
:101EA00090939422892B39F081E090E080939522E1
:101EB0009093962204C0109295221092962286E06A
:101EC000F89EC00111248C8360E00E945609982E70
:101ED00090E02C0155E0559447945A95E1F74FE175
:101EE000242E312C28223922EE24FF2401E010E098
:101EF000CC24DD2414C0882D602F0E945609F501E2
:101F000081935F010894C11CD11C0F5F1F4F0032E9
:101F100011058CF30894E11CF11C00E010E0C601EF
:101F20008C96E414F5044CF437EAA32E31E2B32E78
:101F3000A80EB91E8C808E0CDECF27EAE22E21E29D
:101F4000F22EE80EF91EDC80D40C09C08D2D602F16
:101F50000E945609F70181937F010F5F1F4F021501
:101F60001305A4F39A949092CB2189E493E0809393
:101F7000A7219093A8211092A921F4E0F093CA21FF
:101F80000E94170350C30E948401982F90539530EC
:101F900008F03BC386E0989FC0011124A82E60E0A2
:101FA0000E945609282F90E06C0105E0D594C79453
:101FB0000A95E1F71FE1812E912C882299228091C8
:101FC000B10985FFFCCF2093B009EE24FF2401E086
:101FD00010E017C0BA2CBE0C8B2D602F0E94560942
:101FE000982F8091B10985FFFCCF9093B0090F5FC6
:101FF0001F4F0032110584F30894E11CF11C00E02E
:1020000010E0EC14FD0434F30EC08F2D602F0E94FD
:102010005609982F8091B10985FFFCCF9093B009A4
:102020000F5F1F4F02C0FA2CFC0C081519056CF34A
:10203000FAC20E9484018C0121E08030920709F4E9
:10204000E4C20E9484013C0131E08030930709F42E
:10205000DCC2682F6053802F0E94E107E4C20E9417
:10206000840141E08030940709F4CFC2843309F43D
:1020700042C0853360F4813321F1823318F4803318
:10208000B1F417C0823349F1833389F42DC087330B
:1020900009F458C0883328F48533E1F1863339F4E4
:1020A00048C0883309F457C0893309F467C060ED2C
:1020B00079C0E0E0F6E051E052836091080661707B
:1020C00071C082E0E0E0F6E082838091080690E053
:1020D000827090709595879564C0E0E0F6E064E0CA
:1020E00062838091080642C088E0E0E0F6E08283E7
:1020F000809108064EC080E1E0E0F6E082838091A6
:10210000080690E080719070A4E095958795AA9557
:10211000E1F747C080E2E0E0F6E0828380910806C4
:1021200090E080729070F5E095958795FA95E1F7CB
:1021300038C00E94A107E0E2F6E084E0828380914B
:10214000280614C00E94C80788E0E0E2F6E0828317
:10215000809128061EC08091010A8F7B8093010A1E
:10216000E0E8F6E094E092838091880690E0847045
:102170009070959587959595879513C08091010AE4
:102180008F778093010A88E0E0E8F6E0828380910F
:10219000880690E08870907073E0959587957A95A1
:1021A000E1F7682F662E7724E0E3F0E06E0E7F1EE5
:1021B0008091B10985FFFCCF6092B00934C282E002
:1021C0000E949F09882309F42EC2F0916923FC879D
:1021D0001B8680916A2390E02B853C85822B932B74
:1021E00080930A2090930B201EC283E00E949F09D7
:1021F000882309F418C231E03093000A43E0409389
:10220000010A1092030A80910A2090910B2080937A
:10221000360A9093370A90916A239E871D86809193
:102220006B23282F30E0ED85FE852E2B3F2B8091F0
:102230006923803371F48091010A80648093010ADC
:10224000E0E8F6E044E0418320932C0A30932D0A25
:10225000EAC1913309F0E7C18091010A8068809357
:10226000010A88E0E0E8F6E0818320932E0A3093AB
:102270002F0AD9C10E94840151E08030950709F4EA
:10228000C4C18033910551F40E94840161E0803023
:10229000960709F4BAC10E94AA05C5C18133910508
:1022A00009F0C1C10E9484019C0181E020303807FF
:1022B00009F4ABC1822F0E94C205B5C10E948401FE
:1022C0008C0191E00030190709F49FC10E9484013C
:1022D0003C01E1E080309E0709F497C1902F8827E8
:1022E000860D971DF3E388339F0731F123E389338C
:1022F00092076CF431E38233930741F141E3893370
:102300009407B9F08153914309F07FC11BC065E385
:1023100087339607A1F0E9E386339E0739F08853A7
:10232000944309F072C12DEF3CE00EC02DE333E081
:102330000FC029E333E008C02CEC30E009C027E8E7
:1023400030E006C023E830E04DEF03C027E03AE17B
:102350004EEF80918024809381242093A60842959B
:10236000407F832F992787FD9A95482B4093A70894
:102370005AC183E00E949F09882309F454C1309117
:102380006B238091B10985FFFCCF3093B009209178
:102390006923288B1F8680916A2390E04F85588996
:1023A000842B952B20918024209381248093A60850
:1023B000892F990F990B3295307F382B3093A708CE
:1023C00032C10E94B4012FC187E00E949F09882377
:1023D00009F429C15090692350ED550E61E065154F
:1023E00008F413C140906B2380E4841508F40DC1F8
:1023F00030906A2320906C2380916D2390E0A0E0C0
:10240000B0E06C01BB24AA2480916E2390E0A0E090
:10241000B0E0BA2FA92F982F8827A82AB92ACA2A4C
:10242000DB2A80916F2390E0A0E0B0E0A82AB92ACF
:10243000CA2ADB2A91E7391679F4E0E24E1629F42C
:1024400095E0992E85E0882E14C0F0E14F1669F0D2
:1024500020E3421631F409C034E7331611F499240D
:1024600006C0992403E0802E04C014E0912EB4E04D
:102470008B2E552019F40E94970702C00E94A907CD
:10248000E52CFF24A6E0EE0CFF1CAA95E1F741E144
:1024900050E2E40EF51E19C0C701632D442D222D14
:1024A000092D0E94DA0540E450E0092C02C0559540
:1024B00047950A94E2F7852DB701960185010E94A0
:1024C000FB06882309F0AFC09394891428F79DC0B8
:1024D00085E00E949F09882309F4A5C09091692393
:1024E000892F8053823008F090C060916D23613451
:1024F00008F08BC0662309F488C0092F10E0005350
:1025000010407801F6E0EE0CFF1CFA95E1F781E14E
:1025100090E2E80EF91EC7010E948309882309F49E
:1025200082C0D02E002319F40E94970702C00E9497
:10253000A90700916A2310E020E030E098011127FC
:10254000002780916B2390E0A0E0B0E0BA2FA92F84
:10255000982F8827082B192B2A2B3B2B80916C2333
:1025600090E0A0E0B0E0082B192B2A2B3B2B8D2DFF
:10257000B70140916D230E94FB0655C00E94840163
:102580008033910519F40E9497074DC0C197E9F572
:102590000E94A90748C08091802490918124891BC2
:1025A000282F8091B10985FFFCCF822F8F5F809308
:1025B000B009822F90E09C0113C0E0918124F0E0EB
:1025C000E258FC4D9281809181248F5F8093812419
:1025D0008091B10985FFFCCF9093B0092150304024
:1025E0001216130654F31FC00E9484018C0191E05F
:1025F00000301907A9F409C00E948401382F3C015A
:10260000E0E06E16E1E07E0619F40E94E5010BC0E1
:102610008091A10885FFFCCF3093A00801501040A5
:102620000115110549F780E090E0A0E0B0E004C09A
:102630008D819E81AF81B8852D813E814F815885E6
:1026400021583B454440524014F00C94C20A0C946B
:10265000330B629FD001739FF001829FE00DF11D4B
:10266000649FE00DF11D929FF00D839FF00D749F0C
:10267000F00D659FF00D9927729FB00DE11DF91FB8
:10268000639FB00DE11DF91FBD01CF011124089515
:10269000AA1BBB1B51E107C0AA1FBB1FA617B70788
:1026A00010F0A61BB70B881F991F5A95A9F78095A4
:1026B0009095BC01CD01089597FB092E07260AD0FD
:1026C00077FD04D0E5DF06D000201AF470956195FF
:1026D0007F4F0895F6F7909581959F4F0895A1E259
:1026E0001A2EAA1BBB1BFD010DC0AA1FBB1FEE1F8C
:1026F000FF1FA217B307E407F50720F0A21BB30BD7
:10270000E40BF50B661F771F881F991F1A9469F752
:1027100060957095809590959B01AC01BD01CF01AE
:102720000895FB019F01E8944230C4F04532B4F4AF
:102730004A3029F497FB1EF4909581959F4F642FA2
:1027400077270E944813805D8A330CF0895D81935E
:10275000CB010097A1F716F45DE251931082C901F5
:102760000C94B213DC01FC01672F71917723E1F720
:10277000329704C07C916D9370836291AE17BF074E
:08278000C8F30895F894FFCF9F
:0A27880004010001020306080A0024
:00000001FF
