:100000000C9423010C9440010C9440010C94400189
:100010000C9440010C9440010C9440010C9440015C
:100020000C9440010C9440010C9440010C9440014C
:100030000C9440010C9440010C9440010C9440013C
:100040000C9440010C9440010C9440010C9440012C
:100050000C943C040C9440010C9440010C9440011D
:100060000C9440010C9449030C9440010C94400101
:100070000C9440010C9440010C9440010C944001FC
:100080000C9440010C9440010C9440010C944001EC
:100090000C9440010C9440010C9440010C944001DC
:1000A0000C9440010C9440010C9440010C944001CC
:1000B0000C9440010C9440010C9495070C94460C50
:1000C0000C9440010C947E0C0C9440010C94400163
:1000D0000C9440010C9440010C9440010C9440019C
:1000E0000C9440010C9440010C9440010C9440018C
:1000F0000C9440010C9440010C9440010C9440017C
:100100000C9440010C9440010C9440010C9440016B
:100110000C9440010C9440010C9440010C9440015B
:100120000C9440010C9440010C9440010C9440014B
:100130000C9440010C9440010C9440010C9440013B
:100140000C9440010C9440010C9440010C9440012B
:100150000C9440010C9440010C9440010C9440011B
:100160000C9440010C9440010C9440010C94210328
:100170000C9440010C944001C411901490149014FC
:10018000901490149014901490149014901490144F
:10019000901490149014901490149014901490143F
:1001A000901490149014901490149014901474124D
:1001B00090145E1290143B14FE0F1F108A139014BB
:1001C0009014901414129014B310A71090143C10B3
:1001D0009014901493108A125B0FD111D81145100E
:1001E00090144D10E81356109014AE139014901400
:1001F0009014901490149014901430109014F912DC
:1002000090149014541290147E1190149014901421
:10021000901490149014A31290144814E9117114BE
:100220002F139014B113808C98A5B0BCC6D0DAE21D
:10023000EAF0F5FAFDFEFFFEFDFAF5F0EAE2DAD0AB
:10024000C6BCB0A5988C11241FBECFEFD7E2DEBF8D
:10025000CDBF10E2A0E0B0E2ECE1FAE202C005900E
:100260000D92A830B107D9F714E2A8E0B0E201C0BE
:100270001D92A138B107E1F70E941F0F0C940C15D5
:100280000C94000080915000826080935000809117
:10029000510081FFFCCF88ED84BF809140008160D8
:1002A000809340000895A0E0B9E084E08C9383E758
:1002B00011968C9311978FEF9FEFD6968D939C9309
:1002C000D797E0E6F6E08181876081838FEFD9964A
:1002D0008C93D997DB968C9380933D0908958095F4
:1002E000E0E0F9E081AF409543AF609560933D0950
:1002F0000895E0E6F6E080E8818380E48283E0EB25
:10030000F9E083E08583E0938D20F0938E201092B6
:10031000902110928F2183818F7C80628383A0EA59
:10032000B0E012968C911297826012968C9383E8BB
:10033000868380ED87838481806184838481886063
:1003400084830895E0E4F6E028E0218324E022831A
:10035000E0EAF8E023E0258325812F732583E093ED
:100360007A23F0937B2310927D2410927C242381A6
:100370002F7C20622383A0EAB0E012962C91129782
:10038000226012962C9386836295607F892F990F45
:10039000990B682B67838481806184838481886062
:1003A000848380917C2480937D240895982FA0EAF3
:1003B000B8E08091A4088F7E14968C931497809156
:1003C000A408877F14968C931497E0E4F6E084E009
:1003D000828388E081839923A1F4809152068F7BE8
:1003E000828B809153068F7B838B8091A5088F73BE
:1003F00015968C93159783E816968C93169780ED37
:100400001AC09130D1F4809152068064828B809121
:1004100053068064838B1092F8081092F90880913B
:10042000A5088F73806815968C9315978DE31696A3
:100430008C93169783EE17968C93E0EAF8E0809100
:10044000A408806184838091A4088860848380915B
:100450007C2480937D24089520917C2420937D2406
:10046000E0EAF8E086836295607F892F990F990B07
:10047000682B67830895FC01818185FFFDCF608330
:100480000895FC0128EE33E021503040818187FD42
:1004900004C021153105C1F704C0232B11F0808160
:1004A000089580E0089590918F2180919021981770
:1004B000D1F3E0919021F0E0E357FF4D82819091DC
:1004C00090219F5F90939021089520E030E040E4D8
:1004D0005FE105C02F5F3F4FCA010197F1F790918F
:1004E0008F2180919021981729F481E0243F3807CB
:1004F00089F717C0245F3140A4F4E0919021F0E027
:10050000E357FF4D9281809190218F5F80939021DE
:100510008091B10985FFFCCF292F30E09093B0097D
:1005200002C020E031E0C901089511C0E0917D24AE
:10053000F0E0E658FC4D928180917D248F5F80939E
:100540007D248091B10985FFFCCF9093B0099091F3
:100550007C2480917D24981749F711C0E091902167
:10056000F0E0E357FF4D9281809190218F5F80935F
:1005700090218091A10885FFFCCF9093A0089091D5
:100580008F2180919021981711F3E8CFFC016083AF
:100590007183ED5FFE4F108212920895FC01EE5FB1
:1005A000FE4F9191808120E0981321E0822F0895E1
:1005B000FC01EE5FFE4F81919081891B90E00895D0
:1005C000FC01DC01AD5FBE4F8C91E80FF11D828113
:1005D0009C919F5F9C930895CF93DF93DC01EC0186
:1005E000CE5FDE4F98819F5FAD5FBE4F8C91A35071
:1005F000B140ED91FC911197E081981711F480E0E2
:1006000007C08881A80FB11D1296EC93988381E0F2
:10061000DF91CF9108958091B10985FFFCCF85E4EA
:100620008093B0098091B10985FFFCCF82E580936A
:10063000B0098091B10985FFFCCF82E58093B009B4
:1006400008951F920F920FB60F9211242F938F933C
:100650009F93EF93FF9390918F219F5F80919021C3
:10066000E0918D20F0918E202081981741F0E0914B
:100670008F21F0E0E357FF4D228390938F21FF916C
:10068000EF919F918F912F910F900FBE0F901F9020
:1006900018951F920F920FB60F9211242F938F93DC
:1006A0009F93EF93FF9390917C249F5F80917D2493
:1006B000E0917A23F0917B232081981741F0E0911B
:1006C0007C24F0E0E658FC4D228390937C24FF913B
:1006D000EF919F918F912F910F900FBE0F901F90D0
:1006E0001895AAECB1E092E09C93E82FF0E0E49139
:1006F0001C928E2F0895CF93DF938AEC91E022E035
:10070000DC012C93E0E2F0E0E4911C92A0E0B2E086
:100710001C96EC931C97EC012883E1E2F0E0E49155
:1007200018821D96EC931D9711968C911197897ED6
:10073000846011968C93119714968C91149787600E
:1007400014968C93149712968C911297806312963C
:100750008C93129728E232E0F9018081807E8083B9
:10076000E0E3F2E08081807E81608083E90119828C
:1007700088E3818312968C911297816012968C93F4
:1007800012978C9181608C9380E49FE10197F1F73F
:10079000DF91CF910895E0E3F2E081838091300210
:1007A0008068E0E0F2E080AB8091330280FD04C01D
:1007B0008091060282FFF8CF81E0E0E0F2E083ABB7
:1007C0008091340290E00895809128028068E0E0F2
:1007D000F2E080A780912B0280FFFCCF81E0E0E077
:1007E000F2E083A780912C0290E00895F894E0E075
:1007F000F8E086A197A19695879580A791A7789410
:100800000895F894E0E0F8E086A197A180A791A769
:1008100078940895F894E0E0F8E010A611A6789492
:100820000895F894E0E0F8E086AB97AB78940895EB
:10083000109252231092532310927F2410928024FE
:1008400010927E24F894E0E4F8E010A211A27894CB
:1008500083E0E0E4F8E08683E0EAF0E0828184600F
:1008600082830895E0E4F8E01682F894E0E0F8E08E
:1008700010A611A6789408951F920F920FB60F92AA
:1008800011242F933F934F935F936F937F938F9395
:100890009F93AF93BF93EF93FF9380917F249091A9
:1008A0008024019759F4F894E0E0F8E010A611A62E
:1008B000789410927F241092802408C00E94F6033E
:1008C00081E090E080937F249093802440917E2467
:1008D0008091C721481798F180917F2490918024BE
:1008E000892B21F08091C621833049F58091C62162
:1008F000833031F4F894E0E0F8E010A611A6789483
:100900008091912290919222892B51F4E0E4F8E0B9
:100910001682F894E0E0F8E010A611A67894D5C00D
:10092000109252231092532310927F24109280240D
:1009300010927E2480918F229091902243C020912A
:100940005223309153238091A52190E02817390735
:1009500094F4F901EE0FFF1FED55FE4D8381948154
:10096000E0E4F8E086A397A32F5F3F4F2093522344
:1009700030935323AAC08091C621882341F081304F
:1009800031F580917F24909180240197B9F4E42F70
:10099000E695E695E695F0E0ED55FE4D24A530E0B0
:1009A000842F90E0809590958770907002C0359567
:1009B00027958A95E2F720FF4DC051C08091CD2147
:1009C0009091CE21E0E4F8E086A397A37EC0823028
:1009D00011F580917F2490918024892BB9F4E42F24
:1009E000E695E695E695F0E0ED55FE4D24A530E060
:1009F000842F90E0809590958770907002C0359517
:100A000027958A95E2F720FF49C043C08091CD2108
:100A10009091CE2128C0833009F045C080917F2479
:100A200090918024E42FE695E695E695242F30E01A
:100A3000892BF9F4F0E0ED55FE4D84A590E020956A
:100A400030952770307002C0959587952A95E2F70A
:100A500080FF05C08091CB219091CC2104C0809172
:100A6000C9219091CA21E0E4F8E086A397A34F5FE3
:100A70002AC0F0E0ED55FE4D84A590E0209530951C
:100A80002770307002C0959587952A95E2F780FF10
:100A900005C08091C9219091CA2194CF8091CB212A
:100AA0009091CC218FCF843081F4E42FF0E0ED558C
:100AB000FE4D25A594A580E0820F911DE0E4F8E0AD
:100AC00086A397A34E5F40937E24FF91EF91BF9141
:100AD000AF919F918F917F916F915F914F913F91D6
:100AE0002F910F900FBE0F901F90189582E0E0E4B9
:100AF000F6E0868384E690E020E233E0F901319766
:100B0000F1F70197D9F782E0E0E4F6E085830895F4
:100B1000FF920F931F9382E0E0E4F6E0818300E60A
:100B200016E060E2F62EF801F1820E947605F801E7
:100B3000F6820E9479011F910F91FF900895DC01C8
:100B4000FB016D937C93119748634183ED91FC9178
:100B500011972583ED91FC9181E0848308950F9393
:100B6000CF93DF93DC01722F253008F044C00530AD
:100B700008F041C01F968C911F978823E1F581E012
:100B80001F968C931F9750961C925097660F129643
:100B90006C931297EA0120E030E007C08991FD01D3
:100BA000E20FF31F83832F5F3F4F2717B8F31B9686
:100BB0007C931B971C960C931C971D961C921D975B
:100BC0001E961C921E971B968C911B97882329F0CA
:100BD00012968C9112978E7F09C01C968C911C974F
:100BE000882339F012968C9112978160ED91FC91D7
:100BF000868381E001C080E0DF91CF910F9108955D
:100C0000DC01ED91FC911197948192FF02C084E088
:100C100001C083E050968C935097ED91FC91119711
:100C2000986094831F961C920895CF93DF93DC0104
:100C30001B969C911B971C962C911C97CD91DC9137
:100C400011978C8184FF04C083E08B8385E021C0F1
:100C50001D968C911D97891778F41D968C911D9780
:100C6000FD01E80FF11D83818F831D968C911D97E7
:100C70008F5F1D968C9312C01E968C911E978217C3
:100C800028F412968C9181608E8308C083E08B8358
:100C900081E050968C9350971F961C92DF91CF91D4
:100CA0000895DC011E968C911E97ED91FC91119791
:100CB000843080F497811E968C911E97FD01E80F79
:100CC000F11D97831E968C911E978F5F1E968C93B5
:100CD0001E9709C083E0838382E050968C935097DF
:100CE0001F961C921F971C969C911C971E968C9188
:100CF0001E97ED91FC911197891718F482E0838378
:100D0000089587E0838381E050968C9350971F96D7
:100D10001C920895DC01ED91FC9111974481242FE0
:100D200030E0C9018C709070892B21F0CD010E94B8
:100D30000006089546FF04C0CD010E9415060895DF
:100D400047FF04C0CD010E945106089586E05096E9
:100D50008C9350971F961C920895FC01608B178608
:100D600008956091912170919221809193219091A9
:100D70009421089580916423813019F020E030E0BF
:100D800009C08091632390E0811191E081E0982770
:100D9000292F30E0C90108950F93DF93CF930F926D
:100DA000CDB7DEB7198284E593E26CE4AE014F5F04
:100DB0005F4F21E004E00E94AF0580916323882308
:100DC000E1F780915B238093912180915C23809354
:100DD000922180915D238093932180915E23809363
:100DE0009421109264230F90CF91DF910F91089579
:100DF0000F93DF93CF9300D0CDB7DEB7F894E0EA3E
:100E0000F4E0E0935423F093552388E781838BE942
:100E1000858381E084838091A2008160E0EAF0E034
:100E20008283789487E0898380E58A8384E593E2EE
:100E30006CE4AE014F5F5F4F22E000E00E94AF051F
:100E4000809163238823E1F785E089831A8284E512
:100E500093E26CE4AE014F5F5F4F22E000E00E943E
:100E6000AF05809163238823E1F786E0898384EED0
:100E70008A8384E593E26CE4AE014F5F5F4F22E02A
:100E800000E00E94AF05809163238823E1F788E0AA
:100E9000898380EE8A8384E593E26CE4AE014F5F40
:100EA0005F4F22E000E00E94AF058091632388231A
:100EB000E1F789E0898388E08A8384E593E26CE442
:100EC000AE014F5F5F4F22E000E00E94AF058091CE
:100ED00063238823E1F78AE0898380E18A8384E5BC
:100EE00093E26CE4AE014F5F5F4F22E000E00E94AE
:100EF000AF05809163238823E1F787E0898381E54B
:100F00008A8384E593E26CE4AE014F5F5F4F22E099
:100F100000E00E94AF05809163238823E1F70F90E2
:100F20000F90CF91DF910F9108951F920F920FB6FE
:100F30000F9211242F933F934F935F936F937F935F
:100F40008F939F93AF93BF93EF93FF9384E593E2C7
:100F50000E948A06FF91EF91BF91AF919F918F916F
:100F60007F916F915F914F913F912F910F900FBEA5
:100F70000F901F901895E0E2F3E080E4818389E010
:100F8000828382E5848381E0809320038091200323
:100F90008460809320038091250380FFFCCFE0E2F2
:100FA000F3E0118E8091200388608093200380916C
:100FB000250381FFFCCFE0E2F3E0138E0895982F24
:100FC000809120038460809320038091250380FF1B
:100FD000FCCFE0E2F3E0918F0895982F80912003F9
:100FE0008860809320038091250381FFFCCFE0E29D
:100FF000F3E0938F0895EF92FF920F931F93CF9397
:10100000DF937C01122F613781F4FC0180E002C084
:1010100011938F5F8417E0F305C0F701E40FF11D12
:1010200010824F5F4034C8F33BC06337C9F4C0E05F
:10103000D0E0FE01EA5DFD4FE49197012C0F3D1FCA
:10104000E19FC00111246FEF70E00E94C314F90109
:1010500060832196C032D10561F7F70190E218C094
:10106000622F70E020E030E040E050E0F701E20F56
:10107000F31FCA01A5E096958795AA95E1F78083AD
:101080002F5F3F4F460F571F2032310579F7E5CFCD
:101090008081212F281B20A39F5F31969034C1F7B8
:1010A0000023D1F081E090E002C0880F991F0A95DB
:1010B000E2F7482F982F30E020E0D701A30FB11DB1
:1010C000F701E20FF11D80818C933F5F240F940F95
:1010D000892F841B803488F3DF91CF911F910F916A
:1010E000FF90EF900895E0E4F9E051815F7E518335
:1010F000E0E6F6E0568150615683F894A0E0B1E056
:1011000050961C925097E0E4F9E016824F5F4083BE
:10111000118226A337A310A211A228EDE0E8F1E086
:101120002183E0E2F3E021812E7F2183208125606D
:10113000208322E053962C93539720ED52962C93C4
:10114000529770E054966D937C93559758968C9374
:10115000589759969C9359975A961C925A9789E397
:101160005C968C935C9783E05D968C935D975E961E
:101170001C925E9784EA50968C93509780E88C93EB
:1011800078940895F894E0E0F8E010A611A6789419
:10119000F894A0E0B1E090961C929097E0E4F8E01B
:1011A00016824F5F4083118226A337A310A211A29B
:1011B00028ECE0E8F1E02283E0E2F3E021812D7FFA
:1011C000218320812960208333E093963C93939779
:1011D00020ED92962C93929770E094966D937C9369
:1011E000959798968C93989799969C9399979A9699
:1011F0001C929A978BE39C968C939C979D963C931C
:101200009D979E961C929E9784EA90968C939097B9
:1012100080E88C93789408952F923F924F925F923A
:101220006F927F928F929F92AF92BF92CF92DF92F6
:10123000EF92FF920F931F93DF93CF93CDB7DEB75B
:101240002797CDBFDEBF8D831B01442E3801490196
:10125000A42EBB24CC24DD24C901B801A60195012C
:101260000E94A41469837A838B839C8380E090E23C
:101270008E839F835524EE81FF81108121E030E031
:10128000012E02C0220F331F0A94E2F7442737FDD4
:101290004095542F69817A818B819C810E94A4148E
:1012A00096958795779567956050784B87419E4FC7
:1012B00004C096958795779567951A95D2F7A601FC
:1012C00095010E94EA14CA01B901A40193010E9488
:1012D000EA1479018A01D801C7014097A109B1092F
:1012E0008F5E9F4FA040B04090F42D81222339F4AF
:1012F000C101642D452D97010E94730806C0C101EC
:10130000642D452D97010E94C20881E00BC05394C3
:101310008E819F8101968E839F8397E0591609F0F5
:10132000AACF80E02796CDBFDEBFCF91DF911F917E
:101330000F91FF90EF90DF90CF90BF90AF909F9074
:101340008F907F906F905F904F903F902F90089577
:10135000E0E0F1E0108AE0E8F1E011828091200302
:101360008460809320038091250380FFFCCFE0E21E
:10137000F3E0118E08950E94A809E0E2F3E0808175
:101380008B7F80830895E0E0F1E010A2E0E8F1E0D7
:10139000128280912003886080932003809125032E
:1013A00081FFFCCFE0E2F3E0138E0895882319F467
:1013B0000E94A80908950E94C30908954F925F9260
:1013C0006F927F928F929F92AF92BF92CF92DF9255
:1013D000EF92FF920F931F93CF93DF93782EC62E39
:1013E000D42E622E4701580181E7681779F480E214
:1013F000481729F445E0F42E35E0E32E14C080E1CF
:10140000481769F080E3481731F409C084E768178A
:1014100011F4FF2406C0FF2423E0E22E04C094E070
:10142000F92E84E0E82E872D0E94D609C72DD0E042
:1014300006E0CC0FDD1F0A95E1F7C35FDF4D10E436
:10144000412E512C17C0CE016C2D4D2D262D0F2D68
:101450000E94FB07A2010F2C02C0559547950A94E4
:10146000E2F7872DBE01950184010E940C098823B3
:1014700029F4F394EF1438F70E940B03DF91CF9116
:101480001F910F91FF90EF90DF90CF90BF90AF90A2
:101490009F908F907F906F905F904F9008950E94E3
:1014A000C309E0E2F3E08081877F808308950E9492
:1014B000C309E0E0F8E021E0208383E1818389E44F
:1014C00093E086AB97ABE0E4F6E02183E0E4F8E05C
:1014D00085E08083168208950E94A809E0E4F9E07F
:1014E00086E0808381E08183E0E6F6E081818061AF
:1014F000818386818061868308950F931F93182FBF
:10150000092F0E94A809E0E4F9E086E0808381E0E9
:101510008183818180618183F894812F902FE0E421
:10152000F9E080A791A778941F910F910895E0E4C6
:10153000F9E081818F7E8183E0E6F6E0868180613B
:1015400086830895E0E0FAE081E0808383E0818390
:101550001382809108209091092086AB97AB089563
:10156000E0E0FAE081818F7B81830895E0E0FAE09A
:1015700081818F7781830895A0E0BAE011962C9144
:101580001197206411962C93119724E0E0E8F6E07F
:1015900021839C968D939C939D970895A0E0BAE03B
:1015A00011962C911197206811962C93119728E091
:1015B000E0E8F6E021839E968D939C939F97089593
:1015C0001F93162F843369F1853370F48133F9F05A
:1015D000823320F4803309F04FC015C08233D9F034
:1015E000833309F049C01AC0873341F1883330F49E
:1015F0008533D9F0863309F03FC01BC0883319F119
:101600008933D1F52AC0E0E0F6E081E02FC0E0E0C8
:10161000F6E082E02BC0E0E0F6E01DC0E0E0F6E09E
:1016200024C0E0E0F6E080E121C0E0E0F6E080E206
:101630001DC00E94BB09E0E2F6E00DC00E944F0A07
:10164000E0E2F6E012C08091010A8F7BE0E0FAE070
:101650008183E0E8F6E084E009C08091010A8F7799
:10166000E0E0FAE08183E0E8F6E088E0818311239E
:1016700011F0858301C086831F910895843309F496
:1016800042C0853360F4813321F1823318F4803312
:10169000B1F417C0823349F1833389F42DC0873305
:1016A00009F458C0883328F48533E1F1863339F4DE
:1016B00048C0883309F45FC0893309F470C080EDF5
:1016C000089581E0E0E0F6E0828380910806817071
:1016D000089582E0E0E0F6E082838091080690E0E1
:1016E0008270907095958795089584E0E0E0F6E02B
:1016F0008283809108064BC088E0E0E0F6E08283B8
:10170000809108062FC080E1E0E0F6E082838091BE
:10171000080690E080719070F4E095958795FA95B1
:10172000E1F7089580E2E0E0F6E082838091080628
:1017300090E080729070E5E095958795EA95E1F7E5
:1017400008950E94BB0984E0E0E2F6E08283809184
:1017500028061DC00E944F0A88E0E0E2F6E082837E
:101760008091280690E08870907073E09595879539
:101770007A95E1F708958091010A8F7BE0E0FAE025
:10178000818384E0E0E8F6E082838091880690E03F
:10179000847090709595879595958795089580911B
:1017A000010A8F77E0E0FAE0818388E0E0E8F6E084
:1017B00082838091880690E08870907053E09595C0
:1017C00087955A95E1F7089581E080930C20A0E079
:1017D000BAE085E08C9390E111969C93119788E292
:1017E00013968C931397E0E4F6E0928384898064E7
:1017F000848B84E68093800180E49FE1D6968D936C
:101800009C93D79710920A2010920B2083E0169693
:101810008C93169717968C93E0EAF0E082818460AF
:10182000828308950E940B0310920C200895E0E03B
:10183000FAE01682178210928001138211821082C0
:10184000089580910A208530F0F090910A208091CF
:10185000B10985FFFCCF91509093B00992E00CC084
:10186000E92FF0E0ED56FD4DE0818091B10985FF53
:10187000FCCFE093B0099F5F80910A20981780F316
:1018800010920C2008950E94120C08951F920F923E
:101890000FB60F9211242F933F934F935F936F9343
:1018A0007F938F939F93AF93BF93EF93FF93809119
:1018B0000A20882329F00E94170C0E94210C0DC0D9
:1018C00080910B208F5F80930B2080910B208B3FAA
:1018D00020F00E94170C0E94120CFF91EF91BF9113
:1018E000AF919F918F917F916F915F914F913F91B8
:1018F0002F910F900FBE0F901F9018951F920F926F
:101900000FB60F9211242F933F934F935F936F93D2
:101910007F938F939F93AF93BF93EF93FF93E0E0F9
:10192000FAE010A211A280910A20803C28F00E94C7
:10193000170C0E94120C39C0E0910A20F0E080914F
:10194000280AEC56FD4D8083E0910A20F0E080915A
:10195000290A8F77ED56FD4D8083E0910A20F0E053
:10196000EC56FD4D8081803450F4E0910A20F0E087
:10197000ED56FD4D8081882311F410920A2080914C
:101980000A20E0910A20F0E0ED56FD4DE081813122
:1019900038F0E13128F00E94170C0E94210C05C09C
:1019A00080910A208E5F80930A20FF91EF91BF9172
:1019B000AF919F918F917F916F915F914F913F91E7
:1019C0002F910F900FBE0F901F901895EF92FF92DE
:1019D0000F931F93CF93DF930E9465028C01C0E0A9
:1019E000D0E07C010894E108F1080EC00E94650275
:1019F00021E08030920719F420E030E00EC0FE01B3
:101A0000ED55FE4D84A72196CE15DF057CF3802F82
:101A100081508093C72121E030E0C901DF91CF914F
:101A20001F910F91FF90EF900895982FE0ECF1E057
:101A30008091CF0187FDFACF262F30E02F713070D3
:101A4000892F90E0B5E0880F991FBA95E1F7282B10
:101A5000392B2093C001832F8F718183128286E0FE
:101A60008287EF93FF930F932F93EBECF1E008ED58
:101A700021E004BF20832F910F91FF91EF9180917E
:101A8000C4010895AF92BF92CF92DF92EF92FF927E
:101A90000F931F93CF93DF939C01220F331F280FC7
:101AA000391F220F331FC22E822F60E00E94150DB6
:101AB000282F90E07C0105E0F594E7940A95E1F782
:101AC0001FE1A12EB12CA822B9228091B10985FF76
:101AD000FCCF2093B009C1E0D0E000E010E015C0D9
:101AE000DC2CD00E8D2D6C2F0E94150D982F80911F
:101AF000B10985FFFCCF9093B0092196C032D10582
:101B00008CF30F5F1F4FC0E0D0E00E151F0544F3AC
:101B10000DC0812F6C2F0E94150D982F8091B10957
:101B200085FFFCCF9093B009219602C01C2D1E0D9D
:101B3000CA15DB0574F3DF91CF911F910F91FF90D0
:101B4000EF90DF90CF90BF90AF9008955F926F922B
:101B50007F928F929F92AF92BF92CF92DF92EF923D
:101B6000FF920F931F93CF93DF939C01220F331F9C
:101B7000280F391F220F331F522E822F60E00E9440
:101B8000150DB82E90E04C0175E0959487947A95E8
:101B9000E1F76FE1662E712C68227922EE24FF2492
:101BA000C1E0D0E000E010E012C08A2D6C2F0E944E
:101BB000150DF60181936F010894E11CF11C21962B
:101BC000C032D10594F30F5F1F4FC0E0D0E0C701D2
:101BD0008C960815190534F08C010D551E4DF52C09
:101BE000F80C11C053EAC52E51E2D52EC80ED91EED
:101BF000A52CA00EDACF8F2D6C2F0E94150DF801A9
:101C000081938F012196C615D705ACF3BA94B09293
:101C1000C721DF91CF911F910F91FF90EF90DF903F
:101C2000CF90BF90AF909F908F907F906F905F907C
:101C300008958091CF0187FDFCCF08958091CF0159
:101C400087FDFCCF8091CF0181FF12C086E3E0ECDD
:101C5000F1E08287EF93FF930F932F93EBECF1E08A
:101C600008ED21E004BF20832F910F91FF91EF91A8
:101C70000895DF92EF92FF920F931F93E82E062FA5
:101C8000D42E0E941E0EE0ECF1E083E3828710E088
:101C90000F711070FF24A5E0EE0CFF1CAA95E1F770
:101CA0000E291F290083812F8F7181831282D48294
:101CB00085E38287EF93FF930F932F93EBECF1E093
:101CC00008ED21E004BF20832F910F91FF91EF9148
:101CD0001F910F91FF90EF90DF9008958F929F9248
:101CE000AF92BF92CF92DF92EF92FF920F931F932A
:101CF000CF93DF939C0180910A2090E0019760E2EE
:101D000070E00E94D7146B0180910A2090E0019747
:101D100060E270E00E94D7145C01C901880F991F2E
:101D2000820F931F880F991F882E40910A204150DF
:101D300060E00E94390EB2E0EB2EF12CC1E0D0E061
:101D400000E010E015C0982C900EF701ED56FD4D07
:101D50004081892D6C2F0E94390E0894E11CF11CE2
:101D60002196C032D1058CF30F5F1F4FC0E0D0E049
:101D70000C151D0544F30DC0F701ED56FD4D4081D6
:101D8000812F6C2F0E94390E0894E11CF11C2196C2
:101D900002C0182D1C0DCA15DB0574F3DF91CF911D
:101DA0001F910F91FF90EF90DF90CF90BF90AF9079
:101DB0009F908F9008950F931F93CF93DF93062FDB
:101DC000EC0110E00CC00E94650221E08030920717
:101DD00021F40E940B0300E004C089931F5F1017D9
:101DE00090F3802FDF91CF911F910F910895682F6D
:101DF00085E693E20E94DB0E0895E5E6F3E2E80F44
:101E0000F11D228130E040E050E0808190E0A0E0D0
:101E1000B0E0DC0199278827282B392B4A2B5B2B34
:101E2000818190E0A0E0B0E0BA2FA92F982F8827F9
:101E3000282B392B4A2B5B2BB901CA0108952F920D
:101E40003F924F925F926F927F928F929F92AF924A
:101E5000BF92CF92DF92EF92FF920F931F93DF9387
:101E6000CF93CDB7DEB72697CDBFDEBF0E9442012C
:101E70000E9453010E947B030E94570A0E9488051A
:101E80000E94BB070E946C0A0E94F80683E890E05B
:101E90006DEF0E94A2018091CC01877FE0ECF1E020
:101EA00084877894CC24DD24212CB9E03B2EA0EA51
:101EB000AA2EA8E0BA2E2FEFF10121AF23AF25AF54
:101EC00010924608F894E0E0F8E010A611A6789485
:101ED00010E08091B10985FFFCCF32E43093B00966
:101EE0008091B10985FFFCCF4CE44093B0099091FB
:101EF0008F21809190219817D1F1E0919021F0E00D
:101F0000E357FF4D1281809190218F5F8093902144
:101F1000103889F480917C2480937D2423E8F50196
:101F2000268330ED37838091A10885FFFCCF40E800
:101F30004093A00811C0112391F480917C248093D8
:101F40007D2427E8F501268330EE37838091A108B0
:101F500085FFFCCF1092A0080E94950208C08091D6
:101F6000B10985FFFCCF1093B0091A3259F088E807
:101F700093E1E0E2F3E03197F1F70197D1F71A32FC
:101F800009F0A7CF80E090E0A0E0B0E0812CFAE07B
:101F90009F2E9C01AD012F5F3F4F4F4F5F4F298315
:101FA0003A834B835C8390918F2180919021981785
:101FB00009F4BBC4E0919021F0E0E357FF4D92811A
:101FC000809190218F5F80939021992309F4ADC473
:101FD0008091B10985FFFCCF9093B009892F90E0E3
:101FE000FC01B197E735F10508F09AC4E454FF4FBE
:101FF000EE0FFF1F0590F491E02D09940E94CC068E
:10200000909191218091B10985FFFCCF9093B00907
:10201000909192218091B10985FFFCCF9093B009F6
:10202000909193218091B10985FFFCCF9093B009E5
:10203000909194218091B10985FFFCCF71C082E01D
:102040000E94F70E882309F46BC470906523662400
:102050008091662390E0862997290E947D0A60C4BA
:10206000809141098F7E809341098091660680614D
:10207000E0E6F6E0868354C480E30E94CB03982F09
:102080008091B10985FFFCCF4BC00E94E403982FDB
:102090008091B10985FFFCCF43C088E30E94CB0348
:1020A000982F8091B10985FFFCCF3AC080E00E9453
:1020B000CB03982F8091B10985FFFCCF9093B00995
:1020C00088E00E94CB03982F8091B10985FFFCCF57
:1020D0009093B00980E10E94CB03982F8091B109C1
:1020E00085FFFCCF9093B00988E10E94CB03982F25
:1020F0008091B10985FFFCCF9093B00980E20E94E6
:10210000CB03982F8091B10985FFFCCF9093B00944
:1021100080E20E94CB03982F8091B10985FFFCCF0C
:102120009093B009FDC383E00E94F70E882309F461
:10213000F7C3809165238095F10181AF809167237A
:10214000809583AF80916623809585AFE9C30E9417
:1021500065029C01C097029708F0D4C3822F805378
:102160000E94D601DDC30E94570A0E9465028C01BD
:102170007C01F1E080309F0709F4C4C30E9465022E
:102180006C0121E08030920709F4BCC3902F8827AE
:102190008C0D9D1D8093A3219093A421F89480938E
:1021A00036089093370878940E9465026C0131E0FC
:1021B0008030930709F4A6C38093A52140E1481716
:1021C00008F4A0C306EA11E21D821E821EC00E940E
:1021D00065027C0151E08030950709F493C30E94A9
:1021E00065026C0161E08030960709F48BC39E2D77
:1021F00088278C0D9D1DF801819391938F012D816E
:102200003E812F5F3F4F2D833E838091A52190E03B
:102210004D815E8148175907D4F250E0E51651E030
:10222000F50609F47DC360E0C61661E0D60609F440
:1022300077C30E9465026C0180E0C81681E0D80671
:1022400009F460C3C092C6210E9465026C0190E04F
:10225000C91691E0D90609F455C3C092C7218C2D47
:1022600090E0019768E070E00E94D7146F5F609380
:10227000C8210E9465028C01E1E080309E0709F4CC
:1022800041C30E9465026C01F1E080309F0709F4B0
:1022900039C3902F88278C0D9D1D8093C921909361
:1022A000CA210E9465028C0121E08030920709F466
:1022B00029C30E9465026C01902F88278C0D9D1DFB
:1022C0008093CB219093CC210E9465028C0131E058
:1022D0008030930709F416C30E9465029C016C01CB
:1022E00041E08030940709F40DC3902F8827280F10
:1022F000391F2093CD213093CE2112C30E94570A5B
:1023000000E010E00EC00E9465026C0151E08030D8
:10231000950709F4F7C2F801ED55FE4D84A70F5F4C
:102320001F4F8091C82190E00817190764F360E0FF
:10233000C61661E0D60609F4F3C20E9465028C015C
:1023400081E00030180709F4DDC20E9465026C01CB
:1023500090E0C91691E0D90609F4D4C2902F8827DD
:102360008C0D9D1D80938F2290939022892B39F0A4
:10237000E1E0F0E0E0939122F093922292C010927B
:102380009122109292228DC010929122109292224C
:1023900010924608F8941092280810922908789410
:1023A000BFC20E94E40B80910C208823E1F7B8C2E1
:1023B0000E946502982F9053953008F0A3C2809137
:1023C0000A20853008F49EC2892F90E00E946E0E8C
:1023D000A7C20E94E60C892B09F494C20E946502F0
:1023E0008C01F1E080309F0709F48CC20E946502E5
:1023F0006C0121E08030920709F484C2902F882775
:102400008C0D9D1D80938F2290939022892B39F003
:1024100041E050E0409391225093922237C01092B5
:1024200091221092922232C00E94650290EDF92E04
:10243000F80EE4E0EF1508F465C20E9465028C0115
:10244000F1E080309F0709F45DC20E9465026C01D3
:1024500021E08030920709F455C2902F88278C0D17
:102460009D1D80938F2290939022892B39F041E01B
:1024700050E0409391225093922204C010929122F6
:10248000109292228F2D90E00E94A60D89E493E095
:102490008093A3219093A4211092A52194E090937E
:1024A000C6210E9418043CC20E94650280538530F8
:1024B00008F028C290E00E94420D32C20E946502DC
:1024C0008C01E1E080309E0709F41CC20E94650285
:1024D0006C01F1E080309F0709F414C2682F60534B
:1024E000802F0E94E00A1CC20E94650241E08030F9
:1024F000940709F407C20E943E0BC82EDD2480E336
:1025000090E0C80ED91E8091B10985FFFCCFC09222
:10251000B00906C20E9465028C0191E000301907E3
:1025200009F4F0C10E9465026C01E1E080309E0771
:1025300009F4E8C1902F88278C0D9D1D80930820F9
:1025400090930920EDC1F1E0F093000A83E0F401DB
:1025500081831382809108209091092086AB97ABEC
:102560000E9465028033910501F50E9465028C018D
:10257000F1E080309F0709F4C5C10E9465026C013B
:1025800021E08030920709F4BDC1302F2227280FA7
:10259000391F8091010A8064F4018183F4E0F09393
:1025A0008106F40124A735A7BBC18133910509F049
:1025B000B7C10E9465028C01F1E080309F0709F4E9
:1025C000A1C10E9465026C0121E08030920709F4EC
:1025D00099C1302F2227280F391F8091010A806866
:1025E000F4018183F8E0F0938106F40126A737A770
:1025F00097C10E946502F1E080309F0709F482C113
:1026000080339105A1F40E9465029C0141E0803075
:10261000940709F477C1809120038460809320039C
:102620008091250380FFFCCF2093390379C181334A
:10263000910509F075C10E9465029C0151E080304E
:10264000950709F45FC1809120038860809320037F
:102650008091250381FFFCCF20933B0361C10E9441
:1026600065028C0161E08030960709F44BC10E943D
:1026700065026C0180E0C81681E0D80609F442C109
:10268000902F88278C0D9D1DE3E388339E0731F141
:10269000F3E389339F076CF421E38233920741F11E
:1026A00031E389339307B9F08153914309F02AC18B
:1026B0001BC055E387339507A1F069E3863396077E
:1026C00039F08853944309F01DC12DEF3CE00EC052
:1026D0002DE333E00FC029E333E008C02CEC30E0F9
:1026E00009C027E830E006C023E830E04DEF03C022
:1026F00027E03AE14EEF80917C2480937D24F50120
:1027000026834295407F832F992787FD9A95482BF2
:10271000478306C183E00E94F70E882309F400C1B5
:10272000309167238091B10985FFFCCF3093B009C8
:102730005090652344248091662390E08429952954
:1027400020917C2420937D24F5018683892F990F85
:10275000990B3295307F382B3783E2C00E94950267
:10276000DFC087E00E94F70E882309F4D9C02091CA
:1027700065232053223008F0C5C0409167234134BF
:1027800008F0C0C0E0906923FF2400E010E087015A
:10279000FF24EE2480916A2390E0A0E0B0E0BA2FFD
:1027A000A92F982F8827E82AF92A0A2B1B2B80911A
:1027B0006B2390E0A0E0B0E0E82AF92A0A2B1B2B5B
:1027C000822F60916623209168230E94DE09A8C0B1
:1027D00085E00E94F70E882309F4A2C0909165233A
:1027E000892F8053823008F08DC060916623613458
:1027F00008F088C0662309F485C0292F30E02053F3
:1028000030402D833E837901A6E0EE0CFF1CAA9593
:10281000E1F74DE050E2E40EF51EC7010E94DB0E29
:10282000882309F47DC08D810E94D6090091672319
:1028300010E020E030E09801112700278091682304
:1028400090E0A0E0B0E0BA2FA92F982F8827082B9E
:10285000192B2A2B3B2B8091692390E0A0E0B0E05C
:10286000082B192B2A2B3B2B8D81B7014091662316
:102870000E940C0955C00E9465028033910519F42D
:102880000E94A8094DC0C197E9F50E94C30948C03C
:1028900080917C2490917D24891B282F8091B109FF
:1028A00085FFFCCF822F8F5F8093B009822F90E04D
:1028B0009C0113C0E0917D24F0E0E658FC4D92812C
:1028C00080917D248F5F80937D248091B10985FF65
:1028D000FCCF9093B009215030401216130654F3E8
:1028E0001FC00E9465028C0151E080309507A9F459
:1028F00009C00E946502382F6C0160E0C61661E0D5
:10290000D60619F40E940B030BC08091A10885FF25
:10291000FCCF3093A008015010400115110549F774
:1029200080E090E0A0E0B0E004C089819A81AB81B2
:10293000BC8129813A814B815C8121583B454440CF
:1029400052400CF0B8CA25CB629FD001739FF001B2
:10295000829FE00DF11D649FE00DF11D929FF00D2F
:10296000839FF00D749FF00D659FF00D9927729F66
:10297000B00DE11DF91F639FB00DE11DF91FBD01F1
:10298000CF0111240895AA1BBB1B51E107C0AA1F48
:10299000BB1FA617B70710F0A61BB70B881F991F00
:1029A0005A95A9F780959095BC01CD01089597FBA4
:1029B000092E07260AD077FD04D0E5DF06D00020D7
:1029C0001AF4709561957F4F0895F6F7909581956B
:1029D0009F4F0895A1E21A2EAA1BBB1BFD010DC03B
:1029E000AA1FBB1FEE1FFF1FA217B307E407F507BF
:1029F00020F0A21BB30BE40BF50B661F771F881F9B
:102A0000991F1A9469F760957095809590959B0130
:0C2A1000AC01BD01CF010895F894FFCF88
:082A1C000001020306080A0094
:00000001FF
