:100000000C9423010C9440010C9440010C94400189
:100010000C9440010C9440010C9440010C9440015C
:100020000C9440010C9440010C9440010C9440014C
:100030000C9440010C9440010C9440010C9440013C
:100040000C9440010C9440010C9440010C9440012C
:100050000C941B040C9440010C9440010C9440013E
:100060000C9440010C9443030C9440010C94400107
:100070000C9440010C9440010C9440010C944001FC
:100080000C9440010C9440010C9440010C944001EC
:100090000C9440010C9440010C9440010C944001DC
:1000A0000C9440010C9440010C9440010C944001CC
:1000B0000C9440010C9440010C9474070C948D0B2B
:1000C0000C9440010C94C50B0C9440010C9440011D
:1000D0000C9440010C9440010C9440010C9440019C
:1000E0000C9440010C9440010C9440010C9440018C
:1000F0000C9440010C9440010C9440010C9440017C
:100100000C9440010C9440010C9440010C9440016B
:100110000C9440010C9440010C9440010C9440015B
:100120000C9440010C9440010C9440010C9440014B
:100130000C9440010C9440010C9440010C9440013B
:100140000C9440010C9440010C9440010C9440012B
:100150000C9440010C9440010C9440010C9440011B
:100160000C9440010C9440010C9440010C941B032E
:100170000C9440010C9440018C11011501150115DE
:1001800001150115011501150115011501150115BF
:1001900001150115011501150115011501150115AF
:1001A000011501150115011501150115011579122A
:1001B00001155712011501150D0F2E0FE71301152B
:1001C00001150115F1110115FD0FEA0F01155F0F62
:1001D00001150115B60F9712660E9911A011680F3F
:1001E0000115700FA414790F01152C1401150115B8
:1001F00001150115011501150115520F01153713D0
:1002000001150115431201153211011501150115D2
:10021000011501150115BD120115AB14B911D41446
:10022000801301152F14808C98A5B0BCC6D0DAE2DB
:10023000EAF0F5FAFDFEFFFEFDFAF5F0EAE2DAD0AB
:10024000C6BCB0A5988C11241FBECFEFD7E2DEBF8D
:10025000CDBF10E2A0E0B0E2E0ECFAE202C005900F
:100260000D92A830B107D9F714E2A8E0B0E201C0BE
:100270001D92AA33B107E1F70E942D0E0C945E1572
:100280000C94000080915000826080935000809117
:10029000510081FFFCCF88ED84BF809140008160D8
:1002A000809340000895A0E0B9E084E08C9383E758
:1002B00011968C9311978FEF9FEFD6968D939C9309
:1002C000D797E0E6F6E08181876081838FEFD9964A
:1002D0008C93D997DB968C9380933D0908958095F4
:1002E000E0E0F9E081AF409543AF609560933D0950
:1002F0000895E0E6F6E080E8818380E48283E0EB25
:10030000F9E083E08583E0934D20F0934E20109236
:10031000502110924F2183818F7C80628383A0EAD9
:10032000B0E012968C911297826012968C9383E8BB
:10033000868380ED87838481806184838481886063
:1003400084830895E0E4F6E028E0218324E022831A
:10035000E0EAF8E023E0258325812F732583E093ED
:100360003323F093342310923624109235242381C2
:100370002F7C20622383A0EAB0E012962C91129782
:10038000226012962C9386836295607F892F990F45
:10039000990B682B67838481806184838481886062
:1003A000848380913524809336240895982FA0EA81
:1003B000B8E08091A4088F7E14968C931497809156
:1003C000A408877F14968C931497E0E4F6E084E009
:1003D000828388E081839923A1F4809152068F7BE8
:1003E000828B809153068F7B838B8091A5088F73BE
:1003F00015968C93159783E816968C93169780ED37
:100400001AC09130D1F4809152068064828B809121
:1004100053068064838B1092F8081092F90880913B
:10042000A5088F73806815968C9315978DE31696A3
:100430008C93169783EE17968C93E0EAF8E0809100
:10044000A408806184838091A4088860848380915B
:100450003524809336240895209135242093362422
:10046000E0EAF8E086836295607F892F990F990B07
:10047000682B67830895FC01818185FFFDCF608330
:100480000895FC0128EE33E021503040818187FD42
:1004900004C021153105C1F704C0232B11F0808160
:1004A000089580E0089590914F21809150219817F0
:1004B000D1F3E0915021F0E0E35BFF4D8281909118
:1004C00050219F5F90935021089520E030E040E458
:1004D0005FE105C02F5F3F4FCA010197F1F790918F
:1004E0004F2180915021981729F481E0243F38074B
:1004F00089F711C0245F314074F4E0915021F0E09D
:10050000E35BFF4D9281809150218F5F809350215A
:10051000292F30E002C020E031E0C901089511C068
:10052000E0913624F0E0ED5CFC4D92818091362420
:100530008F5F809336248091B10985FFFCCF909323
:10054000B0099091352480913624981749F711C04D
:10055000E0915021F0E0E35BFF4D928180915021CA
:100560008F5F809350218091A10885FFFCCF9093ED
:10057000A00890914F2180915021981711F3E8CF56
:10058000FC0160837183ED5FFE4F1082129208952B
:10059000FC01EE5FFE4F9191808120E0981321E0F5
:1005A000822F0895FC01EE5FFE4F81919081891B9F
:1005B00090E00895FC01DC01AD5FBE4F8C91E80F27
:1005C000F11D82819C919F5F9C930895CF93DF934F
:1005D000DC01EC01CE5FDE4F98819F5FAD5FBE4FC7
:1005E0008C91A350B140ED91FC911197E081981747
:1005F00011F480E007C08881A80FB11D1296EC931A
:10060000988381E0DF91CF9108958091B10985FFB2
:10061000FCCF85E48093B0098091B10985FFFCCFC0
:1006200082E58093B0098091B10985FFFCCF82E516
:100630008093B00908951F920F920FB60F92112464
:100640002F938F939F93EF93FF9390914F219F5FF1
:1006500080915021E0914D20F0914E2020819817FB
:1006600041F0E0914F21F0E0E35BFF4D2283909356
:100670004F21FF91EF919F918F912F910F900FBE7E
:100680000F901F9018951F920F920FB60F92112482
:100690002F938F939F93EF93FF93909135249F5FB8
:1006A00080913624E0913323F091342320819817F0
:1006B00041F0E0913524F0E0ED5CFC4D2283909315
:1006C0003524FF91EF919F918F912F910F900FBE45
:1006D0000F901F901895CF93DF93E0E0F2E08181B7
:1006E000897E846081838481876084838281806342
:1006F000828328E232E0D9018C91807E8C93A0E342
:10070000B2E08C91807E81608C93E901198288E34C
:1007100011968C9382818160828380818160808345
:1007200080E49FE10197F1F7DF91CF910895E0E335
:10073000F2E08183809130028068E0E0F2E080ABFB
:100740008091330280FD04C08091060282FFF8CFC1
:1007500081E0E0E0F2E083AB8091340290E0089524
:10076000809128028068E0E0F2E080A780912B026F
:1007700080FFFCCF81E0E0E0F2E083A780912C02D3
:1007800090E00895E0E0F8E021E0208383E18183B8
:1007900089E493E086AB97ABE0E4F6E02183E0E404
:1007A000F8E085E0808316820895F894E0E0F8E0B0
:1007B00086A197A19695879580A791A7789408958B
:1007C000F894E0E0F8E086A197A180A791A778943B
:1007D0000895F894E0E0F8E010A611A67894089542
:1007E000F894E0E0F8E086AB97AB78940895109227
:1007F000122310921323109238241092392410924D
:100800003724F894E0E4F8E010A211A2789483E091
:10081000E0E4F8E08683E0EAF0E0828184608283AD
:100820000895E0E4F8E01682F894E0E0F8E010A61D
:1008300011A6789408951F920F920FB60F9211246B
:100840002F933F934F935F936F937F938F939F93D8
:10085000AF93BF93EF93FF93809138249091392405
:10086000019759F4F894E0E0F8E010A611A6789406
:10087000109238241092392408C00E94D50381E0D8
:1008800090E08093382490933924409137248091CC
:100890008721481798F18091382490913924892B29
:1008A00021F080918621833049F580918621833023
:1008B00031F4F894E0E0F8E010A611A67894809165
:1008C000512290915222892B51F4E0E4F8E01682F3
:1008D000F894E0E0F8E010A611A67894D5C0109244
:1008E000122310921323109238241092392410925C
:1008F000372480914F229091502243C0209112239F
:10090000309113238091652190E02817390794F4E2
:10091000F901EE0FFF1FED59FE4D83819481E0E454
:10092000F8E086A397A32F5F3F4F209312233093C5
:100930001323AAC080918621882341F0813031F5AC
:1009400080913824909139240197B9F4E42FE695E9
:10095000E695E695F0E0ED59FE4D24A530E0842FB4
:1009600090E0809590958770907002C0359527959E
:100970008A95E2F720FF4DC051C080918D21909162
:100980008E21E0E4F8E086A397A37EC0823011F5C3
:100990008091382490913924892BB9F4E42FE6957D
:1009A000E695E695F0E0ED59FE4D24A530E0842F64
:1009B00090E0809590958770907002C0359527954E
:1009C0008A95E2F720FF49C043C080918D21909124
:1009D0008E2128C0833009F045C080913824909141
:1009E0003924E42FE695E695E695242F30E0892B0F
:1009F000F9F4F0E0ED59FE4D84A590E02095309596
:100A00002770307002C0959587952A95E2F780FF90
:100A100005C080918B2190918C2104C08091892107
:100A200090918A21E0E4F8E086A397A34F5F2AC063
:100A3000F0E0ED59FE4D84A590E0209530952770AB
:100A4000307002C0959587952A95E2F780FF05C022
:100A50008091892190918A2194CF80918B219091CE
:100A60008C218FCF843081F4E42FF0E0ED59FE4DDE
:100A700025A594A580E0820F911DE0E4F8E086A30F
:100A800097A34E5F40933724FF91EF91BF91AF91B1
:100A90009F918F917F916F915F914F913F912F9196
:100AA0000F900FBE0F901F90189582E0E0E4F6E0E3
:100AB000868384E690E020E233E0F9013197F1F794
:100AC0000197D9F782E0E0E4F6E085830895FF928C
:100AD0000F931F9382E0E0E4F6E0818300E616E0E6
:100AE00060E2F62EF801F1820E945505F801F682C7
:100AF0000E9479011F910F91FF900895DC01FB0185
:100B00006D937C93119748634183ED91FC9111970C
:100B10002583ED91FC9181E0848308950F93CF9319
:100B2000DF93DC01722F253008F044C0053008F057
:100B300041C01F968C911F978823E1F581E01F9695
:100B40008C931F9750961C925097660F12966C9339
:100B50001297EA0120E030E007C08991FD01E20F21
:100B6000F31F83832F5F3F4F2717B8F31B967C93A8
:100B70001B971C960C931C971D961C921D971E96F6
:100B80001C921E971B968C911B97882329F0129616
:100B90008C9112978E7F09C01C968C911C9788238C
:100BA00039F012968C9112978160ED91FC918683B9
:100BB00081E001C080E0DF91CF910F910895DC01C9
:100BC000ED91FC911197948192FF02C084E001C0E5
:100BD00083E050968C935097ED91FC91119798601B
:100BE00094831F961C920895CF93DF93DC011B968C
:100BF0009C911B971C962C911C97CD91DC91119781
:100C00008C8184FF04C083E08B8385E021C01D9626
:100C10008C911D97891778F41D968C911D97FD0175
:100C2000E80FF11D83818F831D968C911D978F5F37
:100C30001D968C9312C01E968C911E97821728F4D5
:100C400012968C9181608E8308C083E08B8381E053
:100C500050968C9350971F961C92DF91CF910895D8
:100C6000DC011E968C911E97ED91FC9111978430BA
:100C700080F497811E968C911E97FD01E80FF11D5F
:100C800097831E968C911E978F5F1E968C931E974E
:100C900009C083E0838382E050968C9350971F961F
:100CA0001C921F971C969C911C971E968C911E97C8
:100CB000ED91FC911197891718F482E083830895D0
:100CC00087E0838381E050968C9350971F961C9207
:100CD0000895DC01ED91FC9111974481242F30E0BF
:100CE000C9018C709070892B21F0CD010E94DF0525
:100CF000089546FF04C0CD010E94F405089547FF02
:100D000004C0CD010E943006089586E050968C9371
:100D100050971F961C920895FC01608B17860895CA
:100D200060915121709152218091532190915421D1
:100D3000089580912423813019F020E030E009C02B
:100D40008091232390E0811191E081E09827292F61
:100D500030E0C90108950F93DF93CF930F92CDB781
:100D6000DEB7198284E193E26CE4AE014F5F5F4F1E
:100D700021E004E00E948E05809123238823E1F77F
:100D800080911B238093512180911C2380935221B9
:100D900080911D238093532180911E2380935421A1
:100DA000109224230F90CF91DF910F9108950F930C
:100DB000DF93CF9300D0CDB7DEB7F894E0EAF4E04C
:100DC000E0931423F093152388E781838BE98583CF
:100DD00081E084838091A2008160E0EAF0E0828378
:100DE000789487E0898380E58A8384E193E26CE4E8
:100DF000AE014F5F5F4F22E000E00E948E058091C0
:100E000023238823E1F785E089831A8284E193E232
:100E10006CE4AE014F5F5F4F22E000E00E948E0560
:100E2000809123238823E1F786E0898384EE8A83F7
:100E300084E193E26CE4AE014F5F5F4F22E000E09B
:100E40000E948E05809123238823E1F788E089831F
:100E500080EE8A8384E193E26CE4AE014F5F5F4FE2
:100E600022E000E00E948E05809123238823E1F791
:100E700089E0898388E08A8384E193E26CE4AE01AF
:100E80004F5F5F4F22E000E00E948E058091232398
:100E90008823E1F78AE0898380E18A8384E193E211
:100EA0006CE4AE014F5F5F4F22E000E00E948E05D0
:100EB000809123238823E1F787E0898381E58A8372
:100EC00084E193E26CE4AE014F5F5F4F22E000E00B
:100ED0000E948E05809123238823E1F70F900F90C5
:100EE000CF91DF910F9108951F920F920FB60F923D
:100EF00011242F933F934F935F936F937F938F931F
:100F00009F93AF93BF93EF93FF9384E193E20E948B
:100F10006906FF91EF91BF91AF919F918F917F9162
:100F20006F915F914F913F912F910F900FBE0F9056
:100F30001F901895E0E2F3E080E4818389E08283EA
:100F400082E5848381E08093200380912003846084
:100F5000809320038091250380FFFCCFE0E2F3E043
:100F6000118E809120038860809320038091250357
:100F700081FFFCCFE0E2F3E0138E0895982F80917B
:100F800020038460809320038091250380FFFCCFA1
:100F9000E0E2F3E0918F0895982F8091200388601C
:100FA000809320038091250381FFFCCFE0E2F3E0F2
:100FB000938F0895E0E0F1E0108AE0E8F1E011821B
:100FC00010924009E0E2F3E080818B7F80830895F6
:100FD000E0E2F3E08081877F80830895EF92FF92C3
:100FE0000F931F93CF93DF937C01122F613781F40E
:100FF000FC0180E002C011938F5F8417E0F305C00D
:10100000F701E40FF11D10824F5F4034C8F33BC07D
:101010006337C9F4C0E0D0E0FE01EA5DFD4FE49122
:1010200097012C0F3D1FE19FC00111246FEF70E06D
:101030000E941515F90160832196C032D10561F730
:10104000F70190E218C0622F70E020E030E040E04D
:1010500050E0F701E20FF31FCA01A5E096958795CE
:10106000AA95E1F780832F5F3F4F460F571F20322D
:10107000310579F7E5CF8081212F281B20A39F5FC1
:1010800031969034C1F70023D1F081E090E002C0A6
:10109000880F991F0A95E2F7482F982F30E020E03B
:1010A000D701A30FB11DF701E20FF11D80818C93D1
:1010B0003F5F240F940F892F841B803488F3DF91C6
:1010C000CF911F910F91FF90EF9008950F931F9371
:1010D000182F092F742FA901809141098F7EE0E418
:1010E000F9E08183809166068061E0E6F6E0868320
:1010F000F8948091B10985FFFCCF5093B00980919D
:10110000B10985FFFCCF4093B0098091B10985FFFB
:10111000FCCF7093B0098091B10985FFFCCF60933B
:10112000B00920E233E080E4F901848389E082831E
:10113000A0E0B1E050961C9250977F5FE0E4F9E0A8
:1011400070934009118246A357A388EDE0E8F1E0CF
:10115000818381E0F9018383809121038160818310
:101160008091200385608093200385E253968C93C1
:1011700053978CED52968C935297862F90E054960D
:101180008D939C93559758961C93589759960C930A
:1011900059975A961C925A9789E35C968C935C9760
:1011A00083E05D968C935D975E961C925E9784EAD1
:1011B00050968C9380E88093000178941F910F9152
:1011C00008952F923F924F925F926F927F928F92EB
:1011D0009F92AF92BF92CF92DF92EF92FF920F93C6
:1011E0001F93DF93CF93CDB7DEB72797CDBFDEBF79
:1011F0008B836C834D83180129011E821F825DC081
:1012000060E078E488EE91E0F801008004C09695F3
:101210008795779567950A94D2F7A50194010E9466
:101220003C15CA01B901A20191010E943C15690156
:101230007A01D701C6018097A109B1098F5D9F4F3F
:10124000A040B04060F58091B10985FFFCCFBB277D
:10125000AF2D9E2D8D2D8093B0098091B10985FF12
:10126000FCCFC092B0098091B10985FFFCCF70928C
:10127000B0098091B10985FFFCCF6092B0098DE083
:1012800090E26B814C812D81062D0E94EE078DE04E
:1012900090E26981472D96010E94660824C07394EC
:1012A0000F5F1F4F27E0721609F0AACF8E819F8132
:1012B00001968E839F830497A1F06E80E0E4F0E0B6
:1012C000062C02C0F595E7950A94E2F7E983FA83C4
:1012D0004F01AA2497FCA094BA2C00E010E27724D6
:1012E0008FCF0E9405032796CDBFDEBFCF91DF9140
:1012F0001F910F91FF90EF90DF90CF90BF90AF9034
:101300009F908F907F906F905F904F903F902F9025
:101310000895E0E0F1E0108AE0E8F1E01182109237
:1013200040090895E0E0F1E0108AE0E8F1E0118280
:10133000E0E4F9E0108286E0808381E08183E0E6EA
:10134000F6E0818180618183868180618683089552
:10135000E0E0F1E0108AE0E8F1E01182E0E4F9E099
:10136000108226E0208321E02183218120612183D6
:10137000F894E0E4F9E080A791A778940895E0E478
:10138000F9E081818F7E8183E0E6F6E086818061ED
:1013900086830895E0E0FAE081E0808383E0818342
:1013A0001382809108209091092086AB97AB089515
:1013B000E0E0FAE081818F7B81830895E0E0FAE04C
:1013C00081818F7781830895A0E0BAE011962C91F6
:1013D0001197206411962C93119724E0E0E8F6E031
:1013E00021839C968D939C939D970895A0E0BAE0ED
:1013F00011962C911197206811962C93119728E043
:10140000E0E8F6E021839E968D939C939F97089544
:10141000843371F1853370F4813301F1823320F428
:10142000803309F063C016C08233E1F0833309F0E2
:101430005DC01BC08733A1F1883330F48533E1F000
:10144000863309F053C01CC0883399F1893309F001
:101450004DC03DC0E0E0F6E081E034C0E0E0F6E001
:1014600082E030C0E0E0F6E02CC0E0E0F6E01FC033
:10147000E0E0F6E080E126C0E0E0F6E080E222C0B5
:10148000E0E0F1E0108AE0E8F1E01182109240091A
:10149000809120038B7F80932003E0E2F6E011C06F
:1014A00080912003877F80932003E0E2F6E088E0CC
:1014B00009C08091010A8F7BE0E0FAE08183E0E8D7
:1014C000F6E084E08183662371F486830895809139
:1014D000010A8F77E0E0FAE08183E0E8F6E088E057
:1014E0008183662311F0858308958683089584336C
:1014F00009F442C0853360F4813321F1823318F45A
:101500008033B1F417C0823349F1833389F42DC09D
:10151000873309F463C0883328F48533E1F18633D7
:1015200039F448C0883309F46DC0893309F47EC0AA
:1015300080ED089581E0E0E0F6E082838091080686
:101540008170089582E0E0E0F6E0828380910806F1
:1015500090E08270907095958795089584E0E0E022
:10156000F6E082838091080659C088E0E0E0F6E06A
:101570008283809108063DC080E1E0E0F6E082834E
:101580008091080690E08071907064E09595879551
:101590006A95E1F7089580E2E0E0F6E082838091C9
:1015A000080690E08072907055E0959587955A9561
:1015B000E1F70895E0E0F1E0108AE0E8F1E011825F
:1015C00010924009809120038B7F8093200384E058
:1015D000E0E2F6E082838091280620C0809120031B
:1015E000877F8093200388E0E0E2F6E082838091A9
:1015F000280690E08870907043E0959587954A950D
:10160000E1F708958091010A8F7BE0E0FAE08183A1
:1016100084E0E0E8F6E082838091880690E08470C0
:101620009070959587959595879508958091010A75
:101630008F77E0E0FAE0818388E0E0E8F6E08283FB
:101640008091880690E08870907023E0959587954A
:101650002A95E1F7089581E080930C20A0E0BAE09C
:1016600085E08C9390E111969C93119788E21396F4
:101670008C931397E0E4F6E0928384898064848BF2
:1016800084E68093800180E49FE1D6968D939C93BD
:10169000D79710920A2010920B2083E016968C9315
:1016A000169717968C93E0EAF0E08281846082833B
:1016B00008950E94050310920C200895E0E0FAE0DE
:1016C000168217821092800113821182108208956F
:1016D00080910A208530F0F090910A208091B10924
:1016E00085FFFCCF91509093B00992E00CC0E92F98
:1016F000F0E0ED5AFD4DE0818091B10985FFFCCF0E
:10170000E093B0099F5F80910A20981780F31092B0
:101710000C2008950E94590B08951F920F920FB646
:101720000F9211242F933F934F935F936F937F9367
:101730008F939F93AF93BF93EF93FF9380910A2072
:10174000882329F00E945E0B0E94680B0DC08091D7
:101750000B208F5F80930B2080910B208B3F20F01C
:101760000E945E0B0E94590BFF91EF91BF91AF91C8
:101770009F918F917F916F915F914F913F912F91A9
:101780000F900FBE0F901F9018951F920F920FB6DB
:101790000F9211242F933F934F935F936F937F93F7
:1017A0008F939F93AF93BF93EF93FF93E0E0FAE0A3
:1017B00010A211A280910A20803C28F00E945E0BAA
:1017C0000E94590B39C0E0910A20F0E08091280A6C
:1017D000EC5AFD4D8083E0910A20F0E08091290AC7
:1017E0008F77ED5AFD4D8083E0910A20F0E0EC5AAE
:1017F000FD4D8081803450F4E0910A20F0E0ED5AF4
:10180000FD4D8081882311F410920A2080910A20D6
:10181000E0910A20F0E0ED5AFD4DE081813138F091
:10182000E13128F00E945E0B0E94680B05C0809198
:101830000A208E5F80930A20FF91EF91BF91AF91B4
:101840009F918F917F916F915F914F913F912F91D8
:101850000F900FBE0F901F901895EF92FF921F935D
:10186000CF93DF930E9465029C01182F8091B109EC
:1018700085FFFCCF1093B009C0E0D0E07901089457
:10188000E108F10815C00E94650221E0803092074E
:1018900019F420E030E014C0982F8091B10985FF41
:1018A000FCCF9093B009FE01ED59FE4D94A721960F
:1018B000CE15DF0544F311501093872121E030E06D
:1018C000C901DF91CF911F91FF90EF900895982F5C
:1018D000E0ECF1E08091CF0187FDFACF262F30E0D8
:1018E0002F713070892F90E0A5E0880F991FAA957D
:1018F000E1F7282B392B2093C001832F8F7181832F
:10190000128286E08287EF93FF930F932F93EBEC85
:10191000F1E008ED21E004BF20832F910F91FF91AA
:10192000EF918091C4010895AF92BF92CF92DF9260
:10193000EF92FF920F931F93CF93DF939C01220F9F
:10194000331F280F391F220F331FC22E822F60E052
:101950000E94670C282F90E07C0115E0F594E79435
:101960001A95E1F7BFE1AB2EB12CA822B9228091E4
:10197000B10985FFFCCF2093B009C1E0D0E000E0C1
:1019800010E015C0DC2CD00E8D2D6C2F0E94670C42
:10199000982F8091B10985FFFCCF9093B0092196D3
:1019A000C032D1058CF30F5F1F4FC0E0D0E00E15A1
:1019B0001F0544F30DC0812F6C2F0E94670C982FD8
:1019C0008091B10985FFFCCF9093B009219602C0A8
:1019D0001C2D1E0DCA15DB0574F3DF91CF911F91ED
:1019E0000F91FF90EF90DF90CF90BF90AF90089550
:1019F0005F926F927F928F929F92AF92BF92CF929F
:101A0000DF92EF92FF920F931F93CF93DF939C018E
:101A1000220F331F280F391F220F331F522E822F00
:101A200060E00E94670CB82E90E04C0175E0959440
:101A300087947A95E1F76FE1662E712C68227922FE
:101A4000EE24FF24C1E0D0E000E010E012C08A2DB7
:101A50006C2F0E94670CF60181936F010894E11CC2
:101A6000F11C2196C032D10594F30F5F1F4FC0E0E7
:101A7000D0E0C7018C960815190534F08C010D597A
:101A80001E4DF52CF80C11C053E6C52E51E2D52E93
:101A9000C80ED91EA52CA00EDACF8F2D6C2F0E9458
:101AA000670CF80181938F012196C615D705ACF319
:101AB000BA94B0928721DF91CF911F910F91FF903F
:101AC000EF90DF90CF90BF90AF909F908F907F90DE
:101AD0006F905F9008958091CF0187FDFCCF0895AE
:101AE0008091CF0187FDFCCF8091CF0181FF12C093
:101AF00086E3E0ECF1E08287EF93FF930F932F935F
:101B0000EBECF1E008ED21E004BF20832F910F9171
:101B1000FF91EF910895DF92EF92FF920F931F9341
:101B2000E82E062FD42E0E94700DE0ECF1E083E346
:101B3000828710E00F711070FF24A5E0EE0CFF1CEF
:101B4000AA95E1F70E291F290083812F8F718183C8
:101B50001282D48285E38287EF93FF930F932F93B2
:101B6000EBECF1E008ED21E004BF20832F910F9111
:101B7000FF91EF911F910F91FF90EF90DF900895EB
:101B80008F929F92AF92BF92CF92DF92EF92FF928D
:101B90000F931F93CF93DF939C0180910A2090E0D5
:101BA000019760E270E00E9429156B0180910A2084
:101BB00090E0019760E270E00E9429155C01C90184
:101BC000880F991F820F931F880F991F882E4091AD
:101BD0000A20415060E00E948B0DB2E0EB2EF12C08
:101BE000C1E0D0E000E010E015C0982C900EF701A5
:101BF000ED5AFD4D4081892D6C2F0E948B0D08946C
:101C0000E11CF11C2196C032D1058CF30F5F1F4FF0
:101C1000C0E0D0E00C151D0544F30DC0F701ED5AEE
:101C2000FD4D4081812F6C2F0E948B0D0894E11C8B
:101C3000F11C219602C0182D1C0DCA15DB0574F38A
:101C4000DF91CF911F910F91FF90EF90DF90CF9098
:101C5000BF90AF909F908F9008952F923F924F9298
:101C60005F926F927F928F929F92AF92BF92CF922C
:101C7000DF92EF92FF920F931F93DF93CF93CDB735
:101C8000DEB72697CDBFDEBF0E9442010E945301FE
:101C90000E946B030E94C2030E9467050E949A077C
:101CA0000E9492090E94D70683E890E06DEF0E949F
:101CB000A2018091CC01877FE0ECF1E084877894E9
:101CC000CC24DD2440EA642E48E0742E2FEF2093CC
:101CD000390920933B0920933D0910924608F89456
:101CE000E0E0F8E010A611A6789410E08091B10928
:101CF00085FFFCCF32E43093B0098091B10985FFB4
:101D0000FCCF4CE44093B00990914F218091502139
:101D10009817D1F1E0915021F0E0E35BFF4D128183
:101D2000809150218F5F80935021103889F48091E9
:101D300035248093362423E8F301268330ED37835E
:101D40008091A10885FFFCCF40E84093A00811C016
:101D5000112391F4809135248093362427E8F301F0
:101D6000268330EE37838091A10885FFFCCF109247
:101D7000A0080E948F0208C08091B10985FFFCCFA6
:101D80001093B0091A3259F088E893E1E0E2F3E0E9
:101D90003197F1F70197D1F71A3209F0A7CF80E018
:101DA00090E0A0E0B0E0412C3AE0532E24E0822EF7
:101DB0009C01AD012F5F3F4F4F4F5F4F29833A8307
:101DC0004B835C8390914F2180915021981709F4A7
:101DD0001DC6E0915021F0E0E35BFF4D92818091C0
:101DE00050218F5F80935021992309F40FC6809171
:101DF000B10985FFFCCF9093B009892F90E0FC01D9
:101E0000B197E735F10508F0FCC5E454FF4FEE0F3C
:101E1000FF1F0590F491E02D09940E94AB0690916C
:101E200051218091B10985FFFCCF9093B009909129
:101E300052218091B10985FFFCCF9093B009909118
:101E400053218091B10985FFFCCF9093B009909107
:101E500054218091B10985FFFCCF85C00E946502A5
:101E60008C0131E08030930709F4CBC58091B10932
:101E700085FFFCCF0093B0090E9465029C016C01B4
:101E800041E08030940709F4A7C58091B10985FF2E
:101E9000FCCF2093B009902F8827820F931F0E94B8
:101EA000A809AFC5809141098F7EE0E4F9E0818304
:101EB000809166068061E0E6F6E08683A2C580E355
:101EC0000E949703982F8091B10985FFFCCF4BC0EA
:101ED0000E94B003982F8091B10985FFFCCF43C0C9
:101EE00088E30E949703982F8091B10985FFFCCF6A
:101EF0003AC080E00E949703982F8091B10985FF36
:101F0000FCCF9093B00988E00E949703982F8091AE
:101F1000B10985FFFCCF9093B00980E10E9497033F
:101F2000982F8091B10985FFFCCF9093B00988E18B
:101F30000E949703982F8091B10985FFFCCF909361
:101F4000B00980E20E949703982F8091B10985FF24
:101F5000FCCF9093B00980E20E949703982F809164
:101F6000B10985FFFCCF9093B0094BC50E94650273
:101F700051E08030950709F42FC5082F8091B109F1
:101F800085FFFCCF0093B0090E94650261E08030BC
:101F9000960709F421C5182F8091B10985FFFCCF60
:101FA0001093B0090E946502E1E080309E0709F4B9
:101FB00013C5982F8091B10985FFFCCF9093B0098C
:101FC000009500933909909590933B0910951093D3
:101FD0003D0917C50E9465029C01C097029708F051
:101FE000FBC4922F8091B10985FFFCCF9093B0097B
:101FF000892F80530E94D60104C50E94C2030E940B
:1020000065028C017C01F1E080309F0709F4E4C493
:102010008091B10985FFFCCF0093B0090E94650251
:102020009C016C0141E08030940709F4D5C4809193
:10203000B10985FFFCCF2093B009902F8827820F2C
:10204000931F8093632190936421F894E0E0F8E07B
:1020500086AB97AB78940E9465026C0151E08030AA
:10206000950709F4B9C4982FC09265218091B109F0
:1020700085FFFCCF9093B009913138F4B6E6AB2ED2
:10208000B1E2BB2E1D821E8235C08091B10985FF51
:10209000FCCF82E58093B009B4C40E946502182F7A
:1020A0007C0160E0E61661E0F60609F495C48091D3
:1020B000B10985FFFCCF1093B0090E9465029C0115
:1020C0006C0181E02030380709F486C48091B109A1
:1020D00085FFFCCF2093B009312E2224220D331D21
:1020E000F501219331935F012D813E812F5F3F4F99
:1020F0002D833E838091652190E04D815E8148175C
:1021000059075CF250E0E51651E0F50609F479C490
:1021100060E0C61661E0D60609F473C40E94650249
:102120006C0180E0C81681E0D80609F455C49C2DE6
:10213000C09286218091B10985FFFCCF9093B009B0
:102140000E9465026C0190E0C91691E0D90609F47D
:1021500043C42C2D8091B10985FFFCCF2093B00999
:1021600020938721822F90E0019768E070E00E9421
:1021700029156F5F609388218091B10985FFFCCF9D
:102180002093B0090E9465028C01E1E080309E0737
:1021900009F422C48091B10985FFFCCF0093B009F6
:1021A0000E9465029C016C01F1E080309F0709F4F8
:1021B00013C48091B10985FFFCCF2093B009902F03
:1021C0008827280F391F2093892130938A210E9464
:1021D00065028C0121E08030920709F4FDC38091F3
:1021E000B10985FFFCCF0093B0090E9465029C01F4
:1021F0006C0141E08030940709F4EEC38091B1098D
:1022000085FFFCCF2093B009902F8827280F391F16
:1022100020938B2130938C210E9465028C0151E028
:102220008030950709F4D8C38091B10985FFFCCFB0
:102230000093B0090E9465029C016C0161E080304E
:10224000960709F4C9C38091B10985FFFCCF20939B
:10225000B009902F8827280F391F20938D213093A4
:102260008E21CFC30E94C20300E010E016C00E947E
:1022700065026C0180E0C81681E0D80609F4ACC3A1
:102280009C2DF801ED59FE4DC4A68091B10985FF42
:10229000FCCF9093B0090F5F1F4F8091882190E091
:1022A0000817190724F390E0C91691E0D90609F43C
:1022B000A8C30E9465028C01E1E080309E0709F40A
:1022C0008BC38091B10985FFFCCF0093B0090E94B8
:1022D00065029C016C01F1E080309F0709F47CC32A
:1022E0008091B10985FFFCCF2093B009902F8827FA
:1022F000820F931F80934F2290935022892B39F0A5
:1023000021E030E02093512230935222B9C0109244
:10231000512210925222B4C0109251221092522295
:1023200010924608F894E0E0F8E010A611A6789420
:1023300068C30E942B0B80910C208823E1F761C3B6
:102340000E946502982F9053953008F045C3809104
:102350000A20853008F440C38091B10985FFFCCF85
:10236000905D9093B0099053892F90E00E94C00D2A
:1023700048C30E942D0C892B09F42EC30E946502CC
:102380008C0131E08030930709F426C38091B109B4
:1023900085FFFCCF0093B0090E9465029C016C018F
:1023A00041E08030940709F417C38091B10985FF9B
:1023B000FCCF2093B009902F8827820F931F809322
:1023C0004F2290935022892B39F081E090E0809346
:1023D0005122909352224AC01092512210925222BE
:1023E00045C00E946502182F1053153008F0F4C242
:1023F0008091B10985FFFCCF105D1093B009105397
:102400000E9465027C01F1E080309F0709F4E4C27C
:102410008091B10985FFFCCFE092B0090E9465026E
:102420009C016C0141E08030940709F4D5C2809191
:10243000B10985FFFCCF2093B0099E2D8827820F1C
:10244000931F80934F2290935022892B39F081E083
:1024500090E0809351229093522204C01092512216
:1024600010925222812F90E00E94F80CE9E4F3E0F0
:10247000E0936321F093642110926521809286217C
:102480000E94F703BEC20E946502982F90539530B8
:1024900008F0A2C28091B10985FFFCCF905D9093B6
:1024A000B0099053892F90E00E94940CAAC20E9418
:1024B0006502F1E080309F0709F48EC2182F8091E9
:1024C000B10985FFFCCF1093B0090E9465026C0131
:1024D00021E08030920709F47FC2682F8091B10912
:1024E00085FFFCCF6093B0096053812F0E94080ADA
:1024F00088C20E94650241E08030940709F46CC2F2
:10250000982F8091B10985FFFCCF9093B009892F56
:102510000E94770AC82EDD2480E390E0C80ED91E01
:102520008091B10985FFFCCFC092B0096AC20E94B8
:1025300065028C0191E00030190709F44DC28091C9
:10254000B10985FFFCCF0093B0090E9465029C0190
:102550006C01E1E080309E0709F43EC28091B10930
:1025600085FFFCCF2093B009902F8827280F391FB3
:10257000209308203093092044C2F1E0F093000A30
:1025800023E0F20121831382809108209091092099
:1025900086AB97AB0E9465029C0141E080309407B6
:1025A00009F41AC28091B10985FFFCCF2093B009CC
:1025B0002033310559F50E9465028C0151E08030CD
:1025C000950709F409C28091B10985FFFCCF0093FA
:1025D000B0090E9465029C016C0161E080309607A1
:1025E00009F4FAC18091B10985FFFCCF2093B009AD
:1025F000902F8827280F391F8091010A8064F201EB
:1026000081838092810624A735A7FBC12133310540
:1026100009F0F7C10E9465028C01F1E080309F074C
:1026200009F4DAC18091B10985FFFCCF0093B009AC
:102630000E9465029C016C0141E08030940709F41E
:10264000CBC18091B10985FFFCCF2093B009902FB9
:102650008827280F391F8091010A8068F201818341
:10266000F8E0F0938106F20126A737A7CAC10E94BD
:1026700065029C01F1E080309F0709F4ADC18091B3
:10268000B10985FFFCCF2093B00920333105D1F487
:102690000E94650241E08030940709F49DC1982FA3
:1026A0008091B10985FFFCCF9093B0098091200300
:1026B0008460809320038091250380FFFCCF90935A
:1026C00039039FC12133310509F09BC10E94650286
:1026D00051E08030950709F47FC1982F8091B109AE
:1026E00085FFFCCF9093B009809120038860809390
:1026F00020038091250381FFFCCF90933B0381C190
:102700000E9465028C0161E08030960709F464C183
:102710008091B10985FFFCCF0093B0090E9465024A
:102720009C016C0181E02030380709F455C180918B
:10273000B10985FFFCCF2093B009902F8827820F25
:10274000931FE3E388339E0731F1F3E389339F0757
:102750006CF421E38233920741F131E3893393072B
:10276000B9F08153914309F037C11BC055E387335A
:102770009507A1F069E38633960739F088539443AF
:1027800009F02AC12DEF3CE00EC02DE333E00FC06D
:1027900029E333E008C02CEC30E009C027E830E042
:1027A00006C023E830E04DEF03C027E03AE14EEFEA
:1027B0008091352480933624F30126834295407F0F
:1027C000832F992787FD9A95482B47831AC10E942A
:1027D00065028C01F1E080309F0709F4FDC0809113
:1027E000B10985FFFCCF0093B0090E9465027C010E
:1027F0006C0121E08030920709F4EEC08091B109AC
:1028000085FFFCCFE092B0090E946502AC0131E087
:102810008030930709F46FC0382F8091B10985FF8C
:10282000FCCF3093B0098091B10985FFFCCF902F88
:1028300088278E0D9F1D3093B00920913524209359
:102840003624F30186833295307F892F990F990BB7
:10285000382B37836A01D5C00E948F02D2C00E94F4
:102860006502F1E080309F0709F4B6C0982E809190
:10287000B10985FFFCCF9092B0090E9465028134B6
:10288000910508F0A9C0A82E8091B10985FFFCCF61
:10289000A092B0090E94650221E08030920709F4FD
:1028A0009BC0B82E8091B10985FFFCCFB092B009D2
:1028B0000E9465027C016C0131E08030930709F4CD
:1028C0008BC08091B10985FFFCCFE092B0090E94D6
:1028D00065028C0141E08030940769F08091B10974
:1028E00085FFFCCF0093B0090E9465026C0151E0A6
:1028F0008030950731F40E940503C12C61E0D62E8B
:1029000080C08091B10985FFFCCFC092B009C7019A
:10291000A0E0B0E0DC019927882720E030E0322FEA
:10292000212F102F0027082B192B2A2B3B2BC601F8
:10293000A0E0B0E0082B192B2A2B3B2B892D6A2D08
:102940004B2D0E94E1085DC0109210011092810190
:102950001092400956C08091352490913624891BED
:10296000282F8091B10985FFFCCF822F8F5F809344
:10297000B009822F90E09C0113C0E0913624F0E072
:10298000ED5CFC4D9281809136248F5F80933624DC
:102990008091B10985FFFCCF9093B0092150304060
:1029A0001216130654F32DC00E9465027C0161E0EB
:1029B0008030960789F08091B10985FFFCCFE092C5
:1029C000B00900E010E01AC00E9465026C0180E0CE
:1029D000C81681E0D80619F40E94050312C09C2D88
:1029E0008091B10985FFFCCF9093B0098091A10837
:1029F00085FFFCCF9093A0080F5F1F4F0E151F059A
:102A000018F380E090E0A0E0B0E004C089819A81F2
:102A1000AB81BC8129813A814B815C8121583B4546
:102A2000444052400CF052C9C3C9AA1BBB1B51E120
:102A300007C0AA1FBB1FA617B70710F0A61BB70B2E
:102A4000881F991F5A95A9F780959095BC01CD01D3
:102A5000089597FB092E07260AD077FD04D0E5DFFD
:102A600006D000201AF4709561957F4F0895F6F70F
:102A7000909581959F4F0895A1E21A2EAA1BBB1B2A
:102A8000FD010DC0AA1FBB1FEE1FFF1FA217B3073A
:102A9000E407F50720F0A21BB30BE40BF50B661F50
:102AA000771F881F991F1A9469F760957095809514
:102AB00090959B01AC01BD01CF010895F894FFCF23
:082AC0000001020306080A00F0
:00000001FF
