:104000000C94BC200C94CE200C94CE200C94CE208A
:104010000C94CE200C94CE200C94CE200C94CE2068
:104020000C94CE200C94CE200C94CE200C94CE2058
:104030000C94CE200C94CE200C94CE200C94CE2048
:104040000C94CE200C94CE200C94CE200C94CE2038
:104050000C94CE200C94CE200C94CE200C94CE2028
:104060000C94CE200C94CE200C94CE200C94CE2018
:104070000C94CE200C94CE200C94CE200C94CE2008
:104080000C94CE200C94CE200C94CE200C94CE20F8
:104090000C94CE200C94CE200C94CE200C94CE20E8
:1040A0000C94CE200C94CE200C94CE200C94CE20D8
:1040B0000C94CE200C94CE200C94CE200C94CE20C8
:1040C0000C94CE200C94CE200C94CE200C94CE20B8
:1040D0000C94CE200C94CE200C94CE200C94CE20A8
:1040E0000C94CE200C94CE200C94CE200C94CE2098
:1040F0000C94CE200C94CE200C94CE200C94CE2088
:104100000C94CE200C94CE200C94CE200C94CE2077
:104110000C94CE200C94CE200C94CE200C94CE2067
:104120000C94CE200C94CE200C94CE200C94CE2057
:104130000C94CE200C94CE200C94CE200C94CE2047
:104140000C94CE200C94CE200C94CE200C94CE2037
:104150000C94CE200C94CE200C94CE200C94CE2027
:104160000C94CE200C94CE200C94CE200C94CE2017
:104170000C94CE200C94CE2011241FBECFEFD7E29A
:10418000DEBFCDBF10E2A0E0B0E201C01D92A130C1
:10419000B107E1F70E9459220C9463260C94002089
:1041A00090910020923050F48091B10987FFFACFAE
:1041B00081E0809300208091B0090895FFCF982F6F
:1041C00080910020823060F49093B0098091B10911
:1041D00086FFFCCF8091B1098064E0EBF9E0818338
:1041E00008950E94D020382F0E94D020282FC90186
:1041F0000895EF92FF921F93CF93DF937C01162FC8
:10420000EA01653459F58091CC01877FE0ECF1E05B
:1042100084870E94462488819981AA81BB81682F66
:104220006F7145E0B695A795979587954A95D1F713
:104230000E941A240E94DF2088819981AA81BB8173
:104240000196A11DB11D88839983AA83BB8308941D
:10425000E108F108E114F104F1F660C0663429F0D8
:10426000653519F0603509F059C088819981AA81B6
:10427000BB81880F991FAA1FBB1F88839983AA83BC
:10428000BB83163499F4688179818A819B810E946D
:10429000CB250E94DF20688179818A819B816F5FB5
:1042A0007F4F8F4F9F4F0E94CB2519C0153561F46A
:1042B000888199810E94DA250E94DF208881998176
:1042C00001960E94DA250BC0103559F488810E94AE
:1042D000D8250E94DF2088818F5F0E94D8250E9408
:1042E000DF200E94462688819981AA81BB8102969F
:1042F000A11DB11D88839983AA83BB832EEF3FEF55
:10430000E20EF31EE114F10409F0BBCFB695A795B8
:104310009795879588839983AA83BB83DF91CF91F3
:104320001F91FF90EF9008955F926F927F928F920E
:104330009F92AF92BF92CF92DF92EF92FF920F9334
:104340001F93DF93CF93CDB7DEB7C050D140CDBF21
:10435000DEBF3C01562E4A0185E46817E9F50E944C
:1043600046248091CC01877FE0ECF1E084877E01D8
:104370000894E11CF11C67015701A60CB71C05C08D
:104380000E94D020F60181936F01CA14DB04C1F7AB
:104390001FC0F40180819181A281B381682F6F7168
:1043A00075E0B695A795979587957A95D1F7F7011A
:1043B00041917F010E945B24F40180819181A2815F
:1043C000B3810196A11DB11D80839183A283B38324
:1043D000EC14FD04F1F658C0F6E46F1729F085E5FA
:1043E000681711F08FE351C0F401C080D180E280E2
:1043F000F380CC0CDD1CEE1CFF1CC082D182E2825B
:10440000F3820E94D020082F10E00E94D020B82E06
:10441000AA240A291B29F40180819181B8010E94F4
:104420000326F40180819181A281B3810296A11DAE
:10443000B11D80839183A283B3838EEF9FEF680EBB
:10444000791E61147104E9F696E4591629F4C7013E
:10445000B6010E94192609C0E5E55E1631F40E94F6
:10446000EE250E9446260E94F2250E944626F4016F
:1044700080819181A281B381B695A7959795879503
:1044800080839183A283B3838DE0C050DF4FCDBF83
:10449000DEBFCF91DF911F910F91FF90EF90DF90E2
:1044A000CF90BF90AF909F908F907F906F905F90D4
:1044B00008953F924F925F926F927F928F929F9258
:1044C000AF92BF92CF92DF92EF92FF920F931F9322
:1044D000DF93CF93CDB7DEB72597CDBFDEBF109268
:1044E00000208091500082608093500080915100A4
:1044F00081FFFCCF88ED84BF81E0809340008093F2
:104500006000E0E6F6E082E081838583E0E8F6E0A3
:1045100084E0828388E1828B19821A821B821C824A
:104520001D820E941B250000000000000000109169
:104530008806169516951095117020E6422E26E0F5
:10454000522E92E0392E82E0882E912C8C0E9D1EE8
:104550003E010894611C711C49C1F20137820E941E
:10456000D020982F8983813611F489E53AC18134AE
:1045700029F40E94F120A0E0B0E008C0883459F48A
:104580000E94D020A82F0E94F120BB278A839B8302
:10459000AC83BD830BC0853659F40E94F6250E947A
:1045A0004626C3010E9499240E940A258DE019C164
:1045B000823629F489E50E94DF2081E0DCC0823464
:1045C00091F40E94F120182F092F282F392FC901AB
:1045D0006C010E94D020682F8983812F902FA40125
:1045E0000E949421FEC0873691F40E94F120182F7A
:1045F000092F282F392FC9016C010E94D020682F64
:104600008983812F902FA4010E94F920ECC082356C
:10461000D9F46A817B818C819D81660F771F881F09
:10462000991F6F5F7F4F8F4F9F4F0E94CB250E9436
:10463000DF206A817B818C819D81660F771F881FB7
:10464000991F0E94CB255BC0833629F40E94D0209D
:10465000C82EDD24ABCF8334A9F40E94D020B82E1D
:10466000AA24CA28DB288A819B81880F991FB6015A
:104670000E9403268A819B81AC81BD810196A11D88
:10468000B11D84CF8D36A1F46A817B818C819D819F
:104690006030F0E27F07F0E08F07F0E09F0708F05E
:1046A0009FC0660F771F881F991F0E9419267ECF13
:1046B0008434A1F4EA80FB800C811D810E94D0200B
:1046C000482F6E2D6F71F5E016950795F794E794D6
:1046D000FA95D1F78E2D0E945B2413C08436E9F43D
:1046E0008A819B81AC81BD81682F6F71E5E0B695B1
:1046F000A79597958795EA95D1F70E941A240E946D
:10470000DF208A819B81AC81BD810196A11DB11DF5
:104710008A839B83AC83BD8366C08C3629F40E9458
:10472000D0200E94E72542CF823719F40E94EB2562
:1047300058C0863411F480E007C08E3411F481E053
:1047400003C0813521F482E00E94DC254AC0803517
:1047500009F42CCF8C3409F429CF853429F48DE069
:104760000E94DF2010E040C0803711F483E539C09B
:10477000843729F48BE70E94DF2080E032C088571D
:10478000823010F0943519F40E94D0200FCF933569
:10479000A1F488E50E94DF2082E40E94DF208FE6FA
:1047A0000E94DF208FE60E94DF2084E70E94DF2046
:1047B0008BE20E94DF208BE214C0963529F481E35E
:1047C0000E94DF2086E30DC0933741F481E40E940C
:1047D000DF2084E90E94DF208EE103C09B3119F0C5
:1047E0008FE30E94DF2011E00E944626112309F08A
:1047F000B4CE0E94292582E0E0E6F6E082831CBE6A
:10480000E0E0F0E0099580E090E02596CDBFDEBFC6
:10481000CF91DF911F910F91FF90EF90DF90CF909C
:10482000BF90AF909F908F907F906F905F904F90D0
:104830003F900895982FE0ECF1E08091CF0187FD43
:10484000FACF262F30E02F713070892F90E045E0AD
:10485000880F991F4A95E1F7282B392B2093C00127
:10486000832F8F718183128286E08287EBECF1E0E7
:1048700021E030E088ED90E084BF20838091C40186
:1048800008958091CF0187FDFCCF08958091CF01DD
:1048900087FDFCCF8091CF0181FF0CC086E3E0EC67
:1048A000F1E08287EBECF1E021E030E088ED90E090
:1048B00084BF20830895DF92EF92FF920F931F939E
:1048C000E82E062FD42E0E944624E0ECF1E083E38C
:1048D000828710E00F711070FF2455E0EE0CFF1C72
:1048E0005A95E1F70E291F290083812F8F7181834B
:1048F0001282D48285E38287EBECF1E021E030E0A4
:1049000088ED90E084BF20831F910F91FF90EF907E
:10491000DF900895982FE0ECF1E08091CF0187FDC2
:10492000FACF83E382879093C0011182128264835D
:104930000895DC01E0ECF1E08091CF0187FDFACF32
:1049400083E382871182128290E09093C0018D915F
:1049500084839F5F9032C9F70895982FE0ECF1E0CF
:104960008091CF0187FDFACF892F90E065E0880F15
:10497000991F6A95E1F78093C001892F8F71818318
:10498000128285E38287EBECF1E021E030E088EDF4
:1049900090E084BF20830895982FE0ECF1E08091AF
:1049A000CF0187FDFACF892F90E075E0880F991F1E
:1049B0007A95E1F78093C001892F8F7181831282EC
:1049C00082E38287EBECF1E021E030E088ED90E0DB
:1049D00084BF20830895982FE0ECF1E08091CF010F
:1049E00087FDFACF892F90E0A5E0880F991FAA953F
:1049F000E1F78093C001892F8F718183128284E354
:104A00008287EBECF1E021E030E088ED90E084BFBC
:104A1000208308958091CF0187FDFCCF80E3E0ECF7
:104A2000F1E08287EBECF1E021E030E088ED90E00E
:104A300084BF20830895E0E6F6E081818068818369
:104A4000E0EBF9E087E1868384EA878388E1848369
:104A50000895E0EBF9E014820895E0EAF4E01082B2
:104A60008AE0808781E1838715860895E0EAF4E093
:104A70001086089510924006E0E6F6E083E0858314
:104A8000818308958FEF80934006E0E6F6E083E0AF
:104A9000868382830895A0E6B6E022E016962C93E2
:104AA0001697E0E4F6E08085982F990F9A7A86951C
:104AB0008575982B892F880F880F8C7C96959695F5
:104AC0009373892B829515962C930895982FA0E6C1
:104AD000B6E08091680682FD1FC02FEF209340064C
:104AE000892F880F8A7A96959575892B982F990F1B
:104AF000990F9C7C869586958373982B9295E0E41C
:104B0000F6E094832093400681E016968C931697E6
:104B10001092400615968C930895982FA0E6B6E063
:104B20008091680682FDFACF8091680682FD1FC0E1
:104B30002FEF20934006892F880F8A7A96959575D6
:104B4000892B982F990F990F9C7C86958695837356
:104B5000982B9295E0E4F6E094832093400681E060
:104B600016968C9316971092400615968C9308957E
:104B700088ED84BF8FE1809380008091820080FD6A
:104B8000FCCF0895E0E8F0E080818C7F816098EDB3
:104B900094BF808308953BB78BBFFB0186913BBFD9
:104BA00008953BB78BBFFB01879196913BBF08955A
:104BB00042E084C041E082C08093C0018827809396
:104BC000C1018093C20147E069D0CB010895809371
:104BD000C40148E063C08091D00108953BB748E12B
:104BE0000C9478263BB74AE10C9478263BB788278B
:104BF00099278BBF40E20C9478263BB78BBFCB0143
:104C000042E20C9478263BB70B0143E20C947826E1
:104C10003BB76BBFFA0119BEDC0140E04093CA010B
:104C200050E0879197918D939D935A95D1F73BBF13
:104C300008953BB78BBFCB0144E20C9478263BB779
:104C40008BBFCB0145E20C9478263BB746E20C942F
:104C500078263BB78BBFCB014AE20C9478263BB752
:104C60008BBFCB014CE20C9478263BB78BBFCB01BA
:104C70004DE20C94782648E311C049E30FC028EDBB
:104C80002093340021E02093CC0108952091CF019E
:104C900027FDFCCF22272093CA0108954093CA0123
:104CA00028ED31E0209334003093CB016091C401B2
:104CB0007091C5018091C60199270895FC01409328
:0A4CC000CA0184910895F894FFCF13
:104CCA00EE27FF2719BEDC0143E24093CA0150E8F0
:104CDA002DE90D901D9020933400E89532965A954F
:104CEA00C1F711240895FC014093CA012DE92093CC
:0A4CFA003400E89511243BBF089533
:0400000300004000B9
:00000001FF
