:100000000C942E010C944B010C944B010C944B015D
:100010000C944B010C944B010C944B010C944B0130
:100020000C944B010C944B010C944B010C944B0120
:100030000C944B010C944B010C944B010C944B0110
:100040000C944B010C944B010C944B010C944B0100
:100050000C9417030C944B010C944B010C944B0122
:100060000C944B010C942D020C944B010C944B01FD
:100070000C944B010C944B010C944B010C944B01D0
:100080000C944B010C944B010C944B010C944B01C0
:100090000C944B010C944B010C944B010C944B01B0
:1000A0000C944B010C944B010C944B010C944B01A0
:1000B0000C944B010C944B010C940B050C946708A9
:1000C0000C944B010C94A1080C944B010C944B0123
:1000D0000C944B010C944B010C944B010C944B0170
:1000E0000C944B010C944B010C944B010C944B0160
:1000F0000C944B010C944B010C944B010C944B0150
:100100000C944B010C944B010C944B010C944B013F
:100110000C944B010C944B010C944B010C944B012F
:100120000C944B010C944B010C944B010C944B011F
:100130000C944B010C944B010C944B010C944B010F
:100140000C944B010C944B010C944B010C944B01FF
:100150000C944B010C944B010C944B010C944B01EF
:100160000C944B010C944B010C944B010C94050224
:100170000C944B010C944B01AB0D7E127E127E123F
:100180007E127E127E127E127E127E127E127E12EF
:100190007E127E127E127E127E127E127E127E12DF
:1001A0007E127E127E127E127E127E127E12970FB9
:1001B0007E12810F7E122912FD0A3B0B2311960B32
:1001C0007E127E12990E7E12A00C4A0C7E126D0BCE
:1001D0007E127E123B0C47105A0AB90DE90D770BBF
:1001E0007E128A0BD311CB0B7E124B117E127E1224
:1001F0007E127E127E127E127E12600B7E12A21082
:10020000FA0B7E122B0F7E12660D7E127E127E126C
:100210007E127E127E125D107E123612490E5F1221
:10022000C8107E124E11E00B0008101820280001A3
:1002300002030405808C98A5B0BCC6D0DAE2EAF0CF
:10024000F5FAFDFEFFFEFDFAF5F0EAE2DAD0C6BCF3
:10025000B0A5988C0001020306080A0011241FBEF5
:10026000CFEFD7E2DEBFCDBF10E2A0E0B0E2ECE519
:10027000F6E202C005900D92A230B107D9F714E260
:10028000A2E0B0E201C01D92AD37B107E1F70E94D4
:10029000C0090C942C130C94000080956095409537
:1002A000E0E0F9E081AF80AF43AF42AF60933D093A
:1002B00064AF0895E0E4F6E028E0218324E022839F
:1002C000E0EAF8E023E0258325812F732583E0937E
:1002D0007623F09377231092792410927824238147
:1002E0002F7C20622383A0EAB0E012962C91129713
:1002F000226012962C9386836295607F892F990FD6
:10030000990B682B678384818061848384818860F2
:1003100084838091782480937924089520E030E0CC
:1003200040E45FE105C02F5F3F4FCA010197F1F73D
:1003300090918B2180918C21981729F481E0243FA2
:10034000380789F717C0245F3140A4F4E0918C216D
:10035000F0E0E757FF4D928180918C218F5F809371
:100360008C218091B10985FFFCCF292F30E090933B
:10037000B00902C020E031E0C901089511C0E09148
:100380007924F0E0EA58FC4D9281809179248F5FC6
:10039000809379248091B10985FFFCCF9093B009B7
:1003A0009091782480917924981749F711C0E091B1
:1003B0008C21F0E0E757FF4D928180918C218F5F77
:1003C00080938C218091A10885FFFCCF9093A00899
:1003D00090918B2180918C21981711F3E8CF809117
:1003E000B10985FFFCCF85E48093B0098091B10904
:1003F00085FFFCCF82E58093B0098091B10985FF2C
:10040000FCCF82E58093B00908951F920F920FB63A
:100410000F9211242F938F939F93EF93FF939091BB
:100420008B219F5F80918C21E0918920F0918A201F
:100430002081981741F0E0918B21F0E0E757FF4DC4
:10044000228390938B21FF91EF919F918F912F9118
:100450000F900FBE0F901F9018951F920F920FB61E
:100460000F9211242F938F939F93EF93FF9390916B
:1004700078249F5F80917924E0917623F09177230F
:100480002081981741F0E0917824F0E0EA58FC4D83
:10049000228390937824FF91EF919F918F912F91D8
:1004A0000F900FBE0F901F90189582E08093CA01A5
:1004B000E0E2F0E0E4911092CA01A0E0B2E01C9604
:1004C000EC931C978093CA01E1E2F0E0E491109272
:1004D000CA011D96EC939091010220910020809119
:1004E0000720811180E1997E922B982BA0E0B2E049
:1004F00011969C93119780910402876014968C93B7
:10050000149780910202806312968C9312978091C7
:100510002802807E8093280220913002809108205A
:1005200090910120892B207E822B80933002E8E27B
:10053000F2E0118288E3E0E3F2E08183809102023D
:10054000816012968C9380910002816080930002FA
:1005500080E49FE10197F1F70895682BE0E3F2E072
:100560006183809130028068E0E0F2E080AB8091AE
:10057000330280FD04C08091060282FFF8CF81E043
:10058000E0E0F2E083AB80910020843029F4809198
:100590003402482F50E00AC0809135029091340215
:1005A000382F20E0492F50E0422B532BCA010895E9
:1005B000982F80538630E8F480910120643318F43A
:1005C000833021F416C0823019F413C0603388F0F0
:1005D000663378F4E92FF0E0E850FE4F8491E62F7F
:1005E000F0E0E250FE4FE4916E2F0E94AD029C01BC
:1005F00002C02FEF3FEFC901089510924E231092D1
:100600004F2310927B2410927C2410927A24F89429
:10061000E0E4F8E010A211A2789483E0E0E4F8E0CE
:100620008683E0EAF0E082818460828308951F92ED
:100630000F920FB60F9211242F933F934F938F93E6
:100640009F93EF93FF9380917B2490917C2401975B
:1006500059F4F894E0E0F8E010A611A6789410920E
:100660007B2410927C2412C0F894809126089091EB
:10067000270896958795E0E0F8E080A791A7789401
:1006800081E090E080937B2490937C2440917A24B5
:100690008091C321481798F180917B2490917C240C
:1006A000892B21F08091C221833049F58091C221AC
:1006B000833031F4F894E0E0F8E010A611A67894C5
:1006C00080918D2290918E22892B51F4E0E4F8E004
:1006D0001682F894E0E0F8E010A611A67894D5C050
:1006E00010924E2310924F2310927B2410927C2460
:1006F00010927A2480918B2290918C2243C0209179
:100700004E2330914F238091A12190E02817390783
:1007100094F4F901EE0FFF1FE156FE4D83819481A1
:10072000E0E4F8E086A397A32F5F3F4F20934E238A
:1007300030934F23AAC08091C221882341F0813099
:1007400031F580917B2490917C240197B9F4E42FBA
:10075000E695E695E695F0E0E156FE4D24A530E0FD
:10076000842F90E0809590958770907002C03595A9
:1007700027958A95E2F720FF4DC051C08091C9218D
:100780009091CA21E0E4F8E086A397A37EC082306E
:1007900011F580917B2490917C24892BB9F4E42F6E
:1007A000E695E695E695F0E0E156FE4D24A530E0AD
:1007B000842F90E0809590958770907002C0359559
:1007C00027958A95E2F720FF49C043C08091C9214F
:1007D0009091CA2128C0833009F045C080917B24C4
:1007E00090917C24E42FE695E695E695242F30E061
:1007F000892BF9F4F0E0E156FE4D84A590E02095B8
:1008000030952770307002C0959587952A95E2F74C
:1008100080FF05C08091C7219091C82104C08091BC
:10082000C5219091C621E0E4F8E086A397A34F5F2D
:100830002AC0F0E0E156FE4D84A590E02095309569
:100840002770307002C0959587952A95E2F780FF52
:1008500005C08091C5219091C62194CF8091C72178
:100860009091C8218FCF843081F4E42FF0E0E156DD
:10087000FE4D25A594A580E0820F911DE0E4F8E0EF
:1008800086A397A34E5F40937A24FF91EF919F91A7
:100890008F914F913F912F910F900FBE0F901F900E
:1008A000189582E0E0E4F6E0868384E690E020E2BA
:1008B00033E0F9013197F1F70197D9F782E0E0E4ED
:1008C000F6E085830895FF920F931F9382E0E0E4A2
:1008D000F6E0818300E616E0F0E2FF2EF801F182F7
:1008E0000E945104F801F68280E8818380E48283CB
:1008F000E0EBF9E083E08583E0938920F0938A20A0
:1009000010928C2110928B2183818F7C8062838353
:10091000A0EAB0E012968C911297826012968C93A6
:1009200083E8868380ED87838481806184838481EA
:10093000886084831F910F91FF9008950F93CF9348
:10094000DF93DC01722F253008F044C0053008F039
:1009500041C01F968C911F978823E1F581E01F9677
:100960008C931F9750961C925097660F12966C931B
:100970001297EA0120E030E007C08991FD01E20F03
:10098000F31F83832F5F3F4F2717B8F31B967C938A
:100990001B971C960C931C971D961C921D971E96D8
:1009A0001C921E971B968C911B97882329F01296F8
:1009B0008C9112978E7F09C01C968C911C9788236E
:1009C00039F012968C9112978160ED91FC9186839B
:1009D00081E001C080E0DF91CF910F9108950F93E6
:1009E000DF93CF9300D0CDB7DEB789839A8380E5BC
:1009F00093E26CE4AE014F5F5F4F22E000E00E94A3
:100A00009E0480915F238823E1F70F900F90CF9190
:100A1000DF910F9108951F920F920FB60F9211243C
:100A20002F933F934F938F939F93AF93BF93EF93E6
:100A3000FF93A0915023B091512314964C91149799
:100A4000242F30E0C9018C709070892B71F01496BE
:100A50009C91149792FF02C084E001C083E08093D0
:100A60006023986014969C935EC046FF2CC09091C2
:100A70005B2320915C2314968C91149784FF05C00E
:100A800083E013968C9385E04CC080915D23891799
:100A900070F4E0915D23F0E0E05BFC4D83811796FC
:100AA0008C9380915D238F5F80935D233EC0809106
:100AB0005E23821730F480915223816016968C93C6
:100AC00034C083E029C047FF2BC080915E2384306F
:100AD00078F417968C911797E0915E23F0E0E05B35
:100AE000FC4D878380915E238F5F80935E2309C0D6
:100AF00083E013968C93139782E080936023109287
:100B00005F2390915C2380915E23891720F482E01B
:100B100013968C930AC087E013968C9381E001C0F2
:100B200086E08093602310925F23FF91EF91BF9145
:100B3000AF919F918F914F913F912F910F900FBE49
:100B40000F901F901895982FE0E0F1E0108AE0E8F0
:100B5000F1E0118282E5E0E2F3E0848380912003FA
:100B60008460809320038091250380FFFCCFE0E226
:100B7000F3E0918F0895982FE0E0F1E010A2E0E813
:100B8000F1E0128282E5E0E2F3E0848380912003C9
:100B90008860809320038091250381FFFCCFE0E2F1
:100BA000F3E0938F0895EF92FF920F931F93CF93EB
:100BB000DF937C01122F613781F4FC0180E002C0D9
:100BC00011938F5F8417E0F305C0F701E40FF11D67
:100BD00010824F5F4034C8F33BC06337C9F4C0E0B4
:100BE000D0E0FE01EC5CFD4FE49197012C0F3D1F1E
:100BF000E19FC00111246FEF70E00E94B212F90171
:100C000060832196C032D10561F7F70190E218C0E8
:100C1000622F70E020E030E040E050E0F701E20FAA
:100C2000F31FCA01A5E096958795AA95E1F7808301
:100C30002F5F3F4F460F571F2032310579F7E5CF21
:100C40008081212F281B20A39F5F31969034C1F70C
:100C50000023D1F081E090E002C0880F991F0A952F
:100C6000E2F7482F982F30E020E0D701A30FB11D05
:100C7000F701E20FF11D80818C933F5F240F940FE9
:100C8000892F841B803488F3DF91CF911F910F91BE
:100C9000FF90EF9008950F931F93E0E4F9E05181E6
:100CA0005F7E5183E0E6F6E0568150615683F8940A
:100CB00000E213E05FE5F8015483A0E0B1E0509654
:100CC0001C925097E0E4F9E016824F5F4083118256
:100CD00026A337A310A211A228EDE0E8F1E02183BA
:100CE000F80121812E7F218320812560208322E04D
:100CF00053962C93539720ED52962C93529770E075
:100D000054966D937C93559758968C935897599613
:100D10009C9359975A961C925A9789E35C968C93A8
:100D20005C9783E05D968C935D975E961C925E97D0
:100D300084EA50968C93509780E88C9378941F9116
:100D40000F9108950F931F93F894E0E0F8E010A638
:100D500011A67894F89400E213E05FE5F80154835B
:100D6000A0E0B1E090961C929097E0E4F8E0168243
:100D70004F5F4083118226A337A310A211A228EC53
:100D8000E0E8F1E02283F80121812D7F2183208199
:100D90002960208333E093963C93939720ED9296BD
:100DA0002C93929770E094966D937C939597989678
:100DB0008C93989799969C9399979A961C929A9748
:100DC0008BE39C968C939C979D963C939D979E96C7
:100DD0001C929E9784EA90968C93909780E88C93CF
:100DE00078941F910F9108952F923F924F925F92A6
:100DF0006F927F928F929F92AF92BF92CF92DF922B
:100E0000EF92FF920F931F93DF93CF93CDB7DEB78F
:100E10002797CDBFDEBF8D831B01442E38014901CA
:100E2000A42EBB24CC24DD24C901B801A601950160
:100E30000E94931269837A838B839C8384E592E07A
:100E40008E839F835524EE81FF81149161E070E0D1
:100E5000012E02C0660F771F0A94E2F7882777FDFC
:100E60008095982F29813A814B815C810E94931251
:100E700096958795779567956050784B87419E4FFB
:100E800004C096958795779567951A95D2F7A60130
:100E900095010E94D912CA01B901A40193010E94CF
:100EA000D91279018A01D801C7014097A109B10976
:100EB0008F5E9F4FA040B04090F42D81222339F4E3
:100EC000C101642D452D97010E944B0606C0C1014A
:100ED000642D452D97010E94A20681E00BC053941A
:100EE0008E819F8101968E839F8397E0591609F02A
:100EF000AACF80E02796CDBFDEBFCF91DF911F91B3
:100F00000F91FF90EF90DF90CF90BF90AF909F90A8
:100F10008F907F906F905F904F903F902F900895AB
:100F2000E0E0F1E0108AE0E8F1E0118280E00E9468
:100F3000A30508950E949007E0E2F3E080818B7F93
:100F400080830895E0E0F1E010A2E0E8F1E0128291
:100F500080E00E94BB0508950E94A207E0E0F8E04F
:100F600021E0208383E1818389E493E086AB97AB22
:100F7000E0E4F6E02183E0E4F8E085E08083168297
:100F800008950E94A207E0E2F3E08081877F8083DA
:100F900008950E949007E0E4F9E086E0808381E014
:100FA0008183E0E6F6E081818061818386818061D2
:100FB000868308951F93162F843369F1853370F467
:100FC0008133F9F0823320F4803309F04FC015C02B
:100FD0008233D9F0833309F049C01AC0873341F115
:100FE000883330F48533D9F0863309F03FC01BC015
:100FF000883319F18933D1F52AC0E0E0F6E081E0C9
:101000002FC0E0E0F6E082E02BC0E0E0F6E01DC09B
:10101000E0E0F6E024C0E0E0F6E080E121C0E0E0BE
:10102000F6E080E21DC00E949A07E0E2F6E00DC003
:101030000E94C107E0E2F6E012C08091010A8F7BB6
:10104000E0E0FAE08183E0E8F6E084E009C0809126
:10105000010A8F77E0E0FAE08183E0E8F6E088E0DB
:101060008183112311F0858301C086831F91089528
:10107000E0E0FAE01682178210928001138211825A
:1010800010820895809104208530E0F09091042032
:101090008091B10985FFFCCF91509093B00992E007
:1010A0000CC0E92FF0E0E157FD4DE0818091B109DE
:1010B00085FFFCCFE093B0099F5F809104209817D3
:1010C00080F302C00E94EF011092062008951F9243
:1010D0000F920FB60F9211242F933F934F935F936C
:1010E0006F937F938F939F93AF93BF93EF93FF93F0
:1010F00080910420882329F00E9438080E94420829
:101100000FC0809105208F5F80930520809105207E
:101110008B3F30F00E9438080E94EF0110920620A9
:10112000FF91EF91BF91AF919F918F917F916F91BF
:101130005F914F913F912F910F900FBE0F901F9095
:1011400018951F920F920FB60F9211242F933F9371
:101150004F935F936F937F938F939F93AF93BF93BF
:10116000EF93FF93E0E0FAE010A211A28091042037
:10117000803C38F00E9438080E94EF01109206204F
:1011800039C0E0910420F0E08091280AE057FD4D3D
:101190008083E0910420F0E08091290A8F77E15765
:1011A000FD4D8083E0910420F0E0E057FD4D80810B
:1011B000803450F4E0910420F0E0E157FD4D80814F
:1011C000882311F41092042080910420E0910420DF
:1011D000F0E0E157FD4DE081813138F0E13128F058
:1011E0000E9438080E94420805C0809104208E5F4A
:1011F00080930420FF91EF91BF91AF919F918F91C8
:101200007F916F915F914F913F912F910F900FBE02
:101210000F901F901895982F8091CF0187FDFCCFDC
:101220008091CF0181FF12C086E3E0ECF1E082877C
:10123000EF93FF930F932F93EBECF1E008ED21E098
:1012400004BF20832F910F91FF91EF91E0ECF1E02B
:1012500083E38287262F30E02F713070892F90E052
:1012600055E0880F991F5A95E1F7282B392B2093C9
:10127000C001832F8F7181831282448385E382872B
:10128000EF93FF930F932F93EBECF1E008ED21E048
:1012900004BF20832F910F91FF91EF910895982F14
:1012A000E0ECF1E08091CF0187FDFACF262F30E00E
:1012B0002F713070892F90E065E0880F991F6A9533
:1012C000E1F7282B392B2093C001832F8F71818365
:1012D000128286E08287EF93FF930F932F93EBECBC
:1012E000F1E008ED21E004BF20832F910F91FF91E1
:1012F000EF918091C40108950F931F93CF93DF93D3
:10130000062FEC0110E00CC00E948E0121E080301D
:10131000920721F40E94EF0100E004C089931F5F4F
:10132000101790F3802FDF91CF911F910F910895A7
:10133000682F81E693E20E947C090895E1E6F3E2DA
:10134000E80FF11D228130E040E050E0808190E024
:10135000A0E0B0E0DC0199278827282B392B4A2B05
:101360005B2B818190E0A0E0B0E0BA2FA92F982FED
:101370008827282B392B4A2B5B2BB901CA010895EA
:101380002F923F924F925F926F927F928F929F9295
:10139000AF92BF92CF92DF92EF92FF920F931F9383
:1013A000DF93CF93CDB7DEB72E97CDBFDEBF88EDED
:1013B00084BF81E0E0E9F0E08683809150008260A4
:1013C000809350008091510081FFFCCF88ED84BF55
:1013D00080914000816080934000E0E0F9E084E08B
:1013E0008093000983E781838FEF9FEF86AB97ABF4
:1013F000809161068760E0E6F6E0818380E060E04E
:1014000040E00E944D010E9455020E94AC070E94DC
:101410006304E0E2F3E080E4818389E0828382E593
:10142000848381E08093200380E00E94A30580E014
:101430000E94BB050E94C907F894E0EAF4E0E0933B
:101440005023F093512388E781838BE9858381E0E2
:1014500084838091A2008160E0EAF0E08283789446
:1014600087E090E50E94EF0485E090E00E94EF04A1
:1014700086E094EE0E94EF0488E090EE0E94EF0474
:1014800089E098E00E94EF048AE090E10E94EF0476
:1014900087E091E50E94EF0483E890E06DEF0E9401
:1014A0005A018091CC01877FE0ECF1E08487789449
:1014B0006624772480E060E040E00E944D01E0E493
:1014C000F8E01682F894E0E0F8E010A611A678940F
:1014D00010E007E8F02E00EEB0E8EB2E8091B109A5
:1014E00085FFFCCF22E42093B0098091B10985FFEC
:1014F000FCCF3CE43093B00990918B2180918C21FA
:101500009817B9F1E0918C21F0E0E757FF4D128177
:1015100080918C218F5F80938C21103879F4809199
:10152000782480937924F092A6080093A7088091EC
:10153000A10885FFFCCFE092A00810C0112389F418
:101540008091782480937924F092A6080093A708CC
:101550008091A10885FFFCCF1092A0080E94BE01D7
:1015600008C08091B10985FFFCCF1093B0091A32F1
:1015700059F088E893E1E0E2F3E03197F1F7019761
:10158000D1F71A3209F0AACF80E090E0A0E0B0E0F5
:101590009C01AD012F5F3F4F4F4F5F4F2B833C832B
:1015A0004D835E8390918B2180918C21981709F453
:1015B000AAC7E0918C21F0E0E757FF4D928180911E
:1015C0008C218F5F80938C21992309F49CC7809193
:1015D000B10985FFFCCF9093B009892F90E0FC0101
:1015E000B197E835F10508F089C7E454FF4FEE0FD5
:1015F000FF1F0590F491E02D0994198280E593E294
:101600006CE4AE014F5F5F4F21E004E00E949E0456
:1016100080915F238823E1F79091572390938D2148
:101620008091582380938E218091592380938F211C
:1016300080915A2380939021109260238091B10968
:1016400085FFFCCF9093B00990918E218091B109D4
:1016500085FFFCCF9093B00990918F218091B109C3
:1016600085FFFCCF9093B009909190218091B109B2
:1016700085FFFCCF58C082E00E949809882309F4B6
:101680003DC73091612338871F820091622310E0AB
:101690004F815885042B152B0E949007E0E4F9E058
:1016A00086E08093400981E08183809141098061D7
:1016B0008183F894E0E4F9E000A711A778941EC7AD
:1016C000809141098F7EE0E4F9E081838091660694
:1016D0008061E0E6F6E0868311C780E360E00E9467
:1016E000AD02982F8091B10985FFFCCF1CC080917D
:1016F000280280688093280280912B0280FFFCCF13
:1017000081E080932B0290912C028091B10985FF9A
:10171000FCCF09C088E360E00E94AD02982F809161
:10172000B10985FFFCCF9093B009E8C682E00E9422
:101730009809882309F4E2C680916123803349F433
:1017400054E050930020109207201092082081E06E
:101750001DC0813309F0C4C61092002081E080933F
:10176000072090916223892F8153863048F490534B
:10177000990F990F9093082063E06093012008C0AF
:10178000903309F0ADC61092082082E080930120CA
:101790000E945502B3C608E212E0F801849160E0AD
:1017A0000E94AD02982F8091B10985FFFCCF9093E4
:1017B000B0090F5F1F4FF2E00E321F0771F79EC690
:1017C00082E00E949809882309F498C680916123D9
:1017D000609162230E94D802282F8091B10985FF71
:1017E000FCCF9093B0098091B10985FFFCCF209385
:1017F000B00984C682E00E949809882309F47EC655
:10180000E0906123F090622300E81EE3ADE0CA2E71
:10181000FAE0DF2EC8010197F1F78E2D6F2D0E949F
:10182000D802E4E0880F991FEA95E1F774E09595F6
:1018300087957A95E1F761E673E24AE050E00E940D
:10184000FB12E1E6F3E207C08091B10985FFFCCF0E
:101850009093B009319690819923B1F78091B109A5
:1018600085FFFCCFC092B0098091B10985FFFCCF04
:10187000D092B009CFCF83E00E949809882309F461
:101880003DC68091612360916223409163230E9451
:101890004D0134C60E948E019C01C097029708F04A
:1018A0001FC6922F90538091A4088F7E8093A40826
:1018B0008091A408877F8093A408E0E4F6E024E008
:1018C000228388E08183992391F4809152068F7B53
:1018D000828B809153068F7B838B8091A5088F73B9
:1018E0008093A50883E88093A60880ED18C0913006
:1018F000C1F4809152068064828B8091530680648B
:10190000838B1092F8081092F9088091A5088F73C4
:1019100080688093A5088DE38093A60883EE80936A
:10192000A7088091A40880618093A4088091A408EE
:1019300088608093A4088091782480937924DEC500
:101940000E94AC070E948E018C017C0131E0803046
:10195000930709F4C5C50E948E013C0141E0803027
:10196000940709F4BDC5902F8827860D971D809395
:101970009F219093A021F894E0E0F8E086AB97AB2C
:1019800078940E948E013C0151E08030950709F463
:10199000A7C58093A12160E1681708F4A1C552EAA8
:1019A000C52E51E2D52E00E010E01CC00E948E0131
:1019B0007C0180E0E81681E0F80609F491C50E94F8
:1019C0008E013C0190E0691691E0790609F488C522
:1019D0009E2D8827860D971DF601819391936F01A7
:1019E0000F5F1F4F8091A12190E008171907F4F2B3
:1019F000F0E0EF16F1E0FF0609F480C520E0621682
:101A000021E0720609F47AC50E948E013C0131E0A2
:101A10008030930709F464C58093C2210E948E012F
:101A20003C0141E08030940709F45AC58093C321FA
:101A300090E0019768E070E00E94C6126F5F6093CB
:101A4000C4210E948E018C0151E08030950709F479
:101A500047C50E948E013C0161E08030960709F481
:101A60003FC5902F8827860D971D8093C5219093A1
:101A7000C6210E948E018C0181E00030180709F414
:101A80002FC50E948E013C01902F8827860D971D3F
:101A90008093C7219093C8210E948E018C0191E010
:101AA0000030190709F41CC50E948E019C013C01FD
:101AB000E1E080309E0709F413C5902F8827280F96
:101AC000391F2093C9213093CA2118C50E94AC0741
:101AD00000E010E00EC00E948E013C01F1E0803079
:101AE0009F0709F4FDC4F801E156FE4D84A70F5F7E
:101AF0001F4F8091C42190E00817190764F320E07C
:101B0000621621E0720609F4F9C40E948E018C016C
:101B100031E08030930709F4E3C40E948E013C0158
:101B200041E08030940709F4DBC4902F8827860DAC
:101B3000971D80938B2290938C22892B39F081E022
:101B400090E080938D2290938E2282C110928D22FC
:101B500010928E227DC110928D2210928E22E0E48E
:101B6000F8E01682F894E0E0F8E010A611A6789468
:101B7000C5C481E08093062085E08093000A90E14F
:101B80009093010A88E28093030AE0E4F6E09283EE
:101B9000809154068064848B84E68093800180E485
:101BA0009FE18093360A9093370A10920420109296
:101BB000052053E05093060A5093070A8091A20033
:101BC0008460E0EAF0E08283809106208823E1F7D8
:101BD00095C40E948E01282F2053253008F080C420
:101BE00080910420853008F47BC48091042090E02B
:101BF000019760E270E00E94C6125B0180910420B0
:101C000090E0019760E270E00E94C6124C0186E00D
:101C1000289FC0011124482E40910420415060E0CB
:101C20000E940B09EE24FF2401E010E0B2E0CB2E6D
:101C3000D12C17C0542C5E0CF601E157FD4D4081AC
:101C4000852D602F0E940B090894C11CD11C0F5FC9
:101C50001F4F0032110584F30894E11CF11C00E0D1
:101C600010E0EA14FB0434F30EC0F601E157FD4D19
:101C700040818F2D602F0E940B090894C11CD11C3C
:101C80000F5F1F4F02C0F42CFA0C081519056CF3F6
:101C900035C40E948E017C0100E010E06C010894C4
:101CA000C108D1080DC00E948E0161E08030960706
:101CB00009F416C4F801E156FE4D84A70F5F1F4FCB
:101CC0000C151D0584F38E2D81508093C3210E9435
:101CD0008E018C0181E00030180709F401C40E94D4
:101CE0008E013C0190E0691691E0790609F4F8C391
:101CF000902F8827860D971D80938B2290938C229E
:101D0000892B39F081E090E080938D2290938E2290
:101D100004C010928D2210928E2289E493E0809369
:101D20009F219093A0211092A121E4E0E093C22191
:101D30008FC00E948E01F0EDFF2EF80EF4E0FF152B
:101D400008F4CEC30E948E018C0121E080309207FE
:101D500009F4C6C30E948E013C0131E08030930734
:101D600009F4BEC3902F8827860D971D80938B2280
:101D700090938C22892B39F081E090E080938D2222
:101D800090938E2204C010928D2210928E2286E0B3
:101D9000F89EC00111248A8360E00E944F09982EAA
:101DA00090E02C0175E0559447947A95E1F76FE146
:101DB000262E312C28223922EE24FF2401E010E0C7
:101DC000CC24DD2414C0882D602F0E944F09F5011A
:101DD00081935F010894C11CD11C0F5F1F4F00321B
:101DE00011058CF30894E11CF11C00E010E0C60121
:101DF0008C96E414F5044CF45FE9A52E51E2B52E5F
:101E0000A80EB91E8A808E0CDECF4FE9E42E41E287
:101E1000F42EE80EF91EDA80D40C09C08D2D602F47
:101E20000E944F09F70181937F010F5F1F4F021539
:101E30001305A4F39A949092C32189E493E08093CC
:101E40009F219093A0211092A121F4E0F093C22150
:101E50000E94FD0253C30E948E01982F905395302B
:101E600008F03EC386E0989FC0011124A82E60E0D0
:101E70000E944F09282F90E06C0135E0D594C7945B
:101E80003A95E1F70FE1802E912C882299228091DA
:101E9000B10985FFFCCF2093B009EE24FF2401E0B7
:101EA00010E017C0BA2CBE0C8B2D602F0E944F097A
:101EB000982F8091B10985FFFCCF9093B0090F5FF7
:101EC0001F4F0032110584F30894E11CF11C00E05F
:101ED00010E0EC14FD0434F30EC08F2D602F0E942F
:101EE0004F09982F8091B10985FFFCCF9093B009DD
:101EF0000F5F1F4F02C0FA2CFC0C081519056CF37C
:101F0000FDC20E948E018C0121E08030920709F40D
:101F1000E7C20E948E013C0131E08030930709F452
:101F2000DFC2682F6053802F0E94DA07E7C20E9449
:101F30008E0141E08030940709F4D2C2843309F461
:101F400042C0853360F4813321F1823318F4803349
:101F5000B1F417C0823349F1833389F42DC087333C
:101F600009F458C0883328F48533E1F1863339F415
:101F700048C0883309F457C0893309F467C060ED5D
:101F800079C081E0E0E0F6E082836091080661704C
:101F900071C082E0E0E0F6E082838091080690E084
:101FA000827090709595879564C0E0E0F6E054E00B
:101FB00052838091080642C088E0E0E0F6E0828328
:101FC000809108064EC080E1E0E0F6E082838091D7
:101FD000080690E080719070B4E095958795BA9569
:101FE000E1F747C080E2E0E0F6E0828380910806F6
:101FF00090E080729070A5E095958795AA95E1F79D
:1020000038C00E949A07E0E2F6E064E062838091C3
:10201000280614C00E94C10788E0E0E2F6E082834F
:10202000809128061EC08091010A8F7B8093010A4F
:10203000E0E8F6E084E082838091880690E0847096
:102040009070959587959595879513C08091010A15
:102050008F778093010A88E0E0E8F6E08283809140
:10206000880690E088709070E3E095958795EA95F2
:10207000E1F7682F662E7724E0E3F0E06E0E7F1E16
:102080008091B10985FFFCCF6092B00937C282E030
:102090000E949809882309F431C2F0916123FA87DC
:1020A00019868091622390E029853A85822B932BB3
:1020B000809302209093032021C283E00E9498091C
:1020C000882309F41BC281E08093000A33E0309337
:1020D000010A1092030A80910220909103208093BC
:1020E000360A9093370A909162239C871B868091D1
:1020F0006323282F30E04B855C85242B352B809182
:102100006123803371F48091010A80648093010A15
:10211000E0E8F6E054E0518320932C0A30932D0A36
:10212000EDC1913309F0EAC18091010A8068809382
:10213000010A88E0E0E8F6E0818320932E0A3093DC
:102140002F0ADCC10E948E0161E08030960709F4FD
:10215000C7C18033910561F40E948E019C0181E02A
:102160002030380709F4BCC1822F0E94A305C6C1E4
:102170008133910509F0C2C10E948E019C0191E05A
:102180002030390709F4ACC1822F0E94BB05B6C1CB
:102190000E948E018C01E1E080309E0709F4A0C10D
:1021A0000E948E013C01F1E080309F0709F498C144
:1021B000902F8827860D971D23E38833920731F1EE
:1021C00033E3893393076CF441E38233940741F19D
:1021D00051E389339507B9F08153914309F080C1E8
:1021E0001BC0E5E387339E07A1F0F9E386339F0721
:1021F00039F08853944309F073C12DEF3CE00EC0D1
:102200002DE333E00FC029E333E008C02CEC30E0CD
:1022100009C027E830E006C023E830E04DEF03C0F6
:1022200027E03AE14EEF809178248093792420933F
:10223000A6084295407F832F992787FD9A95482BC2
:102240004093A7085BC183E00E949809882309F4A2
:1022500055C1309163238091B10985FFFCCF309344
:10226000B009409161234E871D868091622390E0E2
:10227000ED85FE858E2B9F2B209178242093792449
:102280008093A608892F990F990B3295307F382BB0
:102290003093A70833C10E94BE0130C187E00E947D
:1022A0009809882309F42AC150906123F0ED5F0E4C
:1022B00021E0251508F414C14090632330E434155F
:1022C00008F40EC13090622320906423809165232E
:1022D00090E0A0E0B0E06C01BB24AA2480916623CA
:1022E00090E0A0E0B0E0BA2FA92F982F8827A82A65
:1022F000B92ACA2ADB2A8091672390E0A0E0B0E0E7
:10230000A82AB92ACA2ADB2A41E7341679F450E20E
:10231000451629F425E0822E95E0992E15C060E13E
:10232000461671F080E3481639F40AC094E739166E
:1023300019F484E0882E02C003E0802E992404C0A2
:1023400014E0812EB4E09B2E552019F40E949007D2
:1023500002C00E94A207E52CFF24A6E0EE0CFF1CA1
:10236000AA95E1F7E9E0F0E2EE0EFF1E19C0C70101
:10237000632D442D222D092D0E94D30540E450E009
:10238000092C02C0559547950A94E2F7852DB701AF
:10239000960185010E94F406882309F0AFC093944A
:1023A000891428F79DC085E00E949809882309F4C4
:1023B000A5C090916123892F8053823008F090C08E
:1023C00060916523613408F08BC0662309F488C0EE
:1023D000092F10E0005310407801F6E0EE0CFF1CCE
:1023E000FA95E1F729E030E2E20EF31EC7010E9400
:1023F0007C09882309F482C0D02E002319F40E949E
:10240000900702C00E94A2070091622310E020E022
:1024100030E09801112700278091632390E0A0E02D
:10242000B0E0BA2FA92F982F8827082B192B2A2B19
:102430003B2B8091642390E0A0E0B0E0082B192BA7
:102440002A2B3B2B8D2DB701409165230E94F4066A
:1024500055C00E948E018033910519F40E949007A7
:102460004DC0C197E9F50E94A20748C08091782429
:1024700090917924891B282F8091B10985FFFCCF89
:10248000822F8F5F8093B009822F90E09C0113C050
:10249000E0917924F0E0EA58FC4D92818091792412
:1024A0008F5F809379248091B10985FFFCCF909351
:1024B000B009215030401216130654F31FC00E9479
:1024C0008E018C0131E080309307A9F409C00E948D
:1024D0008E01382F3C0140E0641641E0740619F487
:1024E0000E94EF010BC08091A10885FFFCCF3093C3
:1024F000A008015010400115110549F780E090E057
:10250000A0E0B0E004C08B819C81AD81BE812B81B5
:102510003C814D815E8121583B454440524014F03E
:102520000C945A0A35C8629FD001739FF001829FB4
:10253000E00DF11D649FE00DF11D929FF00D839F52
:10254000F00D749FF00D659FF00D9927729FB00DEF
:10255000E11DF91F639FB00DE11DF91FBD01CF0102
:1025600011240895AA1BBB1B51E107C0AA1FBB1F62
:10257000A617B70710F0A61BB70B881F991F5A950F
:10258000A9F780959095BC01CD01089597FB092E80
:1025900007260AD077FD04D0E5DF06D000201AF424
:1025A000709561957F4F0895F6F7909581959F4FAF
:1025B0000895A1E21A2EAA1BBB1BFD010DC0AA1F84
:1025C000BB1FEE1FFF1FA217B307E407F50720F09C
:1025D000A21BB30BE40BF50B661F771F881F991F17
:1025E0001A9469F760957095809590959B01AC0160
:1025F000BD01CF010895FB019F01E8944230C4F072
:102600004532B4F44A3029F497FB1EF49095819535
:102610009F4F642F77270E94B212805D8A330CF09F
:10262000895D8193CB010097A1F716F45DE2519388
:102630001082C9010C941C13DC01FC01672F7191FD
:102640007723E1F7329704C07C916D937083629198
:0C265000AE17BF07C8F30895F894FFCF41
:02265C00040177
:00000001FF
