:100000000C9411010C942E010C942E010C942E01D1
:100010000C942E010C942E010C942E010C942E01A4
:100020000C942E010C942E010C942E010C942E0194
:100030000C942E010C942E010C942E010C942E0184
:100040000C942E010C942E010C942E010C942E0174
:100050000C94E5030C942E010C942E010C942E01AB
:100060000C942E010C940D030C942E010C942E0173
:100070000C942E010C942E010C942E010C942E0144
:100080000C942E010C942E010C942E010C942E0134
:100090000C942E010C942E010C942E010C942E0124
:1000A0000C942E010C942E010C942E010C942E0114
:1000B0000C942E010C942E010C9480070C94CB0907
:1000C0000C942E010C94030A0C942E010C942E0116
:1000D0000C942E010C942E010C942E010C942E01E4
:1000E0000C942E010C942E010C942E010C942E01D4
:1000F0000C942E010C942E010C942E010C942E01C4
:100100000C942E010C942E010C942E010C942E01B3
:100110000C942E010C942E010C942E010C942E01A3
:100120000C942E010C942E010C942E010C942E0193
:100130000C942E010C942E010C942E010C942E0183
:100140000C942E010C942E010C942E010C942E0173
:100150000C942E010C942E010C942E010C942E0163
:100160000C942E010C942E010C942E010C94E5029B
:100170000C942E010C942E017610761376137613C0
:100180007613761376137613761376137613761327
:100190007613761376137613761376137613761317
:1001A000761376137613761376137613761364111B
:1001B0007613421176137613F60D170ED4127613BA
:1001C00076137613DB107613EE0EDB0E7613520EDB
:1001D00076137613A90E8211500D83108A105B0ED0
:1001E0007613630E76136C0E76131E137613761346
:1001F00076137613761376137613450E7613241240
:10020000761376132E117613F30D76137613761379
:10021000761376137613A81176132113A3104A13BD
:100220006D1211241FBECFEFD7E2DEBFCDBF10E2AB
:10023000A0E0B0E2E6E6F7E202C005900D92A03041
:10024000B107D9F713E2A0E0B0E201C01D92A23FCE
:10025000B107E1F70E94140D0C94B1130C94000047
:10026000809150008260809350008091510081FF06
:10027000FCCF88ED84BF8091400081608093400076
:100280000895A0E0B9E084E08C9383E711968C9305
:1002900011978FEF9FEFD6968D939C93D797E0E6BB
:1002A000F6E08181876081838FEFD9968C93D9970F
:1002B000DB968C9380933D0908958095E0E0F9E00A
:1002C00081AF409543AF609560933D090895E0E6A6
:1002D000F6E080E8818380E48283E0EBF9E083E06C
:1002E0008583E0930520F093062010920821109258
:1002F000072183818F7C80628383A0EAB0E012961D
:100300008C911297826012968C9383E8868380ED9D
:100310008783848180618483848188608483089555
:10032000E0E4F6E028E0218324E02283E0EAF8E03C
:1003300023E0258325812F732583E093EB22F0931F
:10034000EC221092EE231092ED2323812F7C206269
:100350002383A0EAB0E012962C91129722601296A5
:100360002C9386836295607F892F990F990B682B58
:1003700067838481806184838481886084838091A1
:10038000ED238093EE230895E0E4F6E094E0928379
:1003900098E09183882391F4809152068F7B828B21
:1003A000809153068F7B838BE0EAF8E08091A5086B
:1003B0008F73858383E8868380ED12C08091520617
:1003C0008064828B809153068064838BE0EAF8E03E
:1003D0008091A5088F73806885838DE3868383EE83
:1003E00087838091ED238093EE2308952091ED2360
:1003F0002093EE23E0EAF8E086836295607F892F00
:10040000990F990B682B67830895FC01818185FF03
:10041000FDCF60830895FC0128EE33E02150304089
:10042000818187FD04C021153105C1F704C0232B4C
:1004300011F08081089580E00895909107218091C6
:1004400008219817D1F3E0910821F0E0EB5FFF4D10
:100450008281909108219F5F90930821089520E068
:1004600030E040E45FE105C02F5F3F4FCA010197D4
:10047000F1F79091072180910821981729F481E0E4
:10048000243F380789F711C0245F314074F4E091AC
:100490000821F0E0EB5FFF4D9281809108218F5F92
:1004A00080930821292F30E002C020E031E0C9010B
:1004B000089511C0E091EE23F0E0E551FD4D9281E9
:1004C0008091EE238F5F8093EE238091B10985FFA9
:1004D000FCCF9093B0099091ED238091EE23981773
:1004E00049F711C0E0910821F0E0EB5FFF4D9281E8
:1004F000809108218F5F809308218091A10885FF5A
:10050000FCCF9093A0089091072180910821981723
:1005100011F3E8CFFC0160837183ED5FFE4F108221
:1005200012920895FC01EE5FFE4F9191808120E0D0
:10053000981321E0822F0895FC01EE5FFE4F819118
:100540009081891B90E00895FC01DC01AD5FBE4FF6
:100550008C91E80FF11D82819C919F5F9C9308957F
:10056000CF93DF93DC01EC01CE5FDE4F98819F5F7C
:10057000AD5FBE4F8C91A350B140ED91FC911197AE
:10058000E081981711F480E007C08881A80FB11DA1
:100590001296EC93988381E0DF91CF91089580913A
:1005A000B10985FFFCCF85E48093B0098091B10942
:1005B00085FFFCCF82E58093B0098091B10985FF6A
:1005C000FCCF82E58093B00908951F920F920FB679
:1005D0000F9211242F938F939F93EF93FF939091FA
:1005E00007219F5F80910821E0910520F09106206E
:1005F0002081981741F0E0910721F0E0EB5FFF4D7B
:10060000228390930721FF91EF919F918F912F91DA
:100610000F900FBE0F901F9018951F920F920FB65C
:100620000F9211242F938F939F93EF93FF939091A9
:10063000ED239F5F8091EE23E091EB22F091EC227D
:100640002081981741F0E091ED23F0E0E551FD4D58
:1006500022839093ED23FF91EF919F918F912F91A2
:100660000F900FBE0F901F901895CF93DF93E0E08F
:10067000F2E08181897E84608183848187608483C4
:1006800082818063828328E232E0D9018C91807E6E
:100690008C93A0E3B2E08C91807E81608C93E90121
:1006A000198288E311968C93828181608283808194
:1006B0008160808380E49FE10197F1F7DF91CF9122
:1006C0000895E0E3F2E08183809130028068E0E009
:1006D000F2E080AB8091330280FD04C0809106027D
:1006E00082FFF8CF81E0E0E0F2E083AB809134025A
:1006F00090E00895809128028068E0E0F2E080A711
:1007000080912B0280FFFCCF81E0E0E0F2E083A744
:1007100080912C0290E00895E0E0F8E021E0208351
:1007200083E1818389E493E086AB97ABE0E4F6E074
:100730002183E0E4F8E085E0808316820895F89450
:10074000E0E0F8E086A197A19695879580A791A70C
:1007500078940895F894E0E0F8E086A197A180A746
:1007600091A778940895F894E0E0F8E010A611A617
:1007700078940895F894E0E0F8E086AB97AB78942D
:1007800008951092CA221092CB221092F023109258
:10079000F1231092EF23F894E0E4F8E010A211A204
:1007A000789483E0E0E4F8E08683E0EAF0E0828198
:1007B000846082830895E0E4F8E01682F894E0E033
:1007C000F8E010A611A6789408951F920F920FB624
:1007D0000F9211242F933F934F935F936F937F93C7
:1007E0008F939F93AF93BF93EF93FF938091F023E9
:1007F0009091F123019759F4F894E0E0F8E010A605
:1008000011A678941092F0231092F12308C00E9450
:100810009F0381E090E08093F0239093F123409137
:10082000EF2380913F21481798F18091F023909118
:10083000F123892B21F080913E21833049F580916D
:100840003E21833031F4F894E0E0F8E010A611A6E0
:1008500078948091092290910A22892B51F4E0E446
:10086000F8E01682F894E0E0F8E010A611A678947B
:10087000D5C01092CA221092CB221092F02310926F
:10088000F1231092EF23809107229091082243C018
:100890002091CA223091CB2280911D2190E028170F
:1008A000390794F4F901EE0FFF1FE55EFE4D8381D9
:1008B0009481E0E4F8E086A397A32F5F3F4F209355
:1008C000CA223093CB22AAC080913E21882341F0D6
:1008D000813031F58091F0239091F1230197B9F4A3
:1008E000E42FE695E695E695F0E0E55EFE4D24A55D
:1008F00030E0842F90E0809590958770907002C0D2
:10090000359527958A95E2F720FF4DC051C080911B
:10091000452190914621E0E4F8E086A397A37EC0AC
:10092000823011F58091F0239091F123892BB9F455
:10093000E42FE695E695E695F0E0E55EFE4D24A50C
:1009400030E0842F90E0809590958770907002C081
:10095000359527958A95E2F720FF49C043C08091DD
:1009600045219091462128C0833009F045C08091EF
:10097000F0239091F123E42FE695E695E695242F58
:1009800030E0892BF9F4F0E0E55EFE4D84A590E0BF
:10099000209530952770307002C0959587952A95DF
:1009A000E2F780FF05C0809143219091442104C06B
:1009B0008091412190914221E0E4F8E086A397A341
:1009C0004F5F2AC0F0E0E55EFE4D84A590E02095E3
:1009D00030952770307002C0959587952A95E2F77B
:1009E00080FF05C0809141219091422194CF809158
:1009F0004321909144218FCF843081F4E42FF0E0A3
:100A0000E55EFE4D25A594A580E0820F911DE0E4F2
:100A1000F8E086A397A34E5F4093EF23FF91EF91F9
:100A2000BF91AF919F918F917F916F915F914F9106
:100A30003F912F910F900FBE0F901F90189580E25D
:100A4000E0E6F6E0858384E690E020E233E0F90119
:100A50003197F1F70197D9F720E030E0A0E6B6E052
:100A600060E240E253E017966C93179784E690E0BB
:100A7000FA013197F1F70197D9F72F5F3F4F2630F1
:100A8000310589F780E2E0E6F6E08683089582E0AA
:100A9000E0E4F6E0868384E690E020E233E0F901CA
:100AA0003197F1F70197D9F782E0E0E4F6E085832A
:100AB0000895FF920F931F9382E0E0E4F6E08183B4
:100AC00000E616E060E2F62EF801F1820E9447058A
:100AD000F801F6820E9467011F910F91FF9008951F
:100AE000DC01FB016D937C93119748634183ED9189
:100AF000FC9111972583ED91FC9181E08483089509
:100B0000FC010190F081E02D848183700895FC0147
:100B1000878580E008950F93CF93DF93DC01722FD8
:100B2000253008F044C0053008F041C01F968C9174
:100B30001F978823E1F581E01F968C931F975096AD
:100B40001C925097660F12966C931297EA0120E060
:100B500030E007C08991FD01E20FF31F83832F5F0F
:100B60003F4F2717B8F31B967C931B971C960C934B
:100B70001C971D961C921D971E961C921E971B96E5
:100B80008C911B97882329F012968C9112978E7F57
:100B900009C01C968C911C97882339F012968C9171
:100BA00012978160ED91FC91868381E001C080E025
:100BB000DF91CF910F9108950F93042F40E050E003
:100BC00020E00E948B050F9108950F9300E00E9492
:100BD0008B050F910895DC01ED91FC9111979481A3
:100BE00092FF02C084E001C083E050968C9350973E
:100BF000ED91FC911197986094831F961C92089533
:100C0000CF93DF93DC011B969C911B971C962C9134
:100C10001C97CD91DC9111978C8184FF04C083E0F7
:100C20008B8385E021C01D968C911D97891778F4E0
:100C30001D968C911D97FD01E80FF11D83818F8317
:100C40001D968C911D978F5F1D968C9312C01E96DA
:100C50008C911E97821728F412968C9181608E8356
:100C600008C083E08B8381E050968C9350971F9649
:100C70001C92DF91CF910895DC011E968C911E97F6
:100C8000ED91FC911197843080F497811E968C91A0
:100C90001E97FD01E80FF11D97831E968C911E97FC
:100CA0008F5F1E968C931E9709C083E0838382E03A
:100CB00050968C9350971F961C921F971C969C9150
:100CC0001C971E968C911E97ED91FC911197891798
:100CD00018F482E08383089587E0838381E050964F
:100CE0008C9350971F961C920895DC01ED91FC9116
:100CF00011974481242F30E0C9018C709070892BAA
:100D000021F0CD010E94EB05089546FF04C0CD01FE
:100D10000E940006089547FF04C0CD010E943C06D2
:100D2000089586E050968C9350971F961C920895D4
:100D3000FC01608B178608956091092170910A214A
:100D400080910B2190910C2108958091DC228130BB
:100D500019F020E030E009C08091DB2290E08111A1
:100D600091E081E09827292F30E0C90108950F9381
:100D7000DF93CF930F92CDB7DEB719828CEC92E25E
:100D80006CE4AE014F5F5F4F21E004E00E948B05F1
:100D90008091DB228823E1F78091D322809309217F
:100DA0008091D42280930A218091D52280930B21B7
:100DB0008091D62280930C211092DC220F90CF914B
:100DC000DF910F9108950F93DF93CF9300D0CDB7AC
:100DD000DEB7F894E0EAF4E0E093CC22F093CD2281
:100DE00088E781838BE9858381E084838091A200F9
:100DF0008160E0EAF0E08283789487E0898380E58F
:100E00008A838CEC92E26CE4AE014F5F5F4F22E08C
:100E100000E00E948B058091DB228823E1F785E0CA
:100E200089831A828CEC92E26CE4AE014F5F5F4FD3
:100E300022E000E00E948B058091DB228823E1F70D
:100E400086E0898384EE8A838CEC92E26CE4AE01C6
:100E50004F5F5F4F22E000E00E948B058091DB2214
:100E60008823E1F788E0898380EE8A838CEC92E224
:100E70006CE4AE014F5F5F4F22E000E00E948B0503
:100E80008091DB228823E1F789E0898388E08A83E7
:100E90008CEC92E26CE4AE014F5F5F4F22E000E029
:100EA0000E948B058091DB228823E1F78AE0898309
:100EB00080E18A838CEC92E26CE4AE014F5F5F4F7D
:100EC00022E000E00E948B058091DB228823E1F77D
:100ED00087E0898381E58A838CEC92E26CE4AE0141
:100EE0004F5F5F4F22E000E00E948B058091DB2284
:100EF0008823E1F70F900F90CF91DF910F91089524
:100F00001F920F920FB60F9211242F933F934F937E
:100F10005F936F937F938F939F93AF93BF93EF9361
:100F2000FF938CEC92E20E947506FF91EF91BF91C6
:100F3000AF919F918F917F916F915F914F913F9171
:100F40002F910F900FBE0F901F901895E0E2F3E0E5
:100F500080E4818389E0828382E5848381E08093D9
:100F600020038091200384608093200380912503D7
:100F700080FFFCCFE0E2F3E0118E809120038860D7
:100F8000809320038091250381FFFCCFE0E2F3E012
:100F9000138E0895982F80912003846080932003FE
:100FA0008091250380FFFCCFE0E2F3E0918F08956C
:100FB000982F8091200388608093200380912503DF
:100FC00081FFFCCFE0E2F3E0938F0895E0E2F3E0ED
:100FD00080818B7F80830895E0E2F3E08081877FCA
:100FE00080830895E0E4F9E086E0808381E08183F6
:100FF000E0E6F6E08181806181838681806186837D
:101000000895E0E4F9E0218120612183F894E0E48F
:10101000F9E080A791A778940895E0E4F9E0818150
:101020008F7E8183E0E6F6E0868180618683089585
:10103000E0E0FAE081E0808383E0818313828091A5
:1010400000209091012086AB97AB0895E0E0FAE094
:1010500081818F7B81830895E0E0FAE081818F7741
:1010600081830895A0E0BAE011962C911197206435
:1010700011962C93119724E0E0E8F6E021839C96EA
:101080008D939C939D970895A0E0BAE011962C91C2
:101090001197206811962C93119728E0E0E8F6E06C
:1010A00021839E968D939C939F970895843371F12D
:1010B000853370F4813301F1823320F4803309F0F9
:1010C0005BC016C08233E1F0833309F055C01BC00A
:1010D000873361F1883330F48533E1F0863309F0EA
:1010E0004BC01CC0883359F1893309F045C035C065
:1010F000E0E0F6E081E02CC0E0E0F6E082E028C02D
:10110000E0E0F6E024C0E0E0F6E017C0E0E0F6E062
:1011100080E11EC0E0E0F6E080E21AC0809120038A
:101120008B7F80932003E0E2F6E011C080912003E2
:10113000877F80932003E0E2F6E088E009C0809199
:10114000010A8F7BE0E0FAE08183E0E8F6E084E0EA
:101150008183662371F4868308958091010A8F77D5
:10116000E0E0FAE08183E0E8F6E088E0818366234E
:1011700011F08583089586830895843309F442C06D
:10118000853360F4813321F1823318F48033B1F474
:1011900017C0823349F1833389F42DC0873309F4B2
:1011A0005BC0883328F48533E1F1863339F448C0D5
:1011B000883309F465C0893309F476C080ED089559
:1011C00081E0E0E0F6E08283809108068170089576
:1011D00082E0E0E0F6E082838091080690E0827091
:1011E000907095958795089584E0E0E0F6E082831D
:1011F0008091080651C088E0E0E0F6E082838091AB
:10120000080635C080E1E0E0F6E0828380910806C0
:1012100090E080719070B4E095958795BA95E1F76C
:10122000089580E2E0E0F6E082838091080690E095
:1012300080729070A5E095958795AA95E1F708953D
:10124000809120038B7F8093200384E0E0E2F6E02E
:1012500082838091280620C080912003877F80931D
:10126000200388E0E0E2F6E082838091280690E0A7
:1012700088709070F3E095958795FA95E1F7089559
:101280008091010A8F7BE0E0FAE0818384E0E0E86E
:10129000F6E082838091880690E084709070959546
:1012A00087959595879508958091010A8F77E0E05D
:1012B000FAE0818388E0E0E8F6E0828380918806A6
:1012C00090E08870907073E0959587957A95E1F736
:1012D000089581E080930420A0E0BAE085E08C933B
:1012E00090E111969C93119788E213968C93139733
:1012F000E0E4F6E0928384898064848B84E68093C2
:10130000800180E49FE1D6968D939C93D7971092AD
:1013100002201092032083E016968C93169717965E
:101320008C93E0EAF0E082818460828308950E94D9
:10133000CF02109204200895E0E0FAE016821782AE
:1013400010928001138211821082089580910220F0
:101350008530F0F0909102208091B10985FFFCCF9B
:1013600091509093B00992E00CC0E92FF0E0E55F56
:10137000FD4DE0818091B10985FFFCCFE093B0097C
:101380009F5F80910220981780F3109204200895A7
:101390000E94970908951F920F920FB60F92112481
:1013A0002F933F934F935F936F937F938F939F936D
:1013B000AF93BF93EF93FF9380910220882329F08E
:1013C0000E949C090E94A6090DC0809103208F5F96
:1013D00080930320809103208B3F20F00E949C0982
:1013E0000E949709FF91EF91BF91AF919F918F91CB
:1013F0007F916F915F914F913F912F910F900FBE11
:101400000F901F9018951F920F920FB60F921124F4
:101410002F933F934F935F936F937F938F939F93FC
:10142000AF93BF93EF93FF93E0E0FAE010A211A215
:1014300080910220803C28F00E949C090E9497091C
:1014400039C0E0910220F0E08091280AE45FFD4D70
:101450008083E0910220F0E08091290A8F77E55F98
:10146000FD4D8083E0910220F0E0E45FFD4D80813E
:10147000803450F4E0910220F0E0E55FFD4D808182
:10148000882311F41092022080910220E091022022
:10149000F0E0E55FFD4DE081813138F0E13128F089
:1014A0000E949C090E94A60905C0809102208E5FBF
:1014B00080930220FF91EF91BF91AF919F918F9107
:1014C0007F916F915F914F913F912F910F900FBE40
:1014D0000F901F901895EF92FF921F93CF93DF9379
:1014E0000E942F029C01182F8091B10985FFFCCF2B
:1014F0001093B009C0E0D0E079010894E108F10848
:1015000015C00E942F0221E08030920719F420E0DC
:1015100030E014C0982F8091B10985FFFCCF9093E3
:10152000B009FE01E55EFE4D94A72196CE15DF05BC
:1015300044F3115010933F2121E030E0C901DF91C5
:10154000CF911F91FF90EF900895982FE0ECF1E07C
:101550008091CF0187FDFACF262F30E02F713070B8
:10156000892F90E045E0880F991F4A95E1F7282BD5
:10157000392B2093C001832F8F718183128286E0E3
:101580008287EF93FF930F932F93EBECF1E008ED3D
:1015900021E004BF20832F910F91FF91EF91809163
:1015A000C4010895AF92BF92CF92DF92EF92FF9263
:1015B0000F931F93CF93DF939C01220F331F280FAC
:1015C000391F220F331FC22E822F60E00E94A50A0E
:1015D000282F90E07C0165E0F594E7946A95E1F7A7
:1015E0005FE1A52EB12CA822B9228091B10985FF17
:1015F000FCCF2093B009C1E0D0E000E010E015C0BE
:10160000DC2CD00E8D2D6C2F0E94A50A982F809176
:10161000B10985FFFCCF9093B0092196C032D10566
:101620008CF30F5F1F4FC0E0D0E00E151F0544F391
:101630000DC0812F6C2F0E94A50A982F8091B109AF
:1016400085FFFCCF9093B009219602C01C2D1E0D82
:10165000CA15DB0574F3DF91CF911F910F91FF90B5
:10166000EF90DF90CF90BF90AF9008955F926F9210
:101670007F928F929F92AF92BF92CF92DF92EF9222
:10168000FF920F931F93CF93DF939C01220F331F81
:10169000280F391F220F331F522E822F60E00E9425
:1016A000A50AB82E90E04C01B5E095948794BA95C0
:1016B000E1F7AFE16A2E712C68227922EE24FF2433
:1016C000C1E0D0E000E010E012C08A2D6C2F0E9433
:1016D000A50AF60181936F010894E11CF11C219683
:1016E000C032D10594F30F5F1F4FC0E0D0E0C701B7
:1016F0008C960815190534F08C01055E1E4DF52CED
:10170000F80C11C0FBE1CF2EF1E2DF2EC80ED91E7E
:10171000A52CA00EDACF8F2D6C2F0E94A50AF80100
:1017200081938F012196C615D705ACF3BA94B09278
:101730003F21DF91CF911F910F91FF90EF90DF90AC
:10174000CF90BF90AF909F908F907F906F905F9061
:1017500008958091CF0187FDFCCF08958091CF013E
:1017600087FDFCCF8091CF0181FF12C086E3E0ECC2
:10177000F1E08287EF93FF930F932F93EBECF1E06F
:1017800008ED21E004BF20832F910F91FF91EF918D
:101790000895DF92EF92FF920F931F93E82E062F8A
:1017A000D42E0E94AE0BE0ECF1E083E3828710E0E0
:1017B0000F711070FF2485E0EE0CFF1C8A95E1F795
:1017C0000E291F290083812F8F7181831282D48279
:1017D00085E38287EF93FF930F932F93EBECF1E078
:1017E00008ED21E004BF20832F910F91FF91EF912D
:1017F0001F910F91FF90EF90DF9008958F929F922D
:10180000AF92BF92CF92DF92EF92FF920F931F930E
:10181000CF93DF939C018091022090E0019760E2DA
:1018200070E00E948A136B018091022090E0019782
:1018300060E270E00E948A135C01C901880F991F61
:10184000820F931F880F991F882E409102204150CC
:1018500060E00E94C90B92E0E92EF12CC1E0D0E0DB
:1018600000E010E015C0982C900EF701E55FFD4DEB
:101870004081892D6C2F0E94C90B0894E11CF11C3A
:101880002196C032D1058CF30F5F1F4FC0E0D0E02E
:101890000C151D0544F30DC0F701E55FFD4D4081BA
:1018A000812F6C2F0E94C90B0894E11CF11C21961A
:1018B00002C0182D1C0DCA15DB0574F3DF91CF9102
:1018C0001F910F91FF90EF90DF90CF90BF90AF905E
:1018D0009F908F900895982FE0ECF1E08091CF01D8
:1018E00087FDFACF83E382879093C0011182128231
:1018F00064830895DC01E0ECF1E08091CF0187FD85
:10190000FACF83E382871182128290E09093C00124
:101910008D9184839F5F9032C9F70895982FE0ECF2
:10192000F1E08091CF0187FDFACF892F90E055E05B
:10193000880F991F5A95E1F78093C001892F8F7105
:101940008183128285E38287EF93FF930F932F9316
:10195000EBECF1E008ED21E004BF20832F910F9123
:10196000FF91EF910895982FE0ECF1E08091CF0185
:1019700087FDFACF892F90E065E0880F991F6A955F
:10198000E1F78093C001892F8F718183128282E3F6
:101990008287EF93FF930F932F93EBECF1E008ED29
:1019A00021E004BF20832F910F91FF91EF910895C3
:1019B000982FE0ECF1E08091CF0187FDFACF892FDD
:1019C00090E075E0880F991F7A95E1F78093C00148
:1019D000892F8F718183128284E38287EF93FF9333
:1019E0000F932F93EBECF1E008ED21E004BF20838F
:1019F0002F910F91FF91EF9108958091CF0187FD75
:101A0000FCCF80E3E0ECF1E08287EF93FF930F934C
:101A10002F93EBECF1E008ED21E004BF20832F9140
:101A20000F91FF91EF9108952F923F924F925F9205
:101A30006F927F928F929F92AF92BF92CF92DF92DE
:101A4000EF92FF920F931F93DF93CF93CDB7DEB743
:101A50002697CDBFDEBF0E9430010E9441010E9447
:101A600035030E948C030E9459050E94A6070E941C
:101A7000F2070E94E30683E890E06DEF0E94900178
:101A80008091CC01877FE0ECF1E084877894EE24AC
:101A9000FF24212C49E0342E30EA832E38E0932EA7
:101AA0002FEFF10121AF23AF25AF10924608F89434
:101AB000E0E0F8E010A611A6789410E08091B1095A
:101AC00085FFFCCF32E43093B0098091B10985FFE6
:101AD000FCCF4CE44093B0099091072180910821FC
:101AE0009817D1F1E0910821F0E0EB5FFF4D1281F2
:101AF000809108218F5F80930821103889F48091AC
:101B0000ED238093EE2323E8F401268330ED378321
:101B10008091A10885FFFCCF40E84093A00811C048
:101B2000112391F48091ED238093EE2327E8F401B3
:101B3000268330EE37838091A10885FFFCCF109279
:101B4000A0080E94590208C08091B10985FFFCCF0E
:101B50001093B0091A3259F088E893E1E0E2F3E01B
:101B60003197F1F70197D1F71A3209F0A7CF80E04A
:101B700090E0A0E0B0E0612C2AE0722E9C01AD0163
:101B80002F5F3F4F4F4F5F4F29833A834B835C83D7
:101B90009091072180910821981709F4ACC5E09134
:101BA0000821F0E0EB5FFF4D9281809108218F5F6B
:101BB00080930821992309F49EC58091B10985FF7E
:101BC000FCCF9093B009892F90E0FC01B197E535E7
:101BD000F10508F08BC5E454FF4FEE0FFF1F059091
:101BE000F491E02D099400E010E041C20E94B70694
:101BF000909109218091B10985FFFCCF9093B009A4
:101C000090910A218091B10985FFFCCF9093B00992
:101C100090910B218091B10985FFFCCF9093B00981
:101C200090910C218091B10985FFFCCF8FC00E945B
:101C30002F028C0131E08030930709F457C5809161
:101C4000B10985FFFCCF0093B0090E942F029C01CF
:101C50007C0141E08030940709F433C58091B109DB
:101C600085FFFCCF2093B009902F8827280F391FBC
:101C7000809141098061E0E4F9E08183F894E0E437
:101C8000F9E020A731A7789431C5809141098F7E72
:101C9000E0E4F9E08183809166068061E0E6F6E0A9
:101CA000868324C580E30E946103982F8091B10947
:101CB00085FFFCCF4BC00E947A03982F8091B10919
:101CC00085FFFCCF43C088E30E946103982F809179
:101CD000B10985FFFCCF3AC080E00E946103982FD4
:101CE0008091B10985FFFCCF9093B00988E00E94F4
:101CF0006103982F8091B10985FFFCCF9093B009C3
:101D000080E10E946103982F8091B10985FFFCCF8B
:101D10009093B00988E10E946103982F8091B109E6
:101D200085FFFCCF9093B00980E20E946103982F59
:101D30008091B10985FFFCCF9093B00980E20E94A9
:101D40006103982F8091B10985FFFCCF9093B00972
:101D5000CDC40E942F0251E08030950709F4B1C430
:101D6000082F8091B10985FFFCCF0093B0090E9434
:101D70002F0261E08030960709F4A3C4182F8091E8
:101D8000B10985FFFCCF1093B0090E942F02E1E05A
:101D900080309E0709F495C4982F8091B10985FF82
:101DA000FCCF9093B0090095F10101AF909593AFEE
:101DB000109515AF9BC40E942F029C01C0970297FB
:101DC00008F07FC4922F8091B10985FFFCCF9093DA
:101DD000B009892F80530E94C40188C40E942F0239
:101DE0008C016C01F1E080309F0709F46AC4809196
:101DF000B10985FFFCCF0093B0090E942F029C011E
:101E00007C0141E08030940709F45BC48091B10902
:101E100085FFFCCF2093B009902F8827820F931F56
:101E200080931B2190931C21F894E0E0F8E086ABAE
:101E300097AB78940E942F027C0151E08030950787
:101E400009F43FC4982FE0921D218091B10985FFCC
:101E5000FCCF9093B009913138F41EE1A12E11E22C
:101E6000B12E1D821E8235C08091B10985FFFCCF45
:101E700082E58093B0093AC40E942F02182F6C01AA
:101E800060E0C61661E0D60609F41BC48091B10972
:101E900085FFFCCF1093B0090E942F029C017C01AA
:101EA00081E02030380709F40CC48091B10985FF26
:101EB000FCCF2093B009512E4424240D351DF5018B
:101EC000219331935F012D813E812F5F3F4F2D8301
:101ED0003E8380911D2190E04D815E814817590716
:101EE0005CF250E0C51651E0D50609F4FFC360E08E
:101EF000E61661E0F60609F4F9C30E942F027C01A0
:101F000080E0E81681E0F80609F4DBC39E2DE0923C
:101F10003E218091B10985FFFCCF9093B0090E94CA
:101F20002F027C0190E0E91691E0F90609F4C9C39B
:101F30002E2D8091B10985FFFCCF2093B00920930D
:101F40003F21822F90E0019768E070E00E948A13A1
:101F50006F5F609340218091B10985FFFCCF209392
:101F6000B0090E942F028C01E1E080309E0709F445
:101F7000A8C38091B10985FFFCCF0093B0090E94EE
:101F80002F029C017C01F1E080309F0709F499C386
:101F90008091B10985FFFCCF2093B009902F88274D
:101FA000280F391F20934121309342210E942F0294
:101FB0008C0121E08030920709F483C38091B1093C
:101FC00085FFFCCF0093B0090E942F029C017C0189
:101FD00041E08030940709F474C38091B10985FF12
:101FE000FCCF2093B009902F8827280F391F20930A
:101FF0004321309344210E942F028C0151E0803014
:10200000950709F45EC38091B10985FFFCCF009369
:10201000B0090E942F029C017C0161E0803096078C
:1020200009F44FC38091B10985FFFCCF2093B0091B
:10203000902F8827280F391F209345213093462160
:1020400055C30E942F027C0180E0E81681E0F8066B
:1020500009F437C39E2DF801E55EFE4DE4A680919C
:10206000B10985FFFCCF9093B0090F5F1F4F80919E
:10207000402190E00817190724F390E0E91691E059
:10208000F90609F433C30E942F028C01E1E080308D
:102090009E0709F416C38091B10985FFFCCF009318
:1020A000B0090E942F029C017C01F1E080309F0763
:1020B00009F407C38091B10985FFFCCF2093B009D3
:1020C000902F8827820F931F8093072290930822D6
:1020D000892B39F021E030E02093092230930A2245
:1020E000BAC01092092210920A22B5C01092092299
:1020F00010920A2210924608F894E0E0F8E010A648
:1021000011A67894F3C20E94690980910420882363
:10211000E1F7ECC20E942F02982F9053953008F0FF
:10212000D0C280910220853008F4CBC28091B109E1
:1021300085FFFCCF905D9093B0099053892F90E07C
:102140000E94FE0BD3C20E946B0A892B09F4B9C20C
:102150000E942F028C0131E08030930709F4B1C254
:102160008091B10985FFFCCF0093B0090E942F0236
:102170009C017C0141E08030940709F4A2C2809167
:10218000B10985FFFCCF2093B009902F8827820FDB
:10219000931F8093072290930822892B39F081E0C6
:1021A00090E08093092290930A224AC0109209225B
:1021B00010920A2245C00E942F02182F105315308A
:1021C00008F07FC28091B10985FFFCCF105D1093AC
:1021D000B00910530E942F026C0121E08030920759
:1021E00009F46FC28091B10985FFFCCFC092B0099C
:1021F0000E942F029C017C0141E08030940709F489
:1022000060C28091B10985FFFCCF2093B0099C2D5D
:102210008827820F931F8093072290930822892B8F
:1022200039F081E090E08093092290930A2204C063
:102230001092092210920A22812F90E00E94360B00
:10224000E9E4F3E0E0931B21F0931C2110921D219F
:10225000F4E0F0933E210E94C10348C20E942F0285
:10226000982F9053953008F02CC28091B10985FFCA
:10227000FCCF905D9093B0099053892F90E00E941D
:10228000D20A34C20E942F0241E08030940709F440
:1022900018C2182F8091B10985FFFCCF1093B009A7
:1022A0000E942F027C0151E08030950709F409C299
:1022B000682F8091B10985FFFCCF6093B00960530E
:1022C000812F0E94560812C20E942F0261E08030C6
:1022D000960709F4F6C1982F8091B10985FFFCCFCC
:1022E0009093B009892F0E94BD08E82EFF2480E357
:1022F00090E0E80EF91E8091B10985FFFCCFE092D5
:10230000B009F4C10E942F028C0191E0003019073E
:1023100009F4D7C18091B10985FFFCCF0093B009C2
:102320000E942F029C017C01E1E080309E0709F4AD
:10233000C8C18091B10985FFFCCF2093B009902FCF
:102340008827280F391F2093002030930120CEC109
:10235000F1E0F093000A23E0F301218313828091DE
:1023600000209091012086AB97AB0E942F029C0128
:1023700041E08030940709F4A4C18091B10985FF40
:10238000FCCF2093B0092033310569F50E942F025C
:102390008C0151E08030950709F493C18091B10917
:1023A00085FFFCCF0093B0090E942F029C017C01A5
:1023B00061E08030960709F484C18091B10985FFFE
:1023C000FCCF2093B009902F8827280F391F8091C8
:1023D000010A8064F3018183F4E0F0938106F30144
:1023E00024A735A783C12133310509F07FC10E949D
:1023F0002F028C01F1E080309F0709F462C18091C7
:10240000B10985FFFCCF0093B0090E942F029C0107
:102410007C0141E08030940709F453C18091B109F7
:1024200085FFFCCF2093B009902F8827280F391FF4
:102430008091010A8068F3018183F8E0F0938106BE
:10244000F30126A737A752C10E942F029C01F1E099
:1024500080309F0709F435C18091B10985FFFCCF19
:102460002093B00920333105D1F40E942F0241E0BE
:102470008030940709F425C1982F8091B10985FF18
:10248000FCCF9093B0098091200384608093200357
:102490008091250380FFFCCF9093390327C121331E
:1024A000310509F023C10E942F0251E080309507C9
:1024B00009F407C1982F8091B10985FFFCCF909353
:1024C000B0098091200388608093200380912503C8
:1024D00081FFFCCF90933B0309C10E942F028C0126
:1024E00061E08030960709F4ECC08091B10985FF66
:1024F000FCCF0093B0090E942F029C017C0181E077
:102500002030380709F4DDC08091B10985FFFCCF88
:102510002093B009902F8827820F931FE3E388331D
:102520009E0731F1F3E389339F076CF421E3823393
:10253000920741F131E389339307B9F08153914315
:1025400009F0BFC01BC055E387339507A1F069E3CD
:102550008633960739F08853944309F0B2C02DEFC3
:102560003CE00EC02DE333E00FC029E333E008C0A8
:102570002CEC30E009C027E830E006C023E830E06A
:102580004DEF03C027E03AE14EEF8091ED238093B9
:10259000EE23F40126834295407F832F992787FD00
:1025A0009A95482B4783A2C00E942F028C01F1E02C
:1025B00080309F0709F485C08091B10985FFFCCF69
:1025C0000093B0090E942F026C017C0121E0803051
:1025D000920709F476C08091B10985FFFCCFC092C3
:1025E000B0090E942F02AC0131E08030930731F432
:1025F0000E94CF02E12C11E0F12E78C0382F80919B
:10260000B10985FFFCCF3093B0098091B10985FFF6
:10261000FCCF902F88278C0D9D1D3093B009209101
:10262000ED232093EE23F40186833295307F892FAA
:10263000990F990B382B37837A0158C00E945902A1
:1026400055C08091ED239091EE23891B282F809116
:10265000B10985FFFCCF822F8F5F8093B009822F55
:1026600090E09C0113C0E091EE23F0E0E551FD4DB8
:1026700092818091EE238F5F8093EE238091B10948
:1026800085FFFCCF9093B0092150304012161306FD
:1026900054F32CC00E942F026C01F1E080309F07A0
:1026A00081F08091B10985FFFCCFC092B00900E0B4
:1026B00010E019C00E942F027C0121E080309207B7
:1026C00019F40E94CF0212C0982F8091B10985FFA2
:1026D000FCCF9093B0098091A10885FFFCCF909327
:1026E000A0080F5F1F4F0C151D0520F380E090E040
:1026F000A0E0B0E004C089819A81AB81BC812981CE
:102700003A814B815C8121583B45444052400CF05A
:10271000C7C934CA97FB092E07260AD077FD04D013
:102720000CD006D000201AF4709561957F4F089563
:10273000F6F7909581959F4F0895AA1BBB1B51E119
:1027400007C0AA1FBB1FA617B70710F0A61BB70B21
:10275000881F991F5A95A9F780959095BC01CD01C6
:062760000895F894FFCF7C
:00000001FF
